:1000000000000320D101000079CC020035CC0200B1
:1000100035CC020035CC020035CC020035CC0200D4
:1000200035CC020035CC020035CC020079CC020080
:1000300079CC020035CC020069C302006DC3020016
:1000400079CC020079CC02009D8601002146010096
:1000500079CC020079CC020079CC020079CC020084
:1000600079CC020079CC020079CC020079CC020074
:1000700079CC020079CC020079CC020079CC020064
:1000800079CC020079CC020079CC020079CC020054
:1000900079CC02003109FF1F79CC020079CC020033
:1000A00089B5020095B5020079CC020079CC020036
:1000B00079CC020079CC020079CC020079CC020024
:1000C00079CC0200BDDC020079CC020079CC0200C0
:1000D00079CC020079CC020079CC020079CC020004
:1000E00079CC020079CC020079CC020079CC0200F4
:1000F00079CC020079CC020079CC020079CC0200E4
:10010000D1C50200E9C5020001C6020019C60200FD
:1001100079CC020019E0020079CC020079CC02000F
:1001200079CC020079CC020079CC020079CC0200B3
:1001300079CC020079CC020079CC020079CC0200A3
:1001400079CC020079CC020079CC020079CC020093
:1001500079CC020079CC020079CC020079CC020083
:1001600079CC020079CC0200A1B5020079CC020062
:1001700079CC020079CC020079CC020079CC020063
:1001800079CC020079CC020079CC020079CC020053
:1001900079CC020079CC020079CC020079CC020043
:1001A00079CC020079CC020079CC020079CC020033
:1001B00079CC020079CC020079CC020079CC020023
:1001C00079CC020079CC020079CC020079CC020013
:1001D0005C4B4CF2205210B5DA814DF62812DA81D0
:1001E00000BF00BF2BF02AFE574B4FF030621A635E
:1001F000564A9A63564ADA634FF0E0234FF470028E
:10020000C3F8882D03F5E823524A1A60524B9A78B6
:10021000110703D59A7842F008029A704F4B504864
:10022000AA221A704F4BDA1C121AC11E22F00302C6
:10023000994288BF00224C492CF028FC4B4B4C487B
:10024000DA1C121AC11E22F00302994288BF002252
:1002500000213DF0E7F8474947484FF4E8722CF099
:1002600015FC464B464A802103F8011B9342FBD103
:100270004FF0E023404AC3F8082D424B8A221A70FF
:10028000A3F5805324225A70A0221A709A799207FB
:10029000FCD59A79D406FCD43B4B9A7902F00C0237
:1002A000082AFAD101221A7148225A719A799006C5
:1002B000FCD5354A93795906FCD5234B334959640B
:1002C0000221996420211170917901F00C010C290F
:1002D000FAD12F4A5A602F4A136913F4807303D15D
:1002E00053614FF4A85313614FF0E0234BF67F3274
:1002F0005A6100229A6107221A61274AC3F8202D09
:1003000062B62CF0B5FF234B5B69DA0705D52348AD
:100310002CF0A2FF224B234ADA61234B1B785B06A9
:1003200009D51F4C1F4BE2699A4204D11B482CF09F
:1003300093FF0023E3612CF0A3FC3DF09FFC2CF025
:100340009DFBFEE70020054000800440823F040042
:100350000100002B0300008500D0074000E00740AB
:100360003009FF1F3835FF1F30FC0600646DFF1F8A
:100370003835FF1F000000000004FF1F00E400E00C
:1003800064E400E000500640004006400000131105
:10039000C010050000D003400000202041A37F646E
:1003A00000E00340A5C3945A00F00740FFFFFFFFA1
:1003B000FFFFFFFFFFFFFFFFFFFFFFFFFFFFFFFF4D
:1003C000FFFFFFFFFFFFFFFFFFFFFFFFFFFFFFFF3D
:1003D000FFFFFFFFFFFFFFFFFFFFFFFFFFFFFFFF2D
:1003E000FFFFFFFFFFFFFFFFFFFFFFFFFFFFFFFF1D
:1003F000FFFFFFFFFFFFFFFFFFFFFFFFFFFFFFFF0D
:10040000FFFFFFFFFFFFFFFFFFFFFFFFDEF9FFFF23
:100410000548064B1B1AD90F01EBA301491002D066
:10042000034B03B1184770473835FF1F3835FF1F9E
:100430000000000008B5054B1BB105490548AFF3A6
:100440000080BDE80840FFF7E3BF00BF00000000E8
:100450003835FF1F58F90600438E018DB0F938205A
:10046000B0F93AC00B44B0F92E104386B0F93030E1
:100470008A42A8BF0A466345B8BF6346B0F92A104E
:100480004387B0F9343002878B4202DA838D81864C
:10049000C3867047B0F96630002B31DDB0F874C008
:1004A000B0F87610B0F8682063441144B0F86AC020
:1004B000B0F87820A0F8743002EB0C03B0F97E207D
:1004C000B0F970C0A0F878306245B0F97230A0F889
:1004D0007610A8BF6246B0F980C0B0F96C10A0F8E1
:1004E0007E206345B8BF6346B0F97AC0A0F880307B
:1004F0008C4505DAB0F86E30A0F87A10A0F87C30A0
:10050000704700BFB0F924302DE9F041B0F9266002
:1005100003F1010EB64540DA01EB830502EB830CD3
:100520001F4B1C880021DCF80020674612B25CF8E3
:10053000043FBF68D5F80080002A1BB2B8BF524202
:100540001FFA88F8002B92B2B8BF5B4242459BB2BB
:1005500005F104080CD86A6892B293423FB207D8FA
:10056000002FAA68B8BF7F42BFB292B297420DD99E
:10057000D0F898200A44B2F9066095889E42B8BF28
:100580001E466319D6809380B0F926600EF1010EE5
:100590007645454601F10801C5DCBDE8F08100BFA4
:1005A0005035FF1F2DE9F041B0F92430B0F926E0B5
:1005B000734542DC2249002219440EF1010E904697
:1005C0001646174608E0A642B8BF264698460133AD
:1005D0009E4502F1080219D011F8014B002CF6D10A
:1005E000D0F89850C46805EB020CBCF90450A54241
:1005F000EDDBBCF90640B4424FF00107E3DC013308
:100600009E454FF0010702F10802E5D1AFB1B0F904
:100610003830428E4345A8BF434601320387B0F9C4
:100620003A304286B0F934204345B8BF4346B2421F
:100630004387BCBF8686A0F83680BDE8F08100BF46
:100640005C55FF1FB0F924302DE9F04FB0F926B00A
:100650005C1CA34540F3828002EB830C01EB830119
:100660003F4BD0F898501F884FF0000E0126F046FF
:1006700016E001F1040905EB0E0205F80E60B2F96F
:1006800006109942B8BF19469388D1803B449380A5
:10069000B0F926B00134A34549460EF1080E5DDDE0
:1006A000DCF80020E14612B25CF8043FD9F808A05B
:1006B000D1F80090002A1BB2B8BF524292B2002B70
:1006C0001FFA89F9B8BF5B424A459BB2D1D84A6844
:1006D00092B2934201F10409CDD80FFA8AFABAF125
:1006E000000F8A68B8BFCAF1000A1FFA8AFA92B2EC
:1006F0009245C0D815F80E3005EB0E02002BC9D07C
:10070000B2F90410C368994218DB0369994215DCF9
:10071000D0F89C3003F80E607344B3F904A051453F
:10072000B8BF51469980B2F906A0B3F906105145F9
:10073000B8BF5146D980598801315980A2F802804A
:10074000A2F80680A2F80480B0F926B082F80080F2
:100750000134A34549460EF1080EA1DCBDE8F08F37
:100760005035FF1FB0F92430B0F926C0634536DCA0
:100770001B490022F0B519440CF1010C17469646AE
:10078000164611F8014B6CB9D0F89C40A55C144496
:1007900045B1B4F9064074452E4603DDA645B8BF01
:1007A000A6461F4601339C4502F10802E9D1AEB1CD
:1007B000B0F93830428EBB42A8BF3B4601320387B6
:1007C000B0F93A304286B0F93420BB42B8BF3B465C
:1007D00072454387BCBFA0F834E0C786F0BD7047C0
:1007E0005C55FF1F704700BF10B5A82104462CF0D0
:1007F000A1FA204610BD00BF38B500F158050446E7
:100800000E22294666302CF041F90E22002128469E
:100810003CF008FE4FF48063A4F8623038BD00BF9E
:1008200038B500F1740504460E22294682302CF0BA
:100830002DF90E22002128463CF0F4FD4FF4806390
:10084000A4F87E3038BD00BF2DE9F047054600F121
:10085000940A17460E460A22002150463CF0E2FD5B
:10086000B5F92640B5F92480444571DBDFF80091E5
:1008700007EB840706EB840608F1FF38002119E036
:10088000D9F800201D2ADCBF0132C9F8002022B2AD
:10089000002961D1A5F89420A5F89620A5F89A30F2
:1008A000A5F89C200121013C4445A7F10407A6F1CD
:1008B000040634D03B6832681BB2002BB8BF5B42E1
:1008C0009BB292B29342DBD80029ECD0B5F99630B6
:1008D0001A1B042A3EDDB5F99410B5F9A200CA1A14
:1008E000013290420DDAA5F8A030B5F89A30A5F89B
:1008F000A430B5F89C30A5F89E10A5F8A220A5F864
:10090000A63000210A225046013C3CF08BFD4445B4
:100910004FF00001A7F10407A6F10406CAD1B9B14E
:10092000B5F99410B5F99620B5F9A2008B1A0133E8
:1009300098420DDAB5F89A00A5F8A020B5F89C20E9
:10094000A5F89E10A5F8A230A5F8A400A5F8A62049
:10095000BDE8F0870121A6E7B5F99A00A5F8962031
:100960009842F7DAA5F89A30A5F89C209BE700BFDB
:100970006857FF1FF8B58D0A07EE905AF8EEE76A40
:10098000DFED407A9FED407ADFED405A87EEA66AB0
:1009900004463F4884F8923001603E493E4B0D606A
:1009A00094463E4904F1040E40F2FF174FF480656F
:1009B000C7EE267A0E2685EEA67ABDEEC66ABDEE95
:1009C000C77A16EE102AFDEEE77A0A8017EE101AA3
:1009D000334A9FED347A118017EE902A1A80BCE8D2
:1009E0000F00AEE80F009CE80F008EE80F00D4ED7A
:1009F000077A94ED066A226867EE877A26EE076A20
:100A000087EEA67AD2682046C6EE267AF6EE005A1F
:100A100037EE657A77EEA57ABDEEC77AFDEEE77A16
:100A200017EE103A1BB2BB42A8BF3B46E38417EE59
:100A3000903A1BB223EAE373A38490470A22002171
:100A400004F132003CF0EEFC32460021258704F12F
:100A50003C003CF0E7FC32460021A4F8465004F18B
:100A600058003CF0DFFCA4F862503246002104F14B
:100A700074003CF0D7FC0023A4F87E50A4F890301A
:100A8000F8BD00BF0070944700F8A747005CC1475D
:100A90005855FF1F6057FF1F6457FF1F6657FF1F02
:100AA0005435FF1F00007A44B0F89030B0F932108E
:100AB000026A01331BB2914210B50446A0F890308F
:100AC0002ADB828F01210A44052B8287A0F840107F
:100AD00005DDC38F00220B44C387A0F89020B4F932
:100AE0004620B4F93800B4F94810B4F93A308242DB
:100AF000A8BF02468B42B8BF0B46B4F94200B4F916
:100B00003410A4F846208842A4F8483004DAE38E72
:100B1000A4F84210A4F844300A22002104F1320063
:100B20003CF080FC4FF48063238710BD30B500F1AA
:100B30003C0585B004460E2229464A302BF0A6FF1C
:100B40000F4B1B781BB1B4F93C30002B0ADC0E2292
:100B5000002128463CF066FC4FF48063A4F8463040
:100B600005B030BDB4F93E20B4F9401003910291B4
:100B700001920092034904481A462BF089FDE6E7EA
:100B80005C57FF1F004D0400C02DFF1F10B5044629
:100B9000D0F89800034B236008B12CF0C9F8204628
:100BA00010BD00BF804D040010B50446D0F8980079
:100BB000054B236008B12CF0BBF820469C212CF09B
:100BC000B9F8204610BD00BF804D040010B50446A2
:100BD000D0F89C00054B236008B12CF0A9F8D4F89C
:100BE000980008B12CF0A4F8204610BDF84D040080
:100BF00010B50446FFF7BEFEB4F92420B4F9263040
:100C00009B1A0133B3F1805FC4F8943034BFD8002D
:100C10004FF0FF302CF088F8D4F89420C4F89800F6
:100C2000D200BDE8104000213CF0FCBB10B50446EA
:100C3000FFF7A0FEB4F92430B4F92600C01A013041
:100C4000B0F1805FC4F8940034BFC0004FF0FF30B3
:100C50002CF06AF8D4F89430C4F89800B3F1805FAF
:100C600034BFD8004FF0FF302CF05EF8D4F8942059
:100C700003460021D4F89800C4F89C30D2003CF020
:100C8000D1FBD4F89420D4F89C00D200BDE81040E9
:100C900000213CF0C7BB00BF144B1B7823BB144A98
:100CA000B0F9A23012689FED136AD0ED056A02FB1D
:100CB00003F307EE903AF8EEE77A87EE867AF4EEE1
:100CC000C76AF1EE10FA0FD8038DB0F8A0C0B0F8E3
:100CD0009E10B0F8A420A0F82EC001330385B0F810
:100CE000A630018642858385704700BF5D57FF1F90
:100CF0006057FF1F00007A44B0F94A20002A37DD10
:100D0000B0F858101D4B0A441B7812B210B50446B7
:100D1000A0F858206BBBB4F85A00B4F84C30B4F8C3
:100D20005C10B4F84EC0B4F9622018446144A4F8D1
:100D30005A00B4F95400B4F96430A4F85C10B4F962
:100D400056108242A8BF02468B42B8BF0B46B4F988
:100D50005E00B4F95010A4F862208842A4F8643010
:100D600005DAB4F85230A4F85E10A4F8603010BD73
:100D70007047034903482BF08BFCCCE75C57FF1FFF
:100D80004C4D0400C02DFF1F10B50446D0F89C0048
:100D9000074B236008B12BF0CBFFD4F8980008B1C3
:100DA0002BF0C6FF2046A0212BF0C4FF204610BD2B
:100DB000F84D040038B54FF4805204460021104825
:100DC0003CF030FB0A254FF4805200210D483CF0E6
:100DD00029FB2A46002104F128003CF023FB4FF4B4
:100DE00080632A460021E38504F194003CF01AFB5D
:100DF0002A4604F19E000021BDE838403CF012BBB9
:100E00005845FF1F5835FF1F10B54FF48052044658
:100E100000210F483CF006FB4FF4805200210D48A2
:100E20003CF000FB0A22002104F128003CF0FAFA11
:100E3000D4F898004FF48063E38538B1D4F8942057
:100E40000021BDE81040D2003CF0ECBA10BD00BF5C
:100E50005845FF1F5835FF1F10B54FF48052044608
:100E6000002113483CF0DEFA4FF480520021114873
:100E70003CF0D8FA0A22002104F128003CF0D2FA12
:100E8000D4F898004FF48063E38578B1D4F89420C7
:100E90000021D2003CF0C6FAD4F89420D4F89C008B
:100EA000D200BDE8104000213CF0BCBA10BD00BF2C
:100EB0005845FF1F5835FF1F3F4BB3F90030B3F5BE
:100EC000007F77DA2DE9F04F3C4A3D4CB2F900A0A3
:100ED0003C4AB4F9008012683B4F83B008F1010826
:100EE000019292B200926FF040494FF0010B86469A
:100EF000984508BF534603EB0906B50051F8264054
:100F000005F1040C083551F80C2048595EF82660AC
:100F100024B2002C12B2B8BF6442A4B2002AB6B206
:100F2000B8BF5242B44292B228D85EF80C40A4B284
:100F3000A24223D800B200285EF80540B8BF404264
:100F400080B2A4B2A04219D817F833207AB107EBC7
:100F5000C304019DB4F90400A8424FEAC3021CDC9B
:100F60004FF000003A4407F833000020506001338E
:100F7000B3F5007FBCDB03B0BDE8F08F07EBC30027
:100F800007F833B0B0F90640A242B8BF2246C2808B
:100F9000009C828822448280E9E70C4D1544B5F913
:100FA00004608642DCDAA880E088E880074D05F816
:100FB00033B0D5E7704700BF6657FF1F5435FF1F9A
:100FC0006457FF1F5035FF1F5845FF1F5835FF1F3F
:100FD0002DE9F0470025DFF8E881744888F80050D3
:100FE0004FF4007229463CF01DFA714A714BB2F978
:100FF0000040B3F900A054454EDA6F4EDFF8AC91D3
:1010000040F2FF1702E00134A24541D036F93430F6
:10101000092BF8DD04EBD4756D106D422B19981E69
:101020000333BB42A8BF3B4620EAE0701A1A834252
:10103000B8BF0022651B012148443CF0F3F9A81E0B
:101040000335BD42A8BF3D4620EAE0702A1AA842F7
:10105000C8BF0022012148443CF0E4F96300B3F525
:10106000007FC8BFC3F58063981E0333BB42A8BF8F
:101070003B4620EAE0701A1A9842C8BF00220121BC
:10108000484401343CF0CEF9A2454FF00105BDD1F2
:1010900015B1012388F80030484BB3F90040B4F58E
:1010A000007F5DDA0325444EDFF800A105EB44051F
:1010B000002240F2FF1905E00134B4F5007F05F18C
:1010C000020549D036F93430092BF5DD1AF8043021
:1010D000002BF1D104EBD4777F107F423B19981E8F
:1010E00003334B45A8BF4B4620EAE0701A1A8342EF
:1010F000B8BF002201215044E71B3CF093F9B7F53B
:10110000007F3ADAB81E20EAE07003374F45A8BFE7
:101110004F463A1A8742B8BF0022012150443CF0A2
:1011200081F96300B3F5007F1CDA681F20EAE070E4
:101130002B464B45A8BF4B461A1A8342B8BF002224
:101140000121504401343CF06DF9B4F5007F4FF0BB
:10115000010205F10205B5D112B1012388F8003072
:10116000BDE8F087C5F580630333B3F5007F13D185
:1011700040F2022340F2FD10DBE7B7F5007F04D117
:1011800040F2022740F2FD10C0E7C7F57F70C7F5B7
:10119000806702300337B9E7C5F580600130C5F5D7
:1011A000806320EAE0700633C3E700BF5C55FF1F91
:1011B0006657FF1F6457FF1F5C35FF1F5435FF1F25
:1011C0005D57FF1F054A0649016010B404241460EE
:1011D00000225DF8044BC0F8982070475035FF1F7F
:1011E000804D040030B4064C0649016000220425FD
:1011F0002560C0F8982030BCC0F89C20704700BF24
:101200005035FF1FF84D0400024A034B03600421D0
:10121000116070475035FF1FBC4D0400012070471E
:1012200038B504464DF6AC302BF07CFD034905463D
:10123000022217F019FFE56438BD00BF3858FF1FC0
:1012400010B50446806F054B236008B12BF070FD8C
:1012500020460CF02FFD204610BD00BF684F040053
:1012600010B50446806F074B236008B12BF060FD7A
:1012700020460CF01FFD2046C8212BF05BFD2046C8
:1012800010BD00BF684F04002DE9F041544F55498F
:101290003B682DED028B054688B003F1080025F070
:1012A0002FFBD5ED078AD5ED087AF4EEE78AF1EE4B
:1012B00010FA42D5DFF8388118EE900A36F03CFE7D
:1012C00002460B4605A841463BF086FD95ED098A8E
:1012D000386828EE888A05A9BDEEC88A083025F04E
:1012E00043FB18EE103A3E682A78A6F8BA209CB262
:1012F00000EBD073A4EB6303A6F8B83005A83CF06C
:101300001FFF336802465B6805A9304698472A7874
:10131000386802F10803009306322346214608305C
:1013200025F002FC95ED067AD5ED087A78EE878AED
:10133000F4EEE87AF1EE10FABEDC38682A492B4C5C
:10134000083025F0DDFA2A7838682B8E09320092B1
:10135000A98D083025F0E8FB2A78AB8D386802F1BA
:101360000801083000910632194625F0DDFB2A7885
:101370002B8E386802F108010830009106321946B8
:1013800025F0D2FB2A783868E9682B8A009301910E
:1013900010230D320021083024F0A4FA23680393AF
:1013A000AA68039B9A4204D308B0BDEC028BBDE847
:1013B000F081E9686A6B01F11000103A3BF0B6FF6A
:1013C000E868102200213CF02DF823680493049A69
:1013D0006B681344AB6008B0BDEC028BBDE8F081D4
:1013E000B05CFF1F782C05002C3A05006868FF1FD1
:1013F000384E04002DE9F04194B090F8B150044605
:1014000024F084F8854240F0F68005A9E06C009154
:1014100003AB04AA04F1B40117F0C6FBE368D86972
:1014200003680121DB688171342200219847E36C55
:1014300003F5004393F85C3003F0FF01002B00F04C
:101440002081636E022B1CBF02236366E3680121C7
:10145000586828F061FBE06C17F00CF9A066236E69
:101460000399049A8B4210DA07EE902A94ED2E7AB3
:10147000F8EEE77AB4EEE77AF1EE10FA05D8B4EEBA
:10148000677AF1EE10FA00F02181AC4DD4F8A41087
:101490002A680792079A91423AD3013B2366E06C8F
:1014A00000F5004200F51641138A528A9BB292B2AF
:1014B000934201F12C0100F33E8103F5164C0CF12F
:1014C0002B0C9F4E9F4F84440DF1340E06E000F527
:1014D00000420133528A92B29A423ADB1CF8011F51
:1014E000F26C9142F3DB97E8030003F007028EE809
:1014F00003005032A06F4FEAE3086A44414612F8F5
:101500001C2C10F8088042EA08024254E06CDEE726
:1015100094ED167ADFED8C7AE268B4EEE77A6FF03C
:101520007703F1EE10FAE36544BF884BA3652B689F
:101530000893089BD06803F59C530833C4F8A43083
:10154000002128F0E9FAE3680021186928F0E4FA9C
:10155000A5E700F516412C3180227D4F0846002179
:101560003BF060FF04F16C00FFF78EFE38687949AC
:10157000083025F0C5F93868726B4F23C0F8B830D1
:101580000368012A5B6800F09D80022A00F09780C2
:10159000002A7CD070490322984738686F4BC0F806
:1015A000B83003686E495B680322984738686D4914
:1015B000083025F0A5F903F01DFB48BB2B68099303
:1015C000099BD4F8A8209A4212D2674B5878002879
:1015D00061D103F091F9002866D02B680C930C9B25
:1015E00003F5EA433033C4F8A830012003F014F9BE
:1015F00014B0BDE8F08123F089FF94F8B05084F86E
:10160000B100002D00F08480013D84F8B050FCE66C
:10161000D4ED127A5549FDEEE77AB02317EE902A01
:101620000DA83BF0D9FB3E68514BC6F8B8300DA869
:101630003CF086FD336802465B6830460DA998474A
:10164000D4ED107AFDEEE77AB1EE047AF8EEE76AAF
:10165000F4EEC76AF1EE10FAB0DD17EE902A4549B4
:101660000DA83BF0B9FB3E68434BC6F8B8300DA857
:101670003CF066FD336802465B680DA9304698472A
:101680009CE7E3686166586828F046FAE7E63B495C
:101690000222984781E73A4B1B78002B2ED002207C
:1016A00003F02AF9002898D1364926F0C5FC01201C
:1016B00003F022F92B680B930B9B7D3393E73249A0
:1016C00098476AE731490222984766E71B4DE2686E
:1016D0002B680693069BD068E16503F59C5308339D
:1016E0002166C4F8A430C4ED167A012128F014FA5A
:1016F000E3680121186928F00FFAD0E6012003F011
:10170000FBF82B680A930A9B7D33C4F8A8306FE777
:10171000E3680121986928F0FFF9E3682946986891
:1017200028F0FAF9E36898680368DB69984784F859
:10173000C450656069E6024E0EE700BF6868FF1F8F
:101740003858FF1F2C4E0400CDCCCC3D0000204269
:10175000B05CFF1FB43205004C4E04004F00060081
:1017600094AC04002C3A0500C459FF1F504E0400ED
:1017700034000C00584E04004D000C00404E040094
:10178000B457FF1F604E0400484E0400444E04004E
:101790002DE9F84FD0E900890F4692466FF060417D
:1017A000A9EB0802B1EBA20F58D09310012B1A46F7
:1017B00038BF01229C1806464CD2A7EB0805A34669
:1017C000002C3DD1DAF800304BF80530002D26DC36
:1017D000A9EB07090435B9F1000F5D4415DC4D4450
:1017E000B8F1000F05D1C6F800B07560B460BDE86F
:1017F000F88FB168A1EB080140462BF09BFAC6F8C0
:1018000000B07560B460BDE8F88F284639464A4696
:101810002BF03CF94D44B8F1000FE4D0E9E72A463B
:10182000A9EB0709414658463BF080FD0435B9F164
:10183000000F5D44E9DCB1684D44A1EB0801DBE732
:101840008C4228BF0C46A40020462BF06BFA83463E
:101850000444B7E7034CA7EB0805F5E702482FF06F
:10186000A5F800BFFCFFFF7F784E040070B504466A
:1018700088B00DF023FEA34BA34AC4F89020C4F80F
:101880008430C4F8883014221E23E26784F86C3058
:101890007F224BF6803300259C49C4F89C204FF4EE
:1018A000A0704FF07952C4F89430994BC4F88C3042
:1018B0002160C4F89850C4F88020C4F8A0002BF030
:1018C00033FA2946D4F8A020A0673BF0ABFD914B3A
:1018D00065661B680793079BA5666FF0770200217A
:1018E00003F57A734FF47A7020676367A165E26548
:1018F0002266D8202BF016FA1921092264234FF012
:101900000B0E8DE80E4001232A4604F164010646C1
:1019100029F0A4F9216963690696994204F10C053E
:1019200000F0C58041F8046B2161E0202BF0FAF94A
:1019300015230593602304930123039340F2E733B7
:101940000293002204F16803734900930192734BE0
:10195000064628F0E7FC216963690696994200F083
:10196000AB8041F8046B2161E0202BF0DBF90C2304
:1019700005936B4B0093032303936323002202938D
:101980000523684901930492674B064628F0CAFC78
:10199000216963690696994200F0938041F8046BCF
:1019A0002161E0202BF0BEF915230293002204F1FF
:1019B00058035E4900939FED5E1A5E4BDFED5E0AB1
:1019C0000192B2EE040A064628F0F0FC2169636930
:1019D000069699427AD041F8046B2161E0202BF001
:1019E000A1F91523059336230493012303936FF084
:1019F000270302936FF07703019304F15C034F49CF
:101A0000009300224E4B064628F08CFC2169636946
:101A1000069699425FD041F8046B2161D4202BF0E7
:101A200081F964234FF0010CCDE9003C45490823BE
:101A30001822064629F050F92169636906969942F1
:101A40004ED041F8046B2161D8202BF06BF90022B5
:101A50000C233D49029301923C4B0092064628F02C
:101A6000CFFE21696369069699423ED041F8046B26
:101A70002161E8202BF056F96FF0310303936FF0EA
:101A80007703029300230193009304F1B401082328
:101A90004B22064629F05AF9216963690696994254
:101AA00028D041F8046B2046216108B070BD06AA19
:101AB0002846FFF76DFE38E706AA2846FFF768FEBE
:101AC00052E706AA2846FFF763FE6AE706AA2846F9
:101AD000FFF75EFE82E706AA2846FFF759FE9DE75C
:101AE00006AA2846FFF754FEAEE706AA2846FFF7E7
:101AF0004FFEBEE7284606AAFFF74AFE204608B07A
:101B000070BD00BF0000A040ABAAAA40684F04000F
:101B10000000C0416868FF1F2C4F0400FC0CFF1F31
:101B20009058FF1F304F0400F413FF1F104F0400A4
:101B3000CDCCCC3DCC0CFF1F0000F042184F040070
:101B4000EC0CFF1FC057FF1F204F0400DC0CFF1FD1
:101B5000F0B5044685B0824E824F002525F05CFD2D
:101B6000012386F83C3086F8505086F8455035649D
:101B7000B563204684F8C45084F838500DF060FEF8
:101B8000E3683D2284F8B1201A6858681572294626
:101B9000057227F0C1FFE3689A681572DA6815725A
:101BA0001A6915729A691572626B294653F82200F8
:101BB00028F06EF8E3682946986827F0ADFFD6ED67
:101BC000197A9FED697A3A68039267EE877A039AE9
:101BD00084F8B050FDEEE77A284617EE903A1344A9
:101BE0006367C4ED1C7A02F087FE3B680293029B98
:101BF000716B03F5EA43013930330229C4F8A83088
:101C000077D85A4A5A4B52F8212053F821301046BF
:101C1000150AB16999424DDD0121DFED565AF36194
:101C2000B1615549C4F894008A424ED053498A4262
:101C300000F083804BF680318A426BD0D4ED247A59
:101C40009FED495AC4ED2E5A07EE103AB8EEC77A06
:101C500067EEA56A87EE056AC4F8AC504848494D5E
:101C6000FDEEE66A67EE867AC4ED266AFDEEE77A57
:101C700084ED2F6AC4ED277A02F074FFE26C02F55E
:101C800010420121D2F8082300922E782970920385
:101C90003D494FF40053002026F0CEF9E06C2E7041
:101CA0000368DB68984701F0CFFE0023C4F8A43036
:101CB00005B0F0BDF7699F4222DD2F49DFED2D5AB7
:101CC000F3618A42C4F89400B0D19FED307A304A73
:101CD000C4F88C204FF07B512E4AC4F880102E4956
:101CE00084ED247AF0EE477AC4F88410C4F8882092
:101CF000A6E745F6C0505D2542F6E063024688E758
:101D000007EE901A9FED187AF8EEE77A3B46C7EE99
:101D1000875A86E79FED217A1E4A84ED247A4FF098
:101D20007951C4F880101E49C4F88C10F0EE477A3F
:101D3000C4F88420C4F8882082E79FED1A7A164AF6
:101D40001949C4F88C104FF07D50C4F88000F0EEB3
:101D5000477A84ED247AC4F88420C4F888206FE799
:101D60003858FF1F6868FF1F00007A44F84E0400CF
:101D7000044F04006F12833A0077010000EE020066
:101D80003C4F04009927FF1F944E0400ABAA2A4041
:101D9000000040420000A04000002041ABAAAA4041
:101DA0000000C041ABAAAA3F0000C04210B50446E3
:101DB00001F084FE2368084A5B69934204D12046FF
:101DC000BDE810400BF08CBF204698472046BDE888
:101DD00010400BF085BF00BF1D1200004B1E70B5F8
:101DE0000446062B23D8DFE803F004043522225AE8
:101DF000250090F8C450002D65D10322C36880F8F7
:101E0000B0200126986984F8C460294627F084FE32
:101E1000E3683146986827F07FFEE36898680368B6
:101E20009B699847022363636660284670BD00255E
:101E3000284670BD456E002D34D1C06C00F50043BE
:101E400093F85C30002BF3D103689B699847022319
:101E50006366EDE790F8C450002DE9D0C368986838
:101E600003685B699847E36898680368DB6998478B
:101E7000E3680121986927F04FFEE368002698681F
:101E8000314627F049FEFF23E06C84F8C4603546F4
:101E9000666084F8B03014F085FC284670BD0B25D0
:101EA000284670BD022DC2D1C06C00F5004393F8E6
:101EB0005C3003F0FF05002BBAD003680025DB6916
:101EC00098476566B4E725F015FE0323002584F8DE
:101ED000B030284670BD00BF10B5054B0360044606
:101EE0002BF0E4FB034B0422C3F88820204610BDEE
:101EF000D858040000F00F4010B5054B03600446AD
:101F00002BF0D4FB034B0422C3F88820204610BDDD
:101F1000D858040000F00F4000B5094B036083B0AF
:101F200001902BF0C3FB074B01980422C3F88820D3
:101F30004FF407712AF0FEFE019803B05DF804FB30
:101F4000D858040000F00F4000B5094B036083B07F
:101F500001902BF0ABFB074B01980422C3F88820BB
:101F60004FF407712AF0E6FE019803B05DF804FB18
:101F7000D858040000F00F4030B590F8733183B0AA
:101F8000044600F5C275ABB36B4601AA2649284644
:101F90003AF042FF28463CF0D3F86FF4C17C00F1E0
:101FA000FF3E04F28313ACEB040C002202E013F8B2
:101FB000011F4A400CEB03018E45F8DC2844012A3E
:101FC00010F8013C38BF012293421AD1019A012A2C
:101FD00008D8009B591E082904D8E2B102330A220E
:101FE00044F8232011492A46002003B0BDE83040C0
:101FF00026F022B80E496B4601AA28463AF00CFF9B
:10200000E4E70C492A4604F174003AF0E5FE0123A6
:1020100084F87431E6E704EB83039A680A2A1CBF4C
:102020000E229A60DEE700BFA04F0400DC4F0400E0
:10203000CC4F0400AC4F040038B5436890F87321CE
:102040000233052140F82310044600F134059AB10B
:102050001149042228462AF019FD94F81832A3B930
:1020600028463CF06DF8014628462BF0D7FCBDE829
:1020700038400A482AF0F4BA0949072228462AF0CB
:1020800005FD94F81832002BEAD0064906482A4686
:102090002AF0FEFAE4E700BF10500400CC2BFF1F2B
:1020A000145004001C500400C02DFF1F30B590F8E0
:1020B000733183B0044600F13405FBB117490422A3
:1020C00028462AF0E3FC94F8183203BB28463CF07B
:1020D00037F8014628462BF0A1FC11482AF0C0FA37
:1020E000104B11491B680193019B0020C833C4F8B1
:1020F0007C3103B0BDE8304025F09EBF0B4908227B
:1021000028462AF0C3FC94F81832002BDED0084988
:1021100008482A462AF0BCFAD8E700BF405004001D
:10212000CC2BFF1F6868FF1F685004004450040058
:102130004C500400C02DFF1F70B5072984B006D095
:10214000092904463CD006290BD004B070BD2A21D1
:1021500058482CF033FC584804B0BDE870402AF0D1
:102160007FBA456890F873210023B5FA85F58DF89C
:102170000B3003936D0900F5C27603AB002A43D1FF
:102180004E490DF10B0230463AF046FE9DF80B30F9
:10219000AB4240D0D4F80852092D04D04849002061
:1021A00025F04AFF0925474BC4F808521B680393E2
:1021B000039B03F58C531433C4F8043204B070BD90
:1021C00090F87361EEB900F5C27528463BF0B8FF90
:1021D000284404F5C57100F8016C084601913BF0F4
:1021E000AFFF01990A2884BF00234B7236483BF0A9
:1021F000E5FE354A3549304804B0BDE870402AF064
:1022000047BA00F28711E8E731490DF10B02304679
:102210003AF002FEBAE7039D002DC4DDD4F808327F
:10222000AB42C0D06B1E082B3CD801A252F823F061
:10223000552200009B22000091220000872200000E
:102240007D22000073220000692200005F2200004E
:102250009D2100001F49002025F0EEFEA3E71E4946
:10226000002025F0E9FE9EE71C49002025F0E4FE51
:1022700099E71B49002025F0DFFE94E7194900206B
:1022800025F0DAFE8FE71849002025F0D5FE8AE711
:102290001649002025F0D0FE85E71549002025F0DD
:1022A000CBFE80E7134933462A46002025F0C4FEC2
:1022B00079E700BF88500400C02DFF1FF8500400CC
:1022C000145204006868FF1F7057FF1FB4500400C9
:1022D000F050040004510400FC510400CC510400EF
:1022E0009C510400885104006051040038510400DE
:1022F0001C51040048520400012901D0FFF71CBF03
:10230000FFF73ABE70B5D0F80432554D8AB0044696
:1023100023B12A680192019A934220D3D4F814324F
:1023200023B12A680492049A93422ED3D4F87C31C4
:1023300023B12A680692069A934248D32B680793E2
:1023400094F81832079AC4F80C2233B12B6808931A
:10235000089BD4F810229A4256D30AB070BD2B685D
:102360000293029BD0F80C2240F6B8319B1A8B42A4
:102370005BD8D0F80832082B03D03A49002025F06A
:102380005BFE0823C4F80832C8E794F8733104F1FF
:102390003406002B52D03449042230462AF076FB12
:1023A0003246324932482AF073F930463BF0C8FED3
:1023B000014630462BF032FB2E482AF051F92B68AB
:1023C0000593059B03F57A73C4F81432AEE794F8CD
:1023D000733104F13406002B36D0274904223046ED
:1023E0002AF054FB94F81832002B33D130463BF0DE
:1023F000A7FE014630462BF011FB1E482AF030F9AB
:102400000023C4F87C3199E712211C482CF0D6FA3D
:1024100017482AF025F92B680993099B03F59C536B
:102420000833C4F810320AB070BD2B680393039BC5
:1024300013490F489A1A2AF02BF96FE7114907221E
:1024400030462AF023FBABE70F49082230462AF03A
:102450001DFBC7E70D49064832462AF019F9C5E7C2
:102460006868FF1FFC51040088520400D452040025
:10247000C02DFF1FCC2BFF1F40500400C052040092
:10248000645204008C52040044500400945204002E
:1024900030B5436800EB830185B08A68012A0446A1
:1024A00026D00B2A12D0092A3DD0236820469B69EA
:1024B00098470A28014603D023682046DB699847DD
:1024C000204605B0BDE83040FFF71CBFD0F878319A
:1024D000002BEAD0554A12680292029A9342E4D243
:1024E000002308228A60C0F8783180F81B32E7E7C1
:1024F0004F4AD2F89020920763D5D0F87821002A6D
:10250000DED04A490968019101998A42D8D290F8EF
:102510001822002A7BD102330621002244F823101E
:10252000C4F87821CCE7D0F87821002ABDD03F4903
:102530000968039103998A42B7D290F8731190F811
:102540001B2200F13405002956D03A4928463AF0BA
:1025500043FC28463BF0F4FD6FF0320C00F1FF3EE7
:1025600004F13303ACEB040C002202E013F8011F6A
:102570004A400CEB03017145F8DB2044012A38BFC7
:10258000012280F8332094F81832002B48D12846D5
:102590003BF0D6FD014628462BF040FA26482AF0AB
:1025A0005FF894F81B3263B3636802330A2244F87D
:1025B000232000202149C4F878012A4625F03CFD5B
:1025C0007EE790F8182272B90233002208212046D3
:1025D000C4F8042244F82310C4F8782105B0BDE8FB
:1025E0003040FFF78FBE1E2115482CF0E7F9154843
:1025F0002AF036F86368E7E7134928463AF0ECFB1F
:10260000C1E7636802330E2244F82320D1E7282172
:102610000E482CF0D3F90B482AF022F863687AE7C9
:102620000B4908482A462AF033F8B0E76868FF1FCC
:1026300000F00F4044530400CC2BFF1F90530400C4
:10264000F8520400C02DFF1F545304001853040017
:102650006853040038B590F83F3100220C4680F8EA
:102660004021002B33D00D78502D29D0532D0CD183
:1026700063784C2B72D0532D07D16378542B68D0DC
:10268000532D02D16378542B6DD0542120463AF05B
:102690003BFF844247D0532D02D16378542B67D03F
:1026A0002378452B02D16378532B66D0542D3CD12F
:1026B0006378532B39D1A378542B36D1072038BDFA
:1026C0004B78412BD2D188785238CFD138BD0B7896
:1026D000242B07D108463BF033FD204410F8013C81
:1026E000212B01D00B2038BD3549042220463AF079
:1026F00089FF0028E3D03349062220463AF082FFC2
:1027000078B33149072220463AF07CFF20B32F49A5
:10271000062220463AF076FF40B36578542D2ED13C
:10272000A378212B2BD1042038BD562D07D16378F7
:10273000452B04D1A378522B01D1082038BD244960
:10274000042220463AF05EFF00280CBF09200A2030
:1027500038BDA378412B93D1022038BDA378562BE6
:1027600089D1012038BDA3784F2B8ED1032038BDED
:10277000A3784D2B94D1052038BD062038BD1549CE
:10278000072220463AF03EFF0028F4D02378242B7D
:1027900004D1452D02D1A378532BEED00E49062249
:1027A00020463AF02FFF002888D00C490622204608
:1027B0003AF028FF0028C0D009490622C1E700BF2F
:1027C000CC530400D4530400DC530400E45304004D
:1027D000C4530400445004008C52040014500400FC
:1027E000EC53040038B5044601252BF0C3F980B141
:1027F0002BF0D4F9C3B2212B3BD0242B20D184F869
:10280000195284F88431C4F880512BF0B3F90028B0
:10281000EED194F81A32002B41D094F8183204F516
:10282000C275002B3DD1294604F13400FFF712FF99
:102830000023C4F8803184F8193284F81A3238BD84
:1028400094F81922002AD0D0D4F88021A11801329E
:10285000782A81F88431C4F88021C6DD2BF00AFA89
:102860000023C4F8803184F8193284F81A320A201F
:1028700038BD94F81922002AB7D0D4F88021224418
:102880000120002184F81A0282F8843182F885112F
:1028900094F8183204F5C275002BC4D001E00A2068
:1028A00038BDD4F88031034903482A4629F0F0FEA8
:1028B000B9E700BFF4530400C02DFF1F2DE9F0411C
:1028C00094B00C4605462AF0C1FC002122F080FE9F
:1028D00022F034FE0B9022F049FE0A9022F05EFEB8
:1028E000064622F0E3FD074622F0F8FD804622F07E
:1028F0000DFEA6F5FA660A9B0B9A03903C49CDF8AB
:102900000880019700960DA83AF066FA95F83F31D5
:10291000D4F87421002B4CD0D4F86C310893099270
:10292000D4F86821D4F8643106930792226C94F8A5
:10293000453004930592A26B236B02930392626A63
:10294000019204F10A0300932A49231D0DAA284687
:102950003AF042FA28463BF0F3FB2C4603460026A9
:1029600000F1FF3C2C2707E03A2A0ED095F83F21D2
:102970000AB1227856400134621B944528460BDD8B
:10298000227802F0FD012D29EED127703BF0D8FB13
:10299000034600F1FF3CE9E795F83F212AB12B44BB
:1029A000012E38BF012603F8016C284614B0BDE89B
:1029B000F081D4F86C3108930992D4F86821D4F8E6
:1029C000643106930792226C94F845300493059283
:1029D000A26B236B02930392626A019204F10A03D1
:1029E00000930549231D0DAA28463AF0F5F9B1E7F1
:1029F0001C5404003C5404006854040070B543683F
:102A000000EB83038AB09A68012A044663D0022A45
:102A10001AD0032A75D0236820469B6998470A2854
:102A20000CD023688E4ADB69934240F0F68001287F
:102A300000F0BB8001462046FFF77EFB20460AB02F
:102A4000BDE87040FFF75EBCD0F87831002BE2D0D3
:102A5000844D2A680392039A9342DCD22B68824AFF
:102A600004931168049B5B1A90F8181213600029F4
:102A700040F0D780216B04F13400FFF71FFF94F87A
:102A800018320646002B40F0D48036B130463BF079
:102A900057FB014630462AF0C1FF744829F0E0FD9B
:102AA00063680233032144F823102B680793079BC4
:102AB0002968069106986E4903F52F3303F548738C
:102AC00000F2DC50C4F87C013246C4F878310020B2
:102AD00025F0B2FAB2E7674AD2F8905015F0020535
:102AE0003ED0D0F87821002AA8D05E49096802912A
:102AF00002998A42A2D2062100229960C0F8782168
:102B00009CE703689B6998470A2852D02368544A77
:102B1000DB69934240F0A080012800F099800146D3
:102B20002046FFF709FB544B1878002886D0534BFA
:102B300004F10C0203F1090513F8011F19B1116822
:102B40000A2918BF0020AB4202F10402F4D1002888
:102B50003FF474AF63680233042244F823206DE726
:102B6000162147482BF02AFF464829F079FD636873
:102B70003C4AC4F8045202210B443B4844F8231059
:102B800013680193019B1268009294F81812009A3E
:102B9000026003F57A73C4F8783100293FF44EAF30
:102BA0003949384829F074FD48E72046FFF7E4F931
:102BB00044E7D4F8783173B12A4A12680892089A27
:102BC000934208D2636802330721002244F823109D
:102BD000C4F87821A7E7D4F87C31002BA3D0214A90
:102BE00012680992099A93429DD20023C4F87C315D
:102BF000216B04F13400FFF761FE94F818320546AA
:102C000003BB35B128463BF09BFA014628462AF023
:102C100005FF164829F024FD85E701462046984720
:102C20000CE72A680592059A1849164829F030FDE4
:102C300020E717491348324629F02AFD002E7FF479
:102C400025AF2AE713490F482A4629F021FDD8E786
:102C50002046FFF791F966E701462046984762E76C
:102C6000F92200006868FF1F8857FF1FCC2BFF1F49
:102C70001055040000F00F406C57FF1F7C57FF1FDA
:102C800094540400C02DFF1FAC540400BC54040035
:102C9000DC54040034550400F0B590F83F31A7B07F
:102CA0000C460646154623A9002B71D022AB0D9386
:102CB00021AB0C9320AB0B931FAB0A931EAB099374
:102CC0001DAB08931CAB07931BAB06931AAB059384
:102CD00019AB049318AB039317AB25AA029316AB59
:102CE0001092019324AA15AB0E91009397490F926D
:102CF00014AB13AA28463AF08FF828463BF020FA86
:102D00006B1E00F1FF3E0021C5F1010203E013F844
:102D100001CF81EA0C0102EB030CE645F7DC284405
:102D2000012910F8013C38BF01218B4258D1139A78
:102D3000209F531E1E2B149B6FD8591E0B29159DC7
:102D40005AD8A5F114014F291698DDF860C01799DB
:102D500056D8172854D83B2952D8BCF13B0F4FD82E
:102D6000CDE900351346624622F054FC22F048FBC0
:102D70002AF072FA199A1A9B172A01D83B2B52D9BA
:102D8000734906F140003AF027F8002027B0F0BD63
:102D900022AB0D9321AB0C9320AB0B931FAB0A938B
:102DA0001EAB09931DAB08931CAB07931BAB06939B
:102DB0001AAB059319AB049318AB039317AB25AA71
:102DC000029316AB1092019324AA15AB0E910093B7
:102DD0000F92604914AB284613AA3AF01DF8A6E7F3
:102DE0005D492A4606F1400039F0F6FF012386F8D6
:102DF0004031002027B0F0BDDDE91601DDF860C0EC
:102E0000029101905549CDF80CC0009506F14000A3
:102E100039F0E2FF002027B0F0BDDDE91601159D75
:102E2000DDF860C0ECE74E49201D39F0D5FF1B9A54
:102E30001C9B172A01D83B2B07D94A4906F14000B1
:102E400039F0CAFF002027B0F0BD454904F10A005F
:102E500039F0C2FF1D9B0A226262591E40F2E6321F
:102E600091426BD81E9A6362D31E0521022B216307
:102E700037D81F9B22630025042BA5634ED8219AC7
:102E8000A363003F18BF0127192A84F84570256401
:102E900020D8229B22645A1E0821312AC4F86411CA
:102EA00044D8239AC4F86431042AC4F868511FD85E
:102EB000249BC4F868210A2BC4F86C5126D8259AA3
:102EC000C4F86C31022AC4F8745118D8C4F87421BB
:102ED00001208FE7244906F1400039F07DFF2846A4
:102EE00088E7224906F1400039F076FF002081E7AB
:102EF0001F4906F1400039F06FFF28467AE71D4967
:102F000006F1400039F068FF284673E71A491A466F
:102F100006F1400039F060FF28466BE717491A4672
:102F200006F1400039F058FF284663E714491A4675
:102F300006F1400039F050FF28465BE711491A4678
:102F400006F1400039F048FF002053E770550400B7
:102F500050560400CC550400AC5504000C56040037
:102F6000049F04007C56040010570400CC56040053
:102F700068570400B857040090570400E85604004E
:102F80003C570400A456040070B5044682B069B1F1
:102F900005290D4638D090F81832002B4BD1294620
:102FA000204602B0BDE87040FFF7C6B890F818326E
:102FB00000F5C275002B52D1216B2A4604F1340072
:102FC000FFF76AFE002850D0012384F81B32236BE0
:102FD0002B49D3F874212B4829F05AFB2A4B6268FD
:102FE0001B680093911C009B092044F82100962146
:102FF00001FB02332549C4F878312A46002002B08B
:10300000BDE8704025F018B890F81832FBB91E4B97
:1030100062681B6801930232019B0B2144F8221065
:103020001B4903F57A730020C4F8783102B0BDE87B
:10303000704025F001B8174912482A4629F028FBAC
:103040002946204602B0BDE87040FFF775B8292137
:1030500011482BF0B3FC0B4829F002FBD7E70F49CE
:1030600008482A4629F014FBA6E704F17406304606
:103070003BF066F8014630462BF0A0FCA7E700BF06
:1030800010580400C02DFF1F6868FF1F345804004B
:1030900088580400AC5804005C580400E057040051
:1030A00030B5174B03600025044683B080F8735198
:1030B00080F874514560C0F808522822294608302B
:1030C0003AF0B0F90F4BC4F880511A680192019A96
:1030D0001B680093009BC4F8145203F59C530833FB
:1030E0002046A4F8185284F81A52C4F80C22C4F8E6
:1030F0001032C4F87851C4F87C5103B030BD00BF21
:10310000D85804006868FF1F4368023340F8231052
:10311000704700BF10B50446FFF7C2FF014B2360A4
:10312000204610BD28590400094A00F108034FF059
:10313000010C2C3053F8041F0A2908BF82F800C084
:10314000834202F10102F5D1024B01221A7070474D
:103150007D57FF1F6C57FF1F10B50446FFF7A0FFF8
:10316000034A2260002384F81B32204610BD00BFB2
:103170000059040010B504460B4682B06360226318
:103180000E484FF4964129F0F9F82AF073FD0C49E6
:103190000C4A00230420C4F8803184F8193284F8E2
:1031A0001A32C1F8840013680193019B03F58C5314
:1031B0001433C4F8043202B010BD00BFCC2BFF1F83
:1031C00000F00F406868FF1F30B50446174D1848DF
:1031D0000B464FF4005183B0A960636022634FF443
:1031E000964129F0CBF82AF045FD0023114AC4F896
:1031F0008031042184F8193284F81A32C5F8841019
:1032000013680193019B126861680092009A023171
:1032100003F58C531433012002F5FA62C4F804322A
:1032200044F82100C4F8782103B030BD00F00F400D
:10323000CC2BFF1F6868FF1F30B50446174D184898
:103240000B464FF4005183B06960636022634FF412
:10325000964129F093F82AF00DFD0023114AC4F895
:103260008031042184F8193284F81A32C5F88410A8
:1032700013680193019B126861680092009A023101
:1032800003F58C531433012002F6B832C4F804322B
:1032900044F82100C4F8782103B030BD00F00F409D
:1032A000CC2BFF1F6868FF1F00207047704700BFCE
:1032B00090F92410124B03604B1C1FD070B4114DB9
:1032C00055F82130834201D070BC70470E4E56F83D
:1032D000213043B14FEA810C002403EB0C02536808
:1032E0005460002BF9D1094A002346F8213045F8F3
:1032F00021301378013B137070BC7047704700BFDA
:10330000C87404000C68FF1FE867FF1F0968FF1FEF
:1033100070B590F924506B1C14D00B4A0B4B52F82B
:103320002540EDB21D706CB10E46AD0094F825300D
:103330002046314613B123681B6898472C446468C3
:10334000002CF3D170BD00BFE867FF1F0868FF1FA6
:10335000704700BF70B5094E094B327853F82240D0
:103360005CB10546236820469B6829469847337818
:1033700004EB83046468002CF4D170BD0868FF1F5F
:10338000E867FF1F054B186821B1054A1268012A3A
:1033900001D0012070470B221A6070476C67FF1F35
:1033A0003058FF1F054A13680133042BC8BF02239E
:1033B0001360034B18680368DB6918478C57FF1FBD
:1033C0009057FF1F10B5034B0360044624F028F903
:1033D000204610BD7878040010B5054B0360044604
:1033E00024F01EF920464C2129F0A4FC204610BDF3
:1033F0007878040010B5034B0360044624F010F9FC
:10340000204610BD7878040010B5054B03600446D3
:1034100024F006F92046502129F08CFC204610BDEE
:103420007878040010B5064B044640F8783B29F044
:10343000A9F8044B2360204624F0F2F8204610BD82
:10344000007804007878040030B583B0EFF310847E
:10345000B4FA84F46409E40172B6214D04232868A7
:103460000093002208231844114622F093FC6CB309
:1034700062B601202AF00CF872B6286804220823EC
:10348000009218440022194622F084FC2CB362B644
:10349000012029F0FDFF72B628680422082300925B
:1034A0001844002122F076FCACB162B6012029F06C
:1034B000EFFF72B6286808230422009218441946C8
:1034C00022F068FC24B162B603B030BD72B6D0E71A
:1034D00072B603B030BD72B6E8E772B6D8E700BF87
:1034E000B05CFF1F00B5836C83B08DF8071043B14B
:1034F00001220DF1070118461DF0CEFB03B05DF867
:1035000004FBC06C0028F9D001220DF107011BF06B
:1035100009FE03B05DF804FB00B5836C83B063B1B2
:1035200001220DF1070118461DF088F801280CD181
:103530009DF8070003B05DF804FBC06C28B10122C0
:103540000DF107011AF098FFF0E74FF0FF30F1E7B7
:10355000836C13B118461DF07FB9C06C08B11BF025
:1035600097B84FF0FF307047836C53B1187810F064
:1035700008000DD0D8695B69C01A48BF6FF00040E1
:103580007047C36CA3B193F8310010F0080000D16C
:103590007047186919685A695B68401A62EB03033F
:1035A000B0F1004F73F10003F2D36FF000407047A9
:1035B0001846EDE710B5084B044640F8783B28F074
:1035C000E1FF064B2360204624F02AF820468021A4
:1035D00029F0B0FB204610BD007804007878040084
:1035E000836C13B118461DF051BBC06C08B11BF0C1
:1035F00061BC704700B5036C83B08DF8071043B110
:1036000001220DF1070118461DF046FB03B05DF8DD
:1036100004FB406C0028F9D001220DF107011BF0DA
:1036200081FD03B05DF804FB836C13B118461DF0F7
:1036300033BBC06C08B11BF075BD704790F9241006
:10364000124B03604B1C1FD070B4114D55F8213044
:10365000984201D070BC70470E4E56F8213043B1ED
:103660004FEA810C002403EB0C0253685460002BDA
:10367000F9D1094A002346F8213045F82130137862
:10368000013B137070BC7047704700BFC8740400E2
:103690000C68FF1FE867FF1F0968FF1F90F92410DF
:1036A000124B03604B1C1FD070B4114D55F82130E4
:1036B000984201D070BC70470E4E56F8213043B18D
:1036C0004FEA810C002403EB0C0253685460002B7A
:1036D000F9D1094A002346F8213045F82130137802
:1036E000013B137070BC7047704700BFC874040082
:1036F0000C68FF1FE867FF1F0968FF1F70B5564D74
:1037000056492B6888B00022C3F8B8200446C26E20
:10371000684639F061FB2E6868463AF011FD33685F
:1037200002465B68694630469847304628F098FF65
:103730002B684FF41022C3F8B820226FB2F57A7FBD
:103740006FD9474B83FB0213D2174649C2EBA31232
:10375000684639F041FB2E6868463AF0F1FC336860
:1037600002465B68694630469847304628F078FF45
:103770002B683D494FF49012C3F8B8206846626F39
:1037800039F02AFB2E6868463AF0DAFC33680246C4
:103790005B68694630469847304628F061FF334AF7
:1037A000334B5268334853F82210D0F88034A26E5D
:1037B00004F14C06002B47D0DB79304639F00CFB86
:1037C000E36828681B682C49C3F8CC60083023F0F4
:1037D00097F8E36E27221E2BADF8002026D8236F22
:1037E00042F20F72934224D8636F132B26D8212301
:1037F0008DF800302C68214BC4F8B83068463AF098
:103800009FFC236802465B6869462046984720462D
:1038100028F026FF28681A49083023F071F808B00C
:1038200070BD1849684639F0D7FA94E73C2BE1D8C7
:10383000236F43F698229342DCD8636F322B9CBFF0
:1038400024238DF80030D5E7D0F88434002BB4D091
:1038500093F84434B1E700BFB05CFF1F485904003F
:10386000D34D62105859040078590400C857FF1FFF
:103870008418FF1FC85CFF1F2C6105005000020068
:103880002C3A050068590400002938D02DE9F04190
:103890000C4601EB82011D464E684FEA820C16B3BE
:1038A00006EB0C014F68B7B107EB0C01D1F80480AF
:1038B000B8F1000F07D0C444DCF80410FFF7E4FFB0
:1038C00098F82530E3B997F8253023B13B6838469E
:1038D0005B682946984796F8253023B13368294616
:1038E0005B683046984794F8253033B12368294601
:1038F00020465B68BDE8F0411847BDE8F08170479D
:10390000D8F8003040465B6829469847DBE700BF9F
:1039100090F92420531C7BD02DE9F04F8B46404971
:1039200051F8224083B0002C6FD0D2B204EB820554
:1039300091006D68002D5DD06E187668002E51D014
:1039400077187F68002F4AD007EB010CDCF8048061
:10395000B8F1000F3BD008EB010CDCF80490B9F192
:10396000000F2BD009EB010CDCF804A0BAF1000F1A
:103970001BD00AEB010CDCF804306BB11944019345
:1039800049685B46FFF780FF019890F825201AB13F
:1039900002685946526890479AF825202AB1DAF809
:1039A0000020504652685946904799F825202AB180
:1039B000D9F80020484652685946904798F8252083
:1039C0002AB1D8F80020404652685946904797F8E7
:1039D000252022B13A68384652685946904796F8F1
:1039E0002520B2B995F8252022B12A685946526897
:1039F0002846904794F825203AB1226853685946E2
:103A0000204603B0BDE8F04F184703B0BDE8F08F83
:103A1000704732683046526859469047E2E700BF27
:103A2000E867FF1F10B5044623F0A6FF0023044AF1
:103A300004492160A26423646364204610BD00BF72
:103A400000008C427878040010B54FF4FA421A4C0A
:103A50004FF0010C64214FF400304FF4836E0FE0FF
:103A6000013BFDD16060E2B11346013BFDD1B1F5F0
:103A70007A7F16D9A03AB2F57A5F0CF1010C16D014
:103A80000EFB01F3B1F57A7FA0604FEA1343E7D94B
:103A90005FEA0C1301D0013BFDD16060002AE3D145
:103AA000E8E7A03AB2F57A5F01F16401E8D1024B90
:103AB0004FF400329A6010BD00F00F40024B4FF4FB
:103AC00000325A60704700BF00F00F402DE9F84FF8
:103AD000524C534EDFF870B1DFF870A13168C4F872
:103AE00088B00123A3670423E36708230325C4F8F0
:103AF000803004F174004B4BC4F88430C4F88CA0BF
:103B0000C4F890503AF05AFA474BC4F8A830474BE3
:103B10007168C4F8AC304FF060084FF07E574FF03A
:103B20000209202304F19400C4F89C30C4F8989052
:103B3000C4F8B050C4F8A080C4F8A4703AF03EFABB
:103B40003B4AC4F8C8203B4AB168C4F8CC2004F111
:103B5000B4001822C4F8B890C4F8BC20C4F8C080DF
:103B6000C4F8C470C4F8D0503AF028FA324AF16868
:103B7000C4F8E8202023314AC4F8EC2004F1D40032
:103B8000C4F8D890C4F8DC30C4F8E080C4F8E4701D
:103B9000C4F8F0503AF012FA2023C4F8FC30284B55
:103BA0003169C4F8083104F1F400264BC4F8F890E8
:103BB000C4F80C314FF00C09C4F80081C4F804714A
:103BC000C4F810513AF0FAF97169C4F828B1002329
:103BD00004F58A70C4F81831C4F82CA1C4F8208107
:103BE000C4F82471C4F83051C4F81C913AF0E6F9D5
:103BF0000023B169C4F848B1C4F84CA1C4F8383105
:103C0000C4F83C91C4F8408104F59A70C4F844713A
:103C1000C4F85051BDE8F84F3AF0D0B93858FF1FFA
:103C2000BC0DFF1F00002041000098420000AC4284
:103C30000000C8420000D0420080D0420000D542BF
:103C40000080D5420000F0420000204200008C427B
:103C5000F8B54D4DAA680023012A2B70EB606B600C
:103C60002B6140F28C80494A1668012E08BF33460A
:103C7000AB604748474A484F00210B4669610160E5
:103C80000C4603EB83032344104657F823103AF005
:103C900095F901340246052C02F10C0201D06B6843
:103CA000EFE7012E6ED0D4BF0126002600223B4B49
:103CB0003B48C3F858614FF47A769E6144F620661B
:103CC000DE610A265E623C269E624FF40776DE6263
:103CD00004261A601E63334A5A616FF059065E6506
:103CE00012224FF416769A651E67082443F698222E
:103CF0004FF07E5601214FF48075C3F864411A617C
:103D0000032400225E664FF07C5619625963A3F8C3
:103D10004450C3F85C119A6383F83C2083F8502028
:103D2000DA6583F8602083F86C2083F8562183F8E5
:103D300054211A64C3F86021C3F86821DC649E66CC
:103D4000C3F86C41C3F87411C3F87811C3F880212B
:103D500083F8861107C8C3F87C411C1D84E807005E
:103D6000A3F8845100241049C3F87041062203F1DE
:103D7000460028F08BFEBDE8F840FFF7A7BE034BD6
:103D80001E6876E7062292E7C857FF1F3058FF1FCC
:103D9000E067FF1FE057FF1F8411FF1F3858FF1F08
:103DA000D0760400C0D4010088590400F8B5374E1D
:103DB000374D3378374F012B84BF0023337073683E
:103DC000032B84BF01237360B368012B84BF0023DE
:103DD000B360F368072B84BF0023F3603369022BC1
:103DE00084BF002333617369042B84BF0023736194
:103DF000012428463AF0A4F90B282ED80134062CC9
:103E000005F10C05F5D1D6E9164522462B4620468C
:103E1000294634F051FB30B11F4B00222046294681
:103E200034F054FB48B300220023C6E91623D6E938
:103E3000184522462B462046294634F03DFB30B13A
:103E4000164B00222046294634F040FB58B1002290
:103E50000023C6E918230120F8BD2246284639462A
:103E600038F0BAFFCAE70E4B00222046294634F04C
:103E70004BFB0028EBD10120F8BD0A4B0022204665
:103E8000294634F041FB0028D1D0CCE7C857FF1FAA
:103E9000E057FF1F90590400000008C0000020C038
:103EA00000002040000008402DE9F843204B00208E
:103EB0001C8828F0A3FDE1B2814202D0002028F046
:103EC000B7FD012028F09AFD210A884202D0012086
:103ED00028F0AEFD174F3D4607F1680815F8016B55
:103EE000EC1B0134204628F089FD864231462046ED
:103EF00001D028F09DFD4545F0D17F69DFF838807D
:103F000001377F02454608F5C47915F8016BA5EB2A
:103F10000804013C3C44204628F070FD86423146AE
:103F2000204601D028F084FD4D45EED1BDE8F88350
:103F30003458FF1FC857FF1F3858FF1FFFF7B4BF83
:103F40002DE9F04F294E2A4D736985B00224019363
:103F500007460291039205F146084FF0040A4FF01C
:103F6000060BA146FFF774FE09F1FF3439464046BF
:103F70003AF024F8032C746111D0042C4FF00502A0
:103F80004FF0000312D0022C2DD02A632B60FFF7D4
:103F90008BFFB9F1050F19D009F10109E2E7C5F866
:103FA00030A0C5F800A0FFF77FFFF5E7114B1B68B5
:103FB000A3F10103B3FA83F35B09DB002B60012358
:103FC0002B63002385F84530FFF76EFFFFF740FEB7
:103FD000039BB360029B7360FFF766FF019B7361F5
:103FE00005B0BDE8F08FC5F830B0DCE7C857FF1F5B
:103FF0003858FF1F3058FF1F10B5104C104984B0BF
:1040000001AB6A46201D38F007FF03AB02AA0C493A
:1040100004F10A0038F000FF009A029B019803990E
:10402000084CC2EB021200EB8200C3EB0313064AFA
:10403000206001EB8301116004B010BD3858FF1FF0
:104040009C590400100DFF1F140DFF1F70B5124E78
:10405000124D33682A68134301D5FFF7CDFF21F0D5
:1040600025FA044621F03AFA33682A68934207D0C9
:10407000C4EB041400EB840004DC0ADA824203DCA3
:10408000002070BD824204DC8342ACBF00200120CE
:1040900070BD012070BD00BF140DFF1F100DFF1F6C
:1040A00070B5502029F0F4F9252029F087F906464B
:1040B000242029F083F90446232029F07FF9184DA4
:1040C000002201282A601CD026433043C0B2E0B948
:1040D000144E154C7368002054F82310286023F008
:1040E000ABFF736854F8234034B120463AF028F807
:1040F000014620462AF062FC0C4828F0B1FA2868F4
:1041000070BD012C204607D00CB1104670BD012EA9
:10411000DED0002EDCD070BD002EF6D12C6070BD3C
:104120003058FF1FC857FF1F741BFF1FC02DFF1FF4
:104130002DE9F047B94CA36D2269053B5E2B84BF86
:104140001423A3652DED048BB54BA2F164019942B4
:1041500082B000F23D826369B149A3F164008842F4
:1041600084BFB04B63619A4208DD4CF24F318A4202
:1041700000F3FA8102F59C4220326261A369AA4EE3
:10418000643B4BF61C32934284BF6423A361E36912
:104190004BF61C32643B934284BF44F62063E361D8
:1041A000236A5A1E622A626A88BF032340F2E631FC
:1041B00002F1FF3088BF2362884288BF1E22316827
:1041C00088BF62629342C8BF63620129236B40F3D8
:1041D000E581052B40F2B0814FF46160A26A002AAC
:1041E00040F3B1818242E26AC8BFA062002A40F374
:1041F000B081B2F5616FC4BF4FF40772E262042B65
:1042000084BF04232363636BD4ED5C7A022B84BFE9
:1042100001236363A36B042B84BF0023A363236C7C
:10422000192B88BF0023F4EE677A88BF2364F1EE70
:1042300010FA80F17481F5EEC07AF1EE10FA00F117
:104240006E81B3EE097AF4EEC77AF1EE10FA00F35C
:104250006681636DD4ED197A6E33502B88BF6FF091
:104260005903F4EE677A88BF6365F1EE10FA07D15F
:104270009FED6E7AF4EEC77AF1EE10FA40F182818A
:104280004FF07E536366D4ED1A7AF4EE677AF1EE5E
:1042900010FA07D19FED667AF4EEC77AF1EE10FAC4
:1042A00040F167814FF07C53A366624D2368624AF8
:1042B00068681060022B00F33681002B00F3368112
:1042C000FFF7EEFE012806D02368062B00F063817D
:1042D000082B00F0608194F8452058480023012AFB
:1042E00088BF84F8453084F83C30E36C013B072BF1
:1042F00084BF0423E364236F40F606620A3B9342C3
:1043000084BF4FF41673236739F01AFF052800F0B5
:104310005A814B4B93E803004A4B606019804A482E
:1043200039F00EFF052800F0498148494648062229
:1043300028F0ACFB464839F003FF052804D0454976
:104340004348062228F0A2FB3268012A40F32D815F
:104350006B69002B00F00081D4F85831022B02D990
:104360000023C4F85831D4F85C31022B84BF0123F8
:10437000C4F85C31D4F86031092B84BF0023C4F841
:104380006031D4F86431322B84BF0823C4F864311F
:10439000D4F86831052B84BF0023C4F86831D4F801
:1043A0006C310A2B84BF0023C4F86C31D4F874310B
:1043B000022B84BF0123C4F87431D4F878310A2B5E
:1043C00084BF0123C4F87831D4F87C31013B092B38
:1043D00084BF0323C4F87C31D4F88031032B84BF1D
:1043E0000023C4F88031022A08DD6B6933B9082242
:1043F000C4F86421C4F86831C4F86C31164C174D08
:10440000DFED178ADFF860A09FED169ADFF85C9069
:10441000002704F1E008B2EE048A29E03858FF1FB3
:104420008C490200C0D401003058FF1FCDCC4C3E57
:10443000CDCCCC3DC857FF1FE067FF1F3C58FF1F86
:10444000DC5904004058FF1F4258FF1FE459040084
:104450007E58FF1FEC590400AC58FF1FBC0DFF1F16
:104460000000FA420000C6420000704200002042F4
:104470003E462046E67039F063FE032803D02968E3
:10448000204639F09BFDD4ED057AF4EEC87AF1EEC2
:1044900010FA04D4F4EEE87AF1EE10FA01DDC4F873
:1044A0001490D4ED067AF4EEC87AF1EE10FA04D442
:1044B000F4EEE87AF1EE10FA01DDC4F818A06268B3
:1044C000A368D4ED047A013B032A84BF666000220E
:1044D000622B84BF1823A360E368013B622BB6EE16
:1044E000007A88BF6023F4EEC77A88BFE360F1EEFC
:1044F00010FA04D4F4EEC97AF1EE10FA01DD3D4B66
:10450000236102B101372034A04505F10405B0D183
:10451000002F68D002B0BDEC048BBDE8F08700230B
:10452000C4F8703195E6052B7FF4CAAE01290CBFA3
:10453000062300232360C3E62F4A52F82300A26A11
:10454000002A3FF74FAE0122A262E26A002A3FF73B
:1045500050AE0122E26252E6D4F8581100293FF42D
:1045600002AFC4F85831FEE6A3F59C43203B23611B
:1045700004E69FED227AF4EEC77AF1EE10FA7FF7A7
:1045800094AE8FE6B0EE007AF4EEC77AF1EE10FA50
:104590007FF779AE74E6002323609CE6062B3FF696
:1045A0001BAE174A52F8230018E6D4F85831012BF5
:1045B0003FF4D9AE0123C4F85831D4E6237B3A2B1B
:1045C0007FF4B3AEB6E6A3793A2B7FF4A2AEA6E6AB
:1045D000643300930B490C48642328F059F843F6E0
:1045E00098222261B7E502B0BDEC048BBDE8F0472C
:1045F000FFF76CBA0000A041907704006666663F42
:10460000A8770400A4590400C02DFF1F2DE9F04332
:104610000020D7B028F0F2F98046012028F0EEF90A
:104620005FFA88F860F30F2808F47043B3F5805FF1
:104630001FFA88F800F081804FF6912398451DD02D
:1046400045F2AA53984500F0B6804AF6552398459E
:104650003FD045F65A2398453BD04AF2A55398459A
:1046600037D06549654828F013F8FFF7F1FA644B35
:1046700064489A680021FFF763FC26E0624B604DB6
:104680001B786BB16C1E05F16707C5F10306301985
:1046900028F0B4F904F8010FBC42F8D1FFF786FB0B
:1046A0005A4E6B69C6EB4323741E06F2871803F259
:1046B0000327381928F0A2F904F8010FA045F8D112
:1046C0003368092B2AD8FFF733FD012057B0BDE826
:1046D000F0834D4B4A4D1B786BB16C1E05F167079B
:1046E000C5F10306301928F089F904F8010FBC421E
:1046F000F8D1FFF75BFB454E6B69C6EB4323741E95
:1047000006F2871803F20327381928F077F904F81E
:10471000010FA045F8D13368092BD4D93C4937485B
:1047200027F0B6FFFFF794FAAA6836480021FFF792
:1047300007FC012057B0BDE8F083334B304D1B78A8
:10474000FBB9C8F30B08314E6B69C6EB4323741EEB
:1047500003F2012706F28719381928F04FF904F8F7
:10476000010FA145F8D1B8F1950F3CD0B8F1970FE2
:10477000A6D196F88531002BA2D1012386F8863187
:104780009EE76C1E05F16707C5F10306301928F096
:1047900035F904F8010FBC42F8D1C8F30B08B8F1A1
:1047A000960F05D800220023C5E91623C5E9182372
:1047B000FFF7FCFAC7E701AF0DF103040DF257163E
:1047C000C7F10305281928F019F904F8010FB442BC
:1047D000F8D10DF13200BA6C796CFFF7B1FB012012
:1047E00057B0BDE8F08396F88531002B7FF468AFB1
:1047F000012386F8853163E7185A0400C02DFF1F96
:10480000C857FF1F7E58FF1F0C0DFF1F3858FF1F92
:10481000F4590400FFF7FABE1C491D4BCA6B42F065
:10482000006210B4CA63552400229C60DA6000B9AB
:1048300001221A62164B0721872259625A625A6A6C
:104840001206FCD49A6BD96B5DF8044B0A44196CC0
:104850000A44596C986C0A44D96C02440A44C2F365
:104860004E0242F40042DA629A6DD96D0A44196E22
:104870000A44596E986E0A44D96E02440A44C2F33F
:104880004E0242F400421A63704700BF00800440A9
:1048900000B0034030B5144B144C864693E8070033
:1048A00087B0EC46ACE803001149ACF8002007C91A
:1048B0000EF118030DEB030E03AB03C300251A80A2
:1048C000E5601EF80C3C1BB9E36843F01003E3609D
:1048D000064A1EF8183C136013681B06FCD51069C5
:1048E00080B207B030BD00BF445A040000B003409E
:1048F000DC760400FFFFFFFF2DE9F04F8E4E8F4F57
:1049000005460FCE9FB06C460FC496E8030097F89B
:1049100001C084E80300BCF1000F00F09980012D74
:1049200040DD022D00F0EC808448854E17F05AFEE1
:104930000020FFF771FF834BD3F8008006AF012002
:10494000FFF7A8FF33F0D6FA77A3D3E9002333F0BB
:104950004BFBD6E9182333F091F9DFF8FC917A4B41
:104960000246164638463D4660220F4600247749E7
:10497000C3E9006728F08AF8C9F80040F5E8022387
:104980003046394633F0B6FD002840F0A7800134A8
:104990000C2CF3D1B8F10A0F40F3AE8001201FB008
:1049A000BDE8F08F384617F099FDDFF8B081384642
:1049B00017F078FE012388F80030002D45D17D20C6
:1049C00028F066FD5D48624C5D4EDFF8789117F087
:1049D000A9FD10EE100A33F0AFFA02460B46574815
:1049E000C4E9002317F0FEFDD4E90023D6E916013F
:1049F00033F044F9DFF868E106460F46BEE80F00E1
:104A00000DF1180CACE80F00BEE80F00ACE80F0089
:104A10009EE80F008CE80F00C4E900670024C9F885
:104A200000400DF1180A5AF8040B33F085FA0246DB
:104A30000B463046394633F05DFD002863D1013422
:104A40000C2CF0D1002388F80030012DA6D06BE7A4
:104A50006046FFF7E1FE3F4B394E1B68DFF8E490FC
:104A6000012BCCBF07200220FFF714FF33F042FADE
:104A70002FA3D3E9002333F0B7FAD6E9162333F096
:104A8000FDF8334BDFF8D8E004460D46C3E9004596
:104A90000023C9F800309A46BEE80F000DF1180C4B
:104AA0006746E346ACE80F00BEE80F00ACE80F0035
:104AB0009EE80F008CE80F005BF8040B33F03CFA23
:104AC00002460B462046294633F014FD18BB0AF176
:104AD000010ABAF10C0FEFD1804630E71EAB03EBB1
:104AE0004404B8F10A0F34F9783CC9F800303FF7B4
:104AF00055AF0A2B3FF752AF00201FB0BDE8F08F33
:104B0000DFF858805EE71EAB03EB440434F9783CD1
:104B1000C9F8003096E71EAB03EB4A0A3AF9788CE5
:104B2000C9F800800BE700BF00000080F6A0763FC8
:104B300000000040C093563FE8760400C459FF1FB0
:104B4000C857FF1FC057FF1FA857FF1F307704002B
:104B5000B857FF1F3058FF1FB057FF1FB457FF1F34
:104B6000007704002DE9F0431E4F1F4E3C6895B0BE
:104B70000AAD02462846099235F040F9129B2846B4
:104B80002C1B1C4435F03AF92846DDF8288035F016
:104B900035F92846DDF8449035F030F93B6800944B
:104BA000EB1A0693751B06F160436421059503F526
:104BB0008033129DCDF80C9001FB04F4B4FBF3F4A8
:104BC00001940A4CCDF808800495012625780849FF
:104BD000099A2670002023F02FFA257015B0BDE841
:104BE000F08300BFF02BFF1F000003209927FF1F59
:104BF000505A040008B5074B1A7812B1064B1878C2
:104C000008BD012205481A7016F0B4F8024B18705E
:104C100008BD00BFA457FF1FC159FF1F9857FF1FB2
:104C200010B51E4B1B782DED028B044690ED128AB9
:104C3000D0ED108A2BBBF0EE687AB0EE480A9FEDFB
:104C4000187AB4EEC70AF1EE10FA17D49FED157A70
:104C5000B4EEC70AF1EE10FA10DCF5EEC07AF1EE10
:104C600010FA06D99FED107AF4EEC77AF1EE10FA39
:104C700001DDC4ED108ABDEC028B10BD84ED128AFB
:104C8000EBE70A4816F066FB084884ED100A16F0B8
:104C9000BBFBD4ED107A84ED120AD0E7C159FF1F97
:104CA000000048C20000A0420000C8429857FF1F01
:104CB0002DE9F041D8B000229149319204464FF4D9
:104CC0007A70CDE9422232908DF8CC2030918D4B14
:104CD0008D4A8E4908A838F07FF8D4ED127A9FEDFE
:104CE0008C7AF4EEC77AF1EE10FA07DD9FED897A3F
:104CF000F4EEC77AF1EE10FA00F1868020F01EFC87
:104D0000079020F033FC069020F048FC064620F087
:104D1000CDFB074620F0E2FB804620F0F7FB12AD0A
:104D200003908DE8C001069B079A7B49284638F01E
:104D300053F8D4ED107AB1EE047AF4EEC77AF1EEBE
:104D400010FA06DD9FED757AF4EEC77AF1EE10FAEF
:104D50007BD9734B1B68ADF884301B0C21AC8DF8EC
:104D60008630284639F0ECF9DFF8BC81214628442A
:104D700038F0EAFE02226B4927F088FED8F880243A
:104D8000002A6CD044AE00231146304608AA449352
:104D90001BF000FC80F00100C4B2304608AA624952
:104DA000624F44F202231DF01DFD459B319334AE4A
:104DB000469B329348A99DF81C318DF8CC30304683
:104DC0001DF0B4FB48A844971DF0F4FB429800285E
:104DD00053D0002C7AD130AC2946204627F058FC1D
:104DE000429858B11BF052FF30461DF0E3FB3046AD
:104DF00030971DF0DFFB58B0BDE8F08143980028E4
:104E0000F2D01AF057F8EFE720F098FB079020F067
:104E1000ADFB069020F0C2FB054620F047FB06469E
:104E200020F05CFB074620F071FB8046A06C33F05D
:104E300083F88DE8E00112ADCDE90401069B3C4901
:104E4000079A284637F0C8FF73E7FDEEE77A21ACF2
:104E500017EE902A3749204637F0BEFF81E7D8F891
:104E60008414C1B144AE50921346304608AA19F0DA
:104E7000C9FE80F00100C4B28FE7439800282DD00E
:104E8000002CA8D02C491E221AF04CF930AC204638
:104E900027F0E6FBA0E708AA44F20223414644A813
:104EA0001DF0A0FC459B319334AE469B329348A93C
:104EB0009DF81C318DF8CC3030461DF037FB1B4F70
:104EC000449748A81DF076FB429820B11A491E224B
:104ED0001BF0E2FEDAE743980028D3D1D8F88C041F
:104EE00003685B6B9847154B154918704968154B5B
:104EF00008AA53F82110002023F09EF877E700BF9E
:104F000000750400B85CFF1F7E58FF1FB45A0400F0
:104F1000000048C20000A042EC5A04000000C84251
:104F2000105B0400BC270500C85CFF1FDC74040094
:104F3000C45A04000C5B0400145B04007467FF1F78
:104F4000C857FF1FC41BFF1F2DE9F04F2DED028B2B
:104F5000AE4B97B01968AE4B04930025CDE91455BC
:104F6000059506AB002900F0FF8308EE103A1846BD
:104F7000A84A40F201231DF031FB002800F0E9832C
:104F8000A549A64CA64FDFF89CB304A827F080FBE8
:104F9000A44904A827F07CFBA34904A827F078FBC8
:104FA000A24904A827F074FBA14904A827F070FBCC
:104FB000A04904A827F06CFB9F4904A827F068FBD0
:104FC0009E4904A827F064FB9D4904A827F060FBD4
:104FD0009C4904A827F05CFB9B4B22699B4953F832
:104FE000222004A827F054FB6369994903931E46C5
:104FF00004A827F04DFB9749324604A827F048FB48
:105000008E4904A827F044FB934B1D7004F118034C
:105010000293824B914C5D610135FFF7F7FA90499D
:10502000904EDFF804A3DFF80493DFF804832A46E8
:1050300004A827F02DFB2B468B492A4604A827F00D
:1050400027FB029A894904A827F022FB88492A46AF
:1050500004A827F01DFB3B68864A874952F82320A5
:1050600004A827F015FB85492A4604A827F010FB61
:105070008349844A04A827F00BFB83492A4604A8E5
:1050800027F006FB8149824A04A827F001FB8149E9
:105090002A4604A827F0FCFA7F49BA6A04A827F038
:1050A000F7FA7E492A4604A827F0F2FA7C49FA6A00
:1050B00004A827F0EDFA7B492A4604A827F0E8FA6D
:1050C00079493A6904A827F0E3FA78492A4604A8FE
:1050D00027F0DEFA76497A6904A827F0D9FA7549EB
:1050E0002A4604A827F0D4FA7349BA6904A827F01D
:1050F000CFFA72492A4604A827F0CAFA7049FA6919
:1051000004A827F0C5FA6F492A4604A827F0C0FA78
:105110006D493A6A04A827F0BBFA6C492A4604A8EC
:1051200027F0B6FA6A497A6A04A827F0B1FA694901
:105130002A4604A827F0ACFA674997F8502004A83B
:1051400027F0A6FA65492A4604A827F0A1FA64497F
:10515000BA6D04A827F09CFA62492A4604A827F0F1
:1051600097FA61497A6D04A827F092FA5F492A46B6
:1051700004A827F08DFA5E49FA6C04A827F088FA93
:105180005C492A4604A827F083FA3B6B5A4954F835
:10519000232004A827F07CFA58492A4604A827F0BF
:1051A00077FA7B6B564954F8232004A827F070FA4D
:1051B00054492A4604A827F06BFABB6B524A53495C
:1051C00052F8232004A827F063FA51492A4604A87C
:1051D00027F05EFA4F4997F83C2004A827F058FAC8
:1051E0004D492A4604A827F053FA4C493A6C04A8C2
:1051F00027F04EFA2A464A4904A827F049FAD7F878
:10520000700132F099FE0B46024693E0A461FF1F45
:105210003C750400A00B0500345B0400C857FF1F59
:105220003858FF1F645B0400B45B0400005C04009A
:10523000445C0400D85C04004C5D0400A05D0400E4
:10524000A45D0400B05D0400B00DFF1FE05D04002C
:10525000F05D0400185E04000C0DFF1F7C0DFF1FA5
:105260002C5E0400AC58FF1F3C5E0400645E04002A
:10527000785E0400540DFF1F245F0400345F0400B7
:10528000605F04003C58FF1F705F0400985F0400DB
:105290004258FF1FA85F0400F85F04000460040088
:1052A0004860040058600400C8600400D86004002E
:1052B0004861040058610400C4610400D461040022
:1052C0004062040050620400886204009862040096
:1052D000D0620400E0620400106304002463040050
:1052E0006063040078630400B8630400D0630400C2
:1052F00020640400306404008464040094640400A6
:10530000D8640400E8640400400DFF1F2465040015
:105310003865040094650400A8650400EC65040089
:1053200000660400180DFF1FFC6C0400306D0400C3
:10533000446D0400B84904A827F0AAF9B7492A46E1
:1053400004A827F0A5F9B64997F8452004A827F046
:105350009FF9B4492A4604A827F09AF9B249B34AFA
:1053600004A827F095F9B2492A4604A827F090F935
:10537000B0493A6F04A827F08BF9AF492A4604A830
:1053800027F086F9AD4997F86C2004A827F080F93A
:10539000AB492A4604A827F07BF9AA4997F8562179
:1053A00004A827F075F9A8492A4604A827F070F93F
:1053B000A64997F8442004A827F06AF9A4492A4688
:1053C00004A827F065F9A349FA6D04A827F060F94D
:1053D000A1492A4604A827F05BF9A04997F8602064
:1053E00004A827F055F92A469D4904A827F050F94A
:1053F000786E32F0A1FD0B4602469A4904A827F0C8
:1054000047F92A46984904A827F042F9B86E32F0C5
:1054100093FD0B460246954904A827F039F99449B3
:105420002A4604A827F034F9D7F85831914A92490E
:1054300052F8232004A827F02BF990492A4604A803
:1054400027F026F9D7F85C318D4A8E4952F823208F
:1054500004A827F01DF98C492A4604A827F018F95A
:105460008A49D7F8602104A827F012F988492A460A
:1054700004A827F00DF98749D7F8642104A827F07C
:1054800007F985492A4604A827F002F9D7F86831B8
:10549000824A834952F8232004A827F0F9F8814969
:1054A0002A4604A827F0F4F87F49D7F86C2104A80D
:1054B00027F0EEF87D492A4604A827F0E9F8D7F846
:1054C00074317B4A7B4952F8232004A827F0E0F886
:1054D00079492A4604A827F0DBF8784997F854213F
:1054E00004A827F0D5F876492A4604A827F0D0F872
:1054F0007449D7F8782104A827F0CAF872492A46D7
:1055000004A827F0C5F8D7F87C21704904A827F033
:10551000BFF8D7F880216E4904A827F0B9F897F8AA
:1055200084216C4904A827F0B3F897F885216A49CB
:1055300004A827F0ADF897F88621684904A827F059
:10554000A7F80024013423462A46514604A827F030
:105550009FF833462246494604A827F099F8234687
:105560002A46414604A827F093F873685C495BF823
:105570002330224604A827F08BF85A4923462A46AE
:1055800004A827F085F8B3685749224604A827F0F5
:105590007FF8564923462A4604A827F079F8F3688D
:1055A0005349224604A827F073F823462A46514956
:1055B00004A827F06DF8306932F0BEFC2246CDE930
:1055C00000014D4904A827F063F823462A464B49B9
:1055D00004A827F05DF8706932F0AEFC2246CDE9F0
:1055E0000001474904A827F053F823462A464549B5
:1055F00004A827F04DF8B06932F09EFC2246CDE9B0
:105600000001414904A827F043F8404923462A46AF
:1056100004A827F03DF87BE0486604005C660400BF
:10562000906604009C660400C46604007E58FF1F58
:10563000D4660400286704004067040084670400FF
:1056400094670400C4670400D46704001068040071
:105650002468040050680400646804009C68040026
:10566000B0680400F86804000C6904004469040090
:1056700054690400980DFF1F98690400AC69040088
:10568000340DFF1FE8690400006A0400406A04004A
:10569000506A0400806A0400946A0400A40DFF1F8D
:1056A000D06A0400E46A0400106B0400206B04005C
:1056B000280DFF1F546B0400646B0400B06B0400E2
:1056C000C06B0400206C0400346C0400906C040077
:1056D000A86C0400C46C0400D86C0400EC6C0400DA
:1056E000886D04009C6D0400E46D0400F86D0400F6
:1056F000406E0400546E0400A86E0400BC6E0400EA
:105700001C6F0400346F0400946F0400AC6F04003D
:10571000F3691749224604A826F0BAFF072C06F1C0
:1057200020067FF40FAF029B12490C3304A80293AA
:1057300026F0AEFF052D7FF46CAC18EE100A1CF0BD
:1057400039FF0D4B039A5A61FEF760FF0B4A0123A4
:1057500013700B4B049318EE100A1CF02BFF17B0BC
:10576000BDEC028BBDE8F08F08EE103AF1E700BF08
:1057700010700400A05D0400C857FF1F0C0DFF1F30
:10578000247504002DE9F0410646006CAEB0884651
:105790001746002836D000211BF052F9346C01ADB9
:1057A0000CE01BF021F88446BCF1000F3946284676
:1057B00016DD38F015F9854220D0346C0023B42270
:1057C00029462046002CECD1706C234640B1B4220F
:1057D00018F026FF8446BCF1000F39462846E8DC65
:1057E0000D4B0E4A5968002052F821103B464246A4
:1057F00022F022FC00202EB0BDE8F08101202EB066
:10580000BDE8F081746C002CC9D020460022002332
:1058100018F056FF346CC2E7C857FF1F141DFF1F56
:105820002DE9F041AEB005460F4690461E4601AC4C
:105830000FE01AF0D9FF8446BCF1000F3146204634
:105840001DDD38F0CDF884422CD09DF804305B2B60
:1058500015D0286C0023B42221460028E9D1D5F8C0
:1058600044C00346BCF1000F09D06046B42218F0D2
:10587000D7FE8446BCF1000F31462046E1DC1549D5
:10588000154A4968334652F8211000203A4622F062
:10589000D3FB424639462846FFF774FF00202EB05E
:1058A000BDE8F081304638F04BFC01306A460B49C8
:1058B000204437F0B1FA009B359A934206DB369AC2
:1058C000934203DC349A01201360E8E7349B379A53
:1058D0001A60D4E7C857FF1F941BFF1F28AB0400B2
:1058E0002DE9F043AFB005469DF8DC900F46904699
:1058F0001E4601AC0FE01AF077FF8446BCF1000FA2
:10590000314620461DDD38F06BF884422CD09DF8DE
:1059100004305B2B15D0286C0023B42221460028CC
:10592000E9D1D5F844C00346BCF1000F09D0604668
:10593000B42218F075FE8446BCF1000F31462046B3
:10594000E1DC1549154A4968334652F82110002018
:105950003A4622F071FB424639462846FFF712FFCD
:1059600000202FB0BDE8F083304638F0E9FB01306D
:105970000B4920446A4637F04FFA009B012B03D9AC
:10598000369B83F80090DCE7369A03F00103012090
:1059900013702FB0BDE8F083C857FF1F941BFF1F83
:1059A00028AB04002DE9F0412DED048BAEB0B0EE34
:1059B000408A0546B0EE609A0F46F0EE418A904666
:1059C0001E4601AC0FE01AF00FFF8446BCF1000F39
:1059D000314620461DDD38F003F884422ED09DF874
:1059E00004305B2B15D0286C0023B42221460028FC
:1059F000E9D1D5F844C00346BCF1000F09D0604698
:105A0000B42218F00DFE8446BCF1000F314620464A
:105A1000E1DC1949194A4968334652F8211000203F
:105A20003A4622F009FB424639462846FFF7AAFECD
:105A300000202EB0BDEC048BBDE8F081304638F07C
:105A40007FFB01300E4920446A4637F0E5F9DDED71
:105A5000007A389BF4EEC87AF1EE10FA08DBF4EE27
:105A6000C97AF1EE10FA03D8C3ED007A0120E0E71D
:105A7000C3ED008ACDE700BFC857FF1F941BFF1F6F
:105A8000287004002DE9F041AEB005460F4690465F
:105A90001E4601AC0FE01AF0A7FE8446BCF1000FD1
:105AA000314620461DDD37F09BFF84422CD09DF807
:105AB00004305B2B15D0286C0023B422214600282B
:105AC000E9D1D5F844C00346BCF1000F09D06046C7
:105AD000B42218F0A5FD8446BCF1000F31462046E3
:105AE000E1DC1949194A4968334652F8211000206F
:105AF0003A4622F0A1FA424639462846FFF742FECE
:105B000000202EB0BDE8F081304638F019FB02309D
:105B100004442221204637F0F7FC08B1002303702B
:105B2000204638F00DFB359B984208DC421C21468C
:105B3000349826F0ABFF01202EB0BDE8F0813699F5
:105B4000349838F03BFACCE7C857FF1F941BFF1F6F
:105B50002DE9F04FAFB091461F46DDE93A230646E6
:105B60008846136001AC0FE01AF03EFE8446BCF19B
:105B7000000F394620461ADD37F032FF844229D023
:105B80009DF804305B2B12D0306C0023B4222146E8
:105B90000028E9D1756C03464DB1B422284618F0AF
:105BA0003FFD8446BCF1000F39462046E4DC204925
:105BB000204A49683B4652F821100020424622F014
:105BC0003BFA4A4641463046FFF7DCFD00202FB045
:105BD000BDE8F08F384638F0B3FA02300444222191
:105BE000204637F091FC08B100230370204638F0BE
:105BF000A7FA0028DBD03028D9D8399B002BD6DD76
:105C0000389B4FF0000BA3F1040A04E0399B0BF121
:105C1000010B5B45CBD05AF8041F204637F0E0FE5D
:105C20008442F3D13A9B0120C3F800B0CFE700BF14
:105C3000C857FF1F941BFF1F2DE9F04F2DED0A8B56
:105C4000534AA9B0D2F88034002181460991002B33
:105C500041D0504918461CF041FC4F4B19684F4B3E
:105C600016930025CDE9265517950DF1600A29B345
:105C70002B464A4650461CF0B1FCF8B1484A49460A
:105C800016A8FFF77FFD834668BB464B0593054684
:105C900050461CF08FFC059B434C5D610023237034
:105CA000FEF7B4FC012333214048237028F086FE20
:105CB0003F4826F0D5FCFEF7F7F801E04FF0010B66
:105CC0003C4B169350461CF075FC584629B0BDEC71
:105CD0000A8BBDE8F08FD2F884040028BDD02D498E
:105CE0001AF0F6F9B9E7344B344E009303232C4AEB
:105CF00001934946324B0395029616A8FFF728FFF9
:105D00000423029309AB04460093254A2D4B0395C7
:105D10000195494616A8FFF783FD06F10803002800
:105D20000693DFED29BA9FED29BADFED29AA9FED91
:105D300029AADFED298AA6F110030CEE10AA08BFEC
:105D4000002405930795013524492A460CA837F00D
:105D500043F80CAA494616A8FFF714FD834600280D
:105D600040D1059B079A5A61069B1D480C3333218D
:105D7000069328F023FE0E4826F072FCFEF794F8F6
:105D8000052D01D05C46DDE71CEE10AA099D7FE7DA
:105D9000C85CFF1FD8790400A461FF1F3C75040094
:105DA0002C700400C857FF1F0C0DFF1F90730400D8
:105DB000C02DFF1F24750400B00DFF1FD857FF1F13
:105DC000387004004470040000000000CDCC4C3E4C
:105DD0006666663FCDCCCC3D0000C6422C5E04001A
:105DE0005C730400069B0093059B079A5B68DFF8D1
:105DF000688303EB83031344B94A52F823300293B8
:105E00000B2301930CAAB74B494616A8FFF73AFE9D
:105E10000A23B0F1000B4FF0000618BFA346019310
:105E2000B14CB24B00930CAAB14B02944946039675
:105E300016A8FFF78DFEAF4B02930627231DB04235
:105E4000019700930CAAAC4B494616A808BFB3466D
:105E5000FFF718FEA94B029304F10A03B042019721
:105E600000930CAAA64B494616A808BFB346FFF7F5
:105E700009FE4AF6C0034FF0010A029304F1280319
:105E8000B04200930CAA9F4BCDF80CA04946CDF828
:105E900004A016A808BFB346FFF7C2FC9A4B0293B2
:105EA00004F12C03B04200930CAA984BCDF80CA03F
:105EB0004946CDF804A016A808BFB346FFF7B0FCCA
:105EC00042F210736427039304F11003B042019768
:105ED000CDF8088000930CAA8D4B494616A808BF40
:105EE000B346FFF79DFC8B4B039304F11403B042C0
:105EF000CDF80880019700930CAA874BDFF85C82ED
:105F0000494616A808BFB346FFF78AFC04F11803F8
:105F1000B04203970197CDF8088000930CAA7F4BFD
:105F2000494616A808BFB346FFF77AFC4BF6803304
:105F3000039304F11C03B042CDF80880019700934D
:105F40000CAA774B494616A808BFB346FFF768FC72
:105F5000632704F12003B042029700930CAA714B0F
:105F6000CDF80CA04946CDF804A016A808BFB3464A
:105F7000FFF756FC0A23039340F2E733029304F140
:105F80002403B04200930CAA674BCDF804A0494605
:105F900016A808BFB346FFF743FC04F15003B04214
:105FA00000930CAA614B0196494616A808BFB34658
:105FB000FFF796FC0F2302970393052704F158037C
:105FC000B04200930CAA5A4B0197494616A808BF45
:105FD000B346FFF725FC6FF04F0303936FF01D03EB
:105FE00002936FF06D03019304F15403B0420093E8
:105FF0000CAA504B494616A808BFB346FFF710FC41
:1060000008234FF00308029304F14C03B0420093BD
:106010000CAA494BCDF804A04946CDF80C8016A82F
:1060200008BFB346FFF7FCFB444B0093072204F183
:106030003003B042019202930CAA414B03974946A8
:1060400016A808BFB346FFF783FD3C4B0093072219
:1060500004F13403B042019202930CAA394BCDF8FB
:106060000CA0494616A808BFB346FFF771FD364B92
:1060700000930223039304F13803B04202930CAA65
:10608000324B0197494616A808BFB346FFF760FD9B
:1060900004F13C03B04200930CAA2D4B01964946F3
:1060A00016A808BFB346FFF71BFC1923029304F19F
:1060B0004003B04200930CAA264B03964946019632
:1060C00016A808BFB346FFF7ABFB04F5B873B0EEF4
:1060D0004A1AB0EE6B0AF3EE090AB04200933FE0B1
:1060E0008411FF1F547004003858FF1F540DFF1F08
:1060F00060700400DC59040068700400E459040076
:10610000747004007C7004008051010084700400ED
:1061100090700400C0D401009C700400A8700400BA
:10612000B4700400C0700400CC700400D870040087
:10613000E8700400FC700400107104007C0DFF1F67
:106140001C71040028710400400DFF1F347104000D
:106150004071040050710400F04902000077010012
:106160000CAAB44B494616A808BFB346FFF71AFC61
:1061700004F14503B04200930CAAAF4BCDF804A044
:10618000494616A808BFB346FFF7AAFBAB4B0293DC
:1061900004F14603B04200930CAAA94B019749466B
:1061A00016A808BFB346FFF76DFC0A2301933C23F2
:1061B00003934FF46163029304F17003B0420093C0
:1061C0000CAAA04B494616A808BFB346FFF728FB08
:1061D00004F16C03B04200930CAA9B4B0196494614
:1061E00016A808BFB346FFF77BFB04F5AB73B042BC
:1061F00000930CAA954B0196494616A808BFB346D2
:10620000FFF76EFB04F14403B04200930CAA904BDD
:106210000196494616A808BFB346FFF761FB04F193
:106220005C03B04200930CAA8A4B03964946CDF812
:106230000880019616A808BFB346FFF7F1FA04F1EB
:106240006003B04200930CAA834B0196494616A8FE
:1062500008BFB346FFF744FB04F16403B042B0EE5D
:106260004B0AB7EE001AF0EE000A00930CAA7B4B23
:10627000494616A808BFB346FFF794FB04F168032C
:10628000B0429FED770A0093B0EE4A1A754BF0EEDC
:106290006A0A0CAA494616A808BFB346FFF782FB54
:1062A000714B009304F5AC73B042029303966F4BAD
:1062B000CDF804800CAA494616A808BFB346FFF7DC
:1062C00047FC6B4B1B68534540F3BE81694E6A4BDC
:1062D000029601274FF003080397CDF8048000933E
:1062E0000CAA664BDFED669A9FED668A9FED669A73
:1062F000494616A8FFF72CFC092300240293331DFE
:1063000000930CAA614B03944946019416A8FFF729
:1063100087FA022303933223029306F108030197BD
:1063200000930CAA5A4B494616A8FFF779FA594B25
:10633000009306F10C030293052301930CAA564B1C
:106340000394494616A8FFF703FC0A23029306F1BB
:10635000100300930CAA514B03944946019416A8CC
:10636000FFF75EFA4E4B009306F118030397CDF842
:10637000048002930CAA4B4B494616A8FFF7E8FB92
:10638000A6F1080300930CAA474B0194494616A8AE
:10639000FFF7A6FA4FF00F0A06F11C03A04203977D
:1063A000CDF808A000930CAA404B0194494616A8CA
:1063B00008BFA346FFF734FA06F12003CDF808A082
:1063C0000397019700930CAA394B494616A8FFF78B
:1063D00027FA06F12403CDF8088000930CAA354B68
:1063E00003944946019416A8FFF71AFA06F1280308
:1063F00000930CAA304B0194494616A8FFF770FA97
:1064000006F12903019700930CAA2C4B494616A8C4
:10641000FFF766FA06F12A03019700930CAA284BAE
:10642000494616A8FFF75CFAE83E0DF1280A042752
:10643000A84647E06071040070710400EC59040044
:10644000787104008471040098710400A471040040
:10645000B0710400C0710400D0710400E071040048
:10646000CDCCCC3DF0710400980DFF1FFC710400F1
:106470003058FF1F9459FF1F340DFF1F087204008E
:10648000000098420000FA420000AC42187204007A
:1064900024720400A40DFF1F347204004072040033
:1064A000280DFF1F4C72040058720400647204002F
:1064B0007472040088720400A4720400B4720400B0
:1064C000C472040001346449224611A836F084FCE9
:1064D000624B0096CDF808A0CAF800300323019360
:1064E0000CAA11AB494616A8FFF7CCFA5C49002864
:1064F000224611A808BF4FF0000B36F06DFC594B37
:106500000093331D0293002303930CAA11AB494659
:10651000019716A8FFF71CFB53490028224611A833
:1065200008BF4FF0000B602536F056FC06F108035B
:1065300000930CAA11AB494603970197029516A840
:10654000FFF76EF949490028224611A808BF4FF00D
:10655000000B36F041FC06F10C030093102303936B
:106560000CAA11AB49460295019716A8FFF758F9F6
:106570003F490028224611A808BF4FF0000B36F013
:106580002BFC06F11003F0EE680AB7EE001AB6EE27
:10659000000A00930CAA11AB494616A8FFF702FAAD
:1065A00034490028224611A808BF4FF0000B36F0EE
:1065B00013FC06F11403B0EE691AF0EE480AB2EECD
:1065C000000A00930CAA11AB494616A8FFF7EAF996
:1065D00029490028224611A808BF4FF0000B36F0C9
:1065E000FBFB06F11803B0EE491AF0EE480AB2EED2
:1065F000000A00930CAA11AB494616A8FFF7D2F97E
:106600001E490028224611A808BF4FF0000B36F0A3
:10661000E3FB06F11C0300930A2303931423029364
:10662000012301930CAA11AB494616A8FFF7F8F80D
:10663000002808BF4FF0000B072C06F120067FF45E
:1066400041AF4546FFF78DBBD4F85831002B7FF49E
:106650003DAEC4F858A139E6D07204004E6F200058
:10666000E0720400180DFF1FF072040000730400B4
:106670001073040020730400347304004873040092
:1066800070B5384C384AD4F88004A2B00023CDE964
:10669000203311931092002841D034491BF01EFF83
:1066A000D4F880248AB102AE002311463046304A25
:1066B000029319F06FFFA8B900252E4B109312A872
:1066C0001BF078FF284622B070BDD4F8841400294E
:1066D000F2D002AE13460E923046254A18F092FAD6
:1066E0000028E9D02248FFF7A7FA05460028E3D0A2
:1066F000D4F88024DAB102F5896100231C4A0191A3
:106700003046029319F0C4FE019928BB1A4A1B4B6C
:106710005268002053F8221021F08EFCCDE7D4F807
:1067200084040028C8D0114919F0D2FCB8E7D4F885
:1067300084140029EAD001F5896113460E9230468F
:106740000B4A019118F0F6F901990028DED00C4AA5
:10675000304618F037FCD9E7094A30461AF0B4F849
:10676000D4E700BFC85CFF1F3C750400D879040063
:106770007CEB040024750400C857FF1F141BFF1F87
:10678000C47304002DE9F04F884C894AD4F8800482
:10679000AFB00023CDE92C331D931C92002851D0BB
:1067A00084491BF09BFED4F880249AB10EAF0023DD
:1067B00011463846804A0E9319F0ECFEB8B91EAE69
:1067C00000257E4B1C9330461BF0F4FE28462FB06C
:1067D000BDE8F08FD4F884140029F0D00EAF134632
:1067E0001A923846744A18F00DFA0028E7D0744B14
:1067F00019680029E3D01EAE6F4A002330461BF013
:10680000EDFE05460028DBD06E4A6B491CA8FEF75A
:10681000B9FF002833D130461BF0CCFED4F88024D9
:10682000C2B102F589610023634A059138460E938F
:1068300019F02EFE05990028C3D0634A38461AF095
:1068400043F8BEE7D4F884040028B8D0594919F0B9
:106850003FFCA8E7D4F884140029B2D001F589617F
:106860001A9213463846544A059118F063F905996F
:106870000028A6D0544A384618F0A4FBA1E71F23ED
:106880004FF00109029308AB00934E4A4F4B4A491F
:10689000CDF80C90CDF804901CA8FEF7C1FF18B9F4
:1068A00030461BF087FE8BE70C23029309AB009365
:1068B000444A474B4049CDF80C90CDF804901CA8B1
:1068C000FEF7AEFF0028EBD04FF47A63029340F25C
:1068D000E47301930AAB00933A4A3E4B3649CDF834
:1068E0000C901CA8FEF79CFF0028D9D01723029318
:1068F0004FF000080BAB0093324A374B2E49CDF8CE
:106900000C90CDF804801CA8FEF78AFF0028C7D0A1
:106910000CAB4FF03B0A00932A4A304B2649CDF886
:106920000C90CDF80480CDF808A01CA8FEF778FFE5
:106930000028B5D00DAB0093224A294B1E49CDF853
:106940000C90CDF808A0CDF804801CA8FEF768FFD5
:106950000028A5D0DDE90CB2DDE9089A0A9B0B9866
:106960000693019359464B46CDF800A00792059037
:106970001EF050FE1EF044FD26F06EFC079A0598AE
:10698000069B1849039201900093CDF808B0D1F806
:1069900004C01549534651F82C104A46404621F090
:1069A0004BFB30461BF006FE38E700BFC85CFF1FFC
:1069B0003C750400D8790400D473040024750400E5
:1069C000A461FF1FE47304001C740400F07304004E
:1069D000F4730400FC730400047404000C740400D9
:1069E00014740400C857FF1F341BFF1F2DE9F0412A
:1069F000D0F88C54002290B004460F46C0F8802492
:106A0000C0F8842435B12B682846DB6B984710BB4F
:106A1000D4F88C542B682846DB699847B0B14FF006
:106A20000008B0F1806F3B462246294631D86846BF
:106A30001BF0C8F80646B8F1000F08D0D4F88C0453
:106A400020B1036800215B6C984700B900263046EE
:106A500010B0BDE8F081D4F88C040028F6D00368AB
:106A60001B6C984706460028D2D1D4F88C04002825
:106A7000ECD0036801215B6C984780460028E5D084
:106A8000D4F88C542B682846DB6998470028C8D175
:106A9000D4E70BA818F04AFD0646CCE7F0B504464B
:106AA00089B020F069FF4B494B4AA16400250023BF
:106AB00080214A4F84F87C10236463642260A567B8
:106AC00084F86550D0203D6026F02CF91B23444902
:106AD00000952A460193434B064623F081FD216928
:106AE00063690796994204F10C055ED041F8046B86
:106AF0002161DC2026F016F93B4A3C4B039224220C
:106B000000930592002305223949049302920197CC
:106B10001A46064623F086FC216963690796994266
:106B200048D041F8046B2161E02026F0FBF82D23CA
:106B3000029300222F4B3049009301922F4B0646BF
:106B400023F0A8FE216963690796994237D041F87E
:106B5000046B2161D02026F0E5F83623002220497D
:106B600001930092264B064623F03AFD21696369A2
:106B70000796994228D041F8046B2161E36800220E
:106B80005868022123F07CFCE36800225868032146
:106B900023F076FCE36800225868042123F070FC9F
:106BA000184B20461C6009B0F0BD07AA2846FAF72A
:106BB000EFFD9EE707AA2846FAF7EAFDB4E707AA21
:106BC0002846FAF7E5FDC5E707AA2846FAF7E0FDEB
:106BD000D4E700BF00008C42007804008C57FF1FF0
:106BE000C47704008418FF1FF412FF1FE415FF1F71
:106BF000CC77040028740400E4770400D413FF1F4A
:106C00007418FF1F9057FF1F2DE9F047DFF84882E7
:106C1000824CDFF83092824E8AB025F0B9FE2022F5
:106C2000002108F1040036F0FDFB4FF0000A7D4B17
:106C3000C8F80030FF2701257B4A7C4988F824707A
:106C400088F8265088F825A0404629F081FE2022A9
:106C50005146201D36F0E6FB754B734A754984F8A2
:106C6000265084F82470236084F825A0C4F83CA042
:106C7000C4F840A084F844A0204629F069FE4846A4
:106C80006D4D40F8046B2022514636F0CBFB28783E
:106C900089F82470694F89F825A057F8202089F8D1
:106CA00026A0002A00F09C80424500F0B1801346E7
:106CB000810001E0434547D00B445B68002BF9D1CC
:106CC000800013185A68002AFBD1C3F8048095F895
:106CD000008089F8248009EB88094FF0000A2022FF
:106CE0005146C9F804A001A8009636F09BFB57F85E
:106CF00028208DF825A0FF238DF826A08DF82430BC
:106D00004FEA8801002A77D0A24241D0134601E021
:106D1000A3423DD00B445B68002BF9D14FEA8808B1
:106D200002EB08035A68002AFAD15C602B780AAAA1
:106D300002EB8302002103F1010842F8241C5FFAF0
:106D400088F88DF8243027E00023A2428DF8253002
:106D500043D0134601E0A3423FD00B445B68002BB5
:106D6000F9D1810053185A68002AFBD101305C60C8
:106D7000C0B228702C4A3249324829F0E9FD324825
:106D800013F0EAFF31480AB0BDE8F04715F0A2BBA6
:106D900008F101085FFA88F89DF9241085F8008051
:106DA0004B1C0096E6D02A4E56F821206B469A429C
:106DB000E0D157F8213033B18C0000201A19536804
:106DC0005060002BFAD1002308F1FF3847F821303A
:106DD00046F8213085F80080CCE70130C0B2C8E722
:106DE0001B4B47F8208043F8209000287FF46FAFBA
:106DF000184825F0A9F96AE7154B47F8284043F8E9
:106E000028D0B8F1000F91D1124825F09DF98DE7F7
:106E10008DF825A0134681009FE700BFC859FF1FCA
:106E2000C874040038750500C80CFF1F3D3600000B
:106E3000107505009D3600000968FF1FE867FF1FF9
:106E4000B1320000105AFF1F9857FF1FC459FF1F8F
:106E50000C68FF1F55330000385AFF1F10B5002380
:106E60000387044620F036FC034815F077FCFDF755
:106E7000C3F80123237210BDC459FF1F0E4B1B78AA
:106E800010B5044683B900232387204620F022FC56
:106E90000A4815F063FCFDF7AFF840F63D73012298
:106EA000A4F84C30227210BD1621054827F086FD4B
:106EB000044825F0D5FBE6E7C059FF1FC459FF1F62
:106EC0002C740400C02DFF1F20F0F8BB2DE9F04703
:106ED0006E4ED6F88034B6B00546002B00F0B58073
:106EE000DA69013A82661B7969495B0802FB03F3A0
:106EF0008B4204DD674A934274DC042300E00223E2
:106F0000AB664FF4804025F00FFF634B00F57F5CCC
:106F10000446821E0CF13E0C9E4622F8023F0133CD
:106F20001BB2B3F5006F08BF73466245F5D111A8D7
:106F300014F088FF26F08CFA0023584A5849009331
:106F40008146012311A815F02FF826F081FA0A27AF
:106F500082464FF001084FF40052214611A815F067
:106F6000B1F9002808BF4FF00008013FF3D126F027
:106F70006FFA074611A814F0A3FF26F069FA022160
:106F8000034620461C4625F0D5FE464AAAEB0903D7
:106F9000A2FB03239B09EB66B8F1000F1FD0424A06
:106FA000A7EB0A03A2FB0323DB082B673D4BE01B87
:106FB000A3FB0023D6F880049B096B67A8B30023CA
:106FC00001460293354A012302A819F0E3FA00288A
:106FD00048D111A814F0CEFF36B0BDE8F08740F2DA
:106FE000E733E2E702F5741202F51062934242DDE4
:106FF00002F5F40202F5905293423EDD02F574026E
:1070000002F5105293423ADD284A934239DB284A6E
:10701000934238DD02F1F46202F590329342CCBF24
:107020004FF400734FF480736AE7D6F88414002994
:10703000CFD00E90194A012302A817F0E3FD0028D3
:10704000C7D002A817F042FEC3E7D6F88434002B5D
:107050003FF455AFD3F83024826693F845140123EA
:107060008B4041E702A81AF099FA11A814F082FFA8
:1070700036B0BDE8F087082342E7102340E720231D
:107080003EE740233CE780233AE700BFC85CFF1F90
:10709000BFC62D003F4B4C0000F8FFFF44740400B6
:1070A00000DC0500D34D6210CDCCCCCC40D2DF0348
:1070B0003F62B007002310B50446038720F00AFBA7
:1070C000074815F04BFBFCF797FFE2689268012335
:1070D000237220465372BDE81040FFF7F7BE00BF91
:1070E000C459FF1F70B5354E82B004242025C82036
:1070F000C6F8845026F0CCF9C6F88850C82026F08F
:10710000C7F9013CF3D12E4DD5F88C04C5F8804465
:10711000C5F8844410B103689B689847294C002344
:10712000FF22194685F8B824204685F8C4341CF09F
:1071300055FF2046C5F88C441CF052FA60B9012373
:10714000D5F88C141A46A4F592601BF0DBFA18B13E
:107150000124204602B070BDD5F88C0403685B6B37
:10716000984717281ED0D5F88C04174D174A696820
:10717000036852F821105B6B019198470199024610
:10718000002020F059FF0446002CE1D16A68104B22
:1071900053F8220020F08EFD0E4B152220461A6077
:1071A00002B070BD084D0C4B6A68002053F82210E5
:1071B00020F042FF0446002CCAD1E7E700F00F4060
:1071C000C85CFF1F5861FF1FC857FF1FA422FF1F85
:1071D0009422FF1F6C67FF1FB422FF1F08B50A4BE4
:1071E000D3F8800440B11BF00DF808B1012008BDB0
:1071F000BDE80840FFF776BFD3F884040028F7D035
:1072000018F0B4FEF1E700BFC85CFF1F38B50C46AC
:1072100010B103685B689847611E142900F21B8156
:10722000DFE811F00701ED00E400DB00D200C80048
:10723000BF00B600AC00A3009900900087007E005C
:1072400075006B0057002700190119011500402037
:1072500025F068FD044620F007FD874A874B5268F9
:10726000002053F8221020F0E7FE0546B5B1204675
:1072700038BD782025F056FD044608F08FFD7E4A83
:107280007F4B5268002053F8221020F0D5FE0546AF
:107290007C49012020F014FD002DE8D17A4BD3F871
:1072A0008004002800F0CF801AF0ACFF0028DED167
:1072B000FFF718FF0028DAD11CB1236820465B686D
:1072C0009847402025F02EFD044620F0CDFC2046B6
:1072D00038BD682025F026FD044603F051FA664AC1
:1072E0006A4B5268002053F8221020F0A5FE0021BE
:1072F0000546012020F0E4FCB8E74FF4A07025F02B
:1073000011FD044603F04EFA5B4A614BE9E7902019
:1073100025F008FD044603F0C3FA574A5D4BE0E749
:107320007C2025F0FFFC044614F07AFA524A5A4BAE
:10733000A7E7802025F0F6FC0446FFF7AFFB4E4A96
:10734000564BCEE7702025F0EDFC04460CF0E6FA33
:10735000494A534BC5E748F6106025F0E3FC044664
:1073600005F000FE444A4F4BBBE7C82025F0DAFC8D
:107370000446FAF77BFA404A4B4BB2E74FF48E7063
:1073800025F0D0FC04460BF0DDFC3B4A474BA8E758
:10739000742025F0C7FC044609F0F0F9364A444B46
:1073A0006FE75C2025F0BEFC044608F0E9FC324A99
:1073B000404B66E740F6D80025F0B4FC04460AF0DE
:1073C00083FF2D4A3C4B5CE7702025F0ABFC044664
:1073D00008F0B6FC284A394B53E7702025F0A2FC90
:1073E000044608F0BDFC244A354B4AE75C2025F0F2
:1073F00099FC044608F096FC1F4A324B41E75020A6
:1074000025F090FC044620F0B7FA1B4A2E4851683C
:107410002E4A0F2584F84D5052F821102C4AA064B2
:107420000023236463642260002020F005FE0546EB
:107430002EE74FF4B87025F075FC044603F02CFBE2
:107440000D4A244B4DE7D3F8840400283FF430AFB5
:1074500018F08CFD2AE7084C1F4B6268002053F897
:10746000221020F0E9FD62681C4B054653F822000B
:1074700020F020FC00240BE7C857FF1FB41BFF1FA0
:10748000241BFF1FC0D40100C85CFF1F841BFF1F0B
:10749000741CFF1F641CFF1F841DFF1F541DFF1F52
:1074A000441BFF1F241CFF1FF41AFF1FD41BFF1FC8
:1074B000A41CFF1F341CFF1F941DFF1F541CFF1F23
:1074C000441CFF1F041BFF1F00008C42A41DFF1F54
:1074D0003C780400141CFF1FE41BFF1F2423FF1F24
:1074E0002DE9F04FB14C23688DB0834603F10800BD
:1074F0001EF0D2FD20680021083020F041F8002065
:10750000FDF7FAF9AA4BDB6873B1AA4E04242025D3
:10751000C820C6F8845025F0BBFFC6F88850C820A4
:1075200025F0B6FF013CF3D1A34B1B68012B00F003
:10753000D181A24AA24BA34C0B94D2E90001CDE920
:107540000401A14AA14812680692994A0A90526819
:1075500053F8221003680293D4E900459C4ACDE910
:107560000045002020F068FD9A4B1A78002A00F0B0
:10757000C981994B1B780993984D994CDFF8A482E7
:10758000DFF8A4A29748DFF8A49207210323022280
:1075900024F0AAFB1DF08AFF06461DF09FFF924BC8
:1075A000C6EB06161B6800EB86008342D8BF03F5C6
:1075B000B4631B1A89FB03121A44DE17C6EB62166A
:1075C000F6B2A6EB061203EB8203DFB21DF09EFFBC
:1075D000099AC3B24AB3854A92F86C1029B3116F65
:1075E000C7EB071292004FF4616000FB0622D21A2B
:1075F00091421ADA7E4B83FB01230B44CE17C6EB74
:10760000E3267C4AF6B202FB061289FB020313440E
:10761000D217C2EB6313DFB2C6EB061301EB031301
:10762000A7EB071203EB8203DBB23A4631467248FE
:1076300024F008F9714823F0B9FF8146C82025F0ED
:1076400027FF2E6840F2EE2727F0BEFA2378002BA2
:1076500000F0FF8098F80030DB0740F1FA802B68DB
:10766000DAF800209B1A0E2B40F2F380C82025F098
:107670000FFF1421624827F0A1F9624824F0F0FFBF
:1076800061481DF0FDFF614BD3F88004002800F035
:1076900000811AF0B7FD002800F0E9805B4BD3F8B9
:1076A0008004002800F0FD801AF0ACFDB9F1070F4E
:1076B00015D0574BB3F90030092B10D0099B73B18B
:1076C0004A4B93F86C3053B15846FDF7A9FA584627
:1076D000FDF7EEFAFCF7BAFC00287FF453AF344B09
:1076E000DB68002B40F0E680304C206808301EF04C
:1076F000EBFA2F4A474B5268246853F82250002374
:10770000C4F8B83045B1284636F01AFD2368024661
:107710005B68294620469847204624F0A1FF244A6A
:107720003D4B526853F82250204B1C684FF42023E5
:10773000C4F8B83045B1284636F002FD2368024649
:107740005B68294620469847204624F089FF174B5E
:10775000186808301EF0C4FA174B1B680F22012B63
:107760008BF84D20124B00F0D6805A682B4B164DEB
:1077700053F822100A9B114C1B6800930B9B2D6839
:10778000D3E900230495D4E900450020CDE9024562
:1077900020F052FC224B0446186820F081FE002C99
:1077A00000F0CE80114B1B68032B41E0B05CFF1F43
:1077B000C857FF1F00F00F403058FF1FA857FF1F8A
:1077C000341DFF1FB857FF1FB057FF1FC057FF1FC3
:1077D0003C58FF1FA457FF1FC159FF1F6868FF1FB8
:1077E000D469FF1F385AFF1F100DFF1F3858FF1FA5
:1077F000C5B3A291F0F1FFFFC859FF1F105AFF1F38
:1078000050740400C02DFF1FF5C90100C85CFF1FA4
:107810009457FF1FA41BFF1FE41CFF1F041DFF1F25
:10782000D467FF1FF869FF1FFC69FF1F89888888DC
:1078300000F09280072B00F0A180042B00F09A80CA
:10784000092B514B0CBF122203221A600DB0BDE868
:10785000F08F2B6822789B1B32B1B3F5FA6F3FF69D
:1078600005AF27F0B1F9EFE6BB42FAD9FEE6FFF724
:1078700039FC00287FF412AF1F21444827F09EF8FE
:10788000434824F0EDFE4FF0E023424AC3F80C2DAC
:10789000FEE7414BD3F884040028E8D018F066FBDB
:1078A000F9E63D4BD3F8840400283FF4FFAE18F00E
:1078B0005DFBFBE6394D04262024C820C5F8844032
:1078C00025F0E6FDC5F88840C82025F0E1FD013E21
:1078D000F3D109E7324A33485268334B334C53F8FB
:1078E0002210036802930B94D4E90045304A0A90B1
:1078F000CDE90045002020F09FFB2E4B1A78002A8E
:107900007FF437AE01222C481A7013F033FA2B4B58
:107910000990187030E659680A9B294A1B6852F88A
:10792000211000930B9B0020D3E9002320F084FB5F
:10793000244B0446186820F0B3FD002C7FF432AFCE
:10794000154BD3F8800468B11AF05CFC38B90DB05F
:10795000BDE8F04FFFF7C6BB0B4B07221A600DB016
:10796000BDE8F08F0C4BD3F884040028EFD018F05A
:10797000FDFAEBE7044B08221A60F0E7024B0E22F7
:107980001A600DB0BDE8F08F6C67FF1F68740400CB
:10799000C02DFF1F0400FA05C85CFF1F00F00F4058
:1079A000C857FF1FC057FF1F241DFF1FB857FF1FD9
:1079B0003C58FF1FA457FF1F9857FF1FC159FF1FB7
:1079C000F41CFF1FD467FF1F2DE9F0418CB090F825
:1079D0004C5004461DF09AFD854202D10CB0BDE822
:1079E000F0815B4D5B4E1DF091FD2B6884F84C00DF
:1079F00003F108001EF068F9574B72682F6853F8BE
:107A000022800023C7F8B830B8F1000F08D04046F4
:107A100036F096FB3B6802465B684146384698471D
:107A2000384624F01DFE72684C4B05A853F822100E
:107A300094F84D2035F0D0F92F684FF41023C7F893
:107A4000B83005A836F07CFB3B6802465B6805A9A8
:107A500038469847384624F003FE414B726805A823
:107A600053F822103F4A35F0B7F92F684FF49013BE
:107A7000C7F8B83005A836F063FB3B6802465B6880
:107A800005A938469847384624F0EAFD1DF00EFD5A
:107A900003901DF023FD02901DF038FD039A32493A
:107AA000029B009005A835F097F92F684FF4D81382
:107AB000C7F8B83005A836F043FB3B6802465B6860
:107AC00005A938469847384624F0CAFD2F687268E1
:107AD0004FF41013C7F8B830244B53F82280B8F194
:107AE000000F08D0404636F02BFB3B6802465B682F
:107AF000414638469847384624F0B2FD72682E68F1
:107B00004FF43413C6F8B830194B53F8227047B10C
:107B1000384636F015FB336802465B683946304616
:107B20009847304624F09CFD286808301EF0D8F8AD
:107B300094F84D30013BDBB284F84D30002B7FF4DC
:107B40004DAF2046FFF7CCFC0CB0BDE8F08100BF84
:107B5000B05CFF1FC857FF1F1C27FF1F2C27FF1FEC
:107B60003C27FF1F3C58FF1F887404004C27FF1F51
:107B70005C27FF1F0329F8B50BD00C4621B1012962
:107B80000BD04C4B1868F8BDFFF7A0F9494B1868AB
:107B9000F8BD484B01201860F8BDC368464F054644
:107BA0000A465868022122F06BFCEB6822465868AE
:107BB000032122F065FCEB68224658683F4C042103
:107BC00005F1780622F05CFC3D493E4A022330462E
:107BD000236024F08DFC2B682846DB699847002140
:107BE0003846FEF703FF18BB374B324F5B68012B5B
:107BF0000CBF3648364820F05DF815233B60304610
:107C000024F0C0FCEB6800225868022122F038FC06
:107C1000EB6800225868032122F032FCEB68002256
:107C20005868042122F02CFC002338682360F8BD3A
:107C3000D7F88004002835D01AF0E4FA28B1EB68B0
:107C40001C4F9B6801225A72D9E7FFF74BFA07468F
:107C50000028F4D11F4D286808301EF035F81A4A64
:107C60001D4B52682C6853F82260C4F8B87046B1B6
:107C7000304636F065FA236802465B683146204696
:107C80009847204624F0ECFC286808301EF028F8BD
:107C90004FF4487025F0FCFB4FF0E0230F4AC3F887
:107CA0000C2DFEE7D7F884040028CED018F05EF93A
:107CB000C4E700BF6C67FF1FC85CFF1F8C57FF1F26
:107CC000A5330000FFF72401C857FF1F9874040074
:107CD000AC740400B05CFF1F8422FF1F0400FA058F
:107CE000704700BF11B9024B1868704701207047F8
:107CF0006C67FF1F10B504461DF008FCD4F89030E7
:107D0000984204D12046BDE810401FF089BD1DF007
:107D1000FDFBD4F88C30C4F890000133B3F5617FDB
:107D2000C4F88C30EEDB044B03222046BDE8104043
:107D30001A601FF075BD00BF6C67FF1F034AC36C5C
:107D400012680BB1104670471FF0D4BE6C67FF1F5E
:107D500010B5044641B100230629C0F88C3003D188
:107D6000104B1B68012B0CD020461FF0C3FEE368AC
:107D70009B6A5B7923B9236A092BDCBF0123237239
:107D800010BD09490B685A1E082A08D80748052B58
:107D900050F82200EBD1D4F86C310B60E7E70320F8
:107DA000E5E700BF3058FF1F3858FF1F7C7C0400F8
:107DB000002945D04B1E052B70B50D463DD8C36834
:107DC0002B4A53F821301268C3F8CC200368294E9F
:107DD000DB6904469847D4F83C31D4F830211B01C4
:107DE000D058002808BF3046FDF726FF60BBD4F806
:107DF0003C31D4F8302120491B01D258002A08BF59
:107E0000324620F019F91D4A1D4B526853F82200E2
:107E10001FF050FF1520D4F83C31D4F83011E2683F
:107E2000144C52F825201B01CB581649002B08BFD3
:107E300023460860C2F8CC3070BD124B186870BD84
:107E4000104B0120186070470C4BD4F830215B6850
:107E5000012BD4F83C310CBF0B490C491B0100200D
:107E6000D258002A08BF324620F0E6F80120D2E7B7
:107E7000880FFF1FB0750500AC780400C857FF1FBE
:107E80009412FF1F6C67FF1FC0780400D8780400AD
:107E900010B50446006D064B236010B103685B68A3
:107EA0009847044B236020461FF0BAFB204610BDC4
:107EB000A48104007878040010B5034B03600446E5
:107EC0001FF0AEFB204610BD7878040010B5054BBE
:107ED000036004461FF0A4FB2046902124F02AFFF3
:107EE000204610BD7878040010B5034B03600446AB
:107EF0001FF096FB204610BD7878040010B5064BA5
:107F0000036004461FF08CFB20464FF4B87124F048
:107F100011FF204610BD00BF7878040070B5D0F87E
:107F20003041D0F834510D4B0360AC42064607D0C7
:107F30002046103424F0EEFBA542F9D1D6F830519A
:107F40002DB1D6F838112846491B24F0F3FE044B16
:107F5000336030461FF064FB304670BDE0810400A2
:107F6000787804002DE9F04F87B088460092013AF6
:107F700002EBD272B1EB620F064601934EDA4FEA82
:107F800062090F4600E02F467C1C650005F1FF3AB0
:107F900006EB441406EB0A1B5946204624F06EFCFF
:107FA00000281CBF5C46554606EB0710214624F00E
:107FB00001FC4D45E7DB009BDA0735D50DF10809DB
:107FC000019948466F1E24F08FFB07EBD777454594
:107FD0004FEA67070BDC17E024F0ECFB7B1E03EB9A
:107FE000D373B8454FEA63033D460DDA1F4606EBEF
:107FF00007144946204624F041FC0346214606EB7F
:108000000510002BE8D104464946204624F0D2FB57
:10801000484624F07FFB07B0BDE8F08F009BDB07EC
:1080200013D400EB01140D46009BA3F1020B0BEBE4
:10803000DB7BB5EB6B0FC1D16D000135204606EB44
:108040000514214624F0B6FBB8E70DF108090199A3
:10805000484624F049FB06EB0814D5E710B584B078
:1080600004460146684624F03FFB103C01E024F042
:10807000A1FB2146684624F001FC0346214604F199
:108080001000103C002BF2D1694624F093FB6846A7
:1080900024F040FB04B010BD884235D02DE9F043F8
:1080A00000F11003994285B00746894624D000F1BB
:1080B0002006A6F110043946204624F0DFFBF0B17B
:1080C0002146684624F010FBE31B002BB0464FEA24
:1080D000231506DD2046103C214624F06BFB013DB4
:1080E000F8D16946384624F065FB684624F012FB57
:1080F000C14506F11006DCD105B0BDE8F08320468D
:10810000FFF7ACFFB046F3E7704700BFF8B5D0F813
:108110003071D0F83451AF42064608D03C46204674
:10812000103424F0F7FAA542F9D1C6F8347130467C
:10813000BDE8F840FEF7C8BE2DE9F041BCB00646E8
:10814000FEF78CFE444F454D06F1540406F19008AD
:108150003946204635F032FF01E024F097FC2046F6
:1081600035F0EEFF0A284FF0020229462044F4D9E8
:108170000C34444507F10C07EAD1394A1168394AF1
:10818000149200234FF47A70CDE92633CDE93A33C7
:10819000159316908DF85C3029932A908DF8AC30A9
:1081A00028922CAC19B1304A20461AF017FA002256
:1081B000214618A82D4F00251AF068FAD8B1269844
:1081C0008DF8005000283FD05022694619F03AFE41
:1081D000684635F0FFF9269B03B31B7813F0700F48
:1081E00023D018A81AF0E6F90022214618A81AF0A0
:1081F0004DFA0028E3D1F3680146986921F08CFC20
:1082000000231B4DF364204628951AF0D3F918A8D3
:1082100014951AF0CFF93CB0BDE8F081279B23B14B
:1082200093F8313013F0500FDBD13946684635F002
:10823000D7FB0028D5D018A81AF0BCF9F3680121A3
:10824000986921F069FCDBE727980028C0D050220C
:10825000694617F015FCBBE7E057FF1F24A0040098
:10826000A461FF1F00750400D8790400DC730400CA
:10827000DC74040070B5D0F83041D0F83451104BA4
:108280000360AC42064607D02046103424F042FA80
:10829000A542F9D1D6F830512DB1D6F8381128467B
:1082A000491B24F047FD074B336030461FF0B8F9F7
:1082B00030464FF4A07124F03DFD304670BD00BF44
:1082C000E081040078780400C36C03B9704730B5CE
:1082D00004468FB01DF01AF9236D984201D00FB0FB
:1082E00030BDE36800251868E564012121F014FC25
:1082F000E3680121586821F00FFCE36801219868C8
:1083000021F00AFCE3680121D86821F005FCE3684C
:108310000121186921F000FCE3680121586921F06E
:10832000FBFB114BD3F8800478B101460F4A00954E
:108330002B46684618F02EF990B1E3680121986940
:108340000FB0BDE8304021F0E7BBD3F8841439B159
:1083500003460C90054A684616F054FC0028ECD100
:10836000E3680021EBE700BFC85CFF1FA00B05001E
:1083700010B50446006D084B236010B103685B68BC
:108380009847064B236020461FF04AF92046682193
:1083900024F0D0FC204610BDA481040078780400AD
:1083A00030B504468FB006297FD8DFE801F01D0400
:1083B0000404043C380001EB41018B003C483D4D76
:1083C00003F154011844214435F0F8FD34213A48B2
:1083D00026F0F4FA394824F043F9FBF765FDE36C25
:1083E00043B128680FB030BD324D01232B60E36CE0
:1083F000002BF6D13249D1F88024002A3FD0114613
:108400006846304A009318F0C5F8002842D0E36867
:108410000121986921F080FB28680FB030BD254DFF
:1084200010232B60DBE7C3680021186821F074FB80
:10843000E3680021586821F06FFBE3680021986829
:1084400021F06AFBE3680021D86821F065FBE3684E
:108450000021186921F060FBE3680021986921F090
:108460005BFB2046FCF770FD0123E3641DF04EF832
:1084700001303B2816DD00230E4D2365AFE7D1F810
:10848000841439B113460C9268460E4A16F0BAFBB2
:108490000028BCD1E3680021986921F03DFB2868E1
:1084A0000FB030BD034D206599E7024D97E700BF3F
:1084B000E057FF1F6C67FF1FE8780400C02DFF1F07
:1084C000C85CFF1FA00B05002DE9F047064690B0E1
:1084D0001DF01CF8F36C984233D1306D90B1736D80
:1084E0009BB1CB4C22680092009A93420AD2036857
:1084F0005B69984723680193019B002203F5FA7397
:108500007265B36510B0BDE8F08703689B69984752
:10851000092800F0B78196F85C30002BF2D1BC4CF2
:10852000B26D23680293029B9A42EBD2306D0368CE
:108530005B69984723680393039B03F5FA73B3655C
:10854000E0E7B44D1CF0E2FF2B68F06403F1080093
:108550001DF0BAFB2868B04908301EF0D1F996F832
:10856000643003AC002B00F08780AC4AAC49204655
:1085700034F032FC2868214608301EF0F5F9C0F1CD
:1085800080002F6800EBD07000234010A7F8B800DF
:10859000A7F8BA30204635F0D3FD3B6802465B6849
:1085A000214638469847384624F05AF828689D49AD
:1085B0009D4F08301EF0A4F99C4B0FCBA446ACE8AD
:1085C00007002A682CF8023B1B0C8CF8003002F1E3
:1085D000080021461EF0C8F9C0F18000D5F80080DF
:1085E00000EBD0700D234010A8F8B800A8F8BA30FE
:1085F000204635F0A5FDD8F8003002465B682146DC
:1086000040469847404624F02BF8DFF838E2BEE8B1
:108610000F00A446ACE80F00DEF800302CF8023B57
:108620002A681B0C8CF8003002F1080021461EF06D
:108630009BF9C0F18000D5F8008000EBD0701623C4
:108640004010A8F8B800A8F8BA30204635F078FDF8
:10865000D8F8003002465B682146404698474046BD
:1086600023F0FEFF3B68032B00F21B81DFE813F0D1
:10867000FE00CB000A00F2006D4A6E49204634F03D
:10868000ABFB77E76C4B93E8070084E807002868AA
:10869000214608301EF068F9C0F18000D5F800804E
:1086A00000EBD0701E234010A8F8B800A8F8BA302C
:1086B000204635F045FDD8F8003002465B6821467B
:1086C00040469847404623F0CBFF28685B49083076
:1086D0001EF016F9DFF870C1BCE80F00A146A9E84A
:1086E0000F009CE803002B68C9F8000029F8041F5C
:1086F00003F1080021461EF037F9C0F18000D5F8DB
:1087000000A000EBD07029234010AAF8B800AAF806
:10871000BA30204635F014FDDAF8003002465B68C6
:10872000214650469847504623F09AFFDFF81CC177
:10873000BCE80F00A046A8E80F009CE803002B68E7
:10874000C8F80000A9F8001003F1080021461EF047
:108750000BF9C0F18000D5F8009000EBD070312308
:108760004010A9F8B800A9F8BA30204635F0E8FC66
:10877000D9F8003002465B6821464846984748468B
:1087800023F06EFFDFF8C8C0BCE80F00A646AEE8D5
:108790000F00DCF8003088F800302B68214603F128
:1087A00008001EF0E1F8C0F18000D5F8008000EB71
:1087B000D07039234010A8F8B800A8F8BA30204685
:1087C00035F0BEFCD8F8003002465B6821464046D2
:1087D0009847404623F044FF286808301DF080FA8F
:1087E0003B68022B7FF779AE336E0133032B336680
:1087F0007FF773AE96F86430002283F0010386F8A9
:108800006430326669E60E4B0FCB84E80F003EE71A
:108810006868FF1FB05CFF1F884305007057FF1F8B
:1088200020790400D45805003058FF1F4C7904000B
:10883000307904003879040094790400F469050063
:10884000847904005C790400C4790400DC790400B4
:10885000F4790400DFF864E0BEE80F00A446ACE859
:108860000F00DEF80030CCF8003010E7DFF850E001
:10887000BEE80F00A446ACE80F00DEF800308CF82C
:10888000003004E7336D1A6801461846D3699847EB
:10889000064A0749074823F0FBFE012386F85D30AE
:1088A00030E6054B0FCB84E80F00F0E67057FF1F52
:1088B000087A0400C02DFF1FB4790400A0790400D9
:1088C0007079040030B5244B5A68244B00F5A47528
:1088D00087B053F822100446284635F06FFBFCF7AA
:1088E00089F920B32046FCF79BF9D4ED127A1C4994
:1088F000FDEEE77AB02317EE902A01A834F06CFA67
:1089000001A9284634F0E0FDD4ED107AFDEEE77AB7
:10891000B1EE047AF8EEE76AF4EEC76AF1EE10FA07
:108920000EDCE368DB69C3F8CC5007B030BD2846E5
:1089300035F006FC0B490322284424F0A7F8F0E7A1
:1089400017EE902A084901A834F046FA01A92846F2
:1089500034F0BAFDE5E700BFC857FF1FE418FF1F5A
:10896000504E04001C7A04005CEC04002DE9F04138
:10897000C26803699B1A002B82B004460CDD0025F7
:1089800052F82500012121F0C7F8E268236901357A
:108990009B1AB5EBA30FF3DB94F85C51D2F8D80027
:1089A000002D40F0BB80012121F0B6F8E3688C4E29
:1089B000D3F8DC00294621F0AFF83368012B00F032
:1089C000BB8094F86451E368002D00F0B880D3F8C0
:1089D000E000002121F0A0F8E3680121D3F8E400D1
:1089E00021F09AF8E3680121D3F8880021F094F887
:1089F000E3680021D3F88C0021F08EF8E3680121B0
:108A0000986E21F089F8E3680121D86E21F084F88E
:108A1000E3680021186F21F07FF8E3680021586FA8
:108A200021F07AF8E3680021186C21F075F8E3680A
:108A30000021986C21F070F8E3680021586D21F056
:108A40006BF8E3680021586C21F066F8E3680021B8
:108A5000D86C21F061F8E3680021186D21F05CF812
:108A60003368012B04D0FCF7C5F8002840F0F481EE
:108A7000E3680021D86921F04FF8E368594F186E78
:108A8000002121F049F8E3680021586E21F044F8F4
:108A9000E36801229868002121F0F2FCE3680022DB
:108AA0009868012121F0ECFCE3680022986802211B
:108AB00021F0E6FCE36800229868032121F0E0FC45
:108AC000E36801229868042121F0DAFCE3680122BE
:108AD0009868052121F0D4FCE368002298680621FB
:108AE00021F0CEFCE36800229868082121F0C8FC40
:108AF000E36800229868092121F0C2FC3368012B49
:108B00003B6B40F39481062B2BD8DFE813F0240055
:108B1000CD08C508DD08D508ED08E508002120F0DE
:108B2000FBFFE3682E4ED3F8DC00012120F0F4FFB8
:108B30003368012B7FF445AFE368002100E0012199
:108B4000D3F8E00020F0E8FFE3680021D3F8E40068
:108B500020F0E2FF46E7E3684AF6C001186E21F014
:108B600017FC214DD5F81480B8F1000F3ED1E36811
:108B7000C5F81080D86A414620F0CEFFE36842462F
:108B8000D86A012121F07CFCE3684246D86A0221C0
:108B900021F076FC3368012B3CDD2969E36800296C
:108BA000D3F89000D4BF0021012120F0B5FF6B69FC
:108BB00023B9D7F85821002A40F03D823B68092BA1
:108BC00031D0082B00F20A87DFE813F0E8034C01EC
:108BD0004C014C01AB070B07D105C3042F0300BFA9
:108BE0003058FF1F3858FF1FC857FF1FE368012187
:108BF000D86A20F091FFE3680122D86A114621F07B
:108C00003FFCE3680122D86A022121F039FC336875
:108C1000012BC2DCE3680021D3F8900020F07CFF38
:108C20003B68092BCDD1E3680121D86820F074FF9F
:108C3000D7F86021E368002A40F00082D3F888006A
:108C40000192114621F01CFCE368019AD3F88800D8
:108C5000012121F015FCE368019AD3F88800022174
:108C600021F00EFCE368019AD3F88800062121F078
:108C700007FC2969E3680029D3F8C800D4BF0021A4
:108C8000012120F049FF2969E3680029D3F8CC00CD
:108C9000D4BF0021012120F03FFF2969E3680029AA
:108CA000D4BF00210121D3F8D00020F035FFE368C4
:108CB0000121D3F8D40020F02FFF3B6B042B01F0EF
:108CC0000F81052B01F01C81032B01F0118197F816
:108CD0005010E368002901F02B80986B012120F0EF
:108CE0001BFFE3680021586B20F016FFE3680021AA
:108CF000D86B20F011FFE3680021D86C20F00CFF46
:108D0000E3680021586D20F007FFE3680121986DAA
:108D100020F002FFE3680121D86D20F0FDFE2969F3
:108D2000E3680029986ED4BF0021012120F0F4FEF1
:108D30002969E3680029D4BF00210121D86E20F001
:108D4000EBFEE3680021186F20F0E6FEE3680021E7
:108D5000586F20F0E1FEE3680121D3F8800020F095
:108D6000DBFEE3680121D3F8840020F0D5FE2969F9
:108D7000E3680029D3F88800D4BF0021012120F046
:108D8000CBFE2969E3680029D4BF00210121D3F873
:108D9000940020F0C1FEE3680021D3F8980020F091
:108DA000BBFEE3680021D3F8A40020F0B5FE2969DA
:108DB000E3680029D4BF00210121D3F89C0020F0F2
:108DC000ABFEE3680021D3F8A00020F0A5FE2969DE
:108DD000E3680029D3F8A800D4BF0021012120F0C6
:108DE0009BFEE3680021D3F8AC0020F095FEE36819
:108DF0000021D3F8B00020F08FFE2969E368002934
:108E0000D3F8B400D4BF0021012120F085FEFBF788
:108E1000F1FE0746002840F0C180E3683946D3F8E8
:108E2000B80020F079FEE368394600F074BE062BE6
:108E30003FF697AE01A252F823F000BF099D000053
:108E4000578B0000A99C0000999C0000F99C000031
:108E5000C99C0000B99C0000E3680121D86920F09A
:108E60005BFE0AE6E3680021D86820F055FEE3685F
:108E70000021D3F8C80020F04FFEE3680021D3F8AA
:108E8000CC0020F049FEE3680021D3F8D00020F0A8
:108E900043FEE3680021D3F8D40020F03DFEE368F0
:108EA0000021186B20F038FEE3680021986B20F059
:108EB00033FEE3680021586B20F02EFEE3680021AA
:108EC000D86B20F029FEE3680021D86C20F024FE46
:108ED0003B68032BE36800F0F887986D002120F0D1
:108EE0001BFEE3680021D86D20F016FEE368002128
:108EF000986E20F011FEE3680021D86E20F00CFE81
:108F0000E3680021D3F8800020F006FEE36800212A
:108F1000D3F8840020F000FEE3680021D3F8880035
:108F200020F0FAFDE3680021D3F8940020F0F4FD6E
:108F3000E3680021D3F8980020F0EEFDE3680021FB
:108F4000D3F89C0020F0E8FDE3680021D3F8A000EE
:108F500020F0E2FDE3680021D3F8A40020F0DCFD5E
:108F6000E3680021D3F8A80020F0D6FDE3680021D3
:108F7000D3F8AC0020F0D0FDE3680021D3F8B000B6
:108F800020F0CAFDE3680021D3F8B40020F0C4FD4E
:108F9000FBF730FE074600283FF43FAF2969E3683E
:108FA0000029D3F8B800D4BF0021012120F0B4FD7E
:108FB0002969E3680029D3F8BC00D4BF002101214E
:108FC00020F0AAFDE3680021D3F8C00020F0A4FD42
:108FD000E3680021D3F8C40020F09EFDE368326806
:108FE000012A14BFD3F800015869002120F094FD34
:108FF000E3680121D3F8F40020F08EFD2B69022BE9
:10900000E36800F08886D3F8F800002120F084FDA2
:10901000E3680021D3F8FC0020F07EFDE368002126
:10902000986F20F079FDE368D86F002102B0BDE8A9
:10903000F04120F071BDC7F85831BFE5586A0021F2
:1090400020F06AFDE3680021986A20F065FDE3687E
:109050000021586820F060FDE3680021D86A20F004
:109060005BFDE3680021186B20F056FDE3680021EA
:10907000586B20F051FDE3680021986B20F04CFD07
:10908000E3680021D86B20F047FDE3680021D86C2D
:1090900020F042FDE3680021586D20F03DFDE368BB
:1090A0000021986D20F038FDE3680021D86D20F094
:1090B00033FDE3680021186E20F02EFDE3680021E7
:1090C000586E20F029FDE3680021986E20F024FD01
:1090D000E3680021D86E20F01FFDE3680021186FBF
:1090E00020F01AFDE3680021586F20F015FDE368B9
:1090F0000021D3F8800020F00FFDE3680021D3F8B1
:10910000840020F009FDE3680021D3F8880020F0F6
:1091100003FDE3680021D3F88C0020F0FDFCE36838
:109120000021D3F8900020F0F7FCE3680021D3F889
:10913000940020F0F1FCE3680021D3F8980020F0BF
:10914000EBFCE3680021D3F89C0020F0E5FCE36829
:109150000021D3F8A00020F0DFFCE3680021D3F861
:10916000A40020F0D9FCE3680021D3F8A80020F087
:10917000D3FCE3680021D3F8AC0020F0CDFCE36819
:109180000021D3F8B00020F0C7FCE3680021D3F839
:10919000B40020F0C1FCE3680021D3F8B80020F04F
:1091A000BBFCE3680021D3F8BC0020F0B5FCE36809
:1091B0000021D3F8C00020F0AFFCE3680021D3F811
:1091C000C40020F0A9FCE3680021D3F8C80020F017
:1091D000A3FCE3680021D3F8CC0020F09DFCE368F9
:1091E0000021D3F8D00020F097FCE3680021D3F8E9
:1091F000D40020F091FCE3680021D3F8F00020F0C7
:109200008BFCE3680021D3F8F40020F085FCE368D0
:109210000021D3F8F80020F07FFCE3680021D3F8A8
:10922000FC0020F079FCE368D9E6E3680021D86807
:1092300020F072FCE3680021D3F8C80020F06CFC39
:10924000E3680021D3F8CC0020F066FCE36800213D
:10925000D3F8D00020F060FCE3680021D3F8D400FC
:1092600020F05AFCE3680021986E20F055FCE3687A
:109270000021D86E20F050FC2969E3680029186F9E
:10928000D4BF0021012120F047FC2969E3680029AF
:10929000D4BF00210121586F20F03EFCE36800217B
:1092A000D3F8880020F038FC2969E3680029D3F856
:1092B0008C00D4BF0021012120F02EFC2969E36835
:1092C0000029D4BF00210121186B20F025FC97F85C
:1092D0005010002940F06085E368986B20F01CFC7A
:1092E0002969E3680029586BD4BF0021012120F0CF
:1092F00013FCE3680021986D20F00EFCE368002168
:10930000D86D20F009FCE3680121D3F8800020F03B
:1093100003FCE3680121D3F8840020F0FDFB2969F8
:10932000E3680029D4BF00210121D3F8940020F084
:10933000F3FBE3680021D3F8980020F0EDFBE3682D
:109340000021D3F8A40020F0E7FB3B6B022B40F395
:10935000AA852969E3680029D3F89C00D4BF0021BD
:10936000012120F0D9FBE3680021D3F8A00020F010
:10937000D3FBE3680021D3F8A40020F0CDFBE36821
:109380000021D3F8A80020F0C7FBE3680021D3F840
:10939000AC0020F0C1FBE36801212AE5E36800216D
:1093A000D86820F0B9FBE3680021D3F8C80020F0AA
:1093B000B3FBE3680021D3F8CC0020F0ADFBE368F9
:1093C0000021D3F8D00020F0A7FBE3680021D3F8F8
:1093D000D40020F0A1FB2969E3680029186BD4BFF1
:1093E0000021012120F098FBE36897F85010986B5A
:1093F000002940F0C78420F08FFBE3680121586BFF
:1094000020F08AFBE3680021D86B20F085FBE3683D
:109410000021D86C20F080FBE3680121986D20F0DA
:109420007BFBE3680121D86D20F076FB3B6B022BC0
:1094300040F31B852969E3680029986ED4BF002199
:10944000012120F069FB2969E3680029D86ED4BFA7
:109450000021012120F060FBE3680021186F20F05B
:109460005BFBE3680021586F20F056FBE3680121A5
:10947000D3F8800020F050FBE3680121D3F884008A
:1094800020F04AFB2969E3680029D3F88800D4BF9B
:109490000021012120F040FB2969E3680029D4BFA5
:1094A00000210121D3F8940020F036FBE36800216D
:1094B000D3F8980020F030FBE3680021D3F8A40033
:1094C00020F02AFB3B6B022B40F3BD842969E36843
:1094D0000029D3F89C00D4BF0021012120F01CFBFF
:1094E000E3680021D3F8A00020F016FB2969E368A7
:1094F0000029D3F8A800D4BF0021012120F00CFBE3
:109500002969E3680029D4BF00210121D3F8AC0008
:1095100020F002FBE3680121D3F8B00020F0FCFA50
:109520002969E3680029D3F8B400D4BF00210121E0
:1095300020F0F2FAFBF75EFB8046002800F058842A
:109540002969E3680029D3F8B800D4BF00210121BC
:10955000BAE0E3680021D86820F0DEFAE368002171
:10956000D3F8C80020F0D8FAE3680021D3F8CC0083
:1095700020F0D2FAE3680021D3F8D00020F0CCFA32
:10958000E3680021D3F8D40020F0C6FAE368002194
:10959000186B20F0C1FAE3680021986B20F0BCFA48
:1095A000E3680021586B20F0B7FAE3680021D86B1C
:1095B00020F0B2FAE3680021D86C20F0ADFAE3683D
:1095C0000121986D20F0A8FAE3680121D86D20F000
:1095D000A3FAE3680021986E20F09EFAE368002168
:1095E000D86E20F099FAE3680121186E20F094FA01
:1095F000E3680121586E20F08FFAE3680021D3F868
:10960000800020F089FAE3680021D3F8840020F07C
:1096100083FA2969E3680029D3F88800D4BF0021C0
:10962000012120F079FA2969E3680029D4BF0021DB
:109630000121D3F8940020F06FFAE3680021D3F8F9
:10964000980020F069FAE3680021D3F8A40020F024
:1096500063FA3B6B022B00F38483E3680021D3F8A9
:109660009C0020F059FA2969E3680029D3F8A0008A
:10967000D4BF0021012120F04FFA2969E3680029B5
:10968000D4BF00210121D3F8A80020F045FAE368F7
:109690000021D3F8AC0020F03FFAE3680121D3F8B1
:1096A000B00020F039FAE3680021D3F8B40020F0CC
:1096B00033FAFBF79FFAE3688046D3F8B800B8F1B5
:1096C000000F00F09883012120F026FA2969E36851
:1096D0000029D3F8BC00D4BF0021012120F01CFADE
:1096E000E3680021D3F8C00020F016FAE3680021F7
:1096F000D3F8C40020F010FAE3680122D3F8880000
:10970000002120F0BDFEE3680122D3F88800114655
:1097100020F0B6FEE3680122D3F88800022120F091
:10972000AFFEE3680122D3F88800032120F0A8FEF1
:10973000E3680122D3F88800042120F0A1FEE36849
:109740000022D3F88800052120F09AFEE368002269
:10975000D3F88800062120F093FE3B6B032B00F228
:10976000D783DFE813F03E03370330032903E368B0
:109770000021D86820F0D0F9E3680021D3F8C800B0
:1097800020F0CAF9E3680021D3F8CC0020F0C4F936
:10979000E3680021D3F8D00020F0BEF9E36800218F
:1097A000D3F8D40020F0B8F9E3680121186C20F058
:1097B000B3F9E3680121186D20F0AEF9E3680121E7
:1097C000986C20F0A9F9E3680121586D20F0A4F904
:1097D0002969E3680029D4BF00210121186B20F01A
:1097E0009BF997F85010002940F0AC82E368986B21
:1097F00020F092F92969E3680029586BD4BF002151
:10980000012120F089F9E3680022D3F888000621BD
:1098100020F036FEE3680022D3F88800052120F00E
:109820002FFEE3680021D86B20F076F9E368002171
:10983000D86C20F071F9E3680021986D20F06CF984
:10984000E3680021D86D20F067F92969E3680029F1
:10985000986ED4BF0021012120F05EF92969E368E8
:109860000029D4BF00210121D86E20F055F9E3680A
:109870000121D3F8800020F04FF9E3680121D3F8EB
:10988000840020F049F92969E3680029D3F88800A9
:10989000D4BF0021012120F03FF92969E3680029A4
:1098A000D4BF00210121D3F8940020F035F9E368FA
:1098B0000021D3F8980020F02FF93B6B022B40F3E6
:1098C000B1822969E3680029D3F89C00D4BF002144
:1098D000012120F021F9E3680021D3F8A00020F055
:1098E0001BF9E3680021D3F8A40020F015F92969D9
:1098F000E3680029D4BF00210121D3F8A80020F09B
:109900000BF9E3680021D3F8AC0020F005F9E36817
:109910000121D3F8B00020F0FFF82969E36800299D
:10992000D3F8B400D4BF0021012120F0F5F8FBF7F3
:1099300061F90746002800F068822969E368002978
:10994000D3F8B800D4BF0021012120F0E5F829693F
:10995000E3680029D3F8BC00D4BF0021012120F026
:10996000DBF8E3680021D3F8C00020F0D5F8E36805
:109970000021D3F8C40020F0CFF8E3680022D3F828
:109980008800114620F07CFDE3680022D3F88800AF
:10999000012120F075FDE3680022D3F88800022140
:1099A00020F06EFDE3680022D3F88800032120F048
:1099B00067FDE3680122D3F88800042120F060FDF0
:1099C000E3680022D3F88800052120F059FDE36800
:1099D0000022D3F88800062120F052FDE368FFF74B
:1099E000FEBAE3680021D86820F096F8E368002109
:1099F000D3F8C80020F090F8E3680021D3F8CC0039
:109A000020F08AF8E3680021D3F8D00020F084F831
:109A1000E3680021D3F8D40020F07EF8E368002149
:109A2000186B20F079F8E3680021986B20F074F847
:109A3000E3680021586B20F06FF8E3680021D86BD1
:109A400020F06AF8E3680021D86C20F065F8E3683C
:109A50000021986D20F060F8E3680021D86D20F0B7
:109A60005BF8E3680021986E20F056F8E368002167
:109A7000D86E20F051F8E3680021D3F8800020F080
:109A80004BF8E3680021D3F8840020F045F8E36840
:109A90000021D3F8880020F03FF8E3680021D3F8D4
:109AA000940020F039F8E3680021D3F8980020F002
:109AB00033F8E3680021D3F89C0020F02DF8E36828
:109AC0000021D3F8A00020F027F8E3680021D3F8A4
:109AD000A40020F021F8E3680021D3F8A80020F0CA
:109AE0001BF8E3680021D3F8AC0020F015F8E36818
:109AF0000021D3F8B00020F00FF8E3680021D3F87C
:109B0000B40020F009F8E3680021D3F8B80020F091
:109B100003F8E3680021D3F8BC001FF0FDFFFFF756
:109B200051BAE3680021D8681FF0F6FFE36800210E
:109B3000D3F8C8001FF0F0FFE3680021D3F8CC0091
:109B40001FF0EAFFE3680021D3F8D0001FF0E4FF24
:109B5000E3680021D3F8D4001FF0DEFFE3680021A2
:109B6000186B1FF0D9FFE3680121586B1FF0D4FF79
:109B7000E3680021986B1FF0CFFFE3680021D86BEA
:109B80001FF0CAFFE3680021D86C1FF0C5FFE3682F
:109B90000121986D1FF0C0FFE3680121D86D1FF00F
:109BA000BBFFE3680021986E1FF0B6FFE368002159
:109BB000D86E1FF0B1FFE3680021D3F880001FF0DA
:109BC000ABFFE3680021D3F884001FF0A5FFE36832
:109BD0000021D3F888001FF09FFFE3680021D3F82D
:109BE00090001FF099FFE3680021D3F894001FF064
:109BF00093FFE3680021D3F898001FF08DFFE3681E
:109C00000021D3F89C001FF087FFE3680021D3F800
:109C1000A0001FF081FFE3680021D3F8A4001FF02B
:109C20007BFFE3680021D3F8A8001FF075FFE3680D
:109C30000021D3F8AC001FF06FFFE3680021D3F8D8
:109C4000B0001FF069FFE3680021D3F8B4001FF0F3
:109C500063FFE3680021D3F8B8001FF05DFFE368FD
:109C60000021D3F8BC001FF057FF2969E3680029E1
:109C7000D3F8C000D4BF002101211FF04DFF296996
:109C8000E3680029D3F8C400D4BF002101211FF0EC
:109C900043FFE368FFF7A3B9E36842F63021186E8B
:109CA00020F076FBFEF75DBFE36845F26041186E79
:109CB00020F06EFBFEF755BFE3684FF46161186E4C
:109CC00020F066FBFEF74DBFE36841F21851186EB5
:109CD00020F05EFBFEF745BFE3684FF4E161186ECC
:109CE00020F056FBFEF73DBFE36840F68C21186E6E
:109CF00020F04EFBFEF735BFE3684FF4E151186EDC
:109D000020F046FBFEF72DBFE3688549186E20F072
:109D10003FFBFEF726BFD3F8F80001211FF0FCFE41
:109D2000E3680121D3F8FC001FF0F6FEFFF776B9D7
:109D3000986B1FF0F1FEE3680121586B1FF0ECFEF9
:109D4000FEF7D4BF2969E3680029986BD4BF0021CE
:109D500001211FF0E1FEE3680021586B1FF0DCFEDB
:109D600051E52969E3680029D3F89C00D4BF00219C
:109D700001211FF0D1FEE3680021D3F8A0001FF0FD
:109D8000CBFE7AE401211FF0C7FEE3680021586B87
:109D90001FF0C2FEFFF736BB2969E3680029986B04
:109DA000D4BF002101211FF0B7FEE3680021586BEA
:109DB0001FF0B2FEFFF79DBAE3685A49D3F8982026
:109DC0005164FFF70CB9E3685749D3F89820516400
:109DD000FFF705B9E3685549D3F898205164FFF7B8
:109DE000FEB8E3685249D3F898205164FFF7F7B8FA
:109DF000E368D3F8B80041461FF08EFEE3684146A1
:109E0000D3F8BC001FF088FE6AE4E3683946D3F853
:109E1000B8001FF081FEE3683946D3F8BC001FF09C
:109E20007BFE9EE5E3680021D3F89C001FF074FEE2
:109E30002969E3680029D3F8A000D4BF00210121DB
:109E40001FF06AFE4DE5E3680021D3F89C001FF087
:109E500063FE2969E3680029D3F8A000D4BF00217C
:109E600001211FF059FEFFF741BBE3680021986E06
:109E70001FF052FEE3680021D86E1FF04DFE2969E5
:109E8000E3680029D4BF00210121186F1FF044FEB0
:109E90002969E3680029586FD4BF002101211FF010
:109EA0003BFEFFF7E3BAE3680021D3F89C001FF004
:109EB00033FE2969E3680029D3F8A000D4BF00214C
:109EC00001211FF029FEFFF754BA986D01211FF000
:109ED00023FEE3680121D86D1FF01EFEFFF706B8D0
:109EE000E3681449D3F8CC0020F0C6FAFEF7EFBEC1
:109EF000E3681149D3F8CC0020F0BEFAFEF7E7BEC4
:109F0000E3680E49D3F8CC0020F0B6FAFEF7DFBEC6
:109F1000E3680B49D3F898205164FFF760B800BF9D
:109F2000805101003415FF1F6415FF1F5415FF1FDA
:109F30004415FF1F280EFF1FD80DFF1F780EFF1FAF
:109F40007415FF1FFFFFFFFFF0B5044697B0002018
:109F5000FAF7D2FC3249D1E900672FA3D3E90023F5
:109F6000304639462EF0B2FA002835D02D4D2E4B12
:109F70006A6804F14C0653F822102C4A304632F03D
:109F80002BFFE2682A4B1269C2F8CC60D3E9006764
:109F90000022284B304639462EF098FA00282FD15F
:109FA000254B1A68CDE90067642A02AE0CBF23492D
:109FB0002349304632F010FF6A68224B04F16B05EA
:109FC00053F822102846324632F006FFE3685B69F8
:109FD000C3F8CC5017B0F0BD1B4B124D1A681B498B
:109FE000CDE9006702A832F0F7FE6A680E4B04F173
:109FF0004C0653F82210304602AA32F0EDFEC0E7BC
:10A00000104B6968094A53F8211004F16B05284682
:10A0100032F0E2FEDAE700BF0000004033330740D1
:10A02000B857FF1FC857FF1F1414FF1F1C7A0400E6
:10A03000A857FF1F00002440B057FF1F307A0400CC
:10A040003C7A04000415FF1FC057FF1F207A04004C
:10A05000436B70B50446412B6BD8DFE813F08301E6
:10A06000480140016A0038012D016A0022011601F1
:10A070006A006A00FE006A006A006A006A006A00FC
:10A080006A006A006A006A006A006A006A006A0080
:10A090006A00CD01A301FB0197016A006A006A0012
:10A0A0006A006A006A006A006A006A006A006A0060
:10A0B0006A006A006A006A006A006A006A00F701C2
:10A0C0006A006A006A006A006A00D601D500B3001F
:10A0D0004200A500A100980094006A006A00780080
:10A0E0007400B54D002200230220C5E91823FAF7B9
:10A0F00003FCD4F868012DF01FFFB04BD3E9002317
:10A100002DF0BAFD0B4602462046C5E91823FFF79D
:10A110001BFFE3680021D3F8E40084F864111FF00A
:10A12000B7FDE3680121D3F8E0001FF0B1FD38234B
:10A1300063632046FEF71AFC236820469B69984714
:10A140009F4B186870BD9E4B11221A60F1E790F882
:10A150009530002BEDD09B4D286808301BF0B4FDE6
:10A160002C68236800215B68C4F8B8101222964955
:10A1700020469847204622F073FA286808301BF0E2
:10A18000AFFD23F047FF8E4B0F221A60D1E790F806
:10A190009430002B40F0A881002384F89430C8E765
:10A1A000874B0D221A60C4E7834A884B52681A60B5
:10A1B000FFF7CAFEE3689B69012220465A72FEF748
:10A1C00081FBB6E790F86411C368002900F08F8125
:10A1D000D3F8E0000368DB699847E368D3F8E4004C
:10A1E00003689B699847E3680021D3F8E0001FF0FB
:10A1F0004FFDE3680121D3F8E4001FF049FD01227F
:10A2000039236260636394E76B4D002200230220D0
:10A21000C5E91623FAF770FBD4F860012DF08CFE27
:10A220006B4BD3E900232DF027FD0B460246204659
:10A23000C5E91623FFF788FEE3680021D3F8DC00A8
:10A2400084F85C111FF024FDE3680121D3F8D800E5
:10A250001FF01EFD362363636BE7574D6B68012BC0
:10A2600000F0358129695B4A03EB43030B4400206E
:10A27000594952F823201DF0DFFE2B69022B574B62
:10A280000CBF012200221A7053E74B4B1B78002BA6
:10A2900000F016814B4B1868012108301DF07AF947
:10A2A00047E7C368D86920F0BBF900283FF441AF05
:10A2B0002046FEF707FB3CE7C368586920F0B0F979
:10A2C00000283FF436AF2046FFF73EFE31E7C36873
:10A2D000186920F0A5F900283FF42BAFF3E7404BB5
:10A2E0001B68052B3FF425AFC0F86C3121E73D4ECC
:10A2F00000253570FAF78AF9394B9FED3B7AD3ED9B
:10A30000077A19693948F8EEE77A0122C7EE876AB9
:10A31000327080FB01C6C917C1EBA611264AC4F8EA
:10A320003811D3ED067AC4ED516AF8EEE77A5B692D
:10A33000C7EE876A80FB0310DB17C3EBA013C4F8DA
:10A340003C315369516803EB4303012902EB83025B
:10A350000CBF274927491832C4ED506A28461DF022
:10A360006BFEE6E6C368186820F05AF91C4A1368C9
:10A37000002800F0A280013B082B00F2BB80DFE840
:10A3800003F09894908C85817D797500D0ED517A99
:10A390009FED157A124B67EE877AFDEEE77AC3EDF3
:10A3A000077AC6E6D0F83C310D4A4FF47A7101FBCA
:10A3B00003F35361BDE600BFC857FF1FA857FF1F37
:10A3C0006C67FF1FB05CFF1FB87A0400E067FF1FD7
:10A3D000B857FF1FA41AFF1FA07A0400C059FF1F1F
:10A3E0003858FF1F0C0DFF1F00007A44D34D621038
:10A3F0004C7A0400707A0400D0F838313F4A4FF4A8
:10A400007A7101FB03F3136193E690F85C11C36862
:10A41000002966D0D3F8D8000368DB699847E36861
:10A42000D3F8DC0003689B699847E3680021D3F800
:10A43000D8001FF02DFCE3680121D3F8DC001FF0E9
:10A4400027FC012237236260636372E62C4B0C22E7
:10A450001A606EE6D0ED507A9FED2A7A274B67EEB0
:10A46000877AFDEEE77AC3ED067A62E6244B122284
:10A470001A605EE6224B0A221A605AE6204B0E2230
:10A480001A6056E61E4B09221A6052E61C4B062142
:10A490001960D4F86C3113604BE6194B08221A602E
:10A4A00047E6174B07221A6043E6154B05221A6050
:10A4B0003FE6134B04221A603BE6052BE9D038E651
:10A4C000114B1868FF2108301DF064F831E62B6944
:10A4D0000E4A0F490333002052F823201DF0ACFD33
:10A4E000CBE6D3F8DC00ADE6F9F7B2FB54E6D3F8DF
:10A4F000E40014E6024B03221A601AE63858FF1FE4
:10A500006C67FF1F00007A44B05CFF1FA41AFF1F96
:10A51000887A040030B5044685B0114622F0C6F8AA
:10A52000A368142B0CDC132B07DC0D4D29462046A9
:10A5300022F096F9A368132BF8DD204605B030BD54
:10A54000142300222146684622F0F6F96946204687
:10A5500022F030F9684622F0DDF8A368E3E700BF97
:10A5600024A004002DE9F04FD0F83431D0F8302188
:10A57000D0F834B09A4204468BB0A3EB020000F04E
:10A580008E80D4F83C31002B4FEA20115DDBCA1AD3
:10A59000032A73DCA1F106084F1E134628EAE87867
:10A5A000DFF854A1DFF85491636304F14C060125F0
:10A5B0002BE022F06BFAD4F8301104A801EB07115C
:10A5C00022F074F804AA21466846FFF7A3FF04A806
:10A5D00022F0A0F81522002304A9684622F066F9AB
:10A5E00004A9304632F070FFE368012153F82500DA
:10A5F0001FF092FA65626846013522F08BF8072D4C
:10A6000007F1FF3706F1160616D0B8454FF00202E3
:10A6100049463046CDDD5146142222F037FAE36830
:10A62000002153F8250001351FF076FA072D07F1B8
:10A63000FF3706F11606E8D1BBF1060F0CD9636BA4
:10A64000062B12D90BB0BDE8F08FA1F107084F1E01
:10A6500028EAE8780023A3E7E368002153F82B00F9
:10A660001FF016FB636B062BECD8E26852F8230050
:10A6700001210BB0BDE8F04F1FF00ABB022B09DC33
:10A680005028D4BF01F1FF370527FB1A01334FF0E3
:10A69000000885E79F1CA3F10208032380E7144A02
:10A6A000144B526804F14C0053F8221033F086FC2E
:10A6B000E368012158681FF02FFA0825E36800219C
:10A6C000585904351FF028FA1C2DF7D1BBF1000FA3
:10A6D00005DBE368002153F82B001FF0D9FAE2688C
:10A6E00000231068636301211FF0D2FAA4E700BFC2
:10A6F000C857FF1FBC0FFF1FCC7A040024A0040022
:10A70000012910B5044605D0022919D0BDE8104032
:10A710001DF0F0B9D0F83011D0F83C31D0F8342128
:10A720000133521AB3EB221FA8BF4FF0FF33C0F81A
:10A730003C31FFF717FF20461DF044F9002010BD03
:10A74000D0F83C31013BC0F83C31013307DB2046F7
:10A75000FFF708FF20461DF035F9002010BDD0F8A6
:10A760003021D0F834319B1A1B11013BC0F83C3129
:10A770002046FFF7F7FE20461DF024F9EDE700BF65
:10A7800010B50446F9F74EF90023054A2260236507
:10A79000236684F86430A4F85C30204610BD00BF06
:10A7A000A48104002DE9F04F2DED028B04468BB0FF
:10A7B000F9F738F90025364B2360C4F83051C4F856
:10A7C0003451C4F83851D02022F0ACFA04F10C0214
:10A7D000304B31490195009508EE102A01220546BB
:10A7E0001FF0FEFE21696369049599420DF1100A7C
:10A7F00048D041F8045B216104F14C06DFF898B0C1
:10A8000004F1D009B046002712E043F8045B23614D
:10A81000013722493A46504632F0DEFA4046514668
:10A8200033F0CCFB062F09F1100908F1160817D0F8
:10A83000D02022F077FA00214B46012201910091AD
:10A84000594605461FF0CCFE216962690395914285
:10A850000B46DAD118EE100A03AAF6F799FFD7E7EC
:10A86000234604F16002C3F8D060C3F8D46010330B
:10A87000934206F11606F6D120460BB0BDEC028BD2
:10A88000BDE8F08F18EE100A5246F6F781FFB3E7E5
:10A89000E08104007417FF1F28810400E07A04009F
:10A8A00070B505468CB00446F9F7BCF8704B45F816
:10A8B0000C3BD02022F036FA00236E49019300931E
:10A8C00001226D4B06461FF08BFE216963690B96D2
:10A8D000994200F0A78041F8046B2161D82022F052
:10A8E00021FA002308930793049302930B23012278
:10A8F000019304F16003614900930692604B059255
:10A90000039206461FF0ACFC216963690B969942DD
:10A9100000F08D8041F8046B2161D82022F002FA0A
:10A92000002308930793049302930B2301220193BE
:10A9300004F16C03514900930692524B0592039225
:10A9400006461FF08DFC216963690B96994273D00E
:10A9500041F8046B2161D82022F0E4F90023089328
:10A960000793049302930B230122019304F17803CC
:10A97000424900930692444B0592039206461FF00B
:10A980006FFC216963690B9699425AD041F8046BB8
:10A990002161D82022F0C6F900230893079304937D
:10A9A00002930B230122019304F1840333490093A2
:10A9B0000692364B0592039206461FF051FC216920
:10A9C00063690B96994241D041F8046B2161D02014
:10A9D00022F0A8F9002327490193009301222C4B70
:10A9E00006461FF0FDFD216963690B96994232D03E
:10A9F00041F8046B2161D02022F094F900231D4915
:10AA0000019300930122234B06461FF0E9FD2169C3
:10AA100063690B96994223D041F8046B204621616B
:10AA20000CB070BD0BAA2846F6F7B2FE56E70BAA8B
:10AA30002846F6F7ADFE70E70BAA2846F6F7A8FE03
:10AA400089E70BAA2846F6F7A3FEA2E70BAA284639
:10AA5000F6F79EFEBBE70BAA2846F6F799FECAE773
:10AA600028460BAAF6F794FE20460CB070BD00BF36
:10AA70001C820400288104007417FF1FEC7F04006F
:10AA80002417FF1F3417FF1F4417FF1F5417FF1F02
:10AA90008417FF1F6417FF1F2DE9F04707468CB08E
:10AAA0000446F8F7BFFFAF4B47F8943BAE4A3B462E
:10AAB00004F1A80143F8042F8B425A6102F10C0201
:10AAC000F8D1D02022F02EF90023A8490193009359
:10AAD0000122A74B06461FF083FD216963690B968F
:10AAE000994204F10C0501F0C08041F8046B21612A
:10AAF000DC2022F017F99F4A01929F4A009204F14C
:10AB000098020023039205229C4905930493029224
:10AB1000012206461FF086FC216963690B96994263
:10AB200001F0A98041F8046B2161DC2022F0FAF8E1
:10AB3000934A0392934A0192934A009200230A2275
:10AB40009249059304930292012206461FF06AFC83
:10AB5000216963690B96994201F0938041F8046B77
:10AB60002161DC2022F0DEF8894A0392894A0192B1
:10AB7000894A009200230A2288490593049302928D
:10AB8000012206461FF04EFC216963690B9699422B
:10AB900001F07D8041F8046B2161D02022F0C2F8E1
:10ABA00000237F490193009301227E4B06461FF04C
:10ABB00017FD216963690B96994201F06E8041F897
:10ABC000046B2161D02022F0ADF800237649019377
:10ABD00000930122754B06461FF002FD216963694F
:10ABE0000B96994201F05F8041F8046B2161E020EF
:10ABF00022F098F80023029301936D4B6D49009366
:10AC000001226D4B06461FF045FE216963690B96D4
:10AC1000994201F04E8041F8046B2161D02022F06E
:10AC200081F800235E49019300930122634B06469D
:10AC30001FF0D6FC216963690B96994201F03F80B1
:10AC400041F8046B2161D42022F06CF800235C4AA7
:10AC500004930393019201235A4A5B4E5B4900928D
:10AC600002961A4680461FF06BFC21696369CDF895
:10AC70002C80994201F0298041F8048B2161D42075
:10AC800022F050F800235249019300930122514BC6
:10AC900080461FF0CDFC21696369CDF82C80994274
:10ACA00001F0198041F8048B2161D82022F03AF894
:10ACB000002349490293019300930122474B8046A8
:10ACC0001FF09EFD21696369CDF82C80994201F047
:10ACD000088041F8048B2161DC2022F023F8404AEF
:10ACE0000392404A0192404A0092002303223F49C6
:10ACF000059304930292012280461FF093FB216981
:10AD00006369CDF82C80994200F0F18741F8048BFB
:10AD10002161D42022F006F8354A02920023354AF8
:10AD20000493039301920123334A344900921A4653
:10AD300080461FF005FC21696369CDF82C8099429B
:10AD400000F0DB8741F8048B2161E02021F0EAFF6D
:10AD50000023059304932A4B00936323012202935B
:10AD600005234FE068810400E057FF1F487F04007F
:10AD70001417FF1FDC57FF1FE417FF1F108004008C
:10AD80003421FF1F3858FF1F0417FF1F307F0400B6
:10AD9000541EFF1F9859FF1F9417FF1F04800400C3
:10ADA000A07C04001414FF1FD87C04000415FF1FAE
:10ADB0006C9E0400488104006418FF1FE418FF1F04
:10ADC000C857FF1FC416FF1FF41FFF1FF87C0400A5
:10ADD000587D0400A414FF1F047F04004416FF1FC5
:10ADE000A41AFF1FD857FF1F8419FF1FA87E040055
:10ADF000141FFF1F8858FF1F6419FF1F9080040055
:10AE00009058FF1FAD4901930392AD4B80461FF050
:10AE100089FA21696369CDF82C80994200F0738723
:10AE200041F8048B2161E02021F07CFF0023059391
:10AE30000493A44B00936FF01D03012202936FF063
:10AE40006D039E49019303929F4B80461FF06AFA5F
:10AE500021696369CDF82C80994200F05A8741F846
:10AE6000048B2161D42021F05DFF984A02920023D7
:10AE7000974A0493039301920123964A96490092BC
:10AE80001A4680461FF05CFB21696369CDF82C806F
:10AE9000994200F0448741F8048B2161DC2021F0C5
:10AEA00041FF8E4A03928E4A01928E4A00920023FD
:10AEB00004228D49059304930292012280461FF0DB
:10AEC000B1FA21696369CDF82C80994200F02D8791
:10AED00041F8048B2161DC2021F024FF834A039296
:10AEE000834A0192834A00920023042282490593F7
:10AEF00004930292012280461FF094FA216963694B
:10AF0000CDF82C80994200F0168741F8048B21611E
:10AF1000D42021F007FF0023784A04930393019281
:10AF20000123774A7749009202961A4680461FF01D
:10AF300007FB21696369CDF82C80994200F00187F5
:10AF400041F8048B2161E02021F0ECFE00239FED0D
:10AF50006E1A029301936D4B6D490093F0EE000A57
:10AF60006C4BB0EE410A012280461FF01FFA2169A6
:10AF70006369CDF82C80994200F0E98641F8048B92
:10AF80002161D42021F0CEFE0023634A0493039371
:10AF900001920123614A6249009202961A46804654
:10AFA0001FF0CEFA21696369CDF82C80994200F038
:10AFB000D48641F8048B2161D42021F0B3FE002314
:10AFC000584A0493039301920123574A5749009228
:10AFD00002961A4680461FF0B3FA21696369CDF8DC
:10AFE0002C80994200F0BF8641F8048B2161D82063
:10AFF00021F098FE0023029301934D4B4D4900939D
:10B0000001224D4B80461FF0FBFB21696369CDF89F
:10B010002C80994200F0AD8641F8048B2161D82044
:10B0200021F080FE002302930193444B4449009396
:10B030000122444B80461FF0E3FB21696369CDF890
:10B040002C80994200F09B8641F8048B2161F82006
:10B0500021F068FE3C4B00930021012244F2506332
:10B060000491039102930192384B80461FF0CCFE6D
:10B0700021696369CDF82C80994200F0868641F8F9
:10B08000048B2161F82021F04DFE314B009300210B
:10B0900001224AF6C00304910391029301922D4BC1
:10B0A00080461FF0B1FE21696369CDF82C8099427A
:10B0B00000F0718641F8048B21614DE0507F04005F
:10B0C000A418FF1F8C58FF1F9418FF1FF41EFF1FAA
:10B0D0009858FF1FF418FF1F548004005413FF1FDB
:10B0E0009458FF1F1416FF1F108104009413FF1FB4
:10B0F000B859FF1F8416FF1F187F0400BD59FF1F9A
:10B100006416FF1FC47F0400CDCC4C3E9C58FF1F2B
:10B11000308104001418FF1FBC59FF1F0414FF1FC7
:10B12000F8800400BE59FF1F3416FF1FB07F0400D3
:10B130003C58FF1F007E04002416FF1F4258FF1FCB
:10B14000147E04005416FF1F6058FF1F3418FF1FA1
:10B150006458FF1F2418FF1FE02021F0E3FD0023A7
:10B160000593049396230122029304F59C73B4493A
:10B1700000930392B34B019280461FF0D3F82169EC
:10B180006369CDF82C80994200F00B8641F8048B5E
:10B190002161E02021F0C6FD00230593049396234E
:10B1A0000122029304F59E73A74900930392A74BD3
:10B1B000019280461FF0B6F821696369CDF82C80B2
:10B1C000994200F0F48541F8048B2161E02021F0E0
:10B1D000A9FD00239FED9E1A0293019304F5A0732D
:10B1E0009C490093DFED9C0A9C4BB0EE410A012282
:10B1F00080461FF0DBF821696369CDF82C80994205
:10B2000000F0DB8541F8048B2161E02021F08AFD0C
:10B2100000239FED8F1A0293019304F5A2739049C6
:10B220000093DFED8D0A8F4BB0EE410A012280467C
:10B230001FF0BCF821696369CDF82C80994200F0B9
:10B24000C28541F8048B2161E02021F06BFD0023D1
:10B25000059304930193844B009301220A238349AD
:10B2600002930392824B80461FF05CF82169636968
:10B27000CDF82C80994200F0AC8541F8048B216117
:10B28000E02021F04FFD002305930493794B0093B8
:10B2900001220A23754902930392754B019280465D
:10B2A0001FF040F821696369CDF82C80994200F0C5
:10B2B000968541F8048B2161E02021F033FD0023C5
:10B2C000059304936C4B0093012263236B49029313
:10B2D00003926B4B019280461FF024F82169636949
:10B2E000CDF82C80994200F0808541F8048B2161D3
:10B2F000E02021F017FD002305930493614B009398
:10B30000012240F2E7336049029303925F4B0192BE
:10B3100080461FF007F821696369CDF82C809942B7
:10B3200000F0698541F8048B2161DC2021F0FAFCF2
:10B33000574A019200230722DFF88CA1DFF88C9195
:10B340005449059304930292CDF80CA0CDF80090D7
:10B35000012280461FF066F821696369CDF82C80D0
:10B36000994200F04E8541F8048B2161DC2021F0E8
:10B37000D9FC494A019200230722464905930493C8
:10B380000292CDF80CA0CDF80090012280461FF06B
:10B3900049F821696369CDF82C80994200F037851E
:10B3A00041F8048B2161DC2021F0BCFC3B4A039274
:10B3B0003B4A01923B4A0092002303223A490593FB
:10B3C00004930292012280461FF02CF821696369E0
:10B3D000CDF82C80994200F0208541F8048B216142
:10B3E000DC2021F09FFC314A0392314A0192314A1C
:10B3F0000092002305223049059304930292012212
:10B4000080461FF00FF821696369CDF82C809942BE
:10B4100000F0098541F8048B2161D42021F082FCE1
:10B420000023264A0493039301920123244A2549C9
:10B43000009202961A4680461FF082F8216947E082
:10B44000D47D0400B415FF1FC07D04008415FF1FC8
:10B45000CDCCCC3DDC7E040000004042C415FF1F73
:10B46000C87E04009415FF1FB059FF1FE48004003C
:10B47000D417FF1FB459FF1F5858FF1F807D0400C9
:10B48000E414FF1F5C58FF1F6C7D0400D414FF1FE1
:10B490006858FF1F947D04006C58FF1F2424FF1F71
:10B4A0009059FF1FB418FF1F647F0400380FFF1F5F
:10B4B0007058FF1F0416FF1FE87D04007458FF1F1B
:10B4C0007415FF1FA87D0400C80EFF1F1415FF1F71
:10B4D0006369CDF82C80994200F0AB8441F8048B6D
:10B4E0002161E02021F01EFC0023059304930193C9
:10B4F000B04B009301221923AF4902930392AF4B43
:10B5000080461EF00FFF21696369CDF82C809942B7
:10B5100000F0958441F8048B2161E02021F002FCC9
:10B52000002302930193A64BA64900939FEDA61A10
:10B53000A64B9FEDA70AF3EE090A012280461EF0F2
:10B5400035FF21696369CDF82C80994200F07D8434
:10B5500041F8048B2161DC2021F0E4FB9D4A039239
:10B560009D4A01929D4A0092002303229C49059323
:10B5700004930292012280461EF054FF2169636900
:10B58000CDF82C80994200F0668441F8048B21614B
:10B59000D42021F0C7FB0023924A04930393019225
:10B5A0000123914A9149009202961A4680461EF064
:10B5B000C7FF21696369CDF82C80994200F051845E
:10B5C00041F8048B2161D42021F0ACFB884A019220
:10B5D0000023884A8849049303930092029601222B
:10B5E00080461EF0ADFF21696369CDF82C80994239
:10B5F00000F03D8441F8048B2161D82021F092FBBA
:10B60000002308930793049302937C4B0093012239
:10B6100005237B49019306927A4B0592039280465B
:10B620001EF01EFE21696369CDF82C80994200F05E
:10B63000248441F8048B2161E02021F073FB002376
:10B6400005930493704B0093012208236F490293E2
:10B6500003926F4B019280461EF064FE216963697C
:10B66000CDF82C80994200F00E8441F8048B2161C2
:10B67000E02021F057FB0023059304930A23039352
:10B680000193644B00934FF4616363490293012279
:10B69000624B80461EF046FE21696369CDF82C801E
:10B6A000994200F0F68341F8048B2161D42021F007
:10B6B00039FB5B4A019200235A4ADFF8A0815A49BC
:10B6C000049303930092CDF80880012281461EF076
:10B6D00037FF21696369CDF82C90994200F0DE8331
:10B6E00041F8049B2161D02021F01CFB00234F492D
:10B6F0000193009301224E4B81461EF071FF216998
:10B700006369CDF82C90994200F0CD8341F8049BF9
:10B710002161D42021F006FB464A01920023464ACB
:10B720004649049303930092CDF808800122814694
:10B730001EF006FF21696369CDF82C90994200F054
:10B74000B78341F8049B2161E02021F0EBFA00234C
:10B75000059304933A4B0093012232233949029313
:10B760000392394B019281461EF0DCFD2169636929
:10B77000CDF82C90994200F0A08341F8049B216100
:10B78000DC2021F0CFFA314A0392314A0192314A4A
:10B79000009200230522304905930493029201226E
:10B7A00081461EF03FFE21696369CDF82C909942D5
:10B7B00056E000BF7858FF1FD87F04007416FF1FA3
:10B7C000A859FF1FD0800400CDCCCC3D2415FF1F0D
:10B7D000000000008C0FFF1F9459FF1FE416FF1F8D
:10B7E000547E04007D58FF1FF414FF1FC07C04002A
:10B7F0007C58FF1F2414FF1F247D04007E58FF1F68
:10B800007C7E0400C417FF1F8458FF1F687E04005D
:10B81000A417FF1FA858FF1F947E04000418FF1FE1
:10B82000A458FF1F0419FF1F0C7D0400387D04007D
:10B830003414FF1F8C59FF1F4418FF1F2880040079
:10B840009C59FF1FF07E0400F415FF1FD80DFF1F49
:10B85000A059FF1F1419FF1F688004006C27FF1FE9
:10B8600000F0308341F8049B2161E02021F05AFA76
:10B870000023059304930193B44B009301220A2300
:10B88000B34902930392B34B81461EF04BFD2169ED
:10B890006369CDF82C90994200F0198341F8049B1C
:10B8A0002161DC2021F03EFAAB4A0392AB4A0192BF
:10B8B000AB4A009200230322AA4905930493029203
:10B8C000012281461EF0AEFD21696369CDF82C90FE
:10B8D000994200F0018341F8049B21614FF0000977
:10B8E00084F85C91D42021F01DFA9F4A009204F55F
:10B8F000AE724B469D49CDF81090CDF80C90019258
:10B90000CDF80880012281461EF01AFE2169636984
:10B91000CDF82C90994200F0E48241F8049B21611B
:10B92000E02021F0FFF900230293019304F5B073A6
:10B930008F4900939FED8F1A8F4BDFED900AB0EE89
:10B94000080A012281461EF031FD21696369CDF8A4
:10B950002C90994200F0CA8241F8049B21614FF07B
:10B960000009874BC4F8603184F86491D42021F039
:10B97000D9F9844A009204F5B2728349CDF808805F
:10B980004B460192CDF81090CDF80C9001228046E4
:10B990001EF0D6FD21696369CDF82C80994200F034
:10B9A000AA8241F8048B2161E02021F0BBF9002339
:10B9B0000293019304F5B473744900939FED6D1ADB
:10B9C000734BF3EE000AB2EE040A012280461EF029
:10B9D000EDFC21696369CDF82C80994200F09082DA
:10B9E00041F8048B21616B4BC4F86831DC2021F0F5
:10B9F00099F9694A0392694A0192694A00920023BF
:10BA000004226849059304930292012280461EF0A5
:10BA100009FD21696369CDF82C80994200F0758297
:10BA200041F8048B2161D02021F07CF900235E498C
:10BA30000193009301225D4B80461EF0D1FD2169E8
:10BA40006369CDF82C80994200F0648241F8048B40
:10BA50002161D42021F066F90023554A5549019708
:10BA60000493039300920296012207461EF068FD9C
:10BA7000216963690B97994200F0588241F8047B71
:10BA80002161D02021F04EF9002347490193009312
:10BA90000122494B07461EF0A3FD216963690B97FC
:10BAA000994200F0488241F8047B2161D42021F0C2
:10BAB00039F9424A01920023414A424904930393CF
:10BAC00000920296012207461EF03AFD2169636941
:10BAD0000B97994200F0348241F8047B2161DC200D
:10BAE00021F020F9384A0392384A0192384A0092EC
:10BAF0000023082237490593049302920122074646
:10BB00001EF090FC216963690B97994200F01D8239
:10BB100041F8047B2161D42021F004F904F195035C
:10BB200001932D4B009300232C4902960493039319
:10BB3000012206461EF004FD216963690B969942B5
:10BB400000F0088241F8046B216149E0A459FF1F0D
:10BB50007C8004002419FF1F241AFF1FAC59FF1F0B
:10BB6000B416FF1F407E04007414FF1FA880040059
:10BB7000807F0400CDCCCC3D6414FF1FCDCC8C4025
:10BB8000666686409414FF1FBC800400987F040002
:10BB90008414FF1F00004041641AFF1FCC57FF1F91
:10BBA0009416FF1F287E04007C7F04007419FF1F79
:10BBB000B414FF1FA87C0400F417FF1F8E59FF1F49
:10BBC000C418FF1F40800400A419FF1FD457FF1F93
:10BBD000A416FF1FE07C04004414FF1F407D0400F6
:10BBE000D02021F09FF80023CD490193009301223A
:10BBF000CC4B06461EF0F4FC216963690B96994212
:10BC000000F0AD8141F8046B2161E3680022D3F8B4
:10BC10008C0004211EF034FCE3680022D3F88C0071
:10BC200005211EF02DFCE3680022D3F88C000621CC
:10BC30001EF026FCE3680022D3F8E80002211EF083
:10BC40001FFCE3680022D3F8E80003211EF018FC73
:10BC5000E268B54B506C0021A4F8941019701DF0E7
:10BC60005BFF20460CB0BDE8F0870BAA2846F5F72D
:10BC70008FFDFEF73DBF0BAA2846F5F789FDFEF7BD
:10BC800054BF0BAA2846F5F783FDFEF76ABF0BAA3F
:10BC90002846F5F77DFDFEF780BF0BAA2846F5F78D
:10BCA00077FDFEF78FBF0BAA2846F5F771FDFEF76B
:10BCB0009EBF0BAA2846F5F76BFDFEF7AFBF0BAA98
:10BCC0002846F5F765FDFEF7BEBF0BAA2846F5F737
:10BCD0005FFDFEF7D4BF0BAA2846F5F759FDFEF726
:10BCE000E4BF0BAA2846F5F753FDFEF7F5BF0BAAF4
:10BCF0002846F5F74DFDFFF70CB80BAA2846F5F7D7
:10BD000047FDFFF722B80BAA2846F5F741FDFFF7DC
:10BD10008AB80BAA2846F5F73BFDFFF7A3B80BAA94
:10BD20002846F5F735FDFFF7B9B80BAA2846F5F711
:10BD30002FFDFFF7D0B80BAA2846F5F729FDFFF72E
:10BD4000E7B80BAA2846F5F723FDFFF7FCB80BAAC6
:10BD50002846F5F71DFDFFF714B90BAA2846F5F79D
:10BD600017FDFFF729B90BAA2846F5F711FDFFF7D4
:10BD70003EB90BAA2846F5F70BFDFFF750B90BAA01
:10BD80002846F5F705FDFFF762B90BAA2846F5F737
:10BD9000FFFCFFF777B90BAA2846F5F7F9FCFFF788
:10BDA000DBB90BAA2846F5F7F3FCFFF7F2B90BAAAB
:10BDB0002846F5F7EDFCFFF709BA0BAA2846F5F778
:10BDC000E7FCFFF722BA0BAA2846F5F7E1FCFFF7DC
:10BDD0003BBA0BAA2846F5F7DBFCFFF751BA0BAAD2
:10BDE0002846F5F7D5FCFFF767BA0BAA2846F5F702
:10BDF000CFFCFFF77DBA0BAA2846F5F7C9FCFFF781
:10BE000094BA0BAA2846F5F7C3FCFFF7AFBA0BAA02
:10BE10002846F5F7BDFCFFF7C6BA0BAA2846F5F78A
:10BE2000B7FCFFF7DDBA0BAA2846F5F7B1FCFFF720
:10BE3000F4BA0BAA2846F5F7ABFCFFF752BB0BAAE6
:10BE40002846F5F7A5FCFFF768BB0BAA2846F5F7CF
:10BE50009FFCFFF780BB0BAA2846F5F799FCFFF77C
:10BE600097BB0BAA2846F5F793FCFFF7ACBB0BAAD0
:10BE70002846F5F78DFCFFF7C0BB0BAA2846F5F75F
:10BE800087FCFFF7D9BB0BAA2846F5F781FCFFF723
:10BE9000EFBB0BAA2846F5F77BFC07E40BAA284664
:10BEA000F5F776FC1FE40BAA2846F5F771FC30E4A1
:10BEB0000BAA2846F5F76CFC46E40BAA2846F5F7D2
:10BEC00067FC5DE40BAA2846F5F762FCCDE40BAAFB
:10BED0002846F5F75DFCE4E40BAA2846F5F758FC84
:10BEE000FCE40BAA2846F5F753FC19E50BAA2846F3
:10BEF000F5F74EFC33E50BAA2846F5F749FC53E568
:10BF00000BAA2846F5F744FC6DE50BAA2846F5F781
:10BF10003FFC88E50BAA2846F5F73AFC99E500BFF7
:10BF2000C07E04005414FF1F6C57FF1F0BAA284645
:10BF3000F5F72EFCA5E50BAA2846F5F729FCB5E593
:10BF40000BAA2846F5F724FCC9E50BAA2846F5F705
:10BF50001FFCE0E50BAA2846F5F71AFC40E60BAA01
:10BF60002846F5F715FC50E62DE9F04FD0F8008093
:10BF700046688B46A6EB080311466FF07842B2EB99
:10BF8000231F85B061D01F11012F3B4638BF01230D
:10BF9000FF1881465D4654D2ABEB0803002F3FD11A
:10BFA00001971024BA460AEB030020F09DFBC3451D
:10BFB0000DD04746544639462046103720F076FBD0
:10BFC0005F45224604F11004F5D102F12004B34587
:10BFD00008D029462046103520F068FBB54204F110
:10BFE0001004F6D1B04518BF454605D02846103597
:10BFF00020F090FBB542F9D1B8F1000F06D0D9F886
:10C0000008104046A1EB080120F094FE019BC9F8FE
:10C0100000A0C9F80440C9F8083005B0BDE8F08FA9
:10C02000974228BF17463F0138460391029320F0FC
:10C0300079FEC31901930399029B824600F1100413
:10C04000B1E7034FABEB0803EEE7024824F0AEFC88
:10C05000F0FFFF7F784E04002DE9F0430B1A102B00
:10C0600089B005460C4617464FEA231840DDA8F173
:10C07000020606EBD676761000EB061902E0013ECA
:10C0800020F048FB4946684620F02EFB694604A88C
:10C0900020F02AFB04AB424631462846FBF762FFFC
:10C0A00004A820F037FBA9F110096846002EE6D15C
:10C0B00020F030FBA7421DD809B0BDE8F08321462F
:10C0C000684620F011FB2946204620F073FB6946A4
:10C0D00004A820F009FB04AB424600212846FBF7E8
:10C0E00041FF04A820F016FB684620F013FB103433
:10C0F000A742E1D92946204620F0C0FB0028F6D00F
:10C10000DDE700BF0B1AB3F5807F40F3C9802DE94E
:10C11000F04F064689B09246002A00F09580894685
:10C1200006F1100B0DF11008A9EB0603DC0F04EB70
:10C130002314641006EB04142146584620F09EFB9D
:10C14000A9F110050AF1FF3A294600284AD02046F5
:10C1500020F094FB002859D03146404620F0C4FA24
:10C160002146304620F026FB4146204620F022FBA7
:10C17000404620F0CFFA4F465B46184631461D46F2
:10C1800020F07CFB05F110030028F6D1A7F1100484
:10C190002146304620F072FB2746103C0028F7D19C
:10C1A000BD4211D22946404620F09EFA3946284623
:10C1B00020F000FB4146384620F0FCFA404620F0D3
:10C1C000A9FA05F11003D8E7524649462846FFF779
:10C1D00099FFAB1BB3F5807F5FDDBAF1000F36D05E
:10C1E000A946A1E7584620F049FB28B3314640460E
:10C1F00020F07AFA5946304620F0DCFA414658469B
:10C2000020F0D8FA404620F085FAB4E7294658468F
:10C2100020F034FB31460028E9D0404620F064FA93
:10C220002946304620F0C6FA4146284620F0C2FA98
:10C23000404620F06FFA9EE72946204620F01EFB7C
:10C240003146002889D0E8E70D460DF110084FF07F
:10C2500000032A4629463046A5F11004FFF7FCFEEC
:10C260002146684620F040FA3146204620F0A2FAE6
:10C27000A51B6946404620F037FA43462A110021A3
:10C280003046FBF76FFE404620F044FA684620F047
:10C2900041FA102DA4F11004E2DC09B0BDE8F08FE2
:10C2A000704700BF2DE9F043D0F83071D0F8346109
:10C2B000B742D5B0054608D03C462046103420F0A1
:10C2C00029FAA642F9D1C5F834715C4A11685C4A72
:10C2D0002C9200234FF47A70CDE93E33CDE95233EE
:10C2E0002D932E908DF8BC30419342908DF80C31F7
:10C2F000409244AC21B1534A204616F06FF918B968
:10C300005149524820F0C4F9514EDFF84C8105F5EF
:10C310009879002718E0502204A915F093FD04A98C
:10C3200018A831F04BFE18A831F054F9314604A892
:10C3300031F0DAFC28B13E9BCBB11B7813F0700FC3
:10C340001CD030A816F036F90022214630A816F08D
:10C350009DF978B33E988DF810700028DBD13F9896
:10C360000028DCD0502204A913F08AFBD7E73F9BBA
:10C3700023B193F8313013F0500FE2D1414618A8A1
:10C3800031F02EFB0028DCD004A9684620F0FEF92D
:10C39000D5F83401D5F83831984248D0694620F0B4
:10C3A000A3F9D5F834311033C5F83431684620F09C
:10C3B000B1F9C6E7D5F83471D5F8308147452AD0B0
:10C3C000A7EB08063211B2FA82F2C2F11F02520044
:10C3D00039464046FFF796FEB6F5807F0EDD08F53C
:10C3E000807640463146FBF757FEB7420AD03046CA
:10C3F0001036FBF733FEB742F9D103E03946404629
:10C40000FBF74AFED5F83431D5F830219B1A1B11C1
:10C41000013BC5F83C310F4D4095204616F0CAF857
:10C4200030A82C9516F0C6F855B0BDE8F08301464B
:10C430006A464846FFF798FDB8E700BFA461FF1FB2
:10C4400000750400D8790400F07A0400C02DFF1FA5
:10C450001C7B0400DC740400DC73040010B504468B
:10C46000FAF7FCFC2046FFF71DFF0023A3622046DD
:10C47000BDE81040FEF776B82DE9F8430368574C45
:10C480005B69574FDFF878910646984720683B680C
:10C49000C6F86C31083019F017FC2568D9F804206B
:10C4A0000023C5F8B8304F4B53F82280B8F1000F85
:10C4B00008D0404631F044FE2B6802465B68414696
:10C4C00028469847284620F0CBF8474BD9F8042057
:10C4D000256853F822804FF42023C5F8B830B8F10E
:10C4E000000F08D0404631F02BFE2B6802465B68F7
:10C4F000414628469847284620F0B2F82068083080
:10C5000019F0EEFB0023C6F88C3018F0FFFFC6F8D8
:10C5100090003046FDF718FDF2683B6892690121F2
:10C52000022B517248DC002B48DC304D06F1C00470
:10C5300006F1FC082946204631F040FD294604F169
:10C540003C000C3431F03AFD444505F10C05F1D1C5
:10C55000D7ED077A9FED267A3B692649F8EEE77A10
:10C5600081FB030287EE876ADB17C3EBA2127B69AC
:10C57000C6F8382181FB0301DB17C3EBA113C6F812
:10C580003C313046D7ED067A86ED516AF8EEE77A0F
:10C59000C7EE876AC6ED506AFCF7E8F9164B1978C2
:10C5A00099B10023304686F838301BF093F83046B6
:10C5B000BDE8F843FCF786B9052BB6D10F4B1B68D5
:10C5C000012B08D000233B60AFE7F368D3F8FC00F1
:10C5D0001DF0A2FAE5E706233B60A6E7B05CFF1F6B
:10C5E0003858FF1F441DFF1FC41CFF1FE057FF1FCB
:10C5F00000007A44D34D6210C059FF1F3058FF1F0E
:10C60000C857FF1F30B50F4D83B00190F7F7F4FC0A
:10C610002C680198022C06DC002C06DC1BF04EF87E
:10C620002C6003B030BD052CF8D1074B1B68012BE3
:10C630000CBF062300232B601BF040F82C6003B0D6
:10C6400030BD00BF3858FF1F3058FF1F70B504467B
:10C6500082B0FAF703FC3D23E364114A114900203C
:10C660001BF0EAFC104B1B680025022B656501DC02
:10C6700002B070BD4FF4077020F054FB0646F6F789
:10C6800049FD26652A4629463046F6F7D5FD074B73
:10C690001B680193019B03F57A73636502B070BD5B
:10C6A00030790400387B04003058FF1F6868FF1F92
:10C6B000F0B5044685B00120F8F7ECF807EE900AD3
:10C6C00094ED197AE36DF8EE677AB2EE040AA7EEFC
:10C6D000870A022B84ED180A68D0E36C012B4CD03A
:10C6E000D4F8E43001331AD0364E37493068083078
:10C6F0001AF006F904F50D4537684F23FC35C7F8E5
:10C70000B830284631F01CFD3B68024629465B687C
:10C710003846984730682D4908301AF0F1F82C4D0A
:10C72000D4F8E8202B680093009B9A4223D2294B2F
:10C73000587860B3284B1B78A3B10220F8F7DCF8D7
:10C7400048B32B680393039B03F5EA433033204639
:10C75000C4F8E830F8F764FA012005B0BDE8F0400D
:10C76000F8F75AB80120F8F7C7F82B680193019B36
:10C770007D33C4F8E83005B0F0BD94F8F430EBB187
:10C78000D4F80822B4F80C326265A365A8E7F8F77C
:10C79000B3F80028D5D111491BF04EFC0120F8F761
:10C7A000ABF82B680293029B7D33D0E7E36C012B3F
:10C7B00096D104F1EC0007F09BFB8EE7E364636520
:10C7C000A3658DE7B05CFF1FB43205002C3A05006D
:10C7D0006868FF1FC459FF1FB457FF1F604E040055
:10C7E0002DE9F04F87B088460092013A02EBD272F1
:10C7F000B1EB620F064601934EDA4FEA62090F462B
:10C8000000E02F467C1C650005F1FF3A06EB44145E
:10C8100006EB0A1B5946204620F030F800281CBFC2
:10C820005C46554606EB071021461FF0C3FF4D45F9
:10C83000E7DB009BDA0735D50DF108090199484679
:10C840006F1E1FF051FF07EBD77745454FEA67078B
:10C850000BDC17E01FF0AEFF7B1E03EBD373B84574
:10C860004FEA63033D460DDA1F4606EB07144946BF
:10C87000204620F003F80346214606EB0510002B66
:10C88000E8D10446494620461FF094FF48461FF071
:10C8900041FF07B0BDE8F08F009BDB0713D400EB2E
:10C8A00001140D46009BA3F1020B0BEBDB7BB5EBF8
:10C8B0006B0FC1D16D000135204606EB05142146F2
:10C8C0001FF078FFB8E70DF10809019948461FF0FD
:10C8D0000BFF06EB0814D5E710B584B004460146FB
:10C8E00068461FF001FF103C01E01FF063FF214686
:10C8F00068461FF0C3FF0346214604F11000103CB8
:10C90000002BF2D169461FF055FF68461FF002FF69
:10C9100004B010BD884235D02DE9F04300F110037A
:10C92000994285B00746894624D000F12006A6F139
:10C930001004394620461FF0A1FFF0B12146684699
:10C940001FF0D2FEE31B002BB0464FEA231506DD95
:10C950002046103C21461FF02DFF013DF8D16946CD
:10C9600038461FF027FF68461FF0D4FEC14506F188
:10C970001006DCD105B0BDE8F0832046FFF7ACFF20
:10C98000B046F3E7704700BFF8B50546EC3007F056
:10C990003DFAD5F8D870D5F8DC60B74208D03C46EF
:10C9A000204610341FF0B6FEA642F9D1C5F8DC705F
:10C9B000034B002228461A70BDE8F840FAF784BA03
:10C9C000D85BFF1F2DE9F84300F500484CF25033C7
:10C9D000D8F88C529D42044600F0E88016DCB5F58C
:10C9E000164F08D04FDC45F6C0539D4253D046F257
:10C9F000A8139D422BD1E76D032F17D0012F4FF0C5
:10CA0000000940F0F7803E464F4668E0804B9D426B
:10CA100000F0E88048DD7F4B9D4200F0E3807E4BD4
:10CA2000C76D9D4217D1032F40F0E08001260123FE
:10CA3000E3657A4B9D4240F3BF804FF00009784B8D
:10CA400083FB0523ED17C5EBA305002747E0B5F5EC
:10CA5000964FD0D0E76D032F00F09880012F4FF054
:10CA6000000932D0022F30D00026002F40F0B380D2
:10CA7000B9F1000FDBD0A7F10207B7FA87F77F09FA
:10CA80004FF0010924E04AF644439D4203D04BF69F
:10CA900080339D42DED1E76D032F00F09E80012F91
:10CAA00012D04FF00109DDE75E4B9D42F3D05E4BA3
:10CAB0009D42CFD1C76D032F00F0A680012F00F05B
:10CAC000A0804FF0010995E0B9460026E66537469B
:10CAD0004BF67F339D4202DC05EB85056D00E36874
:10CAE0004A46586900211DF0CBFCE368324658697C
:10CAF00001211DF0C5FCE3683246586902211DF092
:10CB0000BFFCE3684A46186A00211DF0B9FCE368DF
:10CB10003246186A01211DF0B3FCE3683246186AF8
:10CB200002211DF0ADFC3A46294604F1EC0007F065
:10CB300025F9D4ED3E7A9FED3D7AD4F80432236591
:10CB4000F8EEE77AC7EE876A06B147B316EE900AA9
:10CB50002BF0F2F9024604F50D400B46FC30344947
:10CB600030F03AF998F8083E73B998F8091E59B9A7
:10CB7000E3682FB358691CF0CFFFE368012198697F
:10CB8000BDE8F8431CF0C8BFBDE8F8830123E365A6
:10CB9000224B9D424FF000063FF74FAF0CE0F2EE04
:10CBA000047A66EEA77A17EE900AD1E7C76D032FD5
:10CBB0007FF424AF0126C6654FF000094F468EE78B
:10CBC000586901211CF0A8FFE36839469869BDE85F
:10CBD000F8431CF0A1BF00277AE700231E46E36557
:10CBE0001F4648E7E76D032F3FF420AF012F4FF0BA
:10CBF000000907D0022F4FF001067FF436AF374609
:10CC000066E7B94601261AE70027C765012632E71D
:10CC100090D0030000DC050020A1070030E60200F0
:10CC2000676666660077010000EE020000007A4445
:10CC300050820400D0F8DC30D0F8D810994270B59A
:10CC400006D0D0F8E4205B1AB2EB231F044602DBC7
:10CC50000025284670BD234B1B786BB11301224879
:10CC6000CB582249002B08BF034621481FF010FD76
:10CC7000D4F8E420D4F8D8101B4E120104F1EC05CE
:10CC800089582846002908BF314607F023F818BB09
:10CC90004FF4FA7020F0FCFBD4F8E430D4F8D8203C
:10CCA0001B012846D158002908BF314607F012F869
:10CCB000054688B90F4BD4F8D8205B68012BD4F80F
:10CCC000E4300CBF0C490D491B01D258002A08BFA3
:10CCD00032461BF0B1F9BCE720460125FFF772FE92
:10CCE000284670BDC059FF1FB0750500588204006A
:10CCF000C02DFF1FC857FF1F84820400B4820400A8
:10CD00000D4BD0F8D8205B68012BD0F8E4300CBF75
:10CD10000A490B491B0110B5D25804460948002A9C
:10CD200008BF024600201BF087F904F1EC0007F071
:10CD300043FB0123E36410BDC857FF1FE0820400DA
:10CD4000F8820400B075050030B5044685B0114680
:10CD50001FF0ACFCA368142B1EDD182B28DD00226D
:10CD6000043B214668461FF0E7FD694620461FF058
:10CD700021FD68461FF0CEFCA2682146143A6846A1
:10CD80001FF0AEFD694620461FF014FD68461FF0F7
:10CD9000C1FC204605B030BDFBD0094D29462046D8
:10CDA0001FF05EFDA368132BF8DD204605B030BDF3
:10CDB00014230022214668461FF0BEFDE2E700BFB3
:10CDC00024A004002DE9F04FD0F8DC30D0F8D820B2
:10CDD000D0F834909A428BB00446A3EB020100F0E5
:10CDE0009280D0F8E4304FEA2118A8EB0302032A1E
:10CDF00051DD022B00F382804029D4BF08F1FF37B8
:10CE00000427FB1A09334FF00008DFF844B1DFF8BC
:10CE100044A1636304F168060925B8454FF0020296
:10CE20005146304640DC1FF031FED4F8D81004A83B
:10CE300001EB07111FF03AFC04AA21466846FFF7F0
:10CE400083FF04A81FF066FC0023152204A968468E
:10CE50001FF02CFD04A9304630F036FBE3680121B9
:10CE600053F825001CF058FE656268461FF052FC1E
:10CE700001350E2D07F1FF3706F11606CDD1A9F1C8
:10CE80000903042B33D9636BA3F10902042A16D9D1
:10CE90000BB0BDE8F08F134608F1FF37A8F1050885
:10CEA00028EAE8780833B0E7594614221FF0EEFD6F
:10CEB000E368002153F825001CF02EFED8E7E26855
:10CEC00052F8230001210BB0BDE8F04F1CF0E0BE8A
:10CED000E368002153F829001CF0DAFEA9F10903E8
:10CEE0004FF0FF32042B6263C4F8E420D0D8E3682B
:10CEF000002153F829001CF0CBFEC4E79F1CA3F1CE
:10CF000002080B2381E7104A104B5268683053F82F
:10CF1000221031F053F8E3680121586A1CF0FCFD3F
:10CF20002825E3680021585904351CF0F5FD382DFB
:10CF3000F7D1B9F1000FCBDA4FF0FF336363C4F8D8
:10CF4000E4300BB0BDE8F08FC857FF1FB41FFF1FC0
:10CF5000CC7A040024A00400014B01221A7070470F
:10CF6000D85BFF1F2DE9F04F2DED028B044693B0E7
:10CF7000F6F758FD0025BB4BBB492360C4F8D850D9
:10CF8000C4F8DC50C4F8E05004F1EC0006F054FEA4
:10CF9000B64B23664FF0FF31012204F50D40C4F873
:10CFA000E410E265B2490422FC301FF06FFD04F585
:10CFB0000043D420A3F8085E83F80A5E1FF0B2FE97
:10CFC0006A2304F10C01CDE9003508EE101A08239C
:10CFD000A849122205461DF07FFE216963690C9560
:10CFE00099420DF1300800F06D8141F8045B216138
:10CFF000D8201FF097FE002318210922CDE9001246
:10D000000393029304F14C01012205461DF026FE14
:10D01000216963690C95994200F05A8141F8045BDB
:10D020002161E8201FF07EFE4FF0010919234FF027
:10D03000640E4FF0000A8DE8084604F158010723FA
:10D04000342205461DF082FE216963690C959942E0
:10D0500000F0448141F8045B2161E0201FF062FE92
:10D0600009230593282304930123039342F20F73AA
:10D070000022029304F150037F49009301927F4BF9
:10D0800005461DF04FF9216963690C95994200F03E
:10D090002B8141F8045B2161E0201FF043FE09234E
:10D0A00005930123039342F20F730022029304F1CC
:10D0B0005403714900930492704B019205461DF090
:10D0C00031F9216963690C95994200F0138141F8A7
:10D0D000045B2161DC201FF025FE694B03930923CB
:10D0E000059347230493674D67490095042304F192
:10D0F0005C06029301960123002207461DF092F977
:10D10000216963690C97994200F0FA8041F8047B29
:10D110002161E0201FF006FE0923029347230193BB
:10D1200004F1600359490093DFED590A594BB5EEFC
:10D13000001AB2EE000A002207461DF037F92169F5
:10D1400063690C97994200F0E18041F8047B21610A
:10D15000D4201FF0E7FD504A029204F50E434F4AD7
:10D1600000920A330193092200234D49039304924C
:10D170001A4607461DF0E4F9216963690C97994244
:10D1800000F0CA8041F8047B2161DC201FF0CAFD59
:10D19000444A03920922002305920422CDE9005655
:10D1A0004149049302921A4605461DF09BF92169F4
:10D1B00063690C95994200F0B58041F8045B2161E8
:10D1C000DFF8E8B0DFF8E8A0DFF8E89004F16807DE
:10D1D0000026D8201FF0A6FD002215215B460892EC
:10D1E0000792069205920492039202920191012203
:10D1F0005146009705461DF033F8216962690B9589
:10D2000091420B4658D043F8045B23610136324605
:10D21000494640462FF0E0FD3846414630F0CEFE0C
:10D22000052E07F11607D4D1E3680021D8691CF058
:10D2300073FCE3680021186A1CF06EFCE0680021B2
:10D24000031F203053F8042F83421172FAD1204675
:10D25000E16421656165A16513B0BDEC028BBDE899
:10D26000F08F00BFCC8304003858FF1F000020421D
:10D2700040830400C057FF1F44830400E40FFF1FD6
:10D280005424FF1FD40FFF1FAC830400A0830400AD
:10D290000000FA42C40FFF1F6C27FF1FC414FF1FBA
:10D2A000B88304009424FF1FB4830400F40FFF1F0D
:10D2B0004C8304006483040018EE100A0BAAF4F7F0
:10D2C00067FAA3E718EE100A4246F4F761FA8FE610
:10D2D00018EE100A4246F4F75BFAA2E618EE100ABE
:10D2E0004246F4F755FAB8E618EE100A4246F4F74B
:10D2F0004FFAD1E618EE100A4246F4F749FAE9E689
:10D3000018EE100A4246F4F743FA02E718EE100A44
:10D310004246F4F73DFA1BE718EE100A4246F4F7CE
:10D3200037FA32E718EE100A4246F4F731FA47E7C7
:10D330000B1AB3F5807F40F3C9802DE9F04F064604
:10D3400089B09246002A00F09580894606F1100BBC
:10D350000DF11008A9EB0603DC0F04EB2314641095
:10D3600006EB0414214658461FF088FAA9F110056F
:10D370000AF1FF3A294600284AD020461FF07EFADB
:10D38000002859D0314640461FF0AEF921463046BC
:10D390001FF010FA414620461FF00CFA40461FF0DD
:10D3A000B9F94F465B46184631461D461FF066FAEE
:10D3B00005F110030028F6D1A7F1100421463046EC
:10D3C0001FF05CFA2746103C0028F7D1BD4211D26D
:10D3D000294640461FF088F9394628461FF0EAF9E9
:10D3E000414638461FF0E6F940461FF093F905F133
:10D3F0001003D8E7524649462846FFF799FFAB1B72
:10D40000B3F5807F5FDDBAF1000F36D0A946A1E702
:10D4100058461FF033FA28B3314640461FF064F9EE
:10D42000594630461FF0C6F9414658461FF0C2F92A
:10D4300040461FF06FF9B4E7294658461FF01EFA20
:10D4400031460028E9D040461FF04EF929463046C3
:10D450001FF0B0F9414628461FF0ACF940461FF0D6
:10D4600059F99EE7294620461FF008FA3146002860
:10D4700089D0E8E70D460DF110084FF000032A4669
:10D4800029463046A5F11004FEF7E6FD2146684620
:10D490001FF02AF9314620461FF08CF9A51B69467A
:10D4A00040461FF021F943462A1100213046FFF77C
:10D4B00097F940461FF02EF968461FF02BF9102D02
:10D4C000A4F11004E2DC09B0BDE8F08F704700BFA2
:10D4D0002DE9F047D0F8D870D0F8DC60B742D4B06E
:10D4E000054608D03C46204610341FF013F9A642EA
:10D4F000F9D1C5F8DC70764A1168764A2C9200237F
:10D500004FF47A70CDE93E33CDE952332D932E900E
:10D510008DF8BC30419342908DF80C31409244AE6E
:10D5200021B16D4A304615F059F818B96B496C486D
:10D530001FF0AEF80024DFF8B881DFF8B89105F1EC
:10D54000D80A27461BE0502204A914F07BFC04A94A
:10D5500018A830F033FD18A830F03CF8414604A874
:10D5600030F0C2FB28B13E9BEBB11B7813F0700F7B
:10D5700020D030A815F01EF8B4F5FA6F3CD0002288
:10D58000314630A815F082F8002835D03E988DF845
:10D5900010700028D7D13F980028D8D0502204A975
:10D5A00012F06EFAD3E73F9B23B193F8313013F0BA
:10D5B000500FDED118A8494630F012FA0028D8D012
:10D5C00004A968461FF0E2F8D5F8DC00D5F8E03091
:10D5D000984268D069461FF087F8D5F8DC301033E0
:10D5E000C5F8DC3068461FF095F8013430A814F017
:10D5F000E1FFB4F5FA6FC2D1D5F8DC70D5F8D88068
:10D60000B84544D0A7EB08042211B2FA82F2C2F165
:10D610001F02520039464046FFF78AFEB4F5807F6C
:10D6200047DC39464046FFF775F9D5F8D820D5F8DC
:10D63000DC309B1A2B4A1B111278013BC5F8E430F1
:10D640002AB31621284821F0B9F925481FF008F817
:10D65000D5F8D820D5F8DC309A4218D0DFF8988079
:10D66000DFF898901E4F002423014946D3583846CE
:10D67000002B08BF434622461FF00AF8D5F8D820F1
:10D68000D5F8DC3001349B1AB4EB231FECD3174CD4
:10D690004094304614F08EFF30A82C9414F08AFF8A
:10D6A00054B0BDE8F08701466A465046FEF75CFC80
:10D6B00098E708F5807440462146FFF72BF9A7420A
:10D6C000B3D020461034FFF707F9A742F9D1ACE7F1
:10D6D000A461FF1F00750400D8790400F07A0400EB
:10D6E000C02DFF1FC059FF1F74830400DC740400A9
:10D6F0001C7B040078A10400B0750500788204004A
:10D7000010B5044682B0F9F7A9FB2046FFF7E0FE0A
:10D710001223A3622046FFF755FB2046FFF78AFA43
:10D720000020F7F7E9F8114B1B680193019B03F503
:10D73000EA433033C4F8E8300120F7F76DF80C4BBA
:10D740000C4A1B7862664BB1D4F8DC20D4F8D83090
:10D750009A4203D0D4F8E430002B01DA02B010BDB5
:10D76000204602B0BDE81040FFF7CABA6868FF1F44
:10D77000D85BFF1F0000DC3CF0B54B1E8FB00446A9
:10D78000062B1CD8DFE803F02144611B1BC10400F9
:10D79000C36D032B00F00481D4F8DC20D4F8D8301A
:10D7A0009A420ED0D4F8E430002B0ADBE36C002B55
:10D7B00040F074812046FFF7A3FA002502E01AF03A
:10D7C00099F9002528460FB0F0BD00F5004393F805
:10D7D000092E002A40F0A68093F8086E002E40F033
:10D7E000A180C56C002D40F06981D0F8E430D0F8FC
:10D7F000D810D0F8DC200133521AB3EB221FC0F846
:10D80000E4304FEA221179DB0139C0F8E41075E009
:10D8100000F5004393F8092E002A40F08B8093F81E
:10D82000086E002E40F08680C56C002D40F05681B9
:10D83000D0F8E430013B23EAE373C0F8E430FFF7AB
:10D84000C1FA2046FFF7F6F9BCE700F5004797F864
:10D85000095E002D76D0C368D86903685B69984774
:10D86000E368D86903680025DB699847E26865606A
:10D87000D7F80C3E10696363012187F8095E1CF03C
:10D880004BF9E3680121D8681CF046F9E3682946A2
:10D89000D8691CF041F9E36D022BE36800F0388190
:10D8A000586901211CF038F9E368294698691CF091
:10D8B00033F997F80A3E002B00F0DC80D4F8E4300E
:10D8C000D4F8D820974998481B01D258D1F8803411
:10D8D000002A08BF0246002B00F070810020194684
:10D8E00000900123684612F055FE002840F0818127
:10D8F000002587F80A5E2046FFF7EAFD2046FFF77D
:10D9000061FA2046FFF796F95CE7884B1B784FF4E5
:10D910007A70002B14BF092501251FF0B9FD284698
:10D920000FB0F0BD012120461AF0E4F8002528468A
:10D930000FB0F0BD022120461AF0DCF80025284681
:10D940000FB0F0BD97F8086E002E39D1784B1B68E8
:10D95000002B40F0F580D0F8DC20D0F8D8309A4287
:10D9600000F04B81D0F8E430002BC36CBFF61FAF42
:10D97000012B7FF426AF6F4B5B680020012B0CBF9F
:10D980006D496E496065A0651AF056FB002504F1EB
:10D99000EC0006F03BFAE5642046FFF7B1F911E729
:10D9A00000F5004696F8095E002D7FF4F5AEC368D9
:10D9B000D8690368DB699847D6F80C3E636301E7D2
:10D9C000C368186A03685B699847E368186A036864
:10D9D000DB699847E2686560D7F80C3E10696363BD
:10D9E000012187F8085E1CF097F8E3680121D868E8
:10D9F0001CF092F8E3682946186A1CF08DF8E36D74
:10DA0000022BE36800F0EB80586901211CF084F8D8
:10DA1000E368294698691CF07FF8E36D032B40F01A
:10DA2000C880E368D869636B012587F8095E656083
:10DA3000C7F80C3E03689B699847E26807231069A2
:10DA4000636300211CF068F8E3680021D8681CF0CB
:10DA500063F8E368002158691CF05EF8E368002170
:10DA600098691CF059F8E3682946D8691CF054F805
:10DA70000025A7E6E56D29460BE00429A8BF002193
:10DA8000E368E16558691CF021FD00287FF499AE38
:10DA9000E16D0131A942F0D1E56592E6254B5B6865
:10DAA000012B0CBF2449254900201AF0C5FA002596
:10DAB00004F1EC0006F0AAF9E56483E600F1EC0558
:10DAC0000A220121284606F0C5F988B1D4F80822B7
:10DAD000B4F80C326265A365354673E600F1EC05D7
:10DAE0000A224FF0FF31284606F0B4F90028EDD1A4
:10DAF000104B5B68012B0CBF0F4910491AF09CFAC0
:10DB00002846002506F082F9E5646565A56559E6B5
:10DB1000586929461CF000F8E368012198691BF058
:10DB2000FBFFC6E6C85CFF1FB0750500D85BFF1F92
:10DB30003058FF1FC857FF1F0C83040028830400C0
:10DB4000C36C012B3FF417AFD0F8DC20D0F8D830ED
:10DB50009A423FF436AED0F8E430002BFFF631AEF7
:10DB6000C368314618691BF0D7FFE3683146D868AF
:10DB70001BF0D2FFE368314658691BF0CDFFE36824
:10DB8000314698691BF0C8FFE3680121186A1BF051
:10DB9000C3FFE168626B086A012387F8083E63608F
:10DBA0000368C7F80C2E9B699847082363633546C2
:10DBB00008E62046FEF706FF002503E6D1F88414A8
:10DBC00000293FF495AE0C936846012311F01AF832
:10DBD00000283FF48DAE684611F078F888E6586961
:10DBE00029461BF099FFE368012198691BF094FF17
:10DBF00013E7684613F0D2FC7AE6C36C012B7FF47E
:10DC0000E0ADB8E670B5114B064640F8EC3B06F0C7
:10DC100023FDD6F8D840D6F8DC50AC4207D02046D9
:10DC200010341EF077FDA542F9D1D6F8D8502DB1A9
:10DC3000D6F8E0102846491B1FF07CF8044B3360EF
:10DC4000304619F0EDFC304670BD00BFCC830400B7
:10DC50007878040070B5134B064640F8EC3B06F0AC
:10DC6000FBFCD6F8D840D6F8DC50AC4207D02046B2
:10DC700010341EF04FFDA542F9D1D6F8D8502DB181
:10DC8000D6F8E0102846491B1FF054F8064B3360C5
:10DC9000304619F0C5FC304648F610611FF04AF8CE
:10DCA000304670BDCC8304007878040001207047B2
:10DCB000704700BF10B50446C06C074B236020B10D
:10DCC00003685B6898470023E364044B23602046A5
:10DCD00019F0A6FC204610BD708704007878040077
:10DCE00010B50446C06C38B100F5004393F85B30C2
:10DCF00013B103681B6998472046BDE81040F9F747
:10DD0000E3B800BF2DE9F0412DED028B0446C06C55
:10DD100088B010B10368DB6B9847E36B5D4D23B1AE
:10DD20002A680392039A934253D32B680593059B69
:10DD3000226D9A4203D2584B1B68052B10D1E36C1D
:10DD40004BB1564A1278002A33D103F51043D3F869
:10DD5000A832042B1EDC08B0BDEC028BBDE8F081BC
:10DD60001CF0B8FDDFED4E7AB4EEE70AF1EE10FAE2
:10DD7000B0EE408A44D9636D002B78D0013B6365D7
:10DD8000002B74D02B680793079B03F56A53183355
:10DD90002365D4E7434A444B526853F8220019F0F4
:10DDA00089FF424B15221A6008B0BDEC028BBDE81A
:10DDB000F0813F4819F07EFF3C4AE36C1521116069
:10DDC000002BC8D003F51043D3F8A832042BC2DDD2
:10DDD000E0E72046F6F724FF2046F6F769FFE06CFF
:10DDE0002D4E18B196F84430002B4ED12B68049379
:10DDF000326F049B4FF47A7101FB0233E36394E7C3
:10DE0000F9F7ECF900283AD0666DDFF89880013612
:10DE1000666518EE100A2AF08FF832460F4606465D
:10DE2000CDE90067234BD8F80410002053F82110E7
:10DE30001AF002F9636D032BA2D9D8F804001E4929
:10DE4000324651F820103B4600201AF0F5F8002128
:10DE5000012019F035FFD8F80420184B53F82200A0
:10DE600019F028FF114A636D1521116088E72B68AE
:10DE70000693069B03F56A43603323655FE7104909
:10DE800010481EF005FC636D7AE794ED120A09F064
:10DE900021FEABE76868FF1F3858FF1FE85BFF1FD4
:10DEA000CDCC4C3DC857FF1FA412FF1F6C67FF1F4E
:10DEB000EC5BFF1FD41CFF1FB41CFF1F8412FF1F4D
:10DEC00000840400C02DFF1F10B50446006F0368D6
:10DED0001B6998472046BDE81040FFF713BF00BFFD
:10DEE00010B590F85A3084B0044623B3C36D03666E
:10DEF000002280F85A20032B1DD8DFE803F03A3FB8
:10DF0000550203685B6C9847E36D012B13D1E06CFD
:10DF1000A0B100F5004393F85B20002A49D1274ABD
:10DF2000036812680392039ADB6862669847244B81
:10DF30001B68032B04D194F86C3023B904B010BDD6
:10DF4000012384F86C30E06C0028F7D000F5004322
:10DF500093F85A30002BF1D096201FF099FAE06C1C
:10DF600003689B69002284F86C2004B0BDE810406F
:10DF7000184703689B6B9847E36DC6E70F4B816EAC
:10DF80001A680192019A0120914284F85A00BED287
:10DF90001B680293029B226803F5FA73D26BA36697
:10DFA00020469047E36DB0E703681B6C9847E36D2C
:10DFB000ABE794F86C20002AC0D0C9E76868FF1F5F
:10DFC0003858FF1F032910B508D0062906D0104C79
:10DFD000F6F73CF878B9206870B910BD90F8593060
:10DFE0006BB90F2280F8592080F85A30084CF6F7A8
:10DFF0002DF80028EFD002200023236010BD054B30
:10E00000034C1B68012B0CBF0B2301232360DFE7AC
:10E010006C67FF1F3058FF1F38B50C4B1B68012B76
:10E02000044649F6943008DD1EF07CFE084905469A
:10E0300008220AF04BFEE56438BD1EF073FE044969
:10E040000546082208F088FFE56438BD3058FF1FF8
:10E050003858FF1F10B50446C06C38B100F50043B6
:10E0600093F85B3013B103681B6998472046BDE8FD
:10E070001040F8F729BF00BF10B5044600201FF07C
:10E080009FF80E4B206F00221A6010B103685B6886
:10E0900098470B4BE06C626FDA6038B100F50043D3
:10E0A00093F85B3013B103681B6998472046F8F773
:10E0B0000BFF044B2022C3F8882010BDDC5BFF1F40
:10E0C000C857FF1F00F00F4010B50446C06C20B1C8
:10E0D00000F5004393F85B3033B92046F8F7F4FEBF
:10E0E0000B4B1B7853B910BD03681B69984720463A
:10E0F000F8F7EAFE064B1B78002BF4D005481C21EC
:10E1000020F05CFCBDE8104003481EF0A9BA00BF37
:10E11000C059FF1F34840400C02DFF1F10B50446F2
:10E12000F6F778FBE06C20B100F5004393F85B3024
:10E1300033B92046F8F7C8FE0B4B1B7853B910BD16
:10E1400003681B6998472046F8F7BEFE064B1B780C
:10E15000002BF4D005481E2120F030FCBDE8104013
:10E1600003481EF07DBA00BFC059FF1F548404004D
:10E17000C02DFF1F10B50446F6F74CFBE06C20B134
:10E1800000F5004393F85B3033B92046F8F79CFE66
:10E190000B4B1B7853B910BD03681B699847204689
:10E1A000F8F792FE064B1B78002BF4D005481F2190
:10E1B00020F004FCBDE8104003481EF051BA00BF37
:10E1C000C059FF1F74840400C02DFF1F10B5044602
:10E1D000C06C074B236020B103685B68984700233D
:10E1E000E364044B2360204619F01AFA204610BD60
:10E1F000708704007878040010B50446C06C074BA3
:10E20000236020B103685B6898470023E364044BF4
:10E210002360204619F004FA204610BD70870400E0
:10E220007878040010B50446C06C074B236020B119
:10E2300003685B6898470023E364044B236020462F
:10E2400019F0EEF9204610BD7087040078780400BC
:10E2500010B50446C06C074B236020B103685B68AF
:10E2600098470023E364044B2360204619F0D8F953
:10E27000204610BD708704007878040010B504466D
:10E28000C06C074B236020B103685B68984700238C
:10E29000E364044B2360204619F0C2F9204610BD08
:10E2A000708704007878040010B50446C06C094BF0
:10E2B000236020B103685B6898470023E364064B42
:10E2C0002360204619F0ACF9204658211EF032FD9B
:10E2D000204610BD708704007878040010B504460D
:10E2E000C06C094B236020B103685B68984700232A
:10E2F000E364064B2360204619F092F92046702112
:10E300001EF018FD204610BD7087040078780400C8
:10E3100010B50446C06C094B236020B103685B68EC
:10E3200098470023E364064B2360204619F078F9F0
:10E3300020465C211EF0FEFC204610BD70870400C4
:10E340007878040010B50446C06C094B236020B1F6
:10E3500003685B6898470023E364064B236020460C
:10E3600019F05EF920465C211EF0E4FC204610BD49
:10E37000708704007878040010B50446C06C094B1F
:10E38000236020B103685B6898470023E364064B71
:10E390002360204619F044F9204670211EF0CAFC83
:10E3A000204610BD708704007878040010B504463C
:10E3B000C06C094B236020B103685B689847002359
:10E3C000E364064B2360204619F02AF920467821A1
:10E3D0001EF0B0FC204610BD708704007878040061
:10E3E000F8B5264C264E2068083017F06DFC254BFA
:10E3F0007268256853F822700023C5F8B83047B119
:10E4000038462FF09DFE2B6802465B683946284649
:10E41000984728461EF024F91B4B7268256853F86C
:10E4200022704FF41023C5F8B83047B138462FF0AA
:10E4300087FE2B6802465B6839462846984728467F
:10E440001EF00EF9114B7268256853F822604FF4E4
:10E450001013C5F8B83046B130462FF071FE2B6866
:10E4600002465B6831462846984728461EF0F8F871
:10E470002068BDE8F840083017F032BCB05CFF1FE0
:10E48000C857FF1FF420FF1F6420FF1F3420FF1F09
:10E49000F8B5264C264E2068083017F015FC254BA1
:10E4A0007268256853F822700023C5F8B83047B168
:10E4B00038462FF045FE2B6802465B6839462846F1
:10E4C000984728461EF0CCF81B4B7268256853F815
:10E4D00022704FF41023C5F8B83047B138462FF0FA
:10E4E0002FFE2B6802465B68394628469847284627
:10E4F0001EF0B6F8114B7268256853F822604FF48D
:10E500001013C5F8B83046B130462FF019FE2B680D
:10E5100002465B6831462846984728461EF0A0F818
:10E520002068BDE8F840083017F0DABBB05CFF1F88
:10E53000C857FF1FB420FF1F6420FF1F3420FF1F98
:10E540002DE9F041364C374D236888B0074603F17A
:10E55000080017F0B9FB344B6A68266853F822802C
:10E560000023C6F8B830B8F1000F08D040462FF0AD
:10E57000E7FD336802465B684146304698473046BF
:10E580001EF06EF823684FF41022C3F8B820274B12
:10E590006A6801A853F8221097F858202EF01CFC46
:10E5A000266801A82FF0CCFD336802465B6801A9FC
:10E5B0003046984730461EF053F81D4B6A6826686F
:10E5C00053F822704FF41013C6F8B83047B13846EC
:10E5D0002FF0B6FD336802465B68394630469847EF
:10E5E00030461EF03DF8134B6A68256853F82260E8
:10E5F0004FF45813C5F8B83046B130462FF0A0FD9F
:10E600002B6802465B6831462846984728461EF02C
:10E6100027F82068083017F063FB08B0BDE8F081E8
:10E62000B05CFF1FC857FF1FB420FF1FC420FF1F8F
:10E630000421FF1F1411FF1F2DE9F041364C374D07
:10E64000236888B0074603F1080017F03DFB344B00
:10E650006A68266853F822800023C6F8B830B8F1FB
:10E66000000F08D040462FF06BFD336802465B6810
:10E6700041463046984730461DF0F2FF23684FF47C
:10E680001022C3F8B820274B6A6801A853F822105B
:10E6900097F858202EF0A0FB266801A82FF050FD17
:10E6A000336802465B6801A93046984730461DF042
:10E6B000D7FF1D4B6A68266853F822704FF4101379
:10E6C000C6F8B83047B138462FF03AFD33680246F5
:10E6D0005B6839463046984730461DF0C1FF134B02
:10E6E0006A68256853F822604FF45813C5F8B830AB
:10E6F00046B130462FF024FD2B6802465B68314658
:10E700002846984728461DF0ABFF2068083017F0D0
:10E71000E7FA08B0BDE8F081B05CFF1FC857FF1FE3
:10E72000F420FF1F7420FF1F0421FF1F1411FF1F7F
:10E730002DE9F041364C374D236888B0074603F188
:10E74000080017F0C1FA344B6A68266853F8228033
:10E750000023C6F8B830B8F1000F08D040462FF0BB
:10E76000EFFC336802465B684146304698473046C6
:10E770001DF076FF23684FF41022C3F8B820274B12
:10E780006A6801A853F8221097F858202EF024FB4D
:10E79000266801A82FF0D4FC336802465B6801A903
:10E7A0003046984730461DF05BFF1D4B6A6826686F
:10E7B00053F822704FF41013C6F8B83047B13846FA
:10E7C0002FF0BEFC336802465B68394630469847F6
:10E7D00030461DF045FF134B6A68256853F82260E8
:10E7E0004FF45813C5F8B83046B130462FF0A8FCA6
:10E7F0002B6802465B6831462846984728461DF03C
:10E800002FFF2068083017F06BFA08B0BDE8F081E0
:10E81000B05CFF1FC857FF1FF420FF1F8420FF1F9D
:10E82000E420FF1F2421FF1F2DE9F047416E8AB02D
:10E830000746002900F08380424A434B1268029247
:10E84000029A4248521AA3FB02394FEA9939C9EB9E
:10E850000911A0FB02028900C1EB921A3C4CDFF8BF
:10E8600004812068083017F02FFA3A4BD8F80420BA
:10E87000256853F822600023C5F8B83046B1304609
:10E880002FF05EFC2B6802465B68314628469847AD
:10E8900028461DF0E5FED8F804002F49226851F8FB
:10E8A00020104FF41020C2F8B800CDF800A097F85F
:10E8B00058204B4603A82EF08FFA256803A82FF0A6
:10E8C0003FFC2B6802465B6803A928469847284608
:10E8D0001DF0C6FE214BD8F80420256853F82260AD
:10E8E0004FF49813C5F8B83046B130462FF028FCE5
:10E8F0002B6802465B6831462846984728461DF03B
:10E90000AFFE174BD8F80420256853F822604FF467
:10E910005813C5F8B83046B130462FF011FC2B68BB
:10E9200002465B6831462846984728461DF098FE07
:10E930002068083017F0D4F90AB0BDE8F0878A469D
:10E9400089468BE76868FF1F73B2E745D34D6210B5
:10E95000B05CFF1FB420FF1FD420FF1F4420FF1F07
:10E960002421FF1FC857FF1F2DE9F047416E8AB0D1
:10E970000646002900F096804C4A4D4B12680292E0
:10E98000029A4C48521AA3FB02394FEA9939C9EB53
:10E990000911A0FB02028900C1EB921A464C474DB7
:10E9A0002068083017F090F9454B6A68276853F8DB
:10E9B00022800023C7F8B830B8F1000F08D04046D5
:10E9C0002FF0BEFB3B6802465B68414638469847DD
:10E9D00038461DF045FE68683A49226851F8201013
:10E9E0004FF41020C2F8B800CDF800A096F85820D7
:10E9F0004B4603A82EF0F0F9266803A82FF0A0FBE1
:10EA0000336802465B6803A93046984730461DF0DC
:10EA100027FE2D4B6A68266853F822704FF498132E
:10EA2000C6F8B83047B138462FF08AFB3368024643
:10EA30005B6839463046984730461DF011FE234B3F
:10EA40006A68266853F822704FF41013C6F8B8307D
:10EA500047B138462FF074FB336802465B6839468D
:10EA60003046984730461DF0FBFD194B6A68256813
:10EA700053F822604FF43413C5F8B83046B130462D
:10EA80002FF05EFB2B6802465B68314628469847AC
:10EA900028461DF0E5FD2068083017F021F90AB07E
:10EAA000BDE8F0878A46894678E700BF6868FF1F9F
:10EAB00073B2E745D34D6210B05CFF1FC857FF1F0C
:10EAC000F420FF1F9420FF1F5420FF1F1421FF1F5D
:10EAD000A420FF1FF0B5044683B0B9B99C4D2B6844
:10EAE000042B23D09B4B186860B903B0F0BD0329F9
:10EAF00001D00629F6D1984A964B1268012A0CBF1C
:10EB00000B20012000221A6003B0F0BDC36D032B5F
:10EB100000F2448101A252F823F000BF45EC00004E
:10EB2000E3EB0000EFEA000079EB0000C36C18464D
:10EB3000002BD7D003F5004292F85B1001F0FF06DE
:10EB40000029CFD0854909680191616E019F01F5C7
:10EB5000AF2101F5C861B942C4D2E16D032900F2C9
:10EB60001D8101A757F821F057EC0000A1EC00002F
:10EB7000E5EA000085EB0000032900F0E6800229A9
:10EB8000B0D1E06C88B100F5004292F85C3033B14E
:10EB90000368DB699847E06C38B100F5004292F8F1
:10EBA0005B3013B103681B6998476D4A6D4B516820
:10EBB00094F8582053F82110002019F03DFA94F8E9
:10EBC000583094F859200133DBB29A422CBF00220E
:10EBD00001225200012184F85830E26584F85A106D
:10EBE00080E7032900F09C80022952D001297FF49C
:10EBF00079AF574B1B68052B7FF474AFE06C88B17D
:10EC000000F5004393F85C2032B10368DB69984754
:10EC1000E06C38B100F5004393F85B3013B1036842
:10EC20001B6998474E4B504958680322012351F8FD
:10EC30002010E26584F85A3094F85820002019F02A
:10EC4000FBF94FE7032971D002297FF44BAFE06C49
:10EC500088B100F5004292F85C3033B10368DB699B
:10EC60009847E06C38B100F5004292F85B3013B180
:10EC700003681B6998473A4B3C49586802220123B4
:10EC800051F82010E26584F85A30002019F0D4F9C8
:10EC900028E72F4D2B68042B7FF424AFE36C00266C
:10ECA00018468BB103F5004393F85C2032B103683A
:10ECB000DB699847E06C38B100F5004393F85B30AE
:10ECC00013B103681B699847254A002E5CD12B6855
:10ECD000052B59D05268264B304653F8221094F831
:10ECE000582019F0A9F994F858202B6821480132CE
:10ECF000052BD2B20CBF2049204984F858202EF0B1
:10ED00006BF894F8583094F859108B424FF0010288
:10ED100094BF002301239340E36584F85A20E1E681
:10ED20000B4D2B68052B7FF4DDAEB7E70C4A144B77
:10ED3000516894F8582053F82110002019F07CF9FC
:10ED40000123E36584F85A30CCE6054A0D4BEFE722
:10ED50009427FF1F6C67FF1F3058FF1F6868FF1F55
:10ED6000C857FF1F2C10FF1F0C10FF1F0410FF1FA0
:10ED70002410FF1F7E58FF1F948404009C8404000D
:10ED80001C10FF1F1410FF1F084B516894F85820E7
:10ED900053F82110002019F04FF9A4E72621044868
:10EDA0001FF00CFE03481DF05BFC9BE62C10FF1FC0
:10EDB000A4840400C02DFF1F2DE9F04F2DED028B20
:10EDC000044691B016F0A2FB94F8593084F858002C
:10EDD000012B61D094F85A6046B113B1013B84F81D
:10EDE000593011B0BDEC028BBDE8F08FE06C00280B
:10EDF000F3D000F5004292F85A20002AEDD00368C3
:10EE0000344D1B6ADFF8E8803146984728680123B3
:10EE100084F85A30083016F057FF2B68D8F80420D1
:10EE2000C3F8B8602C4B2D4E53F822102C4B08A879
:10EE30009A1F2DF0D1FF2F6808A82FF081F93B68A9
:10EE400002465B6808A93846984738461DF008FC1A
:10EE5000336B2A68062B4FF41021C2F8B81098BF04
:10EE6000204A96F83C1094BF52F823704FF4C077B4
:10EE700000293FD0022B40F36D81D8F804101A4BC3
:10EE80003A461A4853F8213050F82110306C00905F
:10EE900008A82DF0A1FF45E0E06C18B1036800213F
:10EEA0001B6A98470B4D2868083016F00DFF28683C
:10EEB000083016F015FFE06C18B1036801211B6AD9
:10EEC0009847002384F8593011B0BDEC028BBDE89F
:10EED000F08F00BFB05CFF1FD421FF1F3858FF1F09
:10EEE0004258FF1FE48604007422FF1F2422FF1FE4
:10EEF000C857FF1F022B00F33181D8F80420AA4B1A
:10EF0000AA4953F82230D6F8700151F822900493A0
:10EF100029F012F8049BCDE900013A46494608A8B9
:10EF20002DF05AFF2F6808A82FF00AF93B68024617
:10EF30005B6808A93846984738461DF091FBB36BCB
:10EF40002A684FF49011C2F8B8105A1E032A98BFCD
:10EF500003EB430396F8502094BF5B00002300931B
:10EF6000002A40F00081924BD8F8042008A853F8FA
:10EF70002210F36CB26D2DF02FFF2F6808A82FF030
:10EF8000DFF83B6802465B6808A938469847384670
:10EF90001DF066FB33682A684FF4D811082BC2F8BD
:10EFA000B81003D0336B022B00F3E880D6ED067A5D
:10EFB0009FED808AF8EEE77AC7EE887A17EE900A1E
:10EFC00028F0BAFFD6ED077AF8EEE77A0246C7EEE8
:10EFD000887A0B46D8F80400774951F82070CDE9BB
:10EFE000042317EE900A28F0A7FFDDE90423CDE9FA
:10EFF0000001394608A82DF0EFFE2F6808A82FF071
:10F000009FF83B6802465B6808A93846984738462F
:10F010001DF026FBD8F80400684B69492A6851F8AE
:10F0200020101B684FF41010C2F8B8000093736AE8
:10F03000326A08A82DF0D0FE2E6808A82FF080F8BC
:10F04000336802465B6808A93046984730461DF091
:10F0500007FBE26C2B6802F500424FF43411C3F851
:10F06000B810B2F858305749968FB2F844701BB2B6
:10F0700036B24FEAE37981FB0323C9EBA3093FB220
:10F0800081FB0632F617C6EBA20681FB0723FF17AA
:10F09000C7EBA307D8F804204B4B3FB20FFA89F90E
:10F0A00036B2009753F8221008A833464A462DF08E
:10F0B00093FED5F800A008A82FF042F8DAF8003047
:10F0C00008A902465B685046984750461DF0C8FAAA
:10F0D0002B684FF45812C3F8B82016F02FFA079097
:10F0E00016F044FA049016F059FA824616F0DEF94A
:10F0F000834616F0F3F9049B079A34490290CDE950
:10F1000000AB08A82DF068FED5F800A008A82FF0E5
:10F1100017F8DAF8003002465B6808A950469847AD
:10F1200050461DF09DFA2868083016F0D9FDD8F831
:10F1300004002749009751F8201033464A46002022
:10F1400018F07AFFE06C036801211B6A984794F875
:10F15000593042E6D8F804201E4BD1E6D8F8041006
:10F16000114B3A468DE6D8F804201B4B08A853F8FB
:10F170002210F36C726D2DF02FFEFEE67769D8F841
:10F180000430164A1649306951F8231082FB07C330
:10F19000FF17C7EBA31382FB0072C017C0EBA212CC
:10F1A00008A82DF019FE28E70422FF1F3422FF1FB4
:10F1B0005422FF1F00007A44F421FF1FDC67FF1F69
:10F1C0006422FF1F676666661422FF1FCC8404005A
:10F1D0004413FF1F7422FF1F4422FF1FD34D6210F0
:10F1E000E421FF1F38B590F8593003B938BD90F8C5
:10F1F0005850044616F08AF98542F7D02046BDE8FB
:10F200003840FFF7D9BD00BF2DE9F04F036FD3F8A9
:10F210000832052B83B004465FDC002B60DC94F8D9
:10F220006060002E40F0B980DFF88882D8F80000D6
:10F23000083016F049FDE76D002F40F00081226F85
:10F24000DFF874B29168DBF80420D8F80000DFF82A
:10F250005CA2DFF85C92C0F8B870C2EB02150D44F6
:10F2600002EB82015AF8252059F831101DF010FAEE
:10F270000125402602E0093700260135012D226FC5
:10F2800000F092809168032907D1691C52F821107F
:10F290000A2904BF012384F861300A2D294600F0B1
:10F2A0008580881C52F82030DBF80420D8F8000054
:10F2B000C2EB021C02EB820201EB42019C4459F8B2
:10F2C00021105AF82C20A0F8B860A0F8BA701DF0F0
:10F2D000DFF9002ECFD14026CFE7083B022B9ED886
:10F2E000DFF8D081DFF8D0B1D8F80000083016F090
:10F2F000EBFCD8F8005067492B6800225E68C5F81F
:10F30000B82028460D22B04728461DF0A9F9D8F8A4
:10F310000050206F6049D0F808024FF42022C5F851
:10F32000B820DBF8042002EB820602EB460202441E
:10F3300051F8226046B130462EF002FF024628689E
:10F34000314646682846B04728461DF089F9DBF863
:10F350000430524AD8F8005052F823604FF4581342
:10F36000C5F8B83046B130462EF0EAFE2B680246AA
:10F370005B6831462846984728461DF071F9236896
:10F3800020461B6B9847464B1B680193019B03F675
:10F39000B833A36603B0BDE8F08F94F85930002B62
:10F3A0006CD103B0BDE8F08F01217AE707F10909BC
:10F3B000B6B21FFA89F9E26DF2B1D8F80050DBF865
:10F3C0000420364BA5F8B86053F82260A5F8BA902F
:10F3D00046B130462EF0B4FE2B6802465B683146DB
:10F3E0002846984728461DF03BF923681B6B2046AA
:10F3F00003B0BDE8F04F18472A4A1278002ADCD142
:10F4000094F86120002AD8D0274ADBF80410D8F8F5
:10F41000005052F821A0A5F8BA70A5F8B860BAF16A
:10F42000000F08D050462EF08BFE02462868514649
:10F4300047682846B84728461DF012F9BDE7226FF5
:10F44000DFF874B0194DD8F80000B91CC0F8B860E6
:10F4500052F82130DBF80410C1EB01121A4401EB21
:10F46000810155F82220124D07EB41014FF036097A
:10F4700055F821101DF00CF92D279CE794F85850F1
:10F4800016F044F885428CD0204603B0BDE8F04F1A
:10F49000FFF792BCEC840400D411FF1FD41FFF1FA0
:10F4A0006868FF1F6C57FF1FE41FFF1F3423FF1FF7
:10F4B000B41DFF1FB05CFF1FC857FF1F10B50446E7
:10F4C000F4F7B0FA0023034A2260E3646365E36360
:10F4D000204610BD708704002DE9F0432DED028B0E
:10F4E0000020C7B0F5F708FAB74BB84E5878B84ABD
:10F4F000B84B002800F0FB807068B749126851F8DB
:10F5000020100092D3E90023002018F095FDB34BA2
:10F51000D6F80480B24C53F8281014A82EF014FB2F
:10F520002368092B074600F0208104AD0BB1032BA3
:10F5300018D1AC4FAC4BBA1F53F8281028463B46A5
:10F540002DF04AFC14A82EF0FBFD14AB18442946FC
:10F550002EF0FAFAA54903221DF098FA57F80A3C52
:10F56000D6F80480276B94F83C10082B04BF626B1C
:10F570002263062F96BF9E4A4FF4C07952F8279017
:10F5800039B1082B03D0236B022B00F31781994B61
:10F5900006E0082B03D0236B022B00F30281964B6D
:10F5A000964A53F82830D4F8700152F82880029314
:10F5B00028F0C2FC029BCDE900014A46414628469C
:10F5C0002DF00AFC14A82EF0BBFD14AB18442946FC
:10F5D0002EF0BAFA032285491DF058FAA36B5A1E81
:10F5E000032A98BF03EB430394F8502094BF5B00B9
:10F5F00000230093002A70D1814B7268284653F88B
:10F600002210E36CA26D2DF0E7FB14A82EF098FDFC
:10F6100014AB184429462EF097FA744903221DF0C2
:10F6200035FA2368082B02D0022F00F38980D4ED2D
:10F63000067A9FED748AF8EEE77AC7EE887A17EEBD
:10F64000900A28F079FCD4ED077AF8EEE77A0246C2
:10F65000C7EE887A0B4670686B4951F82070CDE987
:10F66000022317EE900A28F067FCDDE90223CDE9BA
:10F670000001394628462DF0AFFB14A82EF060FD9E
:10F6800014AB184429462EF05FFA584903221DF0A6
:10F69000FDF95E4A5E4B126800927268284653F884
:10F6A0002210226A636A2DF097FB14A82EF048FD01
:10F6B00014AB184429462EF047FA564902221DF091
:10F6C000E5F92368092B1DD014A9002018F0B4FC1B
:10F6D00047B0BDEC028BBDE8F08372684E4B284604
:10F6E00053F82210E36C626D2DF076FB8DE7126803
:10F6F00074684A490092D3E9002351F8241018F0A5
:10F700009BFC04E7236B032B5BD0454A4549042B44
:10F7100008BF0A467368D4F8681103EB83030B44EF
:10F72000D4F86C1152F82330D4F8642100912846A3
:10F730003D492DF051FB294614A82DF0C5FEC3E725
:10F7400067693A4A3A4B7168206953F8211082FB85
:10F7500007C3FF17C7EBA31382FB0072C017C0EBF0
:10F76000A21228462DF038FB87E7D4F8603108EB69
:10F77000880203EB42032F4A04AD52F823102846B7
:10F780002EF0E2F9A0EB050909F1010229463846FD
:10F790001DF07CF9154907EB090003221DF076F9ED
:10F7A000C7E6154B4A462449206C53F8283051F8D7
:10F7B0002810009028462DF00FFB03E70D4B4A461A
:10F7C000F1E71E4AA6E700BFC459FF1FC857FF1F35
:10F7D000C057FF1FB857FF1F3411FF1F1420FF1F12
:10F7E0003858FF1F4258FF1FD421FF1FA84F0400A5
:10F7F000E48604007422FF1F0422FF1F3422FF1F2F
:10F800005422FF1F00007A44F421FF1FDC67FF1F12
:10F810006422FF1F5C4E04004422FF1F2411FF1FBF
:10F82000780EFF1F280EFF1FFC840400D34D6210CA
:10F83000E421FF1F541EFF1F2422FF1FD80DFF1FAE
:10F84000F0B5594D002787B007652E680446F7F7D5
:10F8500005FB95F844302E600BB1002E3BD1F5F737
:10F86000C9F9524E00283DD095F84430377801222E
:10F87000327063BB2A6F4E4B59684E4B002053F8D1
:10F88000211018F0D9FB2B684B4937700022042B4C
:10F89000A164226442D12046FFF71EFE2368204661
:10F8A0005B6B9847E06C00284CD02B6B022B2BDC59
:10F8B000D5ED5C7A9FED417A67EE877AFDEEE77AC7
:10F8C00017EE901A07B0BDE8F04008F06DBC4FF499
:10F8D00061722A67CFE785F84470F5F78BF9334EEC
:10F8E0000028C1D1324B37785A68354BE06353F862
:10F8F00022100123337018F09FFB37702B68052B03
:10F90000CCD0092BCAD0C6E72B6C4FF47A7103FB1D
:10F9100001F107B0BDE8F04008F046BC2046F5F71D
:10F920007FF92046F5F7C4F995F8443063B9254BC3
:10F930002A6F1B680593059B4FF47A7101FB023314
:10F94000E363DBE707B0F0BD15F0C8FD1D4B0F28E2
:10F950001B6806461ADD1E2811DD2D281DDC0393C9
:10F96000039F15F0D3FDC6F12D06C6EB0616C0EBBE
:10F9700086004FF47A7303FB0077E763BEE70293D8
:10F98000029FC6F11E0615F0C1FDEEE70193019F2F
:10F99000C6F10F0615F0BAFDE7E70493049FC6F120
:10F9A0003C0615F0B3FDE0E73858FF1F9927FF1F0D
:10F9B000C857FF1F2420FF1F0000C84200007A44E0
:10F9C000C41FFF1F6868FF1F1B4BDB6870B5044630
:10F9D00040F63D7101200022052B2072A4F858103A
:10F9E00084F85A2001D083420ED82046FFF728FF22
:10F9F000E06C40B1114B1B68092B04D00368BDE8D3
:10FA00007040DB68184770BD0D4D2026C820C5F832
:10FA100084601DF03DFDC820C5F888601DF038FDEC
:10FA2000C820C5F884601DF033FDC5F88860C82083
:10FA30001DF02EFDD9E700BFC857FF1F3858FF1F24
:10FA400000F00F40F8B51E4B1E4AD9684167D2F846
:10FA50006051C56501260446DE604FF40770F5B9B4
:10FA60001DF060F90746F3F755FB27673146284636
:10FA70001DF0B2FC144B4FF480329A64206F114A8F
:10FA80000368E16D9B6898472046FFF79DFFE26D94
:10FA900082B90E490E4806221CF0F8FFF8BD1DF091
:10FAA00041F90546F3F758FB2567022100201DF0B8
:10FAB00093FCE3E7BDE8F840064905482DF08CB912
:10FAC000C857FF1F3858FF1F00F00F40188504006B
:10FAD0007E58FF1F1085040070B5044682B0FFF702
:10FAE000AFFE1148114DF5F73DF8E36C2E78012279
:10FAF0002A705BB103F510420D49D2F80823009239
:10FB00004FF400539203002018F096FA00230122CC
:10FB10002E7084F8582084F85A2084F86C30E365FD
:10FB20006366A36602B070BD008704009927FF1FBB
:10FB3000944E0400F0B590F8603085B0044673B977
:10FB4000012932D002295FD0C36D002B30D1036F61
:10FB50009B68042B32D0684B186805B0F0BDC36EAB
:10FB60002BB1664A12680292029A93426BD32046E6
:10FB7000FEF728FAE36D604D002B286052DD226FFE
:10FB8000023352F823300B2B00F08D80A36E002B34
:10FB9000E3D05A4A12680392039A9342DDD2226F4D
:10FBA0000023C2F80832A366D7E7C36D002B65D0E7
:10FBB000226F023352F823300A2BCCD15049002057
:10FBC00018F03AFAE26D4F484F494FF0FF330125E4
:10FBD000002A84F8605003600B600BDD4B4904225F
:10FBE00000201DF079FA4A4834211EF0E7FE49480A
:10FBF0001CF036FD414B404A1B680193019B106885
:10FC000003F59673E366A8E7006F3B4C0368012297
:10FC1000DB68226098474FF496701DF039FC20682D
:10FC200005B0F0BDB2D10128B0D13B49184618F05B
:10FC300003FA206F0368DB6898474FF496701DF055
:10FC400027FC286889E7FFF747FCE06C002851D0C3
:10FC500003689B689847E06C0368DB689847E36D2E
:10FC6000E06C0021E166002B3CD000283FF473AF2C
:10FC700003685B699847204B18686EE7224A214D5C
:10FC800080F860104FF0FF33006F13602B60F3F7C4
:10FC90004BFA1A4B184A1B680093009B106803F537
:10FCA0009673E36659E71D49002018F0C5F9E06C2A
:10FCB00010B103681B699847206F194E0821F3F7AC
:10FCC00023FA002384F8603004270F2384F8593086
:10FCD0004FF49670C6F888701DF0DAFB2868C6F8F5
:10FCE00084703AE700283FF436AF036801215B696E
:10FCF000984730E7E0662EE76C67FF1F6868FF1FD4
:10FD000020850400140DFF1F100DFF1FEDFD0000E6
:10FD100038850400C02DFF1F9885040070850400FD
:10FD200000F00F4010B50446F3F77CFE0023034AB1
:10FD3000E3646365E3632260204610BDB08704007E
:10FD400010B50446F3F76EFE0023044AE3646365CE
:10FD5000E36384F86C302260204610BD30880400D4
:10FD600010B50446F3F75EFE0023044AE3646365BE
:10FD7000E36384F86C302260204610BD8088040064
:10FD800010B50446F3F74EFE0023034AE3646365AF
:10FD9000E3632260204610BDF087040010B50446DE
:10FDA000F3F740FE064A074921600023E3646365D8
:10FDB000E3631460E366A4F86030A366204610BDD8
:10FDC000DC5BFF1F30870400074BC06C1B6DDB033F
:10FDD00003D438B10368DB69184710B103689B6925
:10FDE00018477047704700BF00F00F4008B5094B37
:10FDF0001A683AB1EFF310822AB972B61868FFF7A1
:10FE0000E3FF62B608BD72B61868FFF7DDFF72B691
:10FE100008BD00BFDC5BFF1F38B51C4B1B780546D7
:10FE200063BB1B4C284617F0F7FB002301215A2225
:10FE3000A26584F85030A36384F83C3084F8451000
:10FE4000E16423644FF4347285F8383014204FF4A1
:10FE5000FA5385F8590022622846626223610D4AEE
:10FE6000626105232363FFF737FE95F858200A499E
:10FE700004F14600BDE838402CF0AEBF2021074811
:10FE80001EF09CFD06481CF0EBFBCAE7C059FF1FA3
:10FE90003858FF1FC0D4010094840400B8850400C2
:10FEA000C02DFF1F38B51C4B1B78054663BB1B4C90
:10FEB000284617F0B1FB002301215A22A26584F8DD
:10FEC0005030A36384F83C3084F84510E164236427
:10FED0004FF4D27285F838300F204FF4FA5385F87A
:10FEE000590022622846626223610D4A626105233D
:10FEF0002363FFF7F1FD95F858200A4904F1460005
:10FF0000BDE838402CF068BF212107481EF056FD9F
:10FF100006481CF0A5FBCAE7C059FF1F3858FF1F51
:10FF2000C0D401009C840400DC850400C02DFF1FA8
:10FF300038B5044617F070FB0F4B1048586100228B
:10FF4000012110259D6583F850209A6383F83C2099
:10FF500083F84510D9641A64022584F838202046B5
:10FF60004FF4FA511E2405221D625C6219611A6366
:10FF7000BDE83840FFF728BD3858FF1FC0D4010046
:10FF800010B50446C06C064B236020B103685B6863
:10FF900098470023E3642046FDF78CFE204610BD01
:10FFA000408C040038B504464AF26C401CF0BAFE9E
:10FFB0000249054609F0E4FBE56438BD3858FF1FE7
:10FFC000032938B504461AD0062918D01F4DF4F776
:10FFD0003DF8E36C18B3022028606BB103F51043C1
:10FFE00093F8183343B11A4B5B68012B0CBF1948C7
:10FFF000194817F05FFE152000232B6038BD94F8D8
:020000021000EC
:100000006030BBB1154B114D1B68012B0CBF0B238E
:1000100001232B60F4F71AF8E36C0028DBD12BB135
:1000200003F5104393F81833002BDCD1286800281F
:10003000E2D138BDA36E002BE4D094F86130002BE0
:10004000E0D11E23014D84F86130C0E76C67FF1FCB
:10005000C857FF1FC8880400E08804003058FF1FFD
:1000600010B50446C06C084B236020B103685B6880
:1000700098470023E3642046FDF71CFE20467421C8
:100080001CF058FE204610BD408C0400FFFFFFFF0F
:100090002DE9F04F2DED028B97B090F858500446A3
:1000A00015F034FA854204D117B0BDEC028BBDE8DF
:1000B000F08FB94E15F02AFAF36884F85800002B37
:1000C00000F02B82B54FE36D3A680992099A9A4283
:1000D00000F2E481E56C002D00F0CE8105F50045CD
:1000E00095F85A30002B00F0348194F86030002BE2
:1000F00000F02F81AA4FDFF8E0923868083015F041
:10010000E3FD7368012B0EAD99F8503000F0688262
:10011000002B00F09A82D9F85420A24928462CF0EE
:100120005BFED7F800800023C8F8B83028462EF0D0
:1001300007F8D8F80030294602465B6840469847E1
:1001400040461CF08DFA7368D9F83820012B964B85
:100150000CBF9649964953F8222028462CF03CFEC5
:10016000D7F800804FF41023C8F8B83028462DF097
:10017000E7FFD8F8003002465B68294640469847BA
:1001800040461CF06DFA73688A48012BE36C03F556
:100190000043B3F85820998FB3F844301BB280FB6A
:1001A00003EC4FEAE373C3EBAC0309B21BB212B228
:1001B000009380FB013C4FEAE17380FB02104FEAA1
:1001C000E272C3EBAC03C2EBA0020CBF7A497B49DD
:1001D00012B21BB228462CF0FFFDD7F800804FF476
:1001E0009013C8F8B83028462DF0AAFFD8F8003090
:1001F00002465B6829464046984740461CF030FA64
:10020000E36C03F50043B3F946807368012B00F0FB
:100210001082B8F1000F00F01F82B8F1010F00F05A
:1002200048826749424628462CF0D6FDD7F8009010
:100230004FF4D813C9F8B83028462DF081FFD9F80B
:10024000003002465B6829464846984748461CF0FD
:1002500007FAB8F1000F40F352827368012BE36C88
:1002600003F50043986C00F0148227F065FE024607
:100270000B46284653492CF0AFFDD7F800804FF4C9
:100280001013C8F8B83028462DF05AFFD8F80030BF
:1002900002465B6829464046984740461CF0E0F914
:1002A0004FF02D087368626E012B0CBF4649474919
:1002B00028462CF091FD3E680023A6F8BA80A6F8E7
:1002C000B83028462DF03CFF336802465B6829466B
:1002D0003046984730461CF0C3F915F02FF90590C9
:1002E00015F044F9049015F059F9064615F0DEF8BA
:1002F000804615F0F3F8814615F008F9059A34495F
:10030000049B03908DE8400328462CF065FD3E6871
:100310004FF45813C6F8B83028462DF011FF336853
:1003200002465B6829463046984730461CF098F9EB
:10033000236820461B6B984794F86030013BDBB282
:1003400084F86030002B7FF4AFAE1E2384F8613058
:10035000AAE695F85A30002B00F08E8094F86130B0
:10036000012B40F28B80A56E0D4F002D00F0DF8039
:100370003868184EDFF83CA0DFF860904FF00008B6
:10038000083015F0A1FC9FED028B45462EE000BF22
:100390000000000000000000C857FF1F6868FF1F32
:1003A000B05CFF1F208904003410FF1F4C8904003B
:1003B0005C890400676666667089040080890400B1
:1003C000E4890400048A0400148A0400248A0400D6
:1003D000348A0400AC58FF1F3858FF1FE08A04001D
:1003E0000135072D06F1200600F003817368002B0C
:1003F000F6D00AAA2946E06C09F090FCBDF92E005F
:1004000006F084F98AFB00234FEAE07BBDF9300057
:10041000CBEBA30B06F040FAF7EE007AB4EEE70A56
:10042000F1EE10FA10EE100A0FFA8BFB00F1F480D7
:1004300027F082FDCDE9020132464946BDF9283058
:10044000CDF800B00EA82CF0C7FCD7F800B0002300
:10045000ABF8BA80ABF8B8300EA82DF071FEDBF81F
:10046000003002465B680EA958469847584608F186
:1004700009081CF0F5F8B3E794F86130012B7FF41C
:1004800013AEA64B1868083015F01EFC23682046F2
:100490001B6B9847002384F8613005E6A04B587821
:1004A000002837D09F4B1B78002B00F0B88002202B
:1004B000F4F722FA2046F4F7B3FBE56C15B39A4B38
:1004C000D4F848A0D4F84090D3E9000128F084F88B
:1004D000964B8046D3E9000128F07EF805F52043CD
:1004E000012283F8602403F26442C2F800A003F5FD
:1004F0008D62C2F8009003F25C4203F58B63C2F890
:10050000008018603B680793079B03F56A436033DC
:10051000E365E0E5F4F7F0F9CCE7854D2027C5F871
:10052000847001201CF0B4FFC5F88870CAE53868F3
:10053000083015F0C9FBD7F800807368C8F8B850C8
:10054000012BD8F800300CBF7A497B495B68102238
:100550004046984740461CF083F83D684FF44023DE
:10056000C5F8B8307368012B2B680CBF7349744908
:100570005B680CBF0E2209222846984728461CF0CB
:100580006FF83D684FF41013C5F8B8307368012B4D
:100590002B680CBF6B496C495B680CBF132211229E
:1005A0002846984728461CF05BF83D687368012B85
:1005B0002B680CBF654966495B684FF44012C5F86B
:1005C000B82028460F22984728461CF049F823688F
:1005D0001B6B204617B0BDEC028BBDE8F04F1847EF
:1005E000002B5FD0D9F854205A4928462CF0F4FB50
:1005F00097E5236820461B6B9847574B93F8543177
:10060000002B7FF451AD94F86130012B7FF64CAD97
:10061000013B84F8613047E551EC180B0AE70120F3
:10062000F4F76AF93B680893089BE56C7D33E36552
:1006300051E5B8F1000F57D0B8F1010F62D047492A
:10064000424628462CF0C8FBF0E5D9F8582044492A
:1006500028462CF0C1FB64E5424B0FCBAC46ACE81E
:1006600007008CF80030D7F800804FF4D813C8F892
:10067000B83028462DF064FDD8F8003002465B689B
:1006800029464046984740461BF0EAFF4FF02408B1
:1006900008E627F051FC02460B46284632492CF06A
:1006A0009BFBEAE5D9F85820304928462CF094FB0A
:1006B00037E52F4B0FCBAC46ACE807008CF8003089
:1006C000D7F800804FF4D813C8F8B83028462DF07A
:1006D00037FDD8F8003002465B6829464046984707
:1006E00040461BF0BDFFB8E5224B0FCBAC46ACE853
:1006F00007002CF8023B1B0C8CF80030B3E74FF0DE
:100700002408CFE51C4B0FCBAC46ACE807002CF817
:10071000023B1B0C8CF80030D2E700BFB05CFF1F1F
:10072000C459FF1FB457FF1FA857FF1FB857FF1F1B
:1007300000F00F40548A0400688A04007C8A040098
:100740008C8A0400988A0400AC8A0400C08A0400E1
:10075000D08A0400F88804003858FF1FB0890400CC
:1007600034890400C4890400F48904000C8904005D
:10077000D489040090890400A089040010B50446BF
:10078000FEF79CFE024A22600023E364204610BD6F
:10079000408C04002DE9F04FB34B1B78CBB00546DD
:1007A000002B40F05681B14C284616F035FF00234F
:1007B000626984F8503007EE103A84F83C30636187
:1007C0004FF4FA732069236107EE903A3C232367C4
:1007D0000421E86617EE100A21632A6704F1E0019C
:1007E00023469A6FD2B193ED226AD3ED236AF8EED5
:1007F000E77AB8EEC77AF4EEC67AF1EE10FAF4EEC4
:10080000C76A58BFF0EE467AF1EE10FA88BFB0EE34
:10081000667AFDEEE77ABDEEC77A012020338B427F
:10082000DFD118B184ED057AC4ED047A002685F88D
:1008300038602846FFF704F83046F4F75DF828469C
:10084000F4F7EEF9EE6C0EB3894BD5F84890D5F875
:100850004080D3E9000127F0BFFE864B0746D3E96D
:10086000000127F0B9FE06F52043012283F8602439
:1008700003F26442C2F8009003F58D62C2F8008072
:1008800003F25C4203F58B63176018607A4B7B4E72
:100890001B680993099BD6F8800403F56A4360330B
:1008A000EB65002800F0C28011F0ACFCD6F8803473
:1008B000002B00F00181DA69642300FB03F3501E72
:1008C0006F4A93FBF0F352686B66012129720A2389
:1008D0003D21012AA5F8603085F8581094F8503071
:1008E00000F0AA80002B4ED1A26B664B664953F8EC
:1008F0002230A26D0AAE30462CF06EFA634CDFF85F
:10090000AC81DFF8ACA1DFF8ACB13146002017F0C4
:1009100093FB0023AB6604F1E0070EE0012B57D0F8
:10092000D8F8003051F823102CF056FA0020314648
:10093000203417F081FBA7426AD06368022B2DD0C8
:10094000032B534922463046E8D1AB6ED8F800203D
:10095000A0695BF822900133AB66E268E369059217
:10096000A2680793049227F0E7FACDE902016069D3
:1009700027F0E2FA079BCDE90001224649463046BE
:100980002CF02AFAD2E7A26B3E4B424953F82230B0
:10099000626D0AAE30462CF01FFAAFE7AB6EA0696D
:1009A0000133AB66D8F800305AF82390A36804935B
:1009B00027F0C2FACDE90201606927F0BDFAE369C8
:1009C000CDE900012246494630462CF005FAADE754
:1009D000AB6ED8F8002020690133AB66E36907935A
:1009E0002D4B53F8229027F0A7FACDE90401A06916
:1009F00027F0A2FACDE90201606927F09DFA079B72
:100A0000CDE900012246494630462CF0E5F98DE754
:100A10002248F4F7A7F8AB6E002B04DDE86C10B1A8
:100A20000368DB6898474BB0BDE8F08FD6F88404C4
:100A3000B8B10FF09BFA39E7002B46D0A26B114BEF
:100A4000174953F82230626D0AAE30462CF0C4F9D3
:100A500054E71B2113481DF0B1FF13481BF000FEA3
:100A6000A1E603462CE700BFC059FF1F3858FF1FFF
:100A7000A857FF1FB857FF1F6868FF1FC85CFF1FFC
:100A8000C857FF1F3410FF1FBC8B0400AC58FF1F5A
:100A9000D412FF1F848B0400C412FF1F108C0400AB
:100AA000148B0400F88A0400C02DFF1F7067FF1F1D
:100AB000E412FF1FB412FF1FD6F88424642300FB46
:100AC00003F36AB1D2F83004FAE6A26B054B06498B
:100AD00053F82230A26D0AAE30462CF07DF90DE7B6
:100AE0001046EDE63410FF1F4C8B0400036810B570
:100AF0005B69044698470C4BE16E226F1961002038
:100B000084F8390020465A61FDF7EAF8074B1B7854
:100B100003B910BD06481A211DF050FFBDE8104072
:100B200004481BF09DBD00BF3858FF1FC059FF1F70
:100B3000F48B0400C02DFF1F081E18BF0120704752
:100B400010B50446D0F8C408044B236008B11CF06B
:100B5000EFF82046FDF7AEF8204610BD5C95040086
:100B600010B50446D0F8C408074B236008B11CF048
:100B7000DFF82046FDF79EF8204640F6D8011CF02D
:100B8000D9F8204610BD00BF5C950400344B2DE918
:100B9000F041183103F5E2766FF06804002001E0BF
:100BA00053F8044B51F8045FA542C8BF0130B3426B
:100BB000F6D12C492C4BD1F85C812C494FF0000E1A
:100BC0001C3203F5E477764612E00D68146805F1EF
:100BD000050CA44500DB0136A54203F10403C8BFA0
:100BE0000EF1010EBB4202F1040201F1040109D031
:100BF000B8F1020FE9D11D68146805F1050CA44590
:100C0000EADBE8E705280ADD06B3BEF1000F1DD0D8
:100C1000BEF10A0FB4BF02200420BDE8F08150B934
:100C20001D2EFADDBEF1000F16D0BEF1140FCCBFA1
:100C300004200220F1E7182E0BDDBEF1000F0BD0CF
:100C4000BEF10A0FCCBF04200220E6E70320BDE876
:100C5000F0810020BDE8F0810120BDE8F08100BFF7
:100C6000748D04003858FF1F708F040070910400C9
:100C70002DE9F041A84DC26D2B6892B00446069351
:100C8000069B9A423CBF6FF07703C0F880302B6818
:100C90000793079B026E9A423CBF6FF07703C0F840
:100CA0008430C36E13F1770FC0F227810A3BC3660D
:100CB000236F13F1770FC0F21B810A3B2367E06CAF
:100CC00030B105AB009304AA03AB02A907F06CFF97
:100CD000029BE26E9A4201DAE366A367D4F88020B1
:100CE0009A4208DA2A680892089AC4F8803002F515
:100CF0001C521032E265039A216F914201DA226799
:100D0000E267D4F88410914208DA296809910999B8
:100D1000C4F8842001F51C511031216613F1770FBE
:100D2000C0F2F080934200F33B8103DA0599C4F8E6
:100D300088106267D4F88C108B4207DD0499C4F8E0
:100D40008C30C4F8941012F1770F08DBD4F890308F
:100D5000934204DA059BC4F89020C4F898306F4D94
:100D60006F4E2868083014F0AFFF2F6872680023B8
:100D7000C7F8B8306B4B53F82280B8F1000F08D099
:100D800040462DF0DDF93B6802465B684146384637
:100D9000984738461BF064FC2F6872684FF41023A4
:100DA000C7F8B830604B53F82280B8F1000F08D074
:100DB00040462DF0C5F93B6802465B68414638461F
:100DC000984738461BF04CFC2F6872684FF490131C
:100DD000C7F8B830554B53F82280B8F1000F08D04F
:100DE00040462DF0ADF93B6802465B684146384607
:100DF000984738461BF034FC2F6872684FF4D813BC
:100E0000C7F8B8304A4B53F82280B8F1000F08D029
:100E100040462DF095F93B6802465B6841463846EE
:100E2000984738461BF01CFC2B6842494FF41812B7
:100E3000C3F8B8200AA8636FD4F888202BF0CCFF41
:100E40002F680AA82DF07CF93B6802465B680AA966
:100E50003846984738461BF003FC374B1B68012B7C
:100E600078DD364BD3F85831002B73D173682A687C
:100E70003349C2F8B810012B00F0A080A26F3149AD
:100E80000AA82BF0A9FF2F680AA82DF059F93B6892
:100E900002465B680AA93846984738461BF0E0FBD3
:100EA000E36858680123837103683122DB680021FD
:100EB000984773682A682449C2F8B810012B0CBF00
:100EC00022492349E26F0AA82BF086FF2D680AA861
:100ED0002DF036F92B6802465B680AA92846984728
:100EE00028461BF0BDFBE3680121986839224BE0DE
:100EF0006FF077032367E367E1E66FF07703C3667C
:100F00008367D5E612F1770FFFF629AF059BC4F88A
:100F1000883062671AE700BF6868FF1FB05CFF1F78
:100F2000C857FF1FD424FF1FE424FF1FF424FF1F12
:100F30000425FF1F788C04003058FF1F3858FF1F0E
:100F400051002E00948C0400510037009C8C04004A
:100F5000A48C04002B681C4AC3F8B8201B49A26F5C
:100F60000AA82BF039FF2D680AA82DF0E9F82B68A4
:100F700002465B680AA92846984728461BF070FB82
:100F8000E36818680121322203688171DB6800215F
:100F90009847236820461B6B984712B0BDE8F08144
:100FA000D4F88C000499C4F8881098426367BFF69F
:100FB000CAAEC4F88C30C4F89410C4E6A26F0449D9
:100FC0000AA82BF009FF5EE75300320044890400B1
:100FD0008C8C040010B4194C03468C4694E8030032
:100FE00083B002AC04E90300A2F114016B2921D8FB
:100FF0006FF03B01A1EB0C0107EE901AB8EEE77A17
:10100000F7EE086AC7EE267AD11002F00702D86818
:1010100002F108030DEB030212F8082CFDEEE77A4B
:1010200017EE903A272BA8BF272301EB0313C15CCF
:101030000A43C25403B05DF8044B70472C4E0400C1
:101040002DE9F04FC36CDFF8E0A0DFF8E080DFF8B7
:10105000E09003F5004385B09A6A5F6A039200232B
:10106000064600F6B80B00F1AC050124029333E00C
:10107000039BDAF85C2153F82430A8FB03135B09C7
:10108000022A029303D1029BDB00C000029300B24C
:1010900005F03CFB89FB0023C017C0EBA30096F8CA
:1010A000B63800B2686033BB6FF07801C5F804143D
:1010B00055F8043F9942B8BF194620B2019105F096
:1010C000EBFBFDEEC07A019917EE902A58460134E9
:1010D000FFF780FF802C19D057F8040F96F8B63828
:1010E000A8FB00204009002BC2D1DAF85C31022BAA
:1010F00008BFC000CBE7BDF9080005F007FB89FB7E
:101100000023C117C1EBA30109B2CFE702220F23CD
:10111000C6F89C20C6F8A43014F0F8F9C6F8A80068
:1011200005B0BDE8F08F00BF3858FF1FB5814E1BDA
:10113000676666662DE9F041044688B014F0E6F96A
:10114000D4F8A830984208D0D4F8A430013BC4F8B1
:10115000A43014F0DBF9C4F8A800D4F8A430002BB4
:101160007DD05A4D5A4E28685A4F083014F0ACFDC5
:101170007368286857F82310083015F0F5FB73687A
:10118000C0F1800057F823802F6800EBD07040102A
:101190000023A7F8B800A7F8BA30B8F1000F08D0BC
:1011A00040462CF0CDFF3B6802465B68414638461E
:1011B000984738461BF054FA474F7368286857F829
:1011C0002310083015F0D0FB7368C0F1800057F889
:1011D00023802F6800EBD07040100923A7F8B800D7
:1011E000A7F8BA30B8F1000F08D040462CF0A8FF9D
:1011F0003B6802465B6841463846984738461BF0D4
:101200002FFAD4F8A420354968462BF0E5FD28686C
:101210006946083015F0A8FBC0F180002F6800EB8C
:10122000D0701B234010A7F8B800A7F8BA30684662
:101230002CF086FF3B6802465B6869463846984753
:1012400038461BF00DFAD4F8A430043B032B0AD91E
:10125000236820461B6B984708B0BDE8F081204604
:10126000FFF7EEFE7DE7736828681D4F083057F8DA
:10127000231015F079FB73682D6857F82360C0F1CF
:10128000800000EBD07040102823A5F8B800A5F826
:10129000BA3046B130462CF053FF2B6802465B68EB
:1012A00031462846984728461BF0DAF9D4F8A4308E
:1012B000052BCDD194F8B438002BC9D1E06C05F0E2
:1012C000E9F9012384F8B438C2E700BFB05CFF1F1E
:1012D000C857FF1FAC26FF1FBC26FF1FAC8C0400A5
:1012E000CC26FF1F2DE9F04FC36CDFF820B4DFF8E8
:1012F0002084DFF820942DED028B03F50043ADF53B
:10130000677D00F52B720026996A09965F6A0B903B
:1013100000F6B80A0A910C9215460124064633E0FD
:101320000A9BDBF85C2153F82430A8FB03135B090C
:10133000022A099303D1099BDB00C000099300B284
:1013400005F0E4F989FB0023C017C0EBA30096F871
:10135000B63800B2686033BB6FF07801C5F804148A
:1013600055F8043F9942B8BF194620B2089105F0DC
:1013700093FAFDEEC07A089917EE902A5046013490
:10138000FFF728FE802C19D057F8040F96F8B638CE
:10139000A8FB00204009002BC2D1DBF85C31022BF6
:1013A00008BFC000CBE7BDF9240005F0AFF989FB09
:1013B0000023C117C1EBA30109B2CFE70B9CE06C7E
:1013C00060B100F5004393F85B30002B40F0A4823D
:1013D00003685B6898470B9A0023D3640B9C04F165
:1013E000AC0211460A9220460C9AFFF7CFFB94F804
:1013F000B638C4F8AC0843B104F2AC6204F2AC41B4
:101400002046FFF7C3FBC4F8B008002324938DF8EF
:101410009830359336934FF47A70A74BA7492393AE
:101420002590A74BA74A19A82BF0D6FCA64B196804
:1014300027AB002900F09E8208EE103A184619AA40
:1014400040F2092311F0CAF8002840F0E1809F49DA
:101450009F4819AA1BF01CF99E4B08939E4B0993B9
:101460000B9B93F8B63837AC002B00F04D82089BED
:101470005A689A4B53F822100F9114F08FF80E907F
:1014800014F074F80D9014F059F8054614F00EF8A5
:10149000064614F023F8074614F038F80D9B039025
:1014A0008DE8E0000E9A0F9919A82BF095FC0B9B84
:1014B00093F8B638002B00F02B82089A884B5268BC
:1014C00053F822100F9114F069F80E9014F04EF8B2
:1014D0000D9014F033F8054613F0E8FF064613F0BC
:1014E000FDFF074614F012F88DE8E000039008981D
:1014F0000B9D4068D5F8AC580D9B0E9A0F99DFF8FC
:1015000018A200EB400005EB4005099850F82500B3
:10151000049020462BF060FC34201BF003FC19AB38
:1015200007930A23059303930293B42304936FF064
:1015300036086FF07703CDE900384FF49672002338
:101540004FF42F71069407460CF0DAFA0C9B0193C6
:10155000089B644D5B6880265AF82310029500238F
:101560000096022238460CF045FBDBF85C31009611
:10157000022B029500F00182089B5B4A5B680C928B
:1015800052F82310594B01930822022338460CF0DD
:1015900031FB089B02955B68DFF88091544A59F84B
:1015A00023100192012380261A46384600960CF03B
:1015B00021FB0A9A089B0192029500965B68DFF86E
:1015C0006081032258F82310384600230CF012FBE8
:1015D00038460CF0B1FE38460CF060F8384634213D
:1015E0001BF0A8FB0B9B93F8B638002B40F0E8816A
:1015F0000B99404B2393032218EE100AC1F89C204C
:1016000010F0D8FF0DF5677DBDEC028BBDE8F08FC3
:101610000B9F97F8B638002B40F086812D4F364B44
:101620007A68089753F822100E9113F0B7FF0D90C7
:1016300013F09CFF099013F081FF044613F036FF6E
:10164000054613F04BFF064613F060FF8DE870006F
:1016500003900B9C7868099B0D9A0E99D4F8AC48BE
:1016600000EB400004EB40041B48099050F82400B4
:10167000049037AC20462BF0AFFB20462CF060FDE9
:1016800002463598002800F0808221460FF004FBC6
:1016900023A81AF0E5FF089B184A5B68184D1095BF
:1016A00003EB8303204652F82310164E2CF086FCE1
:1016B00005F5E279144837E000750400B48C0400A5
:1016C000B85CFF1F7E58FF1FA461FF1FD88C040069
:1016D000C02DFF1FC857FF1FC425FF1F2C26FF1F4B
:1016E0005425FF1F549304004C26FF1F54910400FF
:1016F000548D0400DC7404002425FF1F7425FF1F93
:1017000074930400C88C0400000028413858FF1F5F
:10171000F1197605676666663C26FF1F5C26FF1F8B
:101720006C26FF1F55F8040B26F006FC02460B46FC
:1017300014A831462BF050FB20462CF001FD14A9D3
:1017400020442CF001FA4D45ECD1021B35980028BD
:1017500000F0138221460FF09FFA23A81AF080FFB1
:10176000089B8C4A5B688C4E03EB830302EB83037C
:10177000204659682CF022FC0B9B03F5317703F2CD
:101780008C4557F8042F314614A82BF025FB204632
:101790002CF0D6FC14A920442CF0D6F9BD42F0D18F
:1017A000021B3598002800F0E08121460FF074FA02
:1017B00023A81AF055FF089B764A5B68DFF8FCA166
:1017C000754F03EB830302EB8303204699682CF0EB
:1017D000F5FB724B0F930AF5E4781E465546DBF88D
:1017E0005C31022B0CBF2A683268394614A82BF0F2
:1017F000F3FA20462CF0A4FC043514A920442CF064
:10180000A3F9454506F10406E9D1021B35980028E5
:1018100000F0A38121460FF03FFA23A81AF020FF21
:10182000089B5C4A5B685E4F0E9703EB830302EBF9
:1018300083032046D968584E2CF0C0FB07F5E275AB
:101840006FF0680201E057F8042F314614A82BF01E
:10185000C3FA20462CF074FC14A920442CF074F92F
:10186000AF42F0D1021B3598002800F05F8121467D
:101870000FF012FA23A81AF0F3FE089B454A5B68A2
:10188000454F03EB830302EB8303204619692CF0D9
:1018900095FB0B9BCDF834A003F1C40603F523732D
:1018A000B2461E465AF8042F394614A82BF094FA73
:1018B00020462CF045FC14A920442CF045F9B245F3
:1018C000F0D1021B3598DDF834A0002800F03D81EE
:1018D00021460FF0E1F923A81AF0C2FE0B9B93F802
:1018E000B638002B40F059813598002800F0268149
:1018F0000FF0CCF918EE100A10F05CFE0B9B93F879
:10190000B638002B7FF4B3AD089B5A68254BB1E580
:10191000089B5A68244BD3E503681B699847E06C21
:1019200000287FF455AD59E5204B1A460892204B0C
:10193000526853F822100E9113F030FE0D9013F000
:1019400015FE099013F0FAFD044613F0AFFD0546AD
:1019500013F0C4FD064613F0D9FD8DE87000039026
:101960000898099B40680D9A0E99D7F8AC4800EB8F
:10197000400077E608EE103A69E5089A0D4952688A
:101980000C9151F822100C4A0192384608220CF0B2
:1019900031F9FEE57425FF1FD08C0400709104001E
:1019A000708D04002426FF1F1425FF1FC857FF1F3A
:1019B0003425FF1F4C26FF1F548F0400708F040036
:1019C000089B5A689A4B53F82210109113F0E6FDC9
:1019D0000F9013F0CBFD0E9013F0B0FD0A9013F0B2
:1019E00065FD074613F07AFD0D9013F08FFD0D9AFB
:1019F0000390029208980A9A019700920B9F406800
:101A0000D7F8B0780E9B0F9A109900EB400007EBC7
:101A10004007099850F82700049020462BF0DCF985
:101A2000089B5A68834B53F822100F9113F0B6FDB0
:101A30000E9013F09BFD0D9013F080FD099013F0B4
:101A400035FD074613F04AFD0A9013F05FFD0A9A30
:101A50000292099A0D9B0F9903900197009219A881
:101A60000E9A2BF0B9F934201BF05CF90A23059388
:101A700003930293B42319AA04936FF036076FF00F
:101A80007703CDE900370792069400234FF496724E
:101A90004FF42F7104460CF033F8089B0295009622
:101AA0005B680B9F5AF8231007F2AC630193022284
:101AB000002320460CF09EF8DBF85C310096022BE8
:101AC000029500F09881089B0C9A5B6852F82310ED
:101AD000594B01930822022320460CF08BF8089FF3
:101AE000564B019302957B68802659F82310009687
:101AF00001231A4620460CF07DF8029500967B687B
:101B000058F823100B9B03F2AC43032201932046A9
:101B100000230CF06FF820460CF00EFC20460BF072
:101B2000BDFD342120461BF005F961E536980028FB
:101B30003FF4A0AE21460DF0F5FA9BE6369800285A
:101B40003FF4D8AE0DF0B6F9D4E6369800283FF44D
:101B5000C2AE21460DF0E6FABDE6369800283FF405
:101B60005CAE21460DF0DEFA57E6369800283FF4C9
:101B70001FAE21460DF0D6FA1AE6369800283FF43B
:101B8000ECAD21460DF0CEFAE7E5369800283FF49B
:101B90007FAD21460DF0C6FA7AE5089B5A68284BBE
:101BA00053F82210139113F0F9FC129013F0DEFC9D
:101BB000119013F0C3FC0D9013F078FC064613F05F
:101BC0008DFC074613F0A2FC0D9A0390089801962D
:101BD000009202970B9E4068D6F8B068129A119B4B
:101BE000139900EB400006EB4006099850F82600D8
:101BF000049020462BF0F0F820462CF0A1FA024683
:101C00003598002800F0EF8021460FF045F823A812
