:1000000000000320D101000049970200019702007F
:100010000197020001970200019702000197020078
:100020000197020001970200019702004997020020
:10003000499702000197020085B8020089B80200C2
:100040004997020049970200ED6D01006126010009
:100050004997020049970200499702004997020018
:100060004997020049970200499702004997020008
:1000700049970200499702004997020049970200F8
:1000800049970200499702004997020049970200E8
:10009000499702003109FF1F499702004997020062
:1000A000119402001D940200499702004997020032
:1000B00049970200499702004997020049970200B8
:1000C0004997020061A8020049970200499702007F
:1000D0004997020049970200499702004997020098
:1000E0004997020049970200499702004997020088
:1000F0004997020049970200499702004997020078
:10010000E5BA0200F9BA02000DBB020021BB0200F1
:1001100049970200A9AB02004997020049970200E3
:100120004997020049970200499702004997020047
:100130004997020049970200499702004997020037
:100140004997020049970200499702004997020027
:100150004997020049970200499702004997020017
:10016000499702004997020029940200499702002A
:1001700049970200499702004997020049970200F7
:1001800049970200499702004997020049970200E7
:1001900049970200499702004997020049970200D7
:1001A00049970200499702004997020049970200C7
:1001B00049970200499702004997020049970200B7
:1001C00049970200499702004997020049970200A7
:1001D0005C4B4CF2205210B51A804DF628121A8052
:1001E00000BF00BF28F054F8574B4FF030621A6040
:1001F000564A9A60564ADA60564B4FF470021A60BB
:10020000554B564A1A60564B1A78110703D51A787F
:1002100042F008021A70534B5349AA221A70534AEB
:10022000534B8B4204D252F8040F43F8040BF8E707
:10023000504B514900228B4202D243F8042BFAE77B
:100240004E494F4A002352F8230041F8230001335E
:10025000742BF8D14B4B4C4A802103F8011B93427D
:10026000FBD14A4B454A1A60494B8A221A70A3F5C2
:10027000805324225A70A0221A709A799207FCD5D2
:100280009A79D406FCD4434A937903F00C03082BE3
:10029000FAD1414B60221A7002331A78802AFCD1BD
:1002A0003C4B00221A7142225A719A799006FCD571
:1002B0009979384A4906FBD5384B4FF001711960DE
:1002C0000421596020231370937903F00C030C2B45
:1002D000FAD1334B334A1A60334A344C136813F45F
:1002E000807303D123604FF4A8531360304B314A1D
:1002F0001A6000225A60072243F8042C2E4AC3F8E1
:100300000C2D62B629F032FE2368DA0705D52B489A
:1003100029F08AFD2A4B2B4A1A602B4B1B785B066F
:1003200009D5274C274B22689A4204D1234829F04B
:100330007BFD0023236029F00BFA2FF053FD2BF0F7
:100340007DFDFEE70E20054030800440823F040022
:100350000100002B88ED00E0002008E0030000858C
:1003600002D0074000E00740E834FF1F94A40500D6
:100370003009FF1FE834FF1FD868FF1F0004FF1F6C
:100380000000000000E400E064E400E008ED00E0AC
:10039000005006400040064001E007404480044011
:1003A00004800440C010050010D0034014D0034066
:1003B00014E000E07F3202000000202042903B6207
:1003C0001CE00340A5C3945A00F00740FFFFFFFF65
:1003D000FFFFFFFFFFFFFFFFFFFFFFFFFFFFFFFF2D
:1003E000FFFFFFFFFFFFFFFFFFFFFFFFFFFFFFFF1D
:1003F000FFFFFFFFFFFFFFFFFFFFFFFFFFFFFFFF0D
:10040000FFFFFFFFFFFFFFFFFFFFFFFFDEF9FFFF23
:1004100010B5054C237833B9044B13B10448AFF33E
:1004200000800123237010BDE834FF1F000000008E
:1004300090A40500084B10B51BB108490848AFF35C
:1004400000800848036803B910BD074B002BFBD0A0
:10045000BDE81040184700BF00000000EC34FF1F4B
:1004600090A40500E834FF1F00000000F0B5B0F9CB
:100470002E20B0F93870B0F93A30B0F93060B0F8E9
:1004800032E0018DB0F92A40B0F93450BA42A8BF29
:100490003A46B342B8BF33467144A542418602870B
:1004A000438702DA838D8486C386F0BDF0B5B0F948
:1004B0006660002E30DDB0F87830B0F87450B0F8D7
:1004C00076C0B0F86840B0F86A10B0F97EE0B0F9D4
:1004D0007020B0F97270354464441944B0F980302A
:1004E000A0F874507245B0F96C50A0F87640B0F99D
:1004F0007A40A0F87810A8BF7246BB42B8BF3B460E
:10050000AC42A0F87E20A0F8803005DAB0F86E305A
:10051000A0F87A50A0F87C30F0BD00BFB0F92430CC
:100520002DE9F041B0F926705C1CBC4244DA07F1B9
:1005300080479B00013F02EB8707D418194400262F
:10054000254601F1040E55F8042B6368D4F808C061
:100550000C6812B2002A1BB2B8BF524292B2002BF2
:10056000A4B2B8BF5B42A2421FFA83F810D84A680F
:1005700092B290450FFA8CFC0AD8BCF1000F8A6841
:10058000B8BFCCF1000C92B21FFA8CFC94450BD989
:10059000D0F898203244B2F906409188A342B8BFFF
:1005A00023460431D3809180BD422C46714606F12A
:1005B0000806C5D1BDE8F081BDE8F0812DE9F04124
:1005C000B0F92430B0F92650AB4243DC224C002273
:1005D00001351C449646904694460AE08E45B8BFC5
:1005E0008E4698464FF0010C0133AB4202F10802EF
:1005F00016D014F8011F0029F6D1D0F89810C6685B
:100600001144B1F90470B742EEDBB1F9061071453F
:10061000E4DC0133AB424FF0010C02F10802E8D1F7
:10062000BCF1000F16D0B0F93820B0F93A30418E45
:10063000B0F934404245A8BF42464345B8BF43469F
:1006400001317445418602874387BCBFA0F834E07E
:10065000A0F83680BDE8F0810B45FF1FB0F92430CB
:100660002DE9F047B0F926705C1CBC4280F2838013
:1006700007F180479B00013F0024D0F8986002EB0F
:10068000870702EB03091944A6464FF0010C13E05B
:1006900001F10408321906F804C0B2F906909188F5
:1006A0004B45B8BF4B460431D3809180AF42A94639
:1006B000414604F108045CD04D4655F8042BD9F8A6
:1006C0000430D9F80890D1F8008012B2002AB8BFDF
:1006D00052421BB2002B92B21FFA88F8B8BF5B429D
:1006E0004245D5D84A681FFA83FA92B2924501F181
:1006F0000408CFD80FFA89F9B9F1000F8A68B8BF9A
:10070000C9F100091FFA89F992B29145C2D8335D47
:100710003219002BCAD0B2F90410C36899421ADB0F
:100720000369994217DCD0F89C9009EB040309F89F
:1007300004C0B3F904A0B3F906905145B8BF5146BF
:100740009980B2F906A05988D145B8BFD146013188
:10075000A3F806905980AF4282F800E0A2F802E0C8
:10076000A2F806E0A2F804E0A946414604F1080414
:10077000A2D1BDE8F087BDE8F08700BFF0B5B0F9C1
:100780002430B0F92650AB4240DC214C0022013528
:100790001C441746944696460AE08F42B8BF0F465F
:1007A0009C464FF0010E0133AB4202F1080214D017
:1007B00014F8011F0029F6D1D0F89C108E5C11446A
:1007C000002EF0D0B1F90610B942E6DC0133AB429D
:1007D0004FF0010E02F10802EAD1BEF1000F15D070
:1007E000B0F93820B0F93A30418EB0F93440624562
:1007F000A8BF62466345B8BF63460131BC4241862B
:1008000002874387BCBF8786A0F836C0F0BD00BF13
:100810000B45FF1F704700BF10B5A82104462BF001
:100820001DFB204610BD00BF38B54FF4805504466F
:100830002A46002108482FF0E9FE2A4600210748F1
:100840002FF0E4FE04F128000A2200212FF0DEFE42
:100850004FF48063E38538BD0C47FF1F0835FF1F49
:1008600070B500F174050E260446294632468230E2
:1008700028F0E0FD3246284600212FF0C7FE4FF455
:100880008063A4F87E3070BD10B50446FFF7CCFF3E
:10089000D4F8980038B1D4F894200021D200BDE8F3
:1008A00010402FF0B3BE10BD10B50446FFF7BCFFDB
:1008B000D4F8980078B1D4F894200021D2002FF019
:1008C000A5FED4F89420D4F89C00D2000021BDE805
:1008D00010402FF09BBE10BD38B504460A25FFF727
:1008E000A3FF2A4604F1940000212FF08FFE2A4630
:1008F00004F19E000021BDE838402FF087BE00BF04
:100900002DE9F843054600F194080E461746404687
:100910000A2200212FF07AFEB5F92640B5F924907D
:100920004C4565DBA3001F441E44002012E0002854
:1009300062D122B2A5F89A30A5F89420A5F89620A5
:10094000A5F89C200120013C4C45A7F10407A6F125
:10095000040634DB3B6832681BB2002BB8BF5B4235
:1009600099B292B29142E2D80028ECD0B5F9963013
:100970001A1B042A3EDDB5F99410B5F9A200CA1A73
:10098000013282420DDDB5F89A00A5F89E10B5F847
:100990009C10A5F8A030A5F8A220A5F8A400A5F801
:1009A000A6100A2200214046013C2FF02FFE4C45A4
:1009B0004FF00000A7F10407A6F10406CADAB8B1A7
:1009C000B5F99410B5F99620B5F9A2008B1A013348
:1009D00083420DDDB5F89A40B5F89C00A5F89E104D
:1009E000A5F8A020A5F8A230A5F8A440A5F8A60077
:1009F000BDE8F8830120A6E7B5F99A1022B28B4230
:100A0000A5F89620F6DDA5F89A30A5F89C209AE77F
:100A10002DE9F04180F89230164604460F460FCE7D
:100A2000251D0FC596E80F0085E80F00424A216892
:100A30001760BF0A9FED416AD4ED066A94ED077A0C
:100A4000DFED3F3A9FED3F4ADFED3F4A3F4BCE6837
:100A50001F6007EE907A66EE866AF8EEE77A27EE78
:100A6000067A86EEA75A82B0394BDFF8E8C0DFF885
:100A7000E8E0DFF8E8800121197040F2FF1220461B
:100A80004FF48065C7EE275A83EEA76AC4EE276A43
:100A900084EEA77AF6EE007A35EE275A75EEE77AFD
:100AA000FDEEC55AFDEEE77ACDED015ABDF90430F1
:100AB000CDED007A23EAE373FDEEC67AA384BDF997
:100AC000003017EE901AFDEEE67A9342A8BF134667
:100AD00017EE902AFDEEC77AE38417EE903AA8F855
:100AE0000010ACF80020AEF80030B04704F132003E
:100AF0000A2200212FF08AFD258704F13C000E22F6
:100B000000212FF083FDA4F8465004F158000E2276
:100B100000212FF07BFDA4F8625004F174000E2236
:100B200000212FF073FD0023A4F87E50A4F890302C
:100B300002B0BDE8F08100BF0C57FF1F00007A44EF
:100B40000070944700F8A747005CC1470435FF1FB9
:100B50000845FF1F1257FF1F0A45FF1F1057FF1FB1
:100B600030B500F13C0585B0044629464A300E22D6
:100B700028F060FC0F4B1B7883B1B4F93C30002B9C
:100B80000CDDB4F93E10B4F94020039201910091BC
:100B90000292094909481A462AF0FEFF28460E2209
:100BA00000212FF033FD4FF48063A4F8463005B0E8
:100BB00030BD00BF0845FF1F84EF0300882AFF1FD8
:100BC00070B5044600F158050E26294632466630B7
:100BD00028F030FCB4F96620064907482AF0DCFF0B
:100BE0003246284600212FF011FD4FF48063A4F80F
:100BF000623070BDD0EF0300882AFF1F70B5B0F8D7
:100C00009020B0F932300446006A013212B28342B9
:100C100082B0A4F890202EDBA18F013109B201250A
:100C2000052AA187A4F8405005DDE28F0025013296
:100C3000E287A4F89050194A12783ABBB4F946609A
:100C4000B4F93820B4F94830B4F93A50B4F9341052
:100C5000B4F94200B242A8BF3246AB42B8BF2B46FD
:100C60008842A4F84620A4F8483004DAE38EA4F8B9
:100C70004210A4F844300A22002104F132002FF07F
:100C8000C5FC4FF48063238702B070BD8DE803007C
:100C9000221D034903482AF07FFFCFE70845FF1FC5
:100CA000F8EF0300882AFF1FB0F94A20002A3CDD34
:100CB000F8B51E49B0F858301A440B7812B2044601
:100CC000A0F8582063BBB4F85AE0B4F84C00B4F86C
:100CD0005C50B4F96270B4F95420B4F84E10B4F911
:100CE0006430B4F9566070442944BA42B4F95050A3
:100CF000A4F85A00B4F95E00A4F85C10A8BF3A4604
:100D0000B342B8BF3346A842A4F86220A4F86430C6
:100D100005DAB4F85230A4F85E50A4F86030F8BD9B
:100D2000034904482AF038FFCDE770470845FF1F04
:100D30003CF00300882AFF1F10B50446D0F8980045
:100D4000034B236008B12BF087F8204610BD00BF8D
:100D500070F0030010B50446D0F89800054B2360EE
:100D600008B12BF079F820469C212BF077F820462B
:100D700010BD00BF70F0030010B50446D0F89C0011
:100D8000054B236008B12BF067F8D4F8980008B140
:100D90002BF062F8204610BD14EF030010B5044696
:100DA000FFF7EAFF2046A0212BF058F8204610BD9F
:100DB00010B50446FFF72CFEB4F92630B4F9240030
:100DC000181A0130B0F17E6FC4F8940094BFC000CF
:100DD0004FF0FF302BF03CF8D4F89420C4F8980082
:100DE000D2000021BDE810402FF010BC10B5044621
:100DF000FFF70EFEB4F92630B4F92400181A0130BA
:100E0000B0F17E6FC4F8940094BFC0004FF0FF3083
:100E10002BF01EF8D4F89430C4F89800B3F17E6F2C
:100E200094BFD8004FF0FF302BF012F8D4F8942084
:100E3000C4F89C00D2000021D4F898002FF0E6FB03
:100E4000D4F89420D4F89C00D2000021BDE81040D2
:100E50002FF0DCBB144B1B782BBB144BB0F9A2203A
:100E60001B689FED136A90ED057A03FB02F307EE12
:100E7000903AF8EEE77AC7EE866AF4EEC76AF1EECA
:100E800010FA10DB30B4B0F8A050B0F89E40C58521
:100E9000048630BC038DB0F8A410B0F8A6204185BC
:100EA00001330385828570471457FF1F0435FF1FE8
:100EB00000007A443C4BB3F90030B3F5007F72DA9E
:100EC00084463A483A4A2DE9F04FB0F90080394F4C
:100ED000B2F9009008F101084FF0010A4FF0000B41
:100EE00030E05CF80E0095B280B2854247D836B249
:100EF000002E5CF80400B8BF7642B6B280B28642DB
:100F00003DD817F83320CAB12A48DA008418B4F95A
:100F1000040004280BDD284D1544B5F90460864211
:100F200005DA254EE48806F833A0EC80A8803A4420
:100F300007F833B0A2F806B0A2F804B00133B3F555
:100F4000007F2EDA434508BF4B4603F18045013D43
:100F5000AC0051F8250004F1040E083451F80E20BD
:100F60000E595CF8255000B20028B8BF404212B2BA
:100F7000002A80B2ADB2B8BF5242A842B1D907EB45
:100F8000C30007F833A0B0F906508488AA4203F1E1
:100F90000103B8BF2A460434B3F5007FC2808480C1
:100FA000D0DBBDE8F08F70471057FF1F1257FF1FAF
:100FB0000A45FF1F0C47FF1F0835FF1F2DE9F84F9B
:100FC00000248A4D8A482C704FF4007221462FF07D
:100FD0001DFB884A884BB2F90000B3F900804045F8
:100FE00062DA864EDFF808C247002146A1464FEA82
:100FF000480806EBC006C7F58067440040F2FF1EB4
:101000000122B6F90430092B42DD4FEAD07909EB11
:10101000000AA0EB6A0AAAF1020323EAE3730AF1C9
:10102000030A591EF245A8BFF246614402E001F8E6
:10103000012F01335345FADB814400EB6909A9F123
:10104000020323EAE37309F10309591EF145A8BF1E
:10105000F146614402E001F8012F01334B45FADB10
:10106000B4F5007FD4BFA146B946A9F1020323EA33
:10107000E37309F10309591EF145A8BFF146614424
:1010800002E001F8012F01334B45FADB01218946CB
:101090000234444500F1010006F10806A7F10207F9
:1010A000AFD1002940F09280554BB3F90000B0F564
:1010B000007F80F294804700504CDFF834E195F8CF
:1010C00000A00326C7F58067374404EBC004F04650
:1010D00006EB4006002140F2FF1C012240F20329EA
:1010E000B4F90430092B46DD1EF80030002B42D144
:1010F0004FEAD07A0AEB000BA0EB6B0BABF10203CB
:1011000023EAE3730BF1030B591EE345A8BFE34643
:10111000414402E001F8012F01335B45FADB8244D0
:1011200000EB6A0ABAF5007F39DAAAF1020323EA72
:10113000E3730AF1030A591EE245A8BFE24671446F
:1011400002E001F8012F01335345FADBF31EB3F53A
:10115000007F1DDA731F23EAE373B246591EE2458E
:10116000A8BFE246714402E001F8012F0133534564
:10117000FADB01218A460130B0F5007F04F1080452
:1011800006F10206A7F10207AAD151BBBDE8F88F0C
:101190004F4511D07B1F23EAE373BA46DEE7BAF569
:1011A000007F0ED0CAF57F730233CAF5806A23EA46
:1011B000E3730AF1030ABEE740F2FD1340F2022A8C
:1011C000CCE740F2FD1340F2022AB4E70C4B85F85D
:1011D0000090B3F90000B0F5007FFFF66CAFBDE8FA
:1011E000F88F85F800A0BDE8F88F00BF1457FF1FE7
:1011F0000C45FF1F1057FF1F1257FF1F0835FF1F19
:101200000A45FF1F024A02600022C0F8982070477A
:1012100070F00300034A02600022C0F89820C0F872
:101220009C20704714EF0300014B0360704700BF20
:1012300050EF03000120704738B504464CF69C601F
:101240002AF004FE02220546024916F09DFBE564E1
:1012500038BD00BFB059FF1F013938B50446062913
:1012600019D8DFE801F02C041818182A1A00204AAF
:10127000936D033B042BD8BF05239365E3680322DA
:1012800084F8B0209869002125F02AFFE368012145
:10129000986825F025FF002038BD436EB3B9C06CB7
:1012A00048F25802825C02F0FF05F2B903689B69BC
:1012B000984702232846636638BD0B2038BD0C4A88
:1012C000936D0333632BD8DD6323D6E7022BE2D182
:1012D00048F25803E06CC25C02F0FF032AB10368D5
:1012E000DB6998470020606638BD184638BD00BFEE
:1012F000B059FF1F10B50446806F054B236008B13D
:101300002AF0AAFD20460BF0F9F8204610BD00BFD8
:10131000C4F0030010B50446806F074B236008B18A
:101320002AF09AFD20460BF0E9F82046C0212AF069
:1013300095FD204610BD00BFC4F003001B4B816229
:10134000994210B423D01A4B994213D04BF68033F4
:10135000994202D05DF8044B7047164C164B174A61
:1013600044624FF07951416102628361C3615DF86B
:10137000044B7047124B134903624FF07D52124BDE
:10138000416242618361C3615DF8044B70470F4B5A
:101390000F4C03624FF07B510B4A074B4462416193
:1013A0008261C3615DF8044B704700BF00770100A4
:1013B00000EE0200ABAAAA400000A0400000C0411D
:1013C0000000C042ABAAAA3F0000204100004042FA
:1013D000ABAA2A4070B500257F2682B00370026157
:1013E0000663C5620446FFF7A9FF00690001606358
:1013F0002AF02EFD626BE06029462FF007F9064BBC
:101400001B680193019B4FF47A721344204662607B
:10141000A36002B070BD00BF7466FF1FF0B5514FEE
:1014200051493B682DED028B04468BB003F1080057
:1014300022F0A2FD94ED078AD4ED087AB4EEE78A93
:10144000F1EE10FA41D518EE100A2DF05FFF0246BA
:101450000B4607A845492FF03FFBD4ED097A3868C1
:1014600068EE277A07A9FDEEE77A0830CDED037A1A
:1014700022F092FDBDF80C503E682378A6F8BA30F1
:1014800000EBD070A5EB6000A6F8B80007A82FF01D
:10149000F7FD336802465B68304607A99847227813
:1014A000386802F108062B462946009606320830B5
:1014B00022F062FE94ED067AD4ED087A38EE078ABF
:1014C000F4EEC87AF1EE10FABDDC38682849294DEF
:1014D000083022F051FD22783868238EA18D093220
:1014E0000092083022F048FE2278A38D386802F17D
:1014F0000801009106321946083022F03DFE22789C
:10150000238E386802F1080100910632194608302E
:1015100022F032FE38682278E168238A0093019134
:101520000D3210230830002121F0F6FD2B680593C1
:10153000059BA2689A4211D2E168626B01F110002A
:10154000103A2EF0FFFF10220021E0682FF05EF825
:101550002B680693069B62681344A3600BB0BDEC36
:10156000028BF0BDC85BFF1FA48D040020F10300B7
:101570002C8404007466FF1F2DE9F04192B090F8AE
:10158000B140054621F00AFC844212D021F006FC4D
:1015900095F8B04085F8B100002C40F0FD80EB6874
:1015A0000121986925F09CFDEB682146986825F09B
:1015B00097FD05ABE86C009304AA03AB05F1B401F9
:1015C00015F08CFFEB68D869036801228271DB6833
:1015D000342200219847EA6C48F25803D35C03F0A8
:1015E000FF01002B00F0E6806B6E022B1CBF022374
:1015F0006B66EB680121586825F072FDE86C15F008
:10160000DBFBA8662B6E039A93420CDADDED047ABD
:1016100095ED2E7AF8EEE77AF4EEC77AF1EE10FA4D
:1016200001DB40F21A819A4FD5F8A4103A6807926C
:10163000079A9142C0F08F80013B2B66D5F84CE0B1
:10164000DFF8848248F2100248F212033EF80240AA
:101650003EF80330A4B29BB20EF509469C4206F157
:10166000200600F31281264416F801CBD8F84C303E
:1016700088499C454FF008020BA80EDB27F0DAFEE4
:10168000E31012A9A4EBC3020A44A96F12F81C0CC0
:10169000CA5C0243CA54D5F84CE00EF5004312333D
:1016A00001341B889BB2A342DEDA0EF509402030DC
:1016B00080220021784C2EF0A9FF05F16C00FFF785
:1016C000ADFE20687549083022F056FCD8F8342069
:1016D000206800235021012AA0F8BA30A0F8B810E1
:1016E000036800F0AC80022A00F0B380002A00F00A
:1016F000AB806B495B68032298472068694903689F
:10170000654E5B685022A0F8B8200622A0F8BA20E7
:101710000322984720686449083022F02DFC03F02A
:1017200067F900284CD13B680993099AD5F8A8308D
:10173000574C9A420CD903F077F823680A930A9B16
:1017400003F5EA433033C5F8A830012002F0D2FF98
:1017500012B0BDE8F08195ED167ADFED547AEA68B3
:10176000B4EEE77A6FF07703F1EE10FAEB6544BF61
:101770004F4BAB653B680893089BD06803F59C53BF
:101780000833C5F8A430002125F0AAFCEB6800213D
:10179000186925F0A5FC51E7EB68013C85F8B040DD
:1017A0009869002125F09CFCEB680121986825F0E0
:1017B00097FCFEE6EB686966586825F091FC21E726
:1017C000D5ED127A3B49FDEEE77AB02317EE902A69
:1017D0000BA82FF081F9346834234FF00C08A4F8DB
:1017E000B8300BA8A4F8BA802FF04AFC2368024650
:1017F0005B6820460BA99847D5ED107AFDEEE77A95
:10180000B1EE047AF8EEE76AF4EEC76AF1EE10FA88
:1018100089DD17EE902A28490BA82FF05DF934686E
:101820004D23A4F8B830A4F8BA800BA82FF028FCF8
:10183000236802460BA95B682046984773E71F4957
:101840005B680222984758E71D495B680222984767
:1018500053E71C495B6898474FE70D4FE9683B68C1
:101860000693069BC868EA6503F59C530833C5F8E0
:10187000A4302A66C5ED167A012125F031FCEB680B
:101880000121186925F02CFCD8E6304610E700BF8E
:101890007466FF1FA4F00300C85BFF1FA07804005C
:1018A00034F103000CB203002C840400CDCCCC3DF9
:1018B0000000204238F1030040F103002CF1030046
:1018C00028F1030030F10300B059FF1F2DE9F84360
:1018D0004468D0F80080C8EB0405AD100646894680
:1018E00005D06B009D4229D96FF0030500E0042567
:1018F00028462AF0ABFA7468D6F800800746C8EB91
:101900000404D9F80030E74218BF3B51A3080DD1B9
:1019100004343C44B8F1000F02D040462AF09AFA51
:101920003D44B56037607460BDE8F88322464146A7
:10193000384604342EF006FE3C44EEE7B3F1804F07
:10194000D2D213B91D461F46D9E7ED00D0E700BF3C
:1019500038B543688468A34207D0024609680BB1D2
:10196000196043680433536038BDFFF7AFFF38BDDB
:101970002DE9F04F054689B00CF0F8F82846704B79
:1019800040F86C3B14224BF680311E23FFF722FDFA
:1019900000246FF077080023AB65C5F85C80C5F8BC
:1019A00060806C66AC66D8202AF050FA0B2703974B
:1019B0000926192364278DE8C80008AE22460123B2
:1019C000814605F1640126F085FA46F8049D05F18B
:1019D0000C0731463846FFF7BBFFE0202AF036FA05
:1019E0004FF0150A4FF0010905F16802602140F23D
:1019F000E7338DE81400CDF814A022460491CDF809
:101A00000C9002934F49504B834625F087FE314698
:101A10003846CDF81CB0FFF79BFFE0202AF016FAFD
:101A20000C234FF0030C4FF0630E05930521474B39
:101A3000CDF80CC0CDF808E0224601910093049443
:101A4000434B4449834625F069FE31463846CDF87C
:101A50001CB0FFF77DFFE0202AF0F8F905F15803EC
:101A60009FED3D1ADFED3D0A3D49B2EE040A2246E4
:101A70008DE818043B4B834625F094FE31463846EA
:101A8000CDF81CB0FFF764FFE0202AF0DFF905F184
:101A90005C0236216FF02703CDF814A0CDF80C902E
:101AA0008DE804010491224602932F492F4B83466F
:101AB00025F034FE31463846CDF81CB0FFF748FF1C
:101AC000D4202AF0C3F964238DE8080218220823E1
:101AD0002749824626F024FA31463846CDF81CA024
:101AE000FFF736FFD8202AF0B1F90C2322460293E3
:101AF0000194204B00942049814625F0DFFF3146B8
:101B00003846CDF81C90FFF723FFE8202AF09EF915
:101B10006FF0310305F1B40103934B220823CDF894
:101B2000088001940094814626F018FA3846314620
:101B3000CDF81C90FFF70CFF284609B0BDE8F08FE8
:101B4000C4F00300B4F203008420FF1F085AFF1FF3
:101B5000C411FF1F14F10300CDCCCC3D0000F042B6
:101B6000ACF003006420FF1FB4F003007420FF1FDB
:101B7000AC57FF1F9420FF1FB8F203002DE9F0417E
:101B8000044684B0664E674F002523F0A5F8012374
:101B900086F83C3086F8505086F845503564B56379
:101BA000204684F838500CF095F9E3683D2284F81B
:101BB000B1200CCB2946157218461D7225F090FAFB
:101BC000E368616B9868DA680572186915729A693A
:101BD000057253F821001572294625F051FBE36880
:101BE0002946986825F07CFAD6ED187A9FED4E7A52
:101BF0003B68039367EE877A039A84F8B050FDEE52
:101C0000E77A17EE903A1A446267C4ED1C7A02F044
:101C10000BFE3B680293029B726B03F5EA43013AA9
:101C20003033022AC4F8A8305DD84049404B51F8FF
:101C3000227053F82250B269394E95424FEA172864
:101C40005BDBF3699D422B4662DB3A493A4829F057
:101C5000A3FFD6ED066AF569384E394604F16C00EB
:101C6000FFF76CFB07EE905ADFED2F5A94ED247AC4
:101C7000C4F8AC80F8EEE66AF8EEE77A86EEA56A7C
:101C80002F480127C7EEA56A66EE077A27EE267A67
:101C9000FDEEE77ABDEEC77A84ED2E6AC4ED2F6AB9
:101CA000C4ED267A84ED277A02F05AFEE26C35788C
:101CB000244948F2FC530020D25800924FF40053BC
:101CC0009203377023F01CFDE06C35700368DB680D
:101CD00098471D4A4FF4003100231160C4F8A43026
:101CE00004B0BDE8F081B2690D4E42F6E065954260
:101CF0004FF05D0845F6C057A3DA2B4613490E484E
:101D000029F04AFF0123F561B36106EE903AA3E79B
:101D10000F49094829F040FFDFED0E6AF5619BE7A6
:101D2000B059FF1F7466FF1F00007A44FCF00300E7
:101D300008F10300E0F10300882AFF1FB024FF1F11
:101D400090F203002CF2030008F00F4048F103006A
:101D500094F103000100000038B50368094A5B698B
:101D600009494FF40035934204460D6004D12046E2
:101D7000BDE838400AF072BC98472046BDE83840BC
:101D80000AF06CBC3512000004F00F4010B5054B92
:101D90000360044628F072FA034B042220461A60BE
:101DA00010BD00BFCCF2030088F00F4010B5074B08
:101DB0000360044628F062FA054B042220461A60AC
:101DC0004FF407712AF04AF8204610BDCCF2030008
:101DD00088F00F4010B5054B0360044628F04EFA1A
:101DE000034B042220461A6010BD00BFCCF2030052
:101DF00088F00F4010B5074B0360044628F03EFA08
:101E0000054B042220461A604FF407712AF026F889
:101E1000204610BDCCF2030088F00F4010B5054BF2
:101E20000360044628F02AFA034B042220461A6075
:101E300010BD00BFCCF2030088F00F4010B5074B77
:101E40000360044628F01AFA054B042220461A6063
:101E50004FF407712AF002F8204610BDCCF20300BF
:101E600088F00F40F8B50446012528F059FC0028F9
:101E700000F08C8028F068FCC0B221281AD02428F9
:101E800079D094F81932002BEFD0D4F88031E218D1
:101E90000133782B82F88401C4F88031E5DD28F025
:101EA000B9FC0023C4F8803184F8193284F81A325E
:101EB0000A20F8BD94F81932002BD6D0D4F880311E
:101EC00023440121002284F81A1283F8840183F844
:101ED000852194F8183204F5C275002B69D194F865
:101EE0007361002784F87471002E55D0624928462A
:101EF0002FF03EFB854200F0B580604928462FF068
:101F000037FB854200F0AC805D4928462FF030FB5E
:101F1000854258D05B4928462FF02AFB854254D091
:101F2000542128462EF072FE854200F097805649D3
:101F300028462FF01DFB854243D0544928462FF0F8
:101F400017FB854200F09080514928462FF010FB86
:101F5000854200F08B804F4928462FF009FB8542CF
:101F600000F086804C4928462FF002FB85420CBFCA
:101F700009200A2015E084F8195284F88401C4F875
:101F8000805128F0CDFB00287FF474AF94F81A320A
:101F9000002B9ED10A20F8BD94F88431242B16D052
:101FA0000B200023C4F8803184F8193284F81A32E7
:101FB000F8BD2A46D4F880313849394829F0ECFD7B
:101FC0008DE70520EDE70220EBE70320E9E728464F
:101FD0002FF056F8284410F8013C212BE0D131496C
:101FE00028462FF0C5FA854244D02F4928462FF0C5
:101FF000BFFA854234D02D4928462FF0B9FA8542E0
:10200000E1D02B4928462FF0B3FA8542DDD029498B
:1020100028462FF0ADFA854220D0274928462FF0D8
:10202000A7FA8542CDD0254928462FF0A1FA85424E
:102030001AD0234928462FF09BFA854216D0214911
:1020400028462FF095FA854212D01F4928462FF0D6
:102050008FFA85420CBF09200A20A2E70420A0E7DE
:1020600001209EE738469CE706209AE7072098E77C
:10207000082096E7304694E714F3030018F30300B2
:102080001CF3030020F3030024F3030028F30300F0
:102090002CF3030030F3030034F30300ECF20300ED
:1020A000882AFF1F3CF3030044F303004CF30300B2
:1020B00054F303005CF3030060F3030068F30300D0
:1020C0006CF3030074F303007CF3030038B543683A
:1020D00090F873210233052100F13405044640F8DD
:1020E00023102846BAB907220D4927F0A3F994F81E
:1020F000183223B12A460B490B4829F04DFD2846DA
:102100002EF0BEFF0146284628F056FA0748BDE8E3
:10211000384029F025BD0422054927F08BF9E6E770
:1021200074F3030084F30300882AFF1F602AFF1F53
:1021300030F3030030B590F8733100F134050446F4
:1021400083B0284613BB0822134927F073F994F88B
:10215000183223B12A461149114829F01DFD28469D
:102160002EF08EFF0146284628F026FA0D4829F069
:10217000F7FC0D4B0D491B680193019BC833C4F854
:102180007C31002023F0BCFA03B030BD04220849A2
:1021900027F050F9DBE700BF60F30300A8F303006A
:1021A000882AFF1F602AFF1F7466FF1FC4F3030005
:1021B00024F3030070B5072982B04FD009290446E3
:1021C0002DD0062901D002B070BD456890F873216A
:1021D0000023B5FA85F58DF8033001936D0900F5FC
:1021E000C27601AB002A45D10DF1030248493046C1
:1021F0002EF098FC9DF80330AB4242D0D4F8085240
:10220000092D7ED1434BC4F808521B680193019BF2
:1022100003F58C531433C4F8043202B070BD90F847
:10222000736126BB00F5C27528462EF029FF2844AD
:1022300004F5C57400F8016C20462EF021FF0A2831
:1022400084BF00236372214633482EF0B7FE324A22
:102250003249334829F0A0FC02B070BD2A21314830
:1022600029F0EAF92E4829F07BFC02B070BD00F29B
:102270008714E1E70DF103022B4930462EF052FCA2
:10228000B8E7019D002DBDDDD4F80832AB42B9D0CE
:102290006B1E082B2ED8DFE803F028231E19140F1D
:1022A0000A0534002149002023F02AFAAAE7204930
:1022B000002023F025FAA5E71E49002023F020FA8C
:1022C000A0E71D49002023F01BFA9BE71B490020D3
:1022D00023F016FA96E71A49002023F011FA91E745
:1022E0001849002023F00CFA8CE71749002023F04E
:1022F00007FA87E733462A461449002023F000FAFC
:1023000080E71349002023F0FBF909257AE700BF95
:1023100054F403007466FF1F2457FF1F10F40300DA
:10232000882AFF1FE4F303004CF4030058F5030070
:1023300028F50300F8F40300E4F40300BCF4030000
:1023400094F4030078F4030060F40300A4F50300A0
:1023500070F50300F0B5012983B02DD190F87331E9
:10236000064600F5C2775BB36B4601AA254938469D
:102370002EF0D8FB38462EF083FE0022451E134671
:1023800006F2831104E011F8014F63400132DBB221
:10239000AA42F8DB3844002B10F8012C08BF0123B7
:1023A0009A4213D03A46184906F174002EF094FB75
:1023B000012386F874310CE0FFF7FCFE03B0F0BD9A
:1023C0006B4601AA114938462EF0ACFB019A012A4E
:1023D00006D93A460E49002023F092F903B0F0BD29
:1023E000009B591E0829F4D822B102330A2246F86C
:1023F0002320EEE706EB8306B3680A2B1CBF0E23EF
:10240000B360E6E7C0F50300CCF50300ECF503008C
:10241000FCF50300F0B50446A7B051B305290D46FD
:102420001CD190F8183233B12921974829F004F9CA
:10243000964829F095FB964B62681B682493249B71
:102440009449023203F57A730B2044F82200C4F851
:102450007831002023F054F927B0F0BD90F81832FD
:10246000002B40F0FA8029462046FFF7A3FE27B054
:10247000F0BD90F8183200F5C277002B40F0E780ED
:1024800094F87331256B002B5ED122A823AE21A9CD
:1024900020AA1FAB0D901DA80E960C911EAE1CA974
:1024A0000B920A931BAA1AAB089018A809960791D9
:1024B00019AE17A90692059316AA15AB039025A885
:1024C000049602910192009324AE109014AB13AACB
:1024D00071490F9638462EF025FB139E731E1E2B56
:1024E000149B00F2A2805A1E0B2A159A00F29E80BD
:1024F000A2F114014F29169800F299801728179914
:1025000000F296803B29DDF860E000F29380BEF196
:102510003B0F00F28F800192009372463346209E5B
:1025200020F0A0FC20F0CAFB27F07EFC199A1A9B31
:10253000172A02D83B2B40F2968004F174052846F6
:1025400056492EF0C9FA4DE023A922AA21AB1EA8B4
:102550000DF1800E1FAE0E910D921DA91CAA0C93B9
:1025600009901BAB18A8CDF82CE00A960DF1680E67
:1025700019AE0891079217A916AA0693039015ABF6
:1025800025A8CDF814E004960291019244490093E5
:1025900013AA14AB109024AE38460F962EF0C2FA50
:1025A00038462EF06DFD002200F1FF3E1346791EE5
:1025B00004E011F8016F73400132DBB27245F8DBC1
:1025C0003844002B10F8012C08BF01239A4284D014
:1025D00004F1740528463A4632492EF07DFA01236B
:1025E00084F8743128462EF04BFD0146284629F028
:1025F00023F8236B2C49D3F87021244829F0CCFA16
:10260000234A636812682592259A2849981C9625C2
:1026100005FB0323092544F820503A46C4F87831D5
:10262000002023F06DF827B0F0BD159A1698179981
:10263000DDF860E0029104F1740501900092CDF89C
:102640000CE0324628461A492EF046FACAE73A46C6
:1026500018490E4829F0A0FA12E70A460B48164915
:1026600029F09AFAFFE61549281D2EF035FA1B9A33
:102670001C9B172A01D83B2B24D904F1740528464A
:102680000F492EF029FAADE71CF90300882AFF1F35
:102690007466FF1F48F90300BCF6030040F703000F
:1026A00060F603009CF60300D0F80300F4F8030082
:1026B000FCF6030030F603006CF90300D443040079
:1026C0006CF70300414905F10A002EF005FA1D9A46
:1026D00040F2E633511E0A20994268623AD81E9BA6
:1026E0006A62DA1E0521022A29635FD81F992B63CB
:1026F00004294FF00003AB6350D8219AA963003638
:1027000018BF0126192A85F845602B643FD8229905
:102710002A644A1E0820312AC5F860012FD8239A5E
:10272000C5F86011042AC5F8643121D8C5F86421C0
:10273000C5F86831249A0A2A13D8C5F86821C5F863
:102740007031259A022A39D80123C5F8702184F8FE
:102750001B324EE704F1740528461D492EF0BCF9E2
:1027600040E704F1740528461A492EF0B5F939E717
:1027700004F17405284618492EF0AEF932E704F149
:1027800074050A46284615492EF0A6F92AE704F1F1
:102790007405284612492EF09FF923E704F17405C9
:1027A0000A4628460F492EF097F91BE704F17405F5
:1027B0001A4628460C492EF08FF913E704F17405E8
:1027C00028460A492EF088F90CE700BFD4430400DC
:1027D00094F7030080F8030058F803002CF8030076
:1027E00000F80300D8F70300BCF70300A8F80300C3
:1027F00070B5D0F80432564D8AB0044623B12A6829
:102800000192019A934230D3D4F8143223B12A684A
:102810000492049A93425BD3D4F87C3123B12A68A2
:102820000692069A934236D32B68079394F818328F
:10283000079AC4F80C22464DABB12B680893089B4D
:10284000D4F810229A420ED21221424828F0F4FE07
:10285000414829F085F92B680993099B03F59C539E
:102860000833C4F810320AB070BD2B680293029B83
:10287000D0F80C2240F6B8319B1A8B4249D8D4F8D4
:102880000832082B03D03549002022F039FF0823F5
:10289000C4F80832B8E794F87331002B42D104F140
:1028A0003406304608222E4926F0C4FD94F818322A
:1028B000002B47D130462EF0E3FB0146304627F08F
:1028C0007BFE284829F04CF90023C4F87C31ABE7A3
:1028D00094F8733173BB04F1340630460722224961
:1028E00026F0A8FD324621491B4829F055F930460B
:1028F0002EF0C6FB0146304627F05EFE194829F04F
:102900002FF92B680593059B03F57A73C4F81432ED
:1029100082E72B680393039B15490F489A1A29F005
:102920003BF971E704F1340630460422114926F0E0
:1029300081FDBBE704F13406304604220E4926F03F
:1029400079FDCFE732460D49034829F025F9B1E773
:102950007466FF1F04FA0300882AFF1F58F503005E
:1029600060F30300602AFF1F6CF30300B4F9030057
:1029700090F9030024F303002CF30300D8F90300BB
:10298000F0B5436800EB830185B08A68012A0546EB
:1029900013D00B2A2ED0092A42D02B6828469B69D7
:1029A00098470A2804D02B680146DB6928469847D7
:1029B0002846FFF71DFF05B0F0BD5A4A126892077E
:1029C0007DD490F818223AB11E21574828F034FEE1
:1029D000564829F0C5F86B68023300220821C5F873
:1029E0000422284645F82310C5F87821FFF700FF98
:1029F00005B0F0BDD0F87831002BCED04C4A12682B
:102A00000292029A9342C8D2002308228A60C0F838
:102A1000783180F81B322846FFF7EAFE05B0F0BD9A
:102A2000D5F87821002AB8D0414909680391039963
:102A30008A42B2D295F8731195F81B2200295DD015
:102A400005F134073B4938462EF046F838462EF05B
:102A500017FB0022461E134605F1330104E011F86E
:102A6000014F63400132DBB2B242F8DB002B284455
:102A700008BF012380F8333095F81832002B4AD173
:102A800038462EF0FDFA0146384627F095FD2A48D3
:102A900029F066F895F81B32002B36D06B680233AC
:102AA0000A2245F8232000203A462449C5F8780137
:102AB00022F026FE2846FFF79BFE05B0F0BDD0F8B9
:102AC0007821002A3FF474AF1949096801910199EE
:102AD0008A42BFF46DAF95F818223AB12821184800
:102AE00028F0AAFD114829F03BF86B680233062153
:102AF000002245F82310C5F8782159E705F134077D
:102B0000384610492DF0E8FFB6E76B6802330E2215
:102B100045F82320C7E73A460B49044829F03CF81A
:102B2000AEE700BF90F00F4018FA0300882AFF1F9D
:102B30007466FF1F64FA0300602AFF1FB0FA0300E7
:102B400038FA030074FA030088FA03002DE9F04F05
:102B5000436800EB83039BB09A68012A824617D032
:102B6000022A30D0032A00F0ED80DAF80030504617
:102B70009B6998470A2805D0DAF800300146DB69DE
:102B8000504698475046FFF733FE1BB0BDE8F08F24
:102B9000AF4A126812F0020400F00081D0F87821E8
:102BA000002AEFD0AB4909680C910C998A42E9D20E
:102BB0000621002299605046CAF87821FFF718FED6
:102BC0001BB0BDE8F08FD0F87831002BCDD0DFF806
:102BD00084B2DBF800200D920D9A9342C5D2DBF847
:102BE00000309D4A0E9310680E9B9AF818121B1A1B
:102BF0001360002940F02281DAF8304027F00EF906
:102C000020F00EF920F0DAF8064620F0E7F8074643
:102C100020F0F4F8054620F0A1F8814620F0AEF847
:102C2000804620F0BBF8A5F5FA6503903B468DE899
:102C30002002CDF80880324613A888492DF04CFFB9
:102C40009AF87331002B00F0D680D4F870310993D4
:102C5000D4F868310893D4F864310793D4F860311C
:102C60000693236C059394F845300493A36B039368
:102C7000236B0293636A01930AF1340804F10A0397
:102C8000009313AA4046231D75492DF025FF4046A9
:102C90002EF0F6F90025411EA9422E469AF87371CE
:102CA0000AF133044FF02C0910DD14F8013F03F052
:102CB000FD022D2A00F098803A2B00F0958017B184
:102CC00023785E40F6B20135A942EEDC2FB1002E2A
:102CD000504408BF012680F833609AF8183223B1B7
:102CE00042466049604828F057FF40462EF0C8F938
:102CF0000146404627F060FC5C4828F031FFDBF8D5
:102D000000301393139BDBF800201092DAF80420B4
:102D1000109C5749901C03F52F3303F54873032586
:102D200004F2DC544AF820504246CAF87831CAF816
:102D30007C41002022F0E4FC5046FFF759FD1BB017
:102D4000BDE8F08FDAF800309B6998470A2800F058
:102D50009D80DAF800300146DB6950469847454BC4
:102D60001B78002B3FF40EAF434A0AF10C030AF123
:102D70003004012012F8011F19B119680A2918BF7F
:102D8000002004339C42F5D100283FF4FBAEDAF872
:102D90000430023304224AF82320F3E61621374890
:102DA0002D4D28F049FC304828F0DAFE2949DAF8A0
:102DB00004200B680B930B9B09680A919AF8180280
:102DC000CAF80442911C03F57A730A9A2A60022415
:102DD0004AF82140CAF8783100283FF4D3AE284998
:102DE000214828F0D9FECDE684F8009040462EF028
:102DF00047F9411E63E7D4F870310993D4F868317C
:102E00000893D4F864310793D4F860310693236CA7
:102E1000059394F845300493A36B0393236B0293BB
:102E2000636A01930AF1340804F10A03009313AAB8
:102E30004046231D13492DF04FFE28E7DBF8002004
:102E40000F920F9A1049084828F0A6FED4E600BF5A
:102E500090F00F407466FF1F3057FF1F14FB0300F4
:102E600034FB03008CFB0300882AFF1F602AFF1F2E
:102E7000C0FB03001557FF1F1857FF1F20FC03005E
:102E8000E4FA030060FB0300F4FA0300DAF8783197
:102E9000002B7BD1DAF87C31002B3FF460AF624A23
:102EA00012681292129A9342BFF459AF0023CAF8E3
:102EB0007C31DAF8304026F0B1FF1FF0B1FF1FF08F
:102EC0007DFF06461FF08AFF07461FF097FF054665
:102ED0001FF044FF81461FF051FF80461FF05EFF48
:102EE000A5F5FA6503903B468DE82002CDF80880F1
:102EF000324613A84D492DF0EFFD9AF87331002B9F
:102F00006FD0D4F870310993D4F868310893D4F8AD
:102F100064310793D4F860310693236C059394F8D9
:102F200045300493A36B0393236B0293636A01936D
:102F30000AF1340804F10A03009313AA4046231D42
:102F40003B492DF0C9FD40462EF09AF800259AF82D
:102F50007371411E2E460AF133044FF02C09A94229
:102F600025DD14F8013F03F0FD022D2A07D03A2B8E
:102F700005D017B123785E40F6B20135EFE784F84B
:102F8000009040462EF07CF8411EF2E7264A126877
:102F90001192119A9342BFF47DAFDAF804300233F4
:102FA000072100224AF82310CAF87821D7E62FB16A
:102FB000002E504408BF012680F833609AF818327A
:102FC00023B142461B491C4828F0E6FD40462EF03E
:102FD00057F80146404627F0EFFA184828F0C0FDA0
:102FE000BDE6D4F870310993D4F868310893D4F869
:102FF00064310793D4F860310693236C059394F8F9
:1030000045300493A36B0393236B0293636A01938C
:103010000AF1340804F10A03009313AA4046231D61
:1030200007492DF059FD8EE77466FF1F14FB03005E
:1030300034FB0300E4FB0300882AFF1F602AFF1F04
:1030400060FB030010B40022194B036083B080F8CA
:10305000732180F8742180F818224260C0F8082299
:10306000031D00F12C0443F8042FA3424FF000018C
:10307000F9D1104BC0F880111A680192019A1B68AF
:103080000093009BC0F8141203F59C53083380F89A
:10309000191280F81A12C0F87811C0F87C11C0F823
:1030A0000C22C0F8103203B05DF8044B704700BF2B
:1030B000CCF203007466FF1F4368023340F823100C
:1030C000704700BF10B50446FFF7BCFF014B2360FB
:1030D000204610BD68FC03000A4A10B400F1080342
:1030E00001242C3053F8041F0A2908BF14708342AE
:1030F00002F10102F6D1044B5DF8044B01221A7073
:10310000704700BF1957FF1F1557FF1F10B5044622
:10311000FFF798FF034B2360002384F81B322046FF
:1031200010BD00BF40FC030010B5044682B022630E
:103130000E4861604FF4964128F0AEFB27F06AFB21
:103140000B490C4A00230420C4F8803184F819325A
:1031500084F81A32086013680193019B03F58C53BD
:103160001433C4F8043202B010BD00BF602AFF1F40
:1031700084F00F407466FF1F10B50B4B4FF40054E2
:1031800082B01C600446FFF7CFFF084B62681B68E3
:103190000193019B0232012103F6B83344F8221057
:1031A000C4F8783102B010BD04F00F407466FF1F00
:1031B00010B50B4B4FF4005482B01C600446FFF76F
:1031C000B3FF084B62681B680193019B0232012127
:1031D00003F5FA6344F82210C4F8783102B010BD48
:1031E00008F00F407466FF1F00207047704700BF53
:1031F00090F92410104B03604B1C06D0F0B40F4E16
:1032000056F82130984201D0F0BC70470C4F57F867
:10321000213033B18D0000245A1953685460002BBB
:10322000FAD1084C23780022013B237047F8212073
:1032300046F82120E8E700BF90FC03003C66FF1F32
:103240001C66FF1F5D66FF1F70B590F924506B1C54
:1032500019D00D4A0D4B52F82540EDB21D7094B1B6
:103260000E46AD0002E02C44646864B194F8253049
:10327000002BF8D0236820462C4431461B68984721
:103280006468002CF2D170BD1C66FF1F5C66FF1FD6
:10329000704700BF70B5094D094B2A7853F822409A
:1032A0005CB10646236820469B68314698472B78D8
:1032B00004EB83046468002CF4D170BD5C66FF1FCE
:1032C0001C66FF1F054B186821B1054A1268012AC8
:1032D00001D0012070470B221A6070470466FF1F5F
:1032E0005059FF1F054A13680133042BC8BF02233E
:1032F0001360034B18680368DB6918475459FF1FB4
:10330000305BFF1F90F92410104B03604B1C06D05C
:10331000F0B40F4E56F82130984201D0F0BC7047FF
:103320000C4F57F8213033B18D0000245A195368DF
:103330005460002BFAD1084C23780022013B237003
:1033400047F8212046F82120E8E700BF90FC030061
:103350003C66FF1F1C66FF1F5D66FF1F90F924106F
:10336000104B03604B1C06D0F0B40F4E56F82130C2
:10337000984201D0F0BC70470C4F57F8213033B160
:103380008D0000245A1953685460002BFAD1084C60
:1033900023780022013B237047F8212046F82120A2
:1033A000E8E700BF90FC03003C66FF1F1C66FF1FA0
:1033B0005D66FF1F10B5034B0360044621F090FCCF
:1033C000204610BD0819040010B5054B03600446E3
:1033D00021F086FC20464C2128F040FD204610BDFF
:1033E0000819040010B5034B0360044621F078FC73
:1033F000204610BD0819040010B5054B03600446B3
:1034000021F06EFC2046502128F028FD204610BDFA
:103410000819040010B5064B044640F8783B28F024
:103420003FFB044B2360204621F05AFC204610BD90
:10343000441904000819040010B5084B044640F86C
:10344000783B28F02DFB064B2360204621F048FCFA
:103450002046802128F002FD204610BD44190400BA
:103460000819040030B583B0EFF31083002B0CBFB4
:103470008025002572B62B4C20680423002200937F
:1034800008301146082320F08DF8002D40D062B698
:10349000012026F01BFDEFF31083002B0CBF8025CD
:1034A000002572B6206804220823009218441946A9
:1034B000002220F077F8002D2ED062B6012026F0F1
:1034C00005FDEFF31083002B0CBF8025002572B69D
:1034D00020680422083000920823002120F062F8BE
:1034E000C5B162B6012026F0F1FCEFF31083002B8A
:1034F0000CBF8025002572B62068082304221844DA
:103500000092194620F04EF845B972B603B030BDAE
:1035100072B6BDE772B6E5E772B6CFE762B603B042
:1035200030BD00BFC85BFF1F00B5836C83B08DF852
:10353000071043B1184601220DF107011BF036FFB9
:1035400003B05DF804FBC06C0028F9D001220DF136
:1035500007011AF0D1F803B05DF804FB826C62B188
:10356000137803F0080303F0FF0003B3D369506935
:10357000181A48BF6FF000407047C16CC1B191F894
:10358000313003F0080303F0FF0083B1D1E90423D5
:10359000D1E90001101A30B463EB010100256FF08E
:1035A00000448D4208BF844200D2204630BC7047A0
:1035B0000846704700B5836C83B063B1184601229A
:1035C0000DF107011BF0DCFB01280CD19DF8070071
:1035D00003B05DF804FBC06C28B101220DF10701B6
:1035E00019F062F9F0E74FF0FF30F1E7836C13B1A7
:1035F00018461BF0CDBCC06C08B119F061BA4FF091
:10360000FF307047836C13B118461BF0C9BEC06C05
:1036100008B119F011BF7047836C13B118461BF045
:10362000C5BEC06C08B11AF067B8704700B5036C2E
:1036300083B08DF8071043B1184601220DF1070140
:103640001BF0B4FE03B05DF804FB406C0028F9D019
:1036500001220DF107011AF04FF803B05DF804FBE9
:10366000F0B55E4CC26E23685D4989B00026A3F8B0
:10367000B860A3F8BA60054668462DF02DFA2768B1
:1036800068462DF0FDFC3B6802465B68694638469B
:103690009847384628F064FA2A6F23680921B2F562
:1036A0007A7FA3F8B860A3F8BA1079D94D4B4E4988
:1036B00083FB0203D217C2EBA31268462DF00CFA6B
:1036C000266868462DF0DCFC336802465B68694674
:1036D00030469847304628F043FA23686A6F4349DA
:1036E00000261220A3F8B860A3F8BA0068462DF0AF
:1036F000F3F9266868462DF0C3FC336802465B6820
:10370000694630469847304628F02AFA384B3948FF
:103710005968394AD0F8803452F82110AA6E05F160
:103720004C06002B53D0DB7930462DF0D5F9EB68F1
:1037300020681B683149C3F8CC60083020F01CFCBD
:10374000EB6E272100221E2B8DF800108DF8012032
:103750002BD82B6F42F20F72934229D86B6F132B29
:1037600031D9322B9CBF24238DF80030256850229C
:103770000223A5F8B820A5F8BA3068462DF080FCE1
:103780002B68024669465B6828469847284628F019
:10379000E7F920681A49083020F0EEFB09B0F0BDC7
:1037A000184968462DF098F98AE73C2BDED82B6F34
:1037B00043F698229342D9D86B6F322B9CBF2423B7
:1037C0008DF80030D2E721238DF80030CEE7D0F815
:1037D0008434002BA8D093F84434A5E7C85BFF1FBE
:1037E00004FE0300D34D621014FE030034FE0300F8
:1037F0005859FF1F1C5CFF1F8417FF1F306A04000D
:103800002C84040024FE0300002900F084802DE9AC
:10381000F04F0C469100661885B076680193002E33
:1038200061D077187F68002F5AD007EB010EDEF8C1
:103830000480B8F1000F50D008EB010EDEF80490C0
:10384000B9F1000F40D009EB010EDEF804A0BAF187
:10385000000F35D00AEB010EDEF804B0BBF1000F0B
:103860002AD00BEB010EDEF804500395DDB105EB19
:10387000010EDEF80450029565B129444968FFF74E
:10388000C3FF029D95F8253023B12B6801995B6831
:1038900028469847039B93F8253023B10398019954
:1038A00003685B6898479BF825302BB1DBF8003044
:1038B00001995B68584698479AF82530002B3CD10F
:1038C00099F82530002B31D198F825302BB1D8F854
:1038D000003001995B684046984797F82530DBB97E
:1038E00096F825306BB994F8253013B905B0BDE8CA
:1038F000F08F236801995B68204605B0BDE8F04F62
:103900001847336801995B683046984794F825302A
:10391000002BEBD0EDE770473B6801995B683846B8
:10392000984796F82530002BDDD0EAE7D9F800302B
:1039300001995B6848469847C6E7DAF80030019974
:103940005B6850469847BBE790F92420531C2CD065
:10395000204B2DE9F04153F82260D2B21EB3930000
:103960000F46F1184C68DCB1E1184D6885B1E918D3
:10397000D1F80480B8F1000F07D0434459683B46A2
:10398000FFF742FF98F82530B3B995F825306BB9A9
:1039900094F8253023B1236820465B683946984760
:1039A00096F825307BB9BDE8F08170472B68284632
:1039B0005B6839469847EBE7D8F8003040465B68CB
:1039C00039469847E1E73368394630465B68BDE8D9
:1039D000F04118471C66FF1F10B5044621F016FB86
:1039E0000023044A04492160A264236463642046DE
:1039F00010BD00BF00008C42081904002DE9F04FF3
:103A0000554C564EDFF878B1DFF878A13168544B49
:103A1000C4F88030042783B003254FF0010E08223C
:103A2000A76704F170004F4FC4F874E04FF06008CE
:103A30004FF00209E267C4F884B0C4F888A0C4F863
:103A40008C502DF0BBFA2023474A7168C4F8A4704B
:103A500004F190004FF07E57C4F898300193C4F8F9
:103A6000A820C4F89490C4F8AC50C4F89C80C4F862
:103A7000A0702DF0A3FA3D4A3D48B168C4F8C420B7
:103A8000C4F8C800182204F1B000C4F8B490C4F817
:103A9000B820C4F8BC80C4F8C070C4F8CC502DF075
:103AA0008DFA3448019B344AF168C4F8E40004F10B
:103AB000D000C4F8D490C4F8D830C4F8E820C4F8D2
:103AC000DC80C4F8E070C4F8EC502DF077FADFF831
:103AD000B8E02A4A019B3169C4F8F49004F1F0007F
:103AE000C4F8F830C4F804E1C4F808214FF0000924
:103AF000C4F8FC80C4F80071C4F80C512DF05EFAD3
:103B00000C237169C4F8183104F588700193C4F866
:103B100024B1C4F828A1C4F81C81C4F82071C4F8E9
:103B20002C51C4F814912DF049FA019BB169C4F8E5
:103B300044B104F59870C4F848A1C4F83491C4F8AD
:103B40003831C4F83C81C4F84071C4F84C5103B01A
:103B5000BDE8F04F2DF032BAB059FF1F0021FF1F12
:103B600000002041000098420000AC420000C84222
:103B70000000D0420080D0420000D5420000F04258
:103B80000000204200008C420080D542F8B5182188
:103B90005E4E5F4827F050FD5E4827F0E1FF0023AE
:103BA000B2683370F360736033615B4B012A1D6848
:103BB00004D9012D14BF00232B46B3605748584A3F
:103BC000584F002171610B4601600C4603EB8303E3
:103BD0002344104657F823102DF0F0F90134024623
:103BE000052C02F10C0201D07368EFE74E4B4F48F1
:103BF0001C634FF47A71122643F6982444F620622F
:103C0000996101210A279E651C613C264FF40774C7
:103C10005861DA61032000228D425F629E62DC629D
:103C2000D8641962596383F845109A6383F83C207D
:103C300049D04FF000066FF059054FF416744FF05D
:103C40007E504FF07C511A601A6483F8502083F83C
:103C50005C2083F85D2083F8682083F8522183F884
:103C6000502183F84420C3F86C615D65DC661866FA
:103C7000596648DDC3F854212D4A2E4C92E80300C2
:103C8000586020464FF0080E0126002520F8021B40
:103C9000032706222849C3F85861C3F87061C3F8A6
:103CA0005C51C3F86451C3F860E1C3F8687125F052
:103CB000C1FB04F13E000622204925F0BBFBBDE814
:103CC000F840FFF79BBE002706266FF059054FF41A
:103CD00016744FF07E504FF07C511A6483F85020D8
:103CE00083F85C2083F85D2083F8682083F85221F4
:103CF00083F8502183F84420C3F86C711E605D6521
:103D0000DC66186659660122B4E700BF5859FF1FE8
:103D100044FE0300882AFF1F5059FF1F1466FF1F2F
:103D20007059FF1F6411FF1FB059FF1FC0D401005D
:103D300060FE0300B859FF1F68FE030070FE030019
:103D40002DE9F041002025F093FCA52803D0A52102
:103D5000002025F0A7FC012025F08AFCA52803D02F
:103D6000A521012025F09EFC204C04F15408C4F14B
:103D7000010714F8016BE519284625F079FC864205
:103D80003146284601D025F08DFC4445174BF0D133
:103D90005D6901356D02284625F06AFCA52805F10C
:103DA000010403D0A521284625F07CFC204625F0FF
:103DB0005FFCA52803D02046A52125F073FC0C4C00
:103DC000C4F101072F4404F5BA7814F8016BE51922
:103DD000284625F04DFC86423146284601D025F084
:103DE00061FC4445F1D1BDE8F08100BF5859FF1F87
:103DF000B059FF1FFFF7A4BF2DE9F04F264E274F04
:103E0000736983B0804600930191934602244FF07A
:103E10000409224DFFF7BAFE04F1FF3A05F146000E
:103E200041462DF0CBF8BAF1030FC6F814A011D01B
:103E3000BAF1040F4FF005014FF0000211D0BAF1B2
:103E4000020F26D039633A60FFF77AFF052C13D0B2
:103E50000134DEE7C7F83090C7F80090FFF770FF35
:103E6000F6E70F4B1B68012293420CBF0823002387
:103E70002A632B60FFF764FFFFF788FE019B7360E6
:103E8000C6F808B0FFF75CFF009B736103B0BDE8A4
:103E9000F08F06233B63E1E75859FF1FB059FF1F1E
:103EA0005059FF1F2DE9F0474C4B2DED048B1B782B
:103EB000D8B0002B40F0D382494B1B780024ADF8DA
:103EC0000A40002B00F02183204625F0D1FB8DF81D
:103ED0000A00012025F0CCFB8DF80B00BDF80A305C
:103EE00045F2AA52934200F012834AF655229342B9
:103EF00008D045F65A22934204D04AF2A552934282
:103F000040F01B83374C671CC7F1030604F15405CE
:103F1000301925F0ADFB04F8010FA542324BF7D163
:103F20001A78324D012A84BF00221A707B682E4A0B
:103F3000032B84BF01235360BB682B4A012B84BF32
:103F400000239360FB68284A072B84BF0023D360BB
:103F50003B69254A022B84BF002313617B69224AF7
:103F6000042B84BF00235361012428462DF088F8D8
:103F70000B2800F25E820134062C05F10C05F4D109
:103F8000D7F8149009F101056D02284625F070FB61
:103F90008DF80A00681C25F06BFB8DF80B00BDF84E
:103FA0000A804AF6552398452AD045F65A23984563
:103FB00026D04AF2A553984522D00D4B0D4A1B6BD3
:103FC000009352F823300C490C484A4627F0E4FD90
:103FD000002058B0BDEC048BBDE8F0876857FF1F88
:103FE0004021FF1F5759FF1F5859FF1F7059FF1FCE
:103FF000B059FF1FA820FF1FA4FE0300882AFF1F3F
:10400000C14C661CC6F103031D4404F5BA7A281995
:1040100025F02EFB04F8010FA245BC4BF7D14AF660
:104020005522904500F03F824AF2A552904500F09B
:1040300006821D6B586B32697369B169F4694FF47C
:104040007A7C0CFB02FE0CFB01F10CFB03F20CFB77
:1040500004F4C6F810E07261B161F461B36DDFF889
:10406000ACC2053B5E2B84BF1423CCF85830A84B60
:10407000AEF1640C9C4503D943F6982333619E4608
:10408000A34BA2F1640C9C4502D9A24B73611A4662
:10409000724508DA4CF24F339E4540F32E82A2F56A
:1040A0009C43203B33614BF61C336439994284BFF7
:1040B0006423B361643C4BF61C339C4284BF44F6DA
:1040C0002063F361336A9149DFF840E2D6ED5B7A11
:1040D0005A1E622A726A88BF032302F1FF3488BF26
:1040E0000B6240F2E6318C4284BF1E22CEF82420BF
:1040F0009342DFF84CE2C8BF7362B36AF26A834C42
:104100008EFB03C1DB17C3EBA10101EB81018EFB29
:1041100002E3D217C2EBA3034A00A2F10A0E44F253
:1041200046618E4503EB8303B2624FEA430388BFC7
:104130003C22F36288BFA2620A3B40F606629342C9
:1041400084BF4FF40773F362062D84BF05233363E6
:10415000022884BF01237363B36B6C4A042B84BFB2
:1041600000239363336C694A192B88BF0023F4EE54
:10417000677A88BF1364F1EE10FA0BD6F5EEC07AB9
:10418000F1EE10FA06D4B3EE097AF4EEC77AF1EE46
:1041900010FA02DD0023C6F86C31736DD6ED187A83
:1041A0005A4A6E33502B88BF6FF05903F4EE677A8A
:1041B00088BF5365F1EE10FA07D19FED577AF4EE00
:1041C000C77AF1EE10FA40F18F814FF07E533366DB
:1041D000D6ED197AF4EE677AF1EE10FA07D19FED79
:1041E0004F7AF4EEC77AF1EE10FA40F174814FF095
:1041F0007C53736633684A4A79681160052B4349DA
:1042000006D8012202FA03F313F0260F40F05B8177
:10421000444B1C6896F83C303C4A3C4D3B49012BD2
:1042200084BF002382F83C3096F84530374A012B92
:1042300084BF002382F84530F36C344A013B072BDE
:1042400084BF0423D364F36E40F606620A3B9342B4
:1042500088BF4FF4167305F1040088BFCB662CF0BD
:104260000FFF052800F01A812F4B304A93E8030016
:1042700070601180254D05F10A002CF001FF052822
:1042800000F0078106222A492A4825F0D3F82A4857
:104290002CF0F6FE052804D006222849264825F0F1
:1042A000C9F8012C40F30681B9F1000F40F0DF801E
:1042B000D6F85431154A002B40F02481D6F85831F5
:1042C000124A022B84BF0123C2F85831D6F85C3160
:1042D0000E4A092B84BF0023C2F85C31D6F8603146
:1042E0000A4A322B84BF0823C2F86031D6F8643101
:1042F000064A052B84BF0023C2F86431D6F8683122
:10430000024A0A2B1EE000BFAF59FF1FB059FF1F22
:104310008C490200C0D40100CDCC4C3ECDCCCC3D6C
:104320001466FF1F5059FF1F60FE0300B859FF1F9E
:1043300068FE0300BA59FF1FF659FF1FD8FE03009D
:104340006766666684BF0023C2F86831D6F87031AC
:104350007E4A022B84BF0123C2F87031022C02DD99
:10436000B9F1000F73D07A4C7A4DDFF814A2DFED6B
:104370007A8ADFF810929FED799A002704F1E0081D
:104380003E46B2EE048A2046E6702CF079FE032801
:1043900003D0296820462CF011FED4ED057AF4EE06
:1043A000C87AF1EE10FA04D4F4EEE87AF1EE10FADD
:1043B00001DDC4F814A0D4ED067AF4EEC87AF1EE6B
:1043C00010FA04D4F4EEE87AF1EE10FA01DDC4F844
:1043D00018906268A368D4ED047A013B032A84BF75
:1043E00066600022622B84BF1823A360E368013B50
:1043F000622BB6EE007A88BF6023F4EEC77A88BFDE
:10440000E360F1EE10FA04D4F4EEC97AF1EE10FA9A
:1044100001DD534B236102B101372034A04505F182
:104420000405B0D16FB3012058B0BDEC048BBDE8DA
:10443000F08722464B4928462CF04EFB9BE5D3F8EB
:1044400010E05A699969DC691D6B586B06E6082310
:10445000C6F86491C6F86891C6F8603183E71E21FA
:10446000414827F0E9F8414827F07AFB24E5D6F8DF
:104470005421364B022A7FF621AF0022C3F8542183
:104480001CE7FFF7BBFA012058B0BDEC048BBDE878
:10449000F0872B7B3A2B7FF4F5AEF8E6AB793A2B1D
:1044A0007FF4E2AEE6E61D6B586B013501301D630B
:1044B0005863C0E5D6F85431244A012B1CBF0123B0
:1044C000C2F85431FAE62A4B1C6894420CBF06230A
:1044D00000230B609EE69FED277AF4EEC77AF1EE9B
:1044E00010FA7FF787AE82E6B0EE007AF4EEC77A74
:1044F000F1EE10FA7FF76CAE67E60EF59C432033C1
:104500007361D0E5C2F85491D8E61B4F38E503AF8C
:10451000C7F103060DF10B040DF25F15301925F0FC
:10452000A7F804F8010FA542F8D1BA6C796C124FC4
:104530000DF13A00FFF760FC22E50F4FFFF726FB75
:104540002146BA680D48FFF757FC19E5B059FF1F1F
:10455000205AFF1F0021FF1F0000FA420000C64240
:104560000000A04198FE030078FE0300882AFF1F88
:104570005059FF1F6666663F5859FF1FF659FF1FC7
:104580000000204200007042FFF78CBC30B5114D96
:10459000114C85B0294601AB6A46201D2CF0C2FAA9
:1045A000294603AB02AA04F10A002CF0BBFA009AD8
:1045B000029B01980399094D094CC2EB0212C3EB0F
:1045C000031300EB820201EB83032A60236005B032
:1045D00030BD00BFE0FE0300B059FF1FA420FF1F45
:1045E0004421FF1F70B5134D134E2B68002B1EDBAB
:1045F0003368002B1BDB1EF0B1FB04461EF0BEFB34
:104600002A683368C4EB04149A4200EB84000CD08F
:1046100007DC08DA984208DA9042D4BF0020012073
:1046200070BD9842F8DA012070BD002070BDFFF720
:10463000ADFFE0E74421FF1FA420FF1F70B550200D
:1046400082B025F043FC252025F008FC06462420F6
:1046500025F004FC0546232025F000FC204C002317
:104660000128236027D010B90DB9002E2ED000905C
:104670002B4632461B491A4D002021F041F8206894
:10468000012816DD184E194C7368002054F82310C9
:10469000286021F035F8736854F8234020462CF048
:1046A000EFFC0146204626F0C7FF114827F058FAD4
:1046B000286802B070BD012D0BD0002DD7D1012E7E
:1046C0000BD0002ED3D103232360D0E70423236033
:1046D000CDE7002ECBD12560C9E702232360C6E7D2
:1046E0005059FF1FE8FE03005859FF1F7C0EFF1FA3
:1046F000882AFF1F254A1368F0B4254D254C43F046
:1047000000635526002113602E60234B2160002892
:1047100039D01960214B072287211A601A46196087
:1047200013681B06FCD41E491E4B1F4A0F681F4806
:104730001B68146800681E4E1E4D10313B440C323D
:1047400009681268234403440B441344C3F34E0323
:1047500043F4004318493360184A2E6818480B6820
:10476000146800680C3133440C3209681268234421
:1047700003440B441344C3F34E0343F4004345F88E
:10478000283CF0BC704701221A60C3E73C8004401B
:1047900008B003400CB0034020B0034024B00340F5
:1047A00038B003403CB0034040B0034044B0034045
:1047B0002CB0034058B003405CB0034060B00340ED
:1047C00064B0034010B586B004460A22104968461A
:1047D00024F030FE0A220F4903A824F02BFE06AA7B
:1047E0000D4B101900221A6010F80C2C1AB91A6817
:1047F00042F010021A60094A10F8183C136013685E
:104800001B06FCD5064B186880B206B010BD00BF71
:1048100018FD030024FD03000CB0034000B003406A
:1048200010B00340FFFFFFFF2DE9F0430020ABB0C5
:10483000FFF760FF424B434D1B68012BCCBF0720A5
:104840000220FFF7BFFF2AF03FFD39A3D3E9002381
:104850002AF0B0FD3C4B06460F4618223B496846FD
:10486000C3E9006724F0E6FDDFF8ECE0BEE80F00E6
:1048700006AC0FC4BEE80F000FC49EE80F0084E82A
:104880000F0000242C600DF1180858F8040B2AF0D2
:104890003DFD02460B46304639462BF011F870BB01
:1048A00001340C2CF1D10120FFF78CFF2AF00CFD14
:1048B00021A3D3E900232AF07DFDDFF8A090244B4B
:1048C00006460F4612A8234960220024C3E9006768
:1048D0000DF1480824F0AEFDC9F80040F8E80223C5
:1048E000304639462AF0ECFF80B901340C2CF5D162
:1048F0002B680A2B16DD01202BB0BDE8F0832AAB14
:1049000003EB440434F9A83C2B60CCE72AAB03EB5F
:1049100044042A6834F9A83CC9F800300A2AEADCC1
:104920000A2BE8DC00202BB0BDE8F083AFF3008059
:1049300000000040C093563F00000080F6A0763F84
:104940005059FF1FAC57FF1F285BFF1F30FD0300AE
:104950003857FF1F78FD030048FD0300345BFF1F3D
:104960002DE9F0471E4E1F4D316892B008AC8146CC
:104970002046C1EB04082BF09BFE1099204688448A
:104980002BF096FE2046089F2BF092FE2046DDF885
:104990003CA02BF08DFE31680297134ECDF80080BD
:1049A000611A05F160472C1B642306911098CDF81D
:1049B0000CA0059407F5803703FB08F1B1FBF7F174
:1049C000019134780490012030704A463B460749F3
:1049D000002020F095FE347012B0BDE8F08700BFD3
:1049E0008C28FF1F00000320B024FF1F10FF0300CE
:1049F00008B5074B1A7812B1064B187808BD01228A
:104A000005481A7014F0DEFE024B187008BD00BF96
:104A1000AC59FF1F6957FF1F385BFF1F30B52B4B89
:104A20002DED048B1B78D0ED128A90ED109A83B097
:104A30000446002B3CD1B0EE498AB0EE680ADFEDA7
:104A4000247AB4EEE70AF1EE10FA2CD4DFED217AE5
:104A5000B4EEE70AF1EE10FA25DCB5EEC08AF1EE0D
:104A600010FA06D9DFED1C7AB4EEE78AF1EE10FAFF
:104A700003DDB0EE498A84ED109A10EE100A2AF098
:104A800045FC044618EE100A0D462AF03FFC22466B
:104A9000CDE900012B461149114827F07DF803B0FC
:104AA000BDEC048B30BDB0EE680AC4ED128AD4E7C9
:104AB0000C4815F087F90B4884ED100A15F0DAF967
:104AC00094ED108A84ED120AB9E700BF6957FF1F01
:104AD000000048C20000A0420000C84274FF03006A
:104AE000882AFF1F385BFF1F2DE9F04FD7B0002148
:104AF00004468DF8BC108DF8C4104091419106A871
:104B00004FF47A76994D9A4B9A4A9B4930962E9556
:104B10002BF0E2FFD4ED127A9FED987AF4EEC77A8B
:104B2000F1EE10FA07DD9FED967AF4EEC77AF1EE1A
:104B300010FA00F1A5801EF041F906461EF04EF96C
:104B400007461EF05BF982461EF008F980461EF00B
:104B500015F981461EF022F910AD0390CDF800A0A2
:104B6000CDF80890CDF804803B463246284685496A
:104B70002BF0B2FFD4ED107AB1EE047AF4EEC77ADE
:104B8000F1EE10FA07DD9FED807AF4EEC77AF1EED0
:104B900010FA40F29C807D4B1B68ADF87C301B0CFA
:104BA0008DF87E301FAC28462CF06AFADFF8E481DD
:104BB000214628442BF0E4FF0222754924F03AFCF8
:104BC000D8F88044002C4AD0002642AF2146334614
:104BD000384606AA8DF808618DF809618DF80A61DA
:104BE0001AF0C0F806AA80F0010444F20223384605
:104BF0006849694F1CF052F89DF80C318DF8BC30B3
:104C000032AE449B309346A99DF814318DF8C430E0
:104C100030461BF03DFF46A842971BF025FF409809
:104C2000E4B2002800F08380002C77D12EAC294616
:104C3000204626F0B1FF409858B11AF0B1FB30463B
:104C40001BF012FF30462E971BF00EFF57B0BDE849
:104C5000F08F41980028F2D018F0EEFBEFE7D8F87B
:104C6000841400293DD042AF2346384606AA8DF869
:104C700039418DF83A418DF83B4118F02FFAB1E7F0
:104C80001EF09CF806461EF0A9F807461EF0B6F87E
:104C900083461EF063F880461EF070F881461EF0D1
:104CA0007DF88246A06C2AF031FB10ADCDE90401FD
:104CB000CDF800B0CDF80CA0CDF80890CDF8048068
:104CC0003B463246284635492BF006FF52E7FDEEBB
:104CD000E77A1FAC204617EE902A31492BF0FCFEF4
:104CE00061E744F2022306AA414642A81BF0D6FF20
:104CF00032AE9DF80C31449A8DF8BC3046A99DF82F
:104D00001431309230468DF8C430234F1BF0C0FE72
:104D100046A842971BF0A8FE409890B11E22214958
:104D20001AF044FB2EAC204626F01AFF7FE741988C
:104D300050B1002C3FF47AAF1E221A4918F0DCFC67
:104D4000F0E741980028F7D1D8F88C0403689B6AF3
:104D50009847154B154A5968154B107053F8211098
:104D600006AA002020F0CCFC6CE700BFC8FC0300C2
:104D7000D060FF1FF659FF1F98FF0300000048C2D4
:104D80000000A042D0FF03000000C842F4FF03006F
:104D9000045404001C5CFF1FA4FC0300A8FF0300D4
:104DA000F0FF0300F8FF03005859FF1FAF65FF1F16
:104DB000A414FF1F2DE9F04FB04AB14B116897B012
:104DC0000025049306AB8DF81450149515950293A5
:104DD000002900F03D831846AA4A40F201231BF047
:104DE00087FE002800F03483A749DFF89CB3A74F63
:104DF000DFF898A3DFF8988304A826F0CDFEA44935
:104E000004A826F0C9FEA34904A826F0C5FEA249BD
:104E100004A826F0C1FEA14904A826F0BDFEA049C1
:104E200004A826F0B9FE9F4904A826F0B5FE9E49C5
:104E300004A826F0B1FE9D4904A826F0ADFE9C49C9
:104E400004A826F0A9FE9B4BDBF810209A4953F8E2
:104E5000222004A826F0A0FEDBF814309749039323
:104E60001C4604A826F098FE2246954904A826F080
:104E700093FE8D4904A826F08FFE924B0BF1180982
:104E80001D70CBF814500135FFF70CF82A468E49F7
:104E90008E4E04A826F080FE2B462A468C4904A894
:104EA00026F07AFE4A468B4904A826F075FE2A466B
:104EB000894904A826F070FE3B68884A884952F860
:104EC000232004A826F068FE2A46864904A826F076
:104ED00063FEA6F16C02844904A826F05DFE2A4612
:104EE000824904A826F058FEA6F16602804904A86B
:104EF00026F052FE2A467F4904A826F04DFEBA6AE3
:104F00007D4904A826F048FE2A467C4904A826F0DC
:104F100043FEFA6A7A4904A826F03EFE2A467949F9
:104F200004A826F039FE3A69774904A826F034FE31
:104F30002A46764904A826F02FFE7A69744904A807
:104F400026F02AFE2A46734904A826F025FEBA69EF
:104F5000714904A826F020FE2A46704904A826F0CC
:104F60001BFEFA696E4904A826F016FE2A466D4912
:104F700004A826F011FE3A6A6B4904A826F00CFE3C
:104F80002A466A4904A826F007FE7A6A684904A8F6
:104F900026F002FE2A46674904A826F0FDFD97F890
:104FA0005020654904A826F0F7FD2A46634904A865
:104FB00026F0F2FDBA6D624904A826F0EDFD2A46FE
:104FC000604904A826F0E8FD7A6D5F4904A826F040
:104FD000E3FD2A465D4904A826F0DEFDFA6C5C4933
:104FE00004A826F0D9FD2A465A4904A826F0D4FD83
:104FF0003B6B59495AF8232004A826F0CDFD2A46D8
:10500000564904A826F0C8FD7B6B55495AF8232061
:1050100004A826F0C1FD2A46524904A826F0BCFD8A
:10502000BB6B514A514952F8232004A826F0B4FD25
:105030002A464F4904A826F0AFFD97F83C204D4979
:1050400004A826F0A9FD2A464B4904A826F0A4FD91
:105050003A6C4A4904A826F09FFD2A46484904A80C
:1050600026F09AFDD7F86C012AF050F90B4602465B
:10507000444904A826F090FD2A468BE0E860FF1F13
:1050800004FD0300D8DA0300DC100400B059FF1F50
:105090000C1104005C110400A8110400EC110400C0
:1050A00080120400F4120400D81004004813040015
:1050B000541304002821FF1F8413040094130400D8
:1050C000BC1304004021FF1F18000400205AFF1FDA
:1050D000280004005000040064000400D820FF1FD2
:1050E00010010400200104004C0104005C010400D4
:1050F0008401040094010400E4010400F0010400B0
:105100003402040044020400B4020400C402040097
:105110003403040044030400B0030400C00304008B
:105120002C0404003C0404007404040084040400FF
:10513000BC040400CC040400FC04040010050400BA
:105140004C05040064050400A4050400BC0504002B
:105150000C0604001C06040070060400800604000F
:10516000C4060400D4060400C420FF1F1007040076
:10517000240704008007040094070400D8070400F3
:10518000EC070400340804005859FF1FA820FF1F33
:105190005421FF1FB24904A826F0FEFC97F84520D1
:1051A000B04904A826F0F8FC2A46AF4904A826F026
:1051B000F3FCA6F12A02AD4904A826F0EDFC2A462C
:1051C000AB4904A826F0E8FCFA6EAA4904A826F028
:1051D000E3FC2A46A84904A826F0DEFC97F86820DC
:1051E000A64904A826F0D8FC2A46A54904A826F01A
:1051F000D3FC97F85221A34904A826F0CDFC2A46F7
:10520000A14904A826F0C8FC97F844209F4904A8A7
:1052100026F0C2FC2A469E4904A826F0BDFC97F859
:105220005C209C4904A826F0B7FC2A469A4904A8A9
:1052300026F0B2FC97F85D20984904A826F0ACFC53
:105240002A46974904A826F0A7FC386E2AF05EF893
:105250000B460246934904A826F09EFC2A46924932
:1052600004A826F099FC786E2AF050F80B46024606
:105270008E4904A826F090FC2A468D4904A826F001
:105280008BFCD7F854318B4A8B4952F8232004A861
:1052900026F082FC2A46894904A826F07DFCD7F82E
:1052A0005831874A874952F8232004A826F074FC15
:1052B0002A46854904A826F06FFCD7F85C2183496B
:1052C00004A826F069FC2A46814904A826F064FC5B
:1052D000D7F860217F4904A826F05EFC2A467E4963
:1052E00004A826F059FCD7F864317C4A7C4952F86E
:1052F000232004A826F050FC2A467A4904A826F068
:105300004BFCD7F86821784904A826F045FC2A46CA
:10531000764904A826F040FCD7F87031744A7549E4
:1053200052F8232004A826F037FC2A46724904A824
:1053300026F032FC97F85021704904A826F02CFC86
:105340000024013423462A466D4904A826F024FC93
:10535000334622466B4904A826F01EFC23462A4603
:10536000694904A826F018FC7368684958F8233086
:10537000224604A826F010FC23462A46644904A8C5
:1053800026F00AFCB3686349224604A826F004FC10
:1053900023462A46604904A826F0FEFBF3685F49CD
:1053A000224604A826F0F8FB23462A465C4904A8B6
:1053B00026F0F2FB306929F0A9FF2246CDE9000171
:1053C000584904A826F0E8FB23462A46564904A873
:1053D00026F0E2FB706929F099FF2246CDE9000131
:1053E000524904A826F0D8FB23462A46504904A86F
:1053F00026F0D2FBB06929F089FF2246CDE90001F1
:105400004C4904A826F0C8FB23462A464A4904A86A
:1054100026F0C2FBF3694949224604A826F0BCFBEA
:10542000072C06F120068CD1454904A826F0B4FBD0
:10543000052D09F10C097FF424AD02981BF014FB33
:10544000039BCBF81430FEF72DFD3E4A0123137069
:105450003D4B029804931BF007FB17B0BDE8F08F9B
:10546000480804007C08040088080400B008040010
:10547000C0080400140904002C0904007009040089
:1054800080090400B0090400C0090400FC090400FC
:10549000100A04003C0A0400500A0400880A0400B0
:1054A0009C0A0400E40A0400F80A0400300B04001B
:1054B000400B04004821FF1F840B0400980B0400DC
:1054C0003421FF1FD40B0400EC0B04002C0C04004F
:1054D0003C0C04006C0C0400800C04001C21FF1F19
:1054E000BC0C0400D00C0400FC0C04000C0D0400E7
:1054F0006421FF1F400D0400500D04009C0D0400AA
:10550000AC0D0400E00D0400F40D0400380E04009E
:105510004C0E0400940E0400A80E0400F00E0400CB
:10552000040F0400580F04006C0F0400CC0F04009B
:10553000E40F0400441004005C100400C0100400D8
:10554000D81004004021FF1FECFC03002DE9F041BE
:10555000046CAEB0064688461746002C36D020466E
:10556000002119F009FE346C01AD0BE019F0D8FCF4
:105570000346002B3946284616DD2BF0F9FF8542FD
:1055800020D0346C0023B42229462046002CEDD1D3
:10559000706C48B123462946B42217F059FA0346E5
:1055A000002B39462846E8DC0D4B0E495868424628
:1055B00051F820103B46002020F0A2F800202EB029
:1055C000BDE8F08101202EB0BDE8F081406C0028DC
:1055D000CAD00022002317F08BFA346CC4E700BF56
:1055E0005859FF1F1413FF1F2DE9F043AFB00646B3
:1055F000884691461F4601AC0EE019F091FC034627
:10560000002B394620461ADD2BF0B2FF844229D008
:105610009DF804305B2B12D0356C0023B422214658
:105620002846002DE9D1706C48B121462B46B422A2
:1056300017F00EFA0346002B39462046E4DC164BE1
:10564000164A5968002052F821103B46424620F085
:1056500057F84A4641463046FFF778FF00202FB002
:10566000BDE8F08338462BF00BFD01306A4620443C
:105670000B492BF057FA009B379A934206DB389A76
:10568000934203DC369A01201360E8E7369B1A4602
:10569000399B1360D3E700BF5859FF1F0413FF1F46
:1056A000104904002DE9F047AEB006469DF8DCA095
:1056B000884691461F4601AC0EE019F031FC0346C6
:1056C000002B394620461ADD2BF052FF844229D0A8
:1056D0009DF804305B2B12D0356C0023B422214698
:1056E0002846002DE9D1706C48B121462B46B422E2
:1056F00017F0AEF90346002B39462046E4DC144B84
:10570000144A5968002052F821103B4642461FF0C7
:10571000F7FF4A4641463046FFF718FF00202EB0FB
:10572000BDE8F08738462BF0ABFC013020446A46D8
:1057300009492BF0F7F9009B012B03D9369B83F81D
:1057400000A0DCE7369A03F0010313700120E6E7BE
:105750005859FF1F0413FF1F104904002DE9F0439F
:105760002DED048BAFB0B0EE408AB0EE609AF0EE53
:10577000418A0646884691461F4601AC0EE019F064
:10578000CFFB0346002B394620461ADD2BF0F0FEF6
:1057900084422BD09DF804305B2B12D0356C002353
:1057A000B42221462846002DE9D1706C48B121462B
:1057B0002B46B42217F04CF90346002B39462046FD
:1057C000E4DC194B194A5968002052F821103B4675
:1057D00042461FF095FF4A4641463046FFF7B6FE67
:1057E00000202FB0BDEC048BBDE8F08338462BF0D1
:1057F00047FC013020446A460D492BF093F9DDED5A
:10580000007A3A9BF4EEC87AF1EE10FA08DBF4EE77
:10581000C97AF1EE10FA03D8C3ED007A0120E0E76F
:10582000C3ED008ACDE700BF5859FF1F0413FF1FC7
:10583000D01304002DE9F043AFB0064688469146E8
:105840001F4601AC0EE019F06BFB0346002B3946F6
:1058500020461ADD2BF08CFE844229D09DF80430BE
:105860005B2B12D0356C0023B42221462846002D34
:10587000E9D1706C48B12B462146B42217F0E8F804
:105880000346002B39462046E4DC194B194A596877
:1058900000203B4652F8211042461FF031FF4A4695
:1058A00041463046FFF752FE00202FB0BDE8F0839E
:1058B00038462BF0E5FB02300444204622212BF031
:1058C000A5F908B10023037020462BF0D9FB379BC4
:1058D000984208DC421C2146369823F0ABFD01209B
:1058E0002FB0BDE8F083389936982BF067FBCCE7F2
:1058F0005859FF1F0413FF1F2DE9F04FAFB00646A4
:10590000DDF8E8903B9CC9F80040884693461F4666
:1059100001AC0EE019F004FB0346002B394620468B
:105920001ADD2BF025FE844229D09DF804305B2B34
:1059300012D0356C0023B42221462846002DE9D12F
:10594000706C48B12B462146B42217F081F803460B
:10595000002B39462046E4DC1E4B1F4A59680020C4
:105960003B4652F8211042461FF0CAFE5A464146B5
:105970003046FFF7EBFD00202FB0BDE8F08F384632
:105980002BF07EFB02300444204622212BF03EF90E
:1059900008B10023037020462BF072FB01382F283A
:1059A000DAD8399B002BD7DD389B0025A3F1040AF8
:1059B00003E0399B0135AB42CED05AF8041F204694
:1059C0002BF0D6FD8442F4D10120C9F800502FB04D
:1059D000BDE8F08F5859FF1F0413FF1F2DE9F04F4A
:1059E000384AA9B0D2F88034002182460991002BB0
:1059F00038D0184634491BF011F8344A344B11683A
:105A0000169300248DF85C402694279418AFF1B1CA
:105A10003846234652461BF06BF8C0B12D4A51461A
:105A200016A8FFF793FD28BB2B4B049383462B4C02
:105A300038461BF019F800222270049A099B536122
:105A4000FEF730FA01232370FEF77AF901E04FF0F8
:105A5000010B234B169338461BF006F8584629B025
:105A6000BDE8F08FD2F884040028C6D0164918F09B
:105A700059FEC2E71B4D1C4B0093032201921B4BA6
:105A8000144A03945146029516A8FFF735FF0422E5
:105A900009AB8346029200930394154B01940D4A7F
:105AA000514616A8FFF7A0FD05F10803002805934D
:105AB000A5F1100308BF4FF0000B0493A146079710
:105AC00028E000BF1C5CFF1F101F0400E860FF1FE0
:105AD00004FD0300E01304005859FF1F4021FF1F7D
:105AE000ECFC03006859FF1F2821FF1FD41304009A
:105AF000EC1304008346049BC3F81490DDF818905F
:105B0000FEF71EF9059BB9F1050F03F10C03059390
:105B100000F0E58309F101031A46BA4906930CA87F
:105B20002AF0DAFF0CAA514616A8FFF70FFD00284D
:105B3000E0D0049B059A5B68B349009203EB8303B2
:105B40004B440B2251F8233002930192AF4BB04CDF
:105B5000DFF830830CAA514616A8FFF76BFE00262B
:105B6000AC4B00930A22B0420192AB4B03960CAAB5
:105B70005146029416A808BFB346FFF7BDFE06259E
:105B8000221DA64B0092B04202930195A44B0CAA91
:105B9000514616A808BFB346FFF74CFE04F10A02AF
:105BA000A04B0195B042009202930CAA9E4B514625
:105BB00016A808BFB346FFF73DFE012504F12802F1
:105BC0004AF6C003B042009202930CAA974B039589
:105BD0005146019516A808BFB346FFF705FD04F12D
:105BE0002C02934B0293B0428DE82400914B039515
:105BF0000CAA514616A808BFB346FFF7F5FC642768
:105C000004F1100242F21073B04200920393CDF8F7
:105C100008800197884B0CAA514616A808BFB346C6
:105C2000FFF7E2FC04F11402844BCDF80880B04287
:105C30008DE8840003930CAA814B514616A808BF37
:105C4000B346FFF7D1FC04F118038DE888007D4BC3
:105C50000397B04202930CAA7B4B514616A808BF8B
:105C6000B346FFF7C1FC04F11C024BF680337549C3
:105C70000291B0428DE8840003930CAA734B514605
:105C800016A808BFB346FFF7AFFC4FF0630804F156
:105C90002003B0428DE828010CAA6D4B03955146B4
:105CA00016A808BFB346FFF79FFC04F1240240F298
:105CB000E7330A21B04203918DE8240002930CAA35
:105CC000644B514616A808BFB346FFF78DFC04F19C
:105CD0005003B0428DE848000CAA5F4B514616A80D
:105CE00008BFB346FFF7DEFC052704F158020F2377
:105CF000B042CDF80880009203930197574B0CAA4D
:105D0000514616A808BFB346FFF76EFC04F1540EC7
:105D10006FF04F016FF01D026FF06D03CDF800E0E2
:105D2000B0420391029201930CAA4D4B514616A822
:105D300008BFB346FFF758FC04F14C0208238DE876
:105D400024000322B042039202930CAA454B514611
:105D500016A808BFB346FFF747FC04F130034FF025
:105D600007080293404B0397B04200930CAA3F4BA5
:105D7000CDF80480514616A808BFB346FFF7BCFD16
:105D800004F13403384A0092B04202930CAA384B13
:105D900003955146CDF8048016A808BFB346FFF717
:105DA000ABFD04F138010222324B0197B04202915F
:105DB000039200930CAA304B514616A808BFB34675
:105DC000FFF79AFD04F13C03B0428DE848000CAAAD
:105DD0002A4B514616A808BFB346FFF763FC04F1EF
:105DE00040021923B0428DE8440002930CAA244BD0
:105DF0000396514616A808BFB346FFF7F5FB04F516
:105E0000B67345E0180004006411FF1FFC13040082
:105E1000B059FF1FD820FF1F0814040060FE0300C4
:105E20001014040068FE03001C1404002414040071
:105E3000805101002C14040038140400C0D4010067
:105E40004414040000770100501404005C140400A2
:105E500068140400741404008014040090140400F6
:105E6000A4140400B8140400A820FF1FC4140400E4
:105E7000D0140400C420FF1FDC140400E814040044
:105E8000F8140400F0490200CDCCCC3D0000000025
:105E90001FED031A1FED030A0093F3EE090AB04247
:105EA000BB4B0CAA514616A808BFB346FFF756FCD9
:105EB00004F14503B0428DE828000CAAB54B5146C9
:105EC00016A808BFB346FFF7EDFB04F14602B24B3C
:105ED0000197B042009202930CAAB04B514616A80B
:105EE00008BFB346FFF7A6FC0A2704F16C013C2269
:105EF0004FF46163B0420091039202930CAAA84B45
:105F00000197514616A808BFB346FFF76DFB04F191
:105F10006803B0428DE848000CAAA24B514616A86F
:105F200008BFB346FFF7BEFB04F5A973B0428DE886
:105F300048000CAA9C4B514616A808BFB346FFF771
:105F4000B1FB04F14403B0428DE848000CAA974B22
:105F5000514616A808BFB346FFF7A4FB04F15C0343
:105F6000B0428DE828000CAA914B514616A808BFF4
:105F7000B346FFF797FB04F15D03B0428DE848009C
:105F80000CAA8C4B514616A808BFB346FFF78AFBF4
:105F900004F16003B0420093B7EE001AF0EE000A7D
:105FA0009FED850A854B0CAA514616A808BFB3463B
:105FB000FFF7D4FB9FED821ADFED820A824B04F1DA
:105FC0006402B0420092B0EE410A0CAA514616A8F3
:105FD00008BFB346FFF7C2FB04F5AA727B4B0292DF
:105FE0000321B042019100930396794B0CAA5146CC
:105FF00016A808BFB346FFF77FFC764B1B68AB4281
:1060000040F37081744B754D02950126032703966A
:106010008DE888000CAA724B514616A8FFF76CFC5D
:1060200000242A1D0923009202930CAA6D4B0394AD
:106030005146019416A8FFF7D7FA05F1080102228C
:1060400032238DE84200039202930CAA664B51461C
:1060500016A8FFF7C9FA05F10C010522634B02915E
:10606000019200930CAA624B0394514616A8FFF7C5
:1060700043FC05F110020A238DE8140002930CAAD8
:106080005C4B0394514616A8FFF7AEFA05F11802CF
:10609000594B0396029200930CAA584B0197514614
:1060A00016A8FFF729FCA5F108038DE818000CAA33
:1060B000534B514616A8FFF7F5FAA042A5F1E805A3
:1060C00008BFA3460DF128080426013422464D4995
:1060D0004D4F11A82AF000FD032300950193CDF840
:1060E000088011AB0CAA5146C8F8007016A8FFF73B
:1060F000A1FB22460028454911A808BF4FF0000B1C
:106100002AF0EAFC2B1D00224149009103920293E0
:106110000CAA11AB5146019616A8FFF7EDFB2246DB
:1061200000283C4911A808BF4FF0000B60272AF057
:10613000D3FC05F108038DE8C8000CAA11AB514649
:10614000039616A8FFF750FA22460028324911A8F4
:1061500008BF4FF0000B2AF0BFFC05F10C03102222
:10616000039200930CAA11AB51460297019616A810
:10617000FFF73AFA22460028284911A808BF4FF035
:10618000000B2AF0A9FC05F11003B7EE001A49E054
:106190000815040018150400D8FE0300201504009B
:1061A0002C150400401504004C150400581504007B
:1061B0006815040078150400CDCC4C3E8815040009
:1061C000CDCCCC3D6666663F981504004821FF1F84
:1061D000A41504005059FF1F3421FF1F085BFF1F47
:1061E000B0150400C0150400CC1504001C21FF1FCD
:1061F000DC150400E81504006421FF1FF4150400F9
:10620000001604000C1604004E6F20001C1604003B
:106210005421FF1F2C1604003C1604004C160400E9
:106220000000C6425FED020A0093B6EE000A11AB11
:106230000CAA514616A8FFF791FA224600282D49CC
:1062400011A808BF4FF0000B2AF046FC05F114031B
:106250009FED291ADFED290A0093B2EE000A11AB77
:106260000CAA514616A8FFF779FA224600282449BD
:1062700011A808BF4FF0000B2AF02EFC05F11803FF
:106280009FED201ADFED1D0A0093B2EE000A11AB5C
:106290000CAA514616A8FFF761FA224600281A49AF
:1062A00011A808BF4FF0000B2AF016FC05F11C03E3
:1062B0000A201421012203900291019200930CAA5A
:1062C00011AB514616A8FFF78FF9002808BF4FF011
:1062D000000B072C05F120057FF4F7AE0BE4079FB8
:1062E000FFF7A5BBD4F85431002B7FF48BAEC4F874
:1062F000545187E65C160400000098420000FA4200
:10630000701604000000AC4284160400F0B5464C40
:10631000464BD4F88004A1B00E9300238DF83C3096
:106320001E931F93F0B142491AF078FBD4F88054C1
:106330003D4B1DB300262946334668463D4A8DF83D
:1063400000606F468DF801608DF8026018F00AFD5C
:1063500030BB0025384B0E9310A81AF085FB284659
:1063600021B0F0BDD4F884040028F2D0304918F0F0
:10637000D9F9D4F880542C4B002DDBD1D3F88414F8
:106380000029E6D02B4668462A4A8DF831506F46E0
:106390008DF832508DF8335016F0A0FE0028D8D07A
:1063A0002448FFF71BFB05460028D2D0D4F88044D0
:1063B0001D4BF4B1002604F58964214633461D4A7D
:1063C0008DF8006038468DF801608DF8026018F095
:1063D00069FC40B9194A1A4B5268002053F8221040
:1063E0001FF08EF9B6E721463846164A18F006FE29
:1063F000F0E7D3F884140029ECD001F58966234630
:1064000031460C4A8DF8314038468DF832408DF8CF
:10641000334016F0EFFD0028DCD031463846094AFB
:1064200017F0AEF8D6E700BF1C5CFF1F04FD0300A9
:10643000101F0400FCBB0300ECFC03005859FF1FB5
:10644000741DFF1F981604002DE9F0438D4C8E4BF0
:10645000D4F88004ABB0189300238DF864302893EF
:106460002993002862D089491AF0D8FAD4F88054C8
:10647000844B002D66D000270AAE29463B463046A5
:10648000834A8DF828708DF829708DF82A7018F0DD
:1064900069FC002848D07F4B19681AAD002939D013
:1064A000284600237A4A1AF023FB002832D07A4A81
:1064B000774918A8FFF74AF8D0B928461AF0D4FA55
:1064C000D4F880446F4B002C53D0002704F5896426
:1064D00021463B466E4A8DF8287030468DF829706B
:1064E0008DF82A7018F0DEFB00283CD1012412E060
:1064F00001271F2204AB0292009303970197674B79
:10650000654A634918A8FFF76FF800284BD1284661
:106510001AF0AAFA0024624B189328461AF0A4FA3B
:1065200020462BB0BDE8F0831AADF3E7D4F884041D
:106530000028F9D0554918F0F5F8D4F88054514B9B
:10654000002D98D1D3F884140029EDD00AAE2B4643
:1065500030464F4A8DF859508DF85A508DF85B509F
:1065600016F0BCFD95E7214630464E4A18F046FD30
:10657000BCE7D3F884140029B8D001F58967234615
:106580003946434A8DF8594030468DF85A408DF8C7
:106590005B4016F02FFD0028A8D039463046414A0E
:1065A00016F0EEFFA2E70C2205AB029200930397D0
:1065B00001973D4B384A364918A8FFF715F80028CF
:1065C000A5D04FF47A6140F2E47206AB02910192D9
:1065D00000930397354B304A2D4918A8FFF704F86C
:1065E000002894D0172207AB4FF0000802928DE8E4
:1065F000080103972E4B284A254918A8FEF7F4FFF7
:10660000002884D008AB4FF03B098DE808030397BE
:10661000284B214A1E4918A8FEF7E6FF00283FF440
:1066200076AF09AB00930397CDF80890CDF80480BE
:1066300018A8214B184A1649FEF7D6FF00283FF448
:1066400066AF069F049B07A807C80197059F0097A0
:106650001CF008FC1CF032FB23F0E6FB174B184A39
:106660005968099852F82110079F03900698089BD3
:1066700002938DE88100049A059B00201FF040F8EA
:106680001BE700BF1C5CFF1F04FD0300101F04007C
:10669000A8160400E860FF1FBC160400B81604002A
:1066A000ECFC0300E8160400C8160400F41604000D
:1066B000D0160400D8160400E01604005859FF1F35
:1066C0007416FF1F2DE9F04F8F4BDFF84CB2824656
:1066D0008DB040F8043B0F4690460021202229F05F
:1066E00095FF9BF80090894B53F829400022FF2129
:1066F0008AF824108AF825208AF82620002C00F039
:10670000A980BC4259D022464FEA890501E0974250
:1067100053D02A445268002AF9D126467219566885
:10672000002EFBD10AEB05014FFA89F35760019364
:106730004E6020228AF824303146734B029303A81E
:1067400029F064FFFF22019B8DF82D608DF82E60EB
:1067500027468DF82C20B84527D03A4601E042451F
:1067600023D02A445268002AF9D17C196768002F87
:10677000FBD1C4F804800CAA15440020624A45F8F5
:10678000240C09F1010902925A1C8BF800908DF833
:106790002C3006D05E4E56F8231002AA914200F02B
:1067A000938050460DB0BDE8F08F09F101095046C5
:1067B0008BF800900DB0BDE8F08F20220021524BE5
:1067C000029303A829F022FF0022FF2144458DF8FF
:1067D0002C108DF82D208DF82E20E6D022464FEA81
:1067E000890501E04245E0D02A445268002AF9D1E7
:1067F00062195468002CFBD10CAB4FFA89F01D4490
:1068000009F10109404BC2F80480411C45F8244CB1
:106810008BF8009002938DF82C00C2D03C4E56F8B5
:10682000201002AA9142BCD1384B53F82020850099
:1068300022B153195A685C60002AFAD19BF80020F3
:10684000324B0021013A8BF8002043F8201046F823
:106850002010A6E72E4E2D4B46F829A043F82970AC
:10686000B9F1000F46D04FEA89050AEB0502002472
:106870004FFA89F3546001938AF824302022224B86
:106880000293214603A829F0C1FEFF228DF82D4076
:106890008DF82E408DF82C20019B002F7FF45BAFEC
:1068A0001A4A42F8298002AA46F82920B9F1000FB5
:1068B0007FF461AF174821F0A3FE9BF800904FFAD8
:1068C00089F34FEA890556E7104A52F823209C00C5
:1068D00022B111194A684860002AFAD19BF80020B9
:1068E000013A8BF80020094A002142F8231046F8AB
:1068F000231056E7074821F083FE9BF80090034BD6
:1069000053F82970AFE700BF90FC03001C66FF1F1F
:106910003C66FF1F953200005D66FF1F2DE9F047C2
:10692000054688B01EF072FB424A2A60002400230C
:106930004149DFF82C91A964802285F87C202B64E2
:106940006B64AC6785F86540D020C9F8004025F03D
:106950007DFADFF81081009408AE1B2322468246A0
:1069600041460193354B20F0CBFF46F804AD05F1CD
:106970000C0731463846FAF7EBFFDC2025F066FAC3
:106980004FF0240E2E49CDF814E003914FF0050E80
:106990002C49CDF808E023462246CDF8049000911A
:1069A00004942949824620F039FF31463846CDF813
:1069B0001CA0FAF7CDFFE02025F048FA2D21234B4B
:1069C0000291224600930194214B2249814621F0F5
:1069D0008BF831463846CDF81C90FAF7B9FFD02035
:1069E00025F034FA362322464146019300941A4B8F
:1069F000814620F085FF31463846CDF81C90FAF7E5
:106A0000A7FFEB6822465868022120F039FFEB68A7
:106A100022465868032120F033FFEB68224658686D
:106A2000042120F02DFF0D4B28461D6008B0BDE865
:106A3000F08700BF4419040000008C428417FF1F38
:106A4000BC0CFF1F8412FF1FD8FD0300FC160400BE
:106A5000941DFF1FF0FD03007C0DFF1F305BFF1F27
:106A60005459FF1FF81804002DE9F047224D234F19
:106A7000234C4FF0200822F0B1FD4246281D002192
:106A800029F0C4FD00261F4B1F492B604FF0FF0A61
:106A90004FF001093A46284685F824A085F825607C
:106AA00085F8269028F0C8FA42463146DFF86C8017
:106AB000201D29F0ABFD154B154923603A462046B1
:106AC00084F824A084F825606663A66384F83C609B
:106AD00084F8269028F0B0FA224629464046FFF76F
:106AE000F1FD3A4640460B4928F0A6FA0A48BDE8AF
:106AF000F04712F057BE00BFB057FF1F480CFF1FF2
:106B00006C57FF1FA89D040005330000949D0400EE
:106B10005D330000F1310000385BFF1F4057FF1F5D
:106B200010B50023044680F8393080F838301EF064
:106B30002DF9FDF72BFD0123237210BD0F4B1B78A0
:106B400010B5044633B116210D4824F075FD0D48EB
:106B500025F006F8002384F8393084F838302046D0
:106B60001EF014F9FDF712FD3D220F23012184F8D8
:106B70004C2084F84D30217210BD00BF6857FF1FB4
:106B800000170400882AFF1F1EF0F4B82DE9F04317
:106B90005C4ED6F88014ADF5814D99B005460029BC
:106BA00000F08980CB695A1E82660B7956495B08D2
:106BB00002FB03F381FB0312DB17C3EBA243022B9F
:106BC00004DD042B52DC0423AB6601E00223AB6638
:106BD00013A813F039FD23F055F9002300934B4A15
:106BE0004B490123814613A813F0F2FD23F04AF923
:106BF0000A2407464FF4005238A913A813F048FF9F
:106C0000013CF7D123F03EF9804613A813F062FD52
:106C100023F038F93F4A404BD6F88014C8EB000007
:106C2000C7EB0808C9EB0707A2FB0060A3FB0863DA
:106C3000A2FB0727DB088009BF092B676867EF669F
:106C4000304BF1B104A80123304A8DF810408DF883
:106C500011408DF8124018F085F870B913A813F0A0
:106C600093FD0DF5814D19B0BDE8F083082B1FDDB4
:106C7000102B2EDC1023AB66AAE704A818F096FEB2
:106C8000ECE7D3F884140029E8D004AB184603934A
:106C90001E4A80F83140012380F8324080F83340AA
:106CA00016F01CFA0028D9D0039816F085FAD5E71B
:106CB0000823AB668CE7D6F88424002A86D0D2F865
:106CC0003034836692F8450401211A4601FA00F334
:106CD0006CE7202B04DD402B05DC4023AB6677E717
:106CE0002023AB6674E7802B02DC8023AB666FE762
:106CF000B3F5807FD4BF4FF480734FF40073AB665D
:106D000066E700BF1C5CFF1F83DE1B4318170400EF
:106D100000DC0500D34D6210CDCCCCCC10B50023E7
:106D2000044680F8393080F838301EF02FF8FDF72F
:106D30002DFCE3689A680123237220465372BDE854
:106D40001040FFF723BF00BF2DE9F843314ED6F8BE
:106D5000800400284ED019F033FD10B10120BDE8A9
:106D6000F8832025DFF8CC802B4FA9460424C820C7
:106D7000C8F8009023F0AAF83D60C82023F0A6F8D8
:106D8000013CF4D1254D214628461BF047F8284602
:106D9000C6F88C54A5F592651AF0E8FB10B3D6F846
:106DA0008C041C4C03689B6A9847172829D0D4F898
:106DB0008C041B4C036861681A4A9B6A52F8215084
:106DC00098472946024600201EF09AFC6268164B3E
:106DD00053F822001EF0AEFA144B15221A60002060
:106DE000BDE8F883D5F88C14284619F0F3FE002886
:106DF000D5D0B3E7D6F884040028B2D017F092FBC0
:106E0000ABE7074C0A4B6268002053F822101EF0D3
:106E100077FCDBE71C5CFF1F88F00F40AC60FF1FB6
:106E20005859FF1F341DFF1FC412FF1F0466FF1FA8
:106E3000DC0EFF1F84F00F402DE9F04FDFF8988340
:106E4000DFF874B3D8F800308BB0064603F10800C1
:106E50001CF022FDD8F80000002108301DF0F6FEDD
:106E6000FDF7E2FCDBF80C3093B12025DFF86CA3D2
:106E7000DFF840932F460424C820CAF8007023F09E
:106E800025F8C9F80050C82023F020F8013CF3D1C0
:106E9000B24B1B68012B00F04B81B14A0892174698
:106EA000B04ADBF80400B0491268B04B51F820102A
:106EB0000692D3E90045D7E90023CDE90445AC4863
:106EC000099000680290CDE900230020A94A1EF035
:106ED00017FCA94B1A78002A00F02181A74B1D78D6
:106EE000A74F1CE01F21A74824F0A6FBA64824F0CA
:106EF00037FEA64BA64A1A60072C7ED0002D7CD008
:106F0000A44B93F86830002B77D03046FDF786FD10
:106F10003046FDF7E9FDFDF765FB00286DD0032342
:106F2000022207219C48DFF8B8A221F0E7FE1BF0FF
:106F300015FF04461BF022FFC4EB04143A6800EB73
:106F400084009042A8BF02F5B462101A8AFB00398F
:106F50008144C317C3EB69195FFA89F9A9EB0914D6
:106F600000EB8400C4B21BF019FFC3B255B3894AC9
:106F700092F8681031B3C4EB041188004FF46161DA
:106F8000D26E01FB0901C91A91421BDD834B844C6F
:106F900083FB02399144D317C3EBE9295FFA89F9DE
:106FA00004FB09248AFB043AA244E417C4EB6A14E4
:106FB000E4B2C9EB0910A4EB041302EB001202EBDC
:106FC0008303DBB222464946764821F03DFC7648F1
:106FD00021F030F8044675481BF07AFFFFF7B4FE45
:106FE00000283FF47FAF724BD3F88004002800F0F4
:106FF0008E8019F0E5FB072C80D1DBF80C3093B1C3
:107000002024DFF8D8916B4F25464FF0040AC820A2
:10701000C9F8005022F05AFF3C60C82022F056FF09
:10702000BAF1010AF3D1D8F80000634C08301CF023
:1070300055FADBF80420614BD8F8007053F8229021
:1070400000254846A7F8B850A7F8BA502AF018F813
:107050003B68494602465B6838469847384624F004
:107060007FFDDBF80420564BD8F8007053F82290CF
:10707000A7F8B8500A23A7F8BA3048462AF000F813
:107080003B6802465B68494638469847384624F0D4
:1070900067FDD8F8000008301CF02CFA2F4B1B6855
:1070A0000F22012B86F84D2000F09C806168454A34
:1070B0002C4852F82110099A2C4B1268046800924F
:1070C000D3E90067089B2846D3E900230494CDE95F
:1070D00002671EF015FB3C4B044618681EF03CFD91
:1070E000002C00F094802B4B1B68032B00F09A803F
:1070F000072B00F09D80042B00F08E80092B334B72
:107100000CBF122203221A600BB0BDE8F08FD3F837
:10711000840400283FF4F0AE17F004FAECE60122F4
:107120002B481A7012F04EFB144B05461870D7E628
:107130000B4B0F49DBF80420089318460C46254BEF
:10714000099153F8221023680293D0E9002300200C
:10715000CDE90023074A1EF0D3FABAE65059FF1FC3
:10716000285BFF1F345BFF1FF411FF1F3857FF1F01
:10717000AC57FF1FB459FF1FAC59FF1F6957FF1FC2
:10718000A420FF1F24170400882AFF1F0CED00E035
:107190000400FA05B059FF1FB057FF1FC5B3A291F5
:1071A000F0F1FFFF6C57FF1F4057FF1FADAD01000F
:1071B0001C5CFF1F88F00F405859FF1F8416FF1FEB
:1071C0001416FF1F941AFF1F0C66FF1F0466FF1F93
:1071D000385BFF1F3412FF1FC85BFF1F84F00F4096
:1071E00089888888099B6168144A1B6852F82110B5
:1071F0000093089B2846D3E900231EF081FA104B28
:10720000044618681EF0A8FC002C7FF46CAF0BB08D
:10721000BDE8F04FFFF798BD0A4B08221A600BB08B
:10722000BDE8F08F074B07221A600BB0BDE8F08F66
:10723000044B0E221A600BB0BDE8F08F341BFF1F09
:107240000C66FF1F0466FF1F2DE9F0438BB090F81A
:107250004C4006461BF0A2FD844200F0B880604C12
:10726000604F1BF09BFD236886F84C0003F108007B
:107270001CF034F97A685C4BD4F8008053F8229003
:1072800000254846A8F8B850A8F8BA5029F0F8FEEA
:10729000D8F80030024649465B6840469847404669
:1072A00024F05EFC7968514B96F84D2053F821107C
:1072B00003A829F011FCD4F800800923A8F8BA30FB
:1072C000A8F8B85003A829F0DBFED8F80030024631
:1072D0005B6803A940469847404624F041FC796822
:1072E000434B444A53F8211003A829F0F5FBD4F886
:1072F00000801223A8F8BA30A8F8B85003A829F0E3
:10730000BFFED8F8003002465B6803A940469847A4
:10731000404624F025FC1BF021FD80461BF02EFD8D
:1073200081461BF03BFD42464B463349009003A883
:1073300029F0D2FBD4F800801B23A8F8BA30A8F8B3
:10734000B85003A829F09CFED8F80030024603A9E3
:107350005B6840469847404624F002FC7A68274B19
:10736000D4F8008053F82290A8F8B8502423A8F845
:10737000BA30484629F084FED8F800300246494623
:107380005B6840469847404624F0EAFB7A681C4B0D
:10739000276853F82280A7F8B8502D23A7F8BA30F1
:1073A000404629F06DFE3B6802465B684146384620
:1073B0009847384624F0D4FB206808301CF09AF82F
:1073C00096F84D30013BDBB286F84D3013B10BB06F
:1073D000BDE8F0833046FFF72FFD0BB0BDE8F0832A
:1073E000C85BFF1F5859FF1F4C0FFF1F5C0FFF1F8B
:1073F0006C0FFF1FB459FF1F44170400A41BFF1F8D
:10740000FC0FFF1FF8B50E4610B103685B68984784
:10741000741E142C00F20B81DFE814F027005800D2
:107420006F00780081008A0094009D00A600AF00E4
:10743000B800C200CB00D400DD00E600F000F90087
:10744000090109011500402024F000FD05461DF04A
:1074500049FF834A834B5268002053F822101EF0E4
:107460004FF907460FB32846F8BD4FF4A47024F037
:10747000EDFC054602F02CFD794A7B4B526800205A
:1074800053F822101EF03CF907460120774B00FA12
:1074900004F42340002B40F0DF80152EE2D0744925
:1074A00001201DF04DFF002FDDD1FFF74DFC00281E
:1074B000D9D11DB12B6828465B689847402024F03D
:1074C000C5FC05461DF00EFF2846F8BD502024F0EF
:1074D000BDFC05461DF09AFD614B664A5968664F32
:1074E0006648AF640023286052F821102B646B6457
:1074F00000201EF005F90746C7E75C2024F0A6FC33
:10750000054606F095FF564A5D4BB7E7702024F01C
:107510009DFC054606F0AAFF514A5A4BAEE7702083
:1075200024F094FC054606F091FF4D4A564BA5E722
:1075300040F6D80024F08AFC054609F0B5FA484A1E
:10754000524B9BE75C2024F081FC054606F09EFF31
:10755000434A4F4B92E7742024F078FC054607F02D
:10756000B3FC3F4A4B4B89E7BC2024F06FFC054637
:1075700009F0C8FF3A4A484B80E7C02024F066FC77
:107580000546FAF7F5F9364A444B77E746F2787044
:1075900024F05CFC054604F0FBFB314A404B6DE7F0
:1075A000702024F053FC05460AF016FB2C4A3D4B94
:1075B00064E7802024F04AFC0546FFF7AFF9284A2B
:1075C000394B5BE77C2024F041FC054612F09AFD24
:1075D000234A364B52E7902024F038FC054603F04E
:1075E000F5FA1F4A324B49E74FF4A07024F02EFC05
:1075F000054603F0B1FB1A4A2E4B3FE7682024F002
:1076000025FC054602F050FC154A2B4B36E7782046
:1076100024F01CFC054606F047FF114A274B526830
:10762000002053F822101EF06BF8074637E70C4D88
:10763000234B6A68002053F822101EF061F86A6834
:10764000204B074653F822001DF074FE102C4FF01B
:1076500000053FF622AF18E700211DF071FE01E79B
:107660005859FF1F0C0FFF1FF419FF1F01DF010006
:10767000C0D401004412FF1F00008C42C418040053
:10768000841CFF1F341AFF1FE419FF1FF417FF1F8C
:10769000EC0EFF1FD415FF1FD412FF1F3411FF1F64
:1076A0009C0CFF1FE41FFF1FC41AFF1F7412FF1F53
:1076B0006412FF1F9412FF1F0C10FF1FF41EFF1F08
:1076C000B412FF1FB41DFF1F032909D0F0B50C46EB
:1076D0008DB049B101290DD0414B18680DB0F0BDF6
:1076E0003F4B012018607047FFF750FA3C4B186879
:1076F0000DB0F0BDC3683B4F3B4E05460A46586887
:10770000022120F0BDF8EB6822465868032120F0E2
:10771000B7F8EB6822465868042105F1780420F098
:10772000AFF80223314A32493B60204624F06EF91B
:107730002B682846DB699847D6F88C0403685B6998
:107740009847C0B10023B0F1806FC6F88034C6F806
:1077500084343246D6F88C1401A830D818F0E4FEF0
:1077600048B1FFF7F1FA002830D0EB681C4E9B6857
:1077700001225A7209E01F4B5B68012B22D01E4880
:107780001DF0D8FD164E15233360204624F088F9ED
:10779000EB6800225868022120F072F8EB680022A2
:1077A0005868032120F06CF8EB6800225868042127
:1077B00020F066F8306800233B600DB0F0BD16F095
:1077C00075F9CDE70D481DF0B5FDDBE726210C4826
:1077D000034E23F031FF0B4824F0C2F9D5E700BF78
:1077E0000466FF1F5459FF1F1C5CFF1FFFF7240195
:1077F000E53200005859FF1F6817040054170400B1
:107800007C170400882AFF1F704700BF024B002925
:10781000186818BF012070470466FF1F10B50446A2
:107820001BF0BCFAD4F8903098420ED01BF0B6FA98
:10783000D4F88C30C4F890000133B3F5617FC4F8FC
:107840008C3002DB034B03221A602046BDE8104057
:107850001DF03ABB0466FF1FC36C13B1024B1868DE
:1078600070471DF087BC00BF0466FF1F10B50446BB
:1078700041B100230629C0F88C3003D1184B1B6896
:10788000012B0DD020461DF075FCE3685B6A5B7927
:1078900023B9236A082B02DC0123237210BD10BD1B
:1078A000104B1B68013B082B18D8DFE803F00515C7
:1078B00013110F0D0B0907000420E6E71220E4E77F
:1078C0000A20E2E70E20E0E70920DEE70620DCE7F9
:1078D0000820DAE70720D8E70520D6E70320D4E719
:1078E0005059FF1FB059FF1FF8B5D0F83071D0F8CC
:1078F0003451AF42064618BF3C4605D020461034EE
:1079000024F058F9A542F9D1C6F834713046BDE8E3
:10791000F840FFF739B900BF002945D041DB0629FF
:107920003FDCC3682E4A53F82130126870B5C3F8A3
:10793000CC2003682B4EDB6904460D469847D4F8EB
:107940003C31D4F830211B01D058002808BF304604
:10795000FEF744F800282BD0234BD4F830215B6885
:10796000012BD4F83C310CBF204921491B010020D8
:10797000D258824208BF32461DF0C2FE1D4B012084
:107980001860D4F83C21D4F83031E168154C51F836
:10799000251012019B58002B08BF2346C1F8CC309C
:1079A00070BD144B18687047124B01201860704767
:1079B000D4F83C31D4F830210F491B01D258002AA9
:1079C00008BF32461DF09CFE074A0C4B526853F824
:1079D00022001DF0AFFC074B15201860D1E700BF57
:1079E000E821FF1FB2A004005859FF1F20B8030070
:1079F00010B803000466FF1F38B803004417FF1FC8
:107A000010B50446006D064B236010B103685B6837
:107A10009847044B236020461DF062F9204610BDB4
:107A2000D41A04000819040010B50446FFF7E8FF53
:107A30002046682124F012FA204610BD10B5034BF1
:107A4000036004461DF04CF9204610BD08190400DF
:107A500010B5054B036004461DF042F92046902105
:107A600024F0FCF9204610BD0819040010B5034BA2
:107A7000036004461DF034F9204610BD08190400C7
:107A800010B5064B036004461DF02AF920464FF45A
:107A9000A47124F0E3F9204610BD00BF08190400CA
:107AA00070B5D0F83041D0F834510E4B0360AC4281
:107AB000064607D02046103424F07CF8A542F9D1C0
:107AC000D6F8305115B1284624F0C4F9064B33607E
:107AD00030461DF005F930464FF4A07124F0BEF990
:107AE000304670BDA01D04000819040030B585B0F3
:107AF00004460146684624F0E5F8103C03E02846B9
:107B000024F0ECF8103C2146684624F04BF904F1CF
:107B1000100521460028F2D16946284624F0DEF8F7
:107B2000684624F047F805B030BD00BFF0B5BDB0E1
:107B30000746FEF7F5FF484D07F1540407F190069C
:107B40002946204629F03AFA01E021F073FC20464C
:107B500029F096FA0A284FF0020240492044F4D94D
:107B60000C34B44205F10C05EAD13D4B3D4A19688D
:107B7000149200234FF47A708DF854308DF85C30F5
:107B8000269327938DF8A4308DF8AC303A933B932D
:107B900016902A9028922CAC19B12046324A18F03F
:107BA000A7FF00250022214618A818F0E1FF88B998
:107BB000FB68014698691FF093FA0023FB64204696
:107BC0002A4C289418F050FF18A8149418F04CFF71
:107BD0003DB0F0BD26988DF80050F8B150226946AE
:107BE00017F03CFD684629F0B9FA269B1BB31B78B9
:107BF00013F0700F14BF0123002343BB1C496846D8
:107C000029F0B6FC064618A818F02EFF002EC9D0A1
:107C1000FB68012198691FF063FACEE727980028D6
:107C2000E0D05022694614F065FD684629F096FAC6
:107C3000269B002BDBD1279B002BDFD093F8313024
:107C400013F0500F14BF01230023002BD6D018A827
:107C500018F00AFFA6E700BF7059FF1FF4440400A4
:107C6000E860FF1FC8FC0300101F0400A4FC030011
:107C7000B0160400F0B504468FB0062937D8DFE807
:107C800001F053575757570D04003E4E10233360F1
:107C9000E56C002D2FD030680FB0F0BDC368002117
:107CA00018681FF01DFAE368002158681FF018FAE1
:107CB000E368002198681FF013FAE3680021D86890
:107CC0001FF00EFAE368002118691FF009FAE36853
:107CD000002198691FF004FA2046FDF76BF8012394
:107CE000E3641BF05BF801303B282EDC2065E56C7B
:107CF000244E002DCFD1244BD3F880744FB3394696
:107D00002B46224A8DF8005068468DF801508DF8B8
:107D1000025017F027F868BBE368002198691FF04C
:107D2000DFF930680FB0F0BD164E01233360AFE7C6
:107D300001EB41018B001648124EE11854311844F2
:107D400029F03CF9FBF7FCFFA2E7002323650D4E69
:107D50009EE7D3F884140029DED03B460B4A8DF809
:107D6000317068468DF832708DF8337015F0B6F9C1
:107D70000028D1D0E368012198691FF0B1F930687B
:107D80000FB0F0BD0466FF1F1C5CFF1FD8DA0300B4
:107D90007059FF1FC36C03B9704770B504468EB0AD
:107DA0001AF0FCFF236D984201D00EB070BDE3685D
:107DB00000251868E56401211FF092F9E3680121AC
:107DC00058681FF08DF9E368012198681FF088F961
:107DD000E3680121D8681FF083F9E368012118697D
:107DE0001FF07EF9E368012158691FF079F9184BFB
:107DF000D3F880649EB131462B46164A8DF8005068
:107E000068468DF801508DF8025016F0ABFFB8B9F6
:107E1000E368002198691FF063F90EB070BDD3F8D4
:107E200084140029F4D033460A4A8DF8316068463C
:107E30008DF832608DF8336015F050F90028E7D0E6
:107E4000E368012198691FF04BF90EB070BD00BFC7
:107E50001C5CFF1FD8DA030070B5D0F83041D0F8B1
:107E600034510C4B0360AC42064607D02046103418
:107E700023F0A0FEA542F9D1D6F8305115B128461D
:107E800023F0E8FF044B336030461CF029FF3046F6
:107E900070BD00BFA01D0400081904002DE9F047C3
:107EA000064690B01AF07AFFF36C984200F04A81CF
:107EB000C04D1AF073FF2B68F06403F108001BF04B
:107EC0000DFB2868BC4908301CF056F896F8643061
:107ED00003AC2046002B40F06881B84AB84928F02E
:107EE000FBFD2868DFF80083214608301CF054F8B9
:107EF000C0F180002F6800EBD07000234010A7F87D
:107F0000B800A7F8BA30204629F0BAF83B68024614
:107F10005B68214638469847384623F021FE28689A
:107F2000A84908301CF028F8A74B2F680FCBA646AD
:107F3000AEE807002EF8023B1B0C8EF800302146FD
:107F400007F108001CF028F8C0F180002F6800EB52
:107F5000D0700D234010A7F8B800A7F8BA3020461B
:107F600029F08EF83B6802465B6821463846984700
:107F7000384623F0F5FDDFF874E2BEE80F0027462F
:107F80000FC7DEF8003027F8023B28681B0C21469B
:107F90003B7008301CF000F8C0F180002F6800EB47
:107FA000D07016234010A7F8B800A7F8BA302046C2
:107FB00029F066F83B6802465B68214638469847D8
:107FC000384623F0CDFDD8F80030032B00F227818E
:107FD000DFE813F01B01160110010400DFF810E2C6
:107FE000BEE80F0027460FC7DEF800303B60286868
:107FF000214608301BF0D0FFC0F180002F6800EB55
:10800000D0701E234010A7F8B800A7F8BA30204659
:1080100029F036F83B6802465B68214638469847A7
:10802000384623F09DFD2868684F694908301BF0E9
:10803000A3FF0FCFA146A9E80F0097E803002B6824
:10804000C9F8000029F8041F03F1080021461BF0BD
:10805000A3FFC0F180002F6800EBD07029234010EF
:10806000A7F8B800A7F8BA30204629F009F83B680D
:1080700002465B682146384698473846554F23F0FC
:108080006FFD0FCFA246AAE80F0097E803002B6808
:10809000CAF80000A9F8001003F1080021461BF0FF
:1080A0007BFFC0F180002F6800EBD07031234010BF
:1080B000A7F8B800A7F8BA30204628F0E1FF3B68DF
:1080C00002465B682146384698473846424F23F0BF
:1080D00047FD0FCFA446ACE80F002B683F688AF835
:1080E0000070214603F108001BF056FFC0F180002C
:1080F0002F6800EBD07039234010A7F8B800A7F81C
:10810000BA30204628F0BCFF3B6802465B68214637
:1081100038469847384623F023FD286808301BF07E
:10812000E9F9D8F80030022B0CDD336E0133032B54
:10813000336607DD96F86430002283F0010386F889
:1081400064303266306D90B1736D9BB1234C226800
:108150000092009A9A420AD903685B69984723689B
:108160000193019B002203F5FA73B365726510B0A9
:10817000BDE8F08703689B699847092854D096F8B2
:108180005C30002BF3D1154CB36D22680292029A39
:108190009A42ECD9306D03685B6998472368039372
:1081A000039B03F5FA73B365E1E70D4A0D4928F027
:1081B00093FC96E6C85BFF1FD4540400681E0400BD
:1081C000701E0400B46E0400841E0400FC1E040033
:1081D00020800400141F04002C1F04007466FF1F7D
:1081E0002457FF1F581E04005059FF1F941E0400FF
:1081F000D81E0400144B93E8070084E80700F6E655
:10820000124B0FCB84E80F00F1E6DFF854E0BEE834
:108210000F0027460FC7DEF800303B70E7E60C4B37
:108220000FCB84E80F00E2E6336D1A680146D2698D
:1082300018469047074A0849084823F0ADFC012337
:1082400086F85D3093E700BFCC1E0400BC1E04001E
:10825000EC1E04002457FF1F401F0400882AFF1F44
:10826000A81E04002DE9F843C26803699B1A032B7A
:1082700004460BDD0025D06E01211EF031FFE268BF
:10828000236901359B1AB5EBA30FF4DBD06E744F55
:1082900001211EF025FFE3680021186F1EF020FF6A
:1082A000E3680121586D1EF01BFFE3680121986D02
:1082B0001EF016FFE3680021D86D1EF011FFE36881
:1082C0000021186E1EF00CFFE3680021D86C1EF030
:1082D00007FFE3680021186D1EF002FF3B68022BC8
:1082E00040F3D181012B42DDE3680022986806212A
:1082F0001FF0C6FAE3680022986808211FF0C0FA50
:10830000E368DFF864819868012200211FF0B8FA61
:10831000E3680122986811461FF0B2FAE36801226F
:10832000986802211FF0ACFAE368012298680321E3
:108330001FF0A6FAE3680122986804211FF0A0FA52
:10834000E3680122986805211FF09AFA3B68012B27
:10835000D8F8303040F3A281062B1BD8DFE813F0A9
:10836000020308031D030F03160324032B03E36812
:108370000122986806211FF083FAE36801229868B9
:1083800008211FF07DFABBE7E3684FF46151D86C18
:108390001FF0FAF9334DE3686E69002E66D1986AD2
:1083A0002E6131461EF09CFEE3683246986A012138
:1083B0001FF066FAE3683246986A02211FF060FAFD
:1083C0003B68012B65DD2969E3680029586FD4BF3C
:1083D000002101211EF084FE6B69002B00F04A8110
:1083E000D8F80060DFF88090092E5DD0002E00F0F4
:1083F0006F81062E00F02785082E00F0E782731E9D
:10840000022B40F20784052E00F06B87042E01F04A
:108410002580072E01F017813B68012BE3684FF0A0
:10842000000114BFD3F8D40058691EF059FEE36868
:108430000121D3F8C8001EF053FE2B69022BE3681C
:1084400000F0C983D3F8CC0000211EF049FEE36898
:108450000021D3F8D000BDE8F8431EF041BE00BFB4
:108460005059FF1F5859FF1FB059FF1F986A01212B
:108470001EF036FEE3680122986A11461FF000FAEA
:10848000E3680122986A02211FF0FAF93B68012B88
:1084900099DCE368DFF83092586F00211EF020FE6F
:1084A000D8F80060092EA1D1E3680121D8681EF038
:1084B00017FED9F85C61E368002E40F0F585D86EB0
:1084C000324631461FF0DCF9E3683246D86E0121AE
:1084D0001FF0D6F9E3683246D86E02211FF0D0F9BA
:1084E000E3683246D86E06211FF0CAF92969E368AD
:1084F0000029D4BF00210121D3F8AC001EF0F0FD0B
:108500002969E3680029D4BF00210121D3F8B00014
:108510001EF0E6FD2969E3680029D4BF002101218E
:10852000D3F8B4001EF0DCFDE3680121D3F8B800F5
:108530001EF0D6FDD9F83030042B01F04981052B0F
:1085400000F0C786032B05D1E3685E49D3F8B0007D
:108550001FF092F998F85010E368002901F0698043
:10856000586B01211EF0BCFDE3680021186B1EF062
:10857000B7FDE368DFF85481986B00211EF0B0FD71
:10858000E3680021D86B1EF0ABFDE3680021186C96
:108590001EF0A6FDE3680121586C1EF0A1FDE36802
:1085A0000121986C1EF09CFD2969E3680029D4BF65
:1085B00000210121586D1EF093FD2969E36800290F
:1085C000D4BF00210121986D1EF08AFDE3680021CF
:1085D000D86D1EF085FDE3680021186E1EF080FD49
:1085E000E3680121586E1EF07BFDE3680121986E5F
:1085F0001EF076FD2969E3680029D4BF002101211E
:10860000D86E1EF06DFD2969E3680029D4BF0021F2
:108610000121986F1EF064FDE3680021D86F1EF001
:108620005FFDE3680021D3F888001EF059FD296939
:10863000E3680029D4BF00210121D3F880001EF097
:108640004FFDE3680021D3F884001EF049FD29693D
:10865000E3680029D4BF00210121D3F88C001EF06B
:108660003FFDE3680021D3F890001EF039FDE36878
:1086700000217AE2D8F854211349002A3FF4B0AE21
:10868000C1F85431ACE6E3680022986809211FF074
:10869000F7F83B68002B3FF427AE23E6062B3FF6A6
:1086A00079AE01A252F823F06589000065890000C7
:1086B000718900009B890000898300007F89000088
:1086C0008D890000EC21FF1FB059FF1F5859FF1F73
:1086D000E3683146D8681EF003FDE3683146D3F8FD
:1086E000AC001EF0FDFCE3683146D3F8B0001EF08C
:1086F000F7FCE3683146D3F8B4001EF0F1FCE36800
:108700003146D3F8B8001EF0EBFC2969E368002974
:10871000D4BF00210121D86A1EF0E2FC99F8501064
:10872000E368002940F01481586B1EF0D9FCE3681F
:108730000121186B1EF0D4FCE3680021986B1EF039
:10874000CFFCE3680021D86B1EF0CAFCE36800216F
:10875000186C1EF0C5FCE3680121586C1EF0C0FCCB
:10876000E3680121986C1EF0BBFCD8F83030022B76
:1087700040F34C832969E3680029D4BF002101211B
:10878000586D1EF0ADFC2969E3680029D4BF0021B3
:108790000121986D1EF0A4FCE3680021D86D1EF045
:1087A0009FFCE3680021186E1EF09AFCE368854E7A
:1087B000586E01211EF094FCE3680121986E1EF0B2
:1087C0008FFC2969E3680029D4BF00210121D86EFC
:1087D0001EF086FC2969E3680029D4BF002101212D
:1087E000986F1EF07DFCD8F83030062B05D0022B98
:1087F00003DD3B68012B40F3F582E3680021D86F6D
:108800001EF06EFCE3680021D3F888001EF068FCBF
:10881000D8F83030022B40F3D4822969E36800296C
:10882000D3F88000D4BF002101211EF059FCE36879
:108830000021D3F884001EF053FC2969E368DFF8B7
:108840008491D3F88C000029D4BF002101211EF0AF
:1088500047FC2969E3680029D4BF00210121D3F82E
:1088600090001EF03DFCE3680121D3F894001EF057
:1088700037FC2969E3680029D4BF00210121D3F81E
:1088800098001EF02DFCFCF7B3F80646002800F017
:108890008B82D9F81010E3680029D4BF0021012190
:1088A000D3F89C001EF01CFCD9F81010E3680029D6
:1088B000D4BF00210121D3F8A0001EF011FCE36811
:1088C0000021D3F8A4001EF00BFCE3680021D3F8CC
:1088D000A8001EF005FCE3680122D86E00211EF0FE
:1088E000CFFFE3680122D86E11461EF0C9FFE3688E
:1088F0000122D86E02211EF0C3FFE3680122D86E68
:1089000003211EF0BDFFE3680122D86E04211EF092
:10891000B7FFE3680122D86E05211EF0B1FF3B6866
:10892000012B40F36581D8F85421002A40F0608182
:10893000E3680621D86E1EF0A3FFD8F83030032B71
:1089400000F2A284DFE813F042013D013801330157
:10895000586B01211EF0C4FBE3683146186B1EF012
:10896000BFFBE9E6E3681849D86C1EF00DFF11E57E
:10897000E3684AF6C001D86C1EF006FF0AE5E3681A
:1089800042F63021D86C1EF0FFFE03E5E3684FF499
:10899000E151D86C1EF0F8FEFCE4E36845F260415A
:1089A000D86C1EF0F1FEF5E4E36841F21851D86C82
:1089B0001EF0EAFEEEE4E3684FF46161D86C1EF04D
:1089C000E3FEE7E45859FF1F80510100E3688C4E35
:1089D000D86800211EF084FBE3680021D3F8AC00C6
:1089E0001EF07EFBE3680021D3F8B0001EF078FB98
:1089F000E3680021D3F8B4001EF072FBE3680021A5
:108A0000D3F8B8001EF06CFBE3680021586D1EF02F
:108A100067FBE3680021986D1EF062FB2969E3683B
:108A20000029D4BF00210121D86D1EF059FB29690E
:108A3000E3680029D4BF00210121186E1EF050FB0D
:108A4000E3680021D86E1EF04BFB2969E36800291A
:108A5000D4BF00210121186F1EF042FB2969E36891
:108A60000029D4BF00210121D86A1EF039FB99F8F2
:108A70005010002940F01D84E368586B1EF030FB55
:108A80003169E3680029D4BF00210121186B1EF071
:108A900027FB2969E3685A4ED86B0029D4BF00210F
:108AA00001211EF01DFBE3680021186C1EF018FB6D
:108AB000E3680021586C1EF013FBE3680021986CFA
:108AC0001EF00EFBE3680121586E1EF009FBE368FF
:108AD0000121986E1EF004FB2969E3680029D4BFC8
:108AE00000210121986F1EF0FBFAD8F83430062BD4
:108AF00005D0022B03DD3B68012B40F36885E3685A
:108B00000021D86F1EF0ECFAE3680021D3F888004A
:108B10001EF0E6FAD8F83030022B40F37885296948
:108B2000E3680029D3F88000D4BF002101211EF0A2
:108B3000D7FAE3680021D3F884001EF0D1FAE36885
:108B4000DFF8BC80D3F8880000211EF0C9FAE36882
:108B50000021D3F88C001EF0C3FAE3680021D3F89B
:108B600090001EF0BDFAE3680121D3F894001EF0D6
:108B7000B7FA2969E3680029D4BF00210121D3F89D
:108B800098001EF0ADFAFBF733FF0646002800F010
:108B9000FE80D8F81010E3680029D4BF002101211D
:108BA000D3F89C001EF09CFAD8F81010D8E0E368C7
:108BB000144ADB6F5A642FE4E368134ADB6F5A648C
:108BC0002AE4E368114ADB6F5A6425E4E368104A3B
:108BD000DB6F5A6420E4D3F8CC0001211EF080FA48
:108BE000E3680121D3F8D000BDE8F8431EF078BA5D
:108BF000E3680122D86E06211EF042FE9DE600BF0A
:108C00005859FF1F6C0CFF1F2418FF1FB411FF1FC2
:108C10008C0DFF1FE3680021D8681EF061FAE3683D
:108C20000021D3F8AC001EF05BFAE3680021D3F812
:108C3000B0001EF055FAE3680021D3F8B4001EF02E
:108C40004FFAE3680021D3F8B8001EF049FAE36850
:108C50000021D86A1EF044FAE3680021586B1EF028
:108C60003FFAE3680021186B1EF03AFAE36800212E
:108C7000986B1EF035FAE3680021D86B1EF030FACD
:108C8000E3680021186C1EF02BFAD9F80030032B92
:108C9000E36800F0B184586C00211EF021FAE3680B
:108CA0000021986C1EF01CFAE3680021586D1EF03C
:108CB00017FAE3680021986D1EF012FAE3680021AC
:108CC000586E1EF00DFAE3680021986E1EF008FA47
:108CD000E3680021D86E1EF003FAE3680021986F64
:108CE0001EF0FEF9E3680021D86F1EF0F9F9E36881
:108CF0000021D3F880001EF0F3F9E3680021D3F8D7
:108D000084001EF0EDF9E3680021D3F888001EF01E
:108D1000E7F9E3680021D3F88C001EF0E1F9E3687D
:108D20000021D3F890001EF0DBF9E3680021D3F8AE
:108D300094001EF0D5F9E3680021D3F898001EF0E6
:108D4000CFF9FBF755FE064608B32969E368002909
:108D5000D4BF00210121D3F89C001EF0C1F929697C
:108D6000E3680029D4BF00210121D3F8A0001EF040
:108D7000B7F9E3680021D3F8A4001EF0B1F9E36865
:108D80000021D3F8A8001EF0ABF9FFF745BBE3685C
:108D90003146D3F89C001EF0A3F9E3683146D3F8BE
:108DA000A0001EF09DF9E4E7E368D3F89C0031468B
:108DB0001EF096F9E3683146D3F8A0001EF090F952
:108DC0007DE5E3680021D3F880001EF089F9296968
:108DD000E3680029D4BF00210121D3F884001EF0EC
:108DE0007FF92AE53169E3680029D4BF0021012118
:108DF000D86F1EF075F93169E3680029D4BF0021EE
:108E00000121D3F888001EF06BF901E5E368002129
:108E1000586D1EF065F9E3680021986D1EF060F949
:108E20002969E3680029D4BF00210121D86D1EF013
:108E300057F92969E3680029D4BF00210121186E80
:108E40001EF04EF9B2E4E368964ED86800211EF099
:108E500047F9E3680021D3F8AC001EF041F9E3685C
:108E60000021D3F8B0001EF03BF9E3680021D3F8ED
:108E7000B4001EF035F9E3680021D3F8B8001EF005
:108E80002FF92969E3680029D4BF00210121D86A9C
:108E90001EF026F999F85010002940F0FB81E36894
:108EA000586B1EF01DF93169E3680029D4BF002119
:108EB0000121186B1EF014F9E3687A4ED86E002277
:108EC00006211EF0DDFCE3680022D86E05211EF0AD
:108ED000D7FC2969E3680029D4BF00210121986BE0
:108EE0001EF0FEF82969E3680029D4BF00210121A2
:108EF000D86B1EF0F5F82969E3680029D4BF00217A
:108F00000121186C1EF0ECF8E3680021586C1EF08B
:108F1000E7F8E3680021986C1EF0E2F82969E3683D
:108F20000029D4BF00210121586D1EF0D9F829690C
:108F3000E3680029D4BF00210121986D1EF0D0F80C
:108F4000E3680121586E1EF0CBF8E3680121986EAA
:108F50001EF0C6F82969E3680029D4BF0021012169
:108F6000D86E1EF0BDF82969E3680029D4BF00213E
:108F70000121986F1EF0B4F8E3680021D86F1EF04D
:108F8000AFF8D8F83030022B40F353823169E368F0
:108F90000029D3F88000D4BF002101211EF0A0F8E1
:108FA000E3680021D3F884001EF09AF8E368DFF844
:108FB000F480D3F8880000211EF092F82969E36854
:108FC0000029D4BF00210121D3F88C001EF088F8BD
:108FD000E3680021D3F890001EF082F8E3680121D5
:108FE000D3F894001EF07CF82969E3680029D4BF07
:108FF00000210121D3F898001EF072F8FBF7F8FC6D
:109000000646002800F00882D8F81010E36800290E
:10901000D4BF00210121D3F89C001EF061F8D8F8DC
:109020001010E3680029D4BF00210121D3F8A0006B
:109030001EF056F8E3680021D3F8A4001EF050F8A3
:10904000E3680021D3F8A8001EF04AF8E368002284
:10905000D86E11461EF014FCE3680022D86E012180
:109060001EF00EFCE3680022D86E02211EF008FC00
:10907000E3680022D86E03211EF002FCE36801229F
:10908000D86E04211EF0FCFBE3680022D86E052197
:109090001EF0F6FBE3680022D86E06211EF0F0FBFE
:1090A000FFF7BAB95859FF1F186A00211EF018F8C7
:1090B000E3680021586A1EF013F8E368002158683D
:1090C0001EF00EF8E3680021986A1EF009F8E368C4
:1090D0000021D86A1EF004F8E3680021186B1DF027
:1090E000FFFFE3680021586B1DF0FAFFE3680021E1
:1090F000986B1DF0F5FFE3680021D86B1DF0F0FFC1
:10910000E3680021186C1DF0EBFFE3680021586C48
:109110001DF0E6FFE3680021986C1DF0E1FFE368B5
:109120000021D86C1DF0DCFFE3680021186D1DF0F4
:10913000D7FFE3680021586D1DF0D2FFE3680021DE
:10914000986D1DF0CDFFE3680021D86D1DF0C8FFBC
:10915000E3680021186E1DF0C3FFE3680021586E1C
:109160001DF0BEFFE3680021986E1DF0B9FFE368B3
:109170000021D86E1DF0B4FFE3680021186F1DF0C8
:10918000AFFFE3680021586F1DF0AAFFE3680021DC
:10919000986F1DF0A5FFE3680021D86F1DF0A0FFB8
:1091A000E3680021D3F880001DF09AFFE3680021F6
:1091B000D3F884001DF094FFE3680021D3F8880001
:1091C0001DF08EFFE3680021D3F88C001DF088FFAE
:1091D000E3680021D3F890001DF082FFE3680021CE
:1091E000D3F894001DF07CFFE3680021D3F89800C9
:1091F0001DF076FFE3680021D3F89C001DF070FF9E
:10920000E3680021D3F8A0001DF06AFFE3680021A5
:10921000D3F8A4001DF064FFE3680021D3F8A80090
:109220001DF05EFFE3680021D3F8AC001DF058FF8D
:10923000E3680021D3F8B0001DF052FFE36800217D
:10924000D3F8B4001DF04CFFE3680021D3F8B80058
:109250001DF046FFE3680021D3F8C4001DF040FF75
:10926000E3680021D3F8C8001DF03AFFE36800214D
:10927000D3F8CC001DF034FFE3680021D3F8D00010
:109280001DF02EFFFFF7C8B8E368724ADB6F5A641F
:10929000FFF7C2B83169E3680029D4BF002101217A
:1092A000586B1DF01DFFE3680021186B1DF018FFBF
:1092B00002E63169E3680029D4BF00210121586B1F
:1092C0001DF00EFFE3680021186B1DF009FFFFF78A
:1092D000E0BBE3686049D3F8B0001EF0CDFAFFF7B9
:1092E00039B9E3680021D8681DF0FAFEE36800216F
:1092F000D3F8AC001DF0F4FEE3680021D3F8B00011
:109300001DF0EEFEE3680021D3F8B4001DF0E8FE86
:10931000E3680021D3F8B8001DF0E2FEE368002105
:10932000D86A1DF0DDFEE3680021586B1DF0D8FE01
:10933000E3680021186B1DF0D3FEE3680021986BF1
:109340001DF0CEFEE3680021D86B1DF0C9FEE36876
:109350000021186C1DF0C4FEE3680021586C1DF05C
:10936000BFFEE3680021986C1DF0BAFEE36800219F
:10937000586D1DF0B5FEE3680021986D1DF0B0FE3C
:10938000E3680021586E1DF0ABFEE3680021986E83
:109390001DF0A6FEE3680021D86E1DF0A1FEE36873
:1093A0000021986F1DF09CFEE3680021D86F1DF02E
:1093B00097FEE3680021D3F880001DF091FEE3687A
:1093C0000021D3F884001DF08BFEE3680021D3F860
:1093D00088001DF085FEE3680021D3F88C001DF0A5
:1093E0007FFEE3680021D3F890001DF079FEE3686A
:1093F0000021D3F894001DF073FEE3680021D3F838
:1094000098001DF06DFEE3680021D3F89C001DF06C
:1094100067FEE3680021C2E4E3680146D3F89C00DC
:109420001DF05EFEE3683146D3F8A0001DF058FE43
:1094300000E6E3680021D3F880001DF051FE316999
:10944000E3680029D4BF00210121D3F884001DF076
:1094500047FEABE53413FF1F3C22FF1FE3680021EA
:10946000D8681DF03DFEE3680021D3F8AC001DF084
:1094700037FEE3680021D3F8B0001DF031FEE36849
:109480000021D3F8B4001DF02BFEE3680021D3F8CF
:10949000B8001DF025FEE3680021D86A1DF020FE0B
:1094A000E3680121186B1DF01BFEE3680021586B77
:1094B0001DF016FEE3680021986B1DF011FEE368B5
:1094C0000021D86B1DF00CFEE3680021186C1DF024
:1094D00007FEE3680121586C1DF002FEE3680121DC
:1094E000986C1DF0FDFDE3680021586D1DF0F8FD3E
:1094F000E3680021986D1DF0F3FDE3680021586ECC
:109500001DF0EEFDE3680021986E1DF0E9FDE368B3
:109510000021D86E1DF0E4FDE3680021586F1DF0B6
:10952000DFFDE3680021986F1DF0DAFDE36800219C
:10953000D86F1DF0D5FDE3680021D3F880001DF041
:10954000CFFDE3680021D3F884001DF0C9FDE36876
:109550000021D3F888001DF0C3FDE3680021D3F893
:109560008C001DF0BDFDE3680021D3F890001DF0D4
:10957000B7FDE3680021D3F894001DF0B1FDE36866
:109580000021D3F898001DF0ABFDE3680021D3F86B
:109590009C001DF0A5FDE3680021D3F8A0001DF09C
:1095A0009FFD2969E3680029D4BF00210121D3F878
:1095B000A4001DF095FD2969E3680029D4BF0021AE
:1095C0000121D3F8A8001DF08BFDFEF725BF3169FE
:1095D000E3680029D4BF00210121D86F1DF080FD70
:1095E0003169E3680029D4BF00210121D3F8880044
:1095F0001DF076FDFFF78EBA586C01211DF070FD4D
:10960000E3680121986C1DF06BFDFFF74DBBE3682B
:109610000021D3F880001DF063FD2969E36800296B
:10962000D4BF00210121D3F884001DF059FDFFF7BC
:1096300086BA586B1DF054FDE3680121186B1DF0CC
:109640004FFDFEF796BFE3680021D8681DF048FD86
:10965000E3680021D3F8AC001DF042FDE36800216F
:10966000D3F8B0001DF03CFDE3680021D3F8B4004E
:109670001DF036FDE3680021D3F8B8001DF030FD81
:10968000E3680021D86A1DF02BFDE3680021586BC8
:109690001DF026FDE3680021186B1DF021FDE36835
:1096A0000021986B1DF01CFDE3680021D86B1DF0B4
:1096B00017FDE3680021186C1DF012FDE36801211D
:1096C000586C1DF00DFDE3680121986C1DF008FD3C
:1096D000E3680021586D1DF003FDE3680021986DDB
:1096E0001DF0FEFCE3680121D86C1DF0F9FCE36875
:1096F0000121186D1DF0F4FCE3680021586E1DF087
:10970000EFFCE3680021986E1DF0EAFC2969E3682C
:109710000029D4BF00210121D86E1DF0E1FC296988
:10972000E3680029D4BF00210121986F1DF0D8FC07
:10973000D9F83030062B04D0022B02DD3B68012B18
:109740004EDDE3680021D86F1DF0CAFCE3680021FC
:10975000D3F888001DF0C4FCD8F83030022B53DD5C
:109760002969E3680029D3F88000D4BF00210121D2
:109770001DF0B6FCE3680021D3F884001DF0B0FCB6
:109780002969E368DFF8A890D3F88C000029D4BFDA
:10979000002101211DF0A4FCE3680021D3F8900012
:1097A0001DF09EFCE3680121D3F894001DF098FCA5
:1097B000E3680021D3F898001DF092FCFBF718F93C
:1097C000E368064600283FF4F0AA0121FFF768B8D5
:1097D000E3681649D3F8B0001EF04EF8FEF7BABEA3
:1097E0002969E3680029D4BF00210121D86F1DF049
:1097F00077FC2969E3680029D4BF00210121D3F84F
:1098000088001DF06DFCA7E7E3680021D3F8800015
:109810001DF066FC2969E3680029D4BF00210121FD
:10982000D3F884001DF05CFCAAE700BF8C22FF1F68
:109830005859FF1FFFFFFFFF2DE9F04397B0044683
:10984000FAF7F2FF324BD3E900892FA3D3E90023C3
:109850004046494626F020F8002836D02D4E2E4BA3
:1098600071682E4A53F8211004F14C05284627F060
:1098700033F92B4AE368D2E900891B694046C3F8F3
:10988000CC5049460022274B26F006F8002830D15C
:10989000254B1A6802AF642A0CBF24492449CDE93C
:1098A0000089384627F018F97168224B04F16B05DE
:1098B0003A4653F82110284627F00EF9E3685B6911
:1098C000C3F8CC5017B0BDE8F0831B4B114E1A689B
:1098D0001A49CDE9008902A827F0FEF871680E4BFD
:1098E00004F14C0502AA53F82110284627F0F4F899
:1098F000BFE771680F4B094A53F8211004F16B055B
:10990000284627F0E9F8D9E7000000403333074044
:10991000285BFF1F5859FF1FD41FFF1F541F04004F
:109920003857FF1F00002440345BFF1F681F0400EE
:10993000741F04003415FF1FAC57FF1F581F04008D
:10994000F8B5436B0446362B40D8DFE813F04D00E2
:1099500065003F003F003700A1003F00A8003F0026
:109960003F00B5003F003F003F003F003F003F0089
:109970003F003F003F003F00CE00D800E200EF0074
:109980003F003F003F003F003F003F003F003F00DF
:109990003F003F003F003F003F003F003F003F00CF
:1099A000FC003F003F003F003F003F000001050179
:1099B000090111013F003F0015014900C368186902
:1099C0001DF0BEFF10B12046FFF736FF994D23680A
:1099D00020469B6998472046FEF744FC2868F8BD5E
:1099E000944D11232B60F2E7C36818681DF0A8FF9F
:1099F0000028EBD0904B8F4D1B68013B082B00F2E9
:109A00001681DFE813F011010E010B0108010501B9
:109A10000201FF00FC00F900884D00262E70FAF7C5
:109A200041FA854BDFED866A93ED067AD3ED077A2E
:109A30001969844A84485B69B8EEC77AF8EEE77A18
:109A400087EE266A01272F7082FB0175C917C1EBCB
:109A5000A5114568C4F8381182FB0372DB17C3EB0C
:109A6000A213012DC4F83C3187EEA67A84ED506A2A
:109A700084ED517A00F0B480426974496D4D02EB77
:109A8000420200EB8202183230461BF039FE9EE79C
:109A9000C36858691DF054FF002897D093E76A4BBC
:109AA0001B78002B00F08780694B624D18680121FC
:109AB00008301BF0D5F88AE7634D6B68012B00F086
:109AC00085802A69634E644903EB430313440020F5
:109AD00056F823201BF014FE2B69564D022B5F4BCA
:109AE0000CBF012200221A7071E7D0F83811524AD7
:109AF000504D4FF47A7303FB01F3136167E7D0F81D
:109B00003C114D4A4B4D4FF47A7303FB01F3536103
:109B10005DE7D0ED507A9FED4A7A474B454D67EEB1
:109B2000877AFDEEE77AC3ED067A50E7D0ED517AF9
:109B30009FED437A404B3F4D67EE877AFDEEE77A23
:109B4000C3ED077A43E73B4D0C232B603FE73E4ACA
:109B5000434B52681A6039E7364D0D232B6036E7C8
:109B600090F894307BBB002384F89430314D2EE77D
:109B7000304D0F232B602AE790F89530002B3FF4EF
:109B800025AF334D2868083019F0A8FC2C683549FA
:109B9000226800235668A4F8B830A4F8BA3012221C
:109BA0002046B047204621F0DBFF2868083019F036
:109BB000A1FC20F0F7FF264B1E4D1868FF2108304E
:109BC0001BF04EF803E7F9F7E1FFCCE72B69214AD8
:109BD00025490333002052F823201BF091FD7BE739
:109BE00043692249134D03EB430300EB8302183210
:109BF00030461BF085FDEAE612232B60E7E60A23D8
:109C00002B60E4E60E232B60E1E609232B60DEE601
:109C100006232B60DBE608232B60D8E607232B60A6
:109C2000D5E605232B60D2E604232B60CFE6032381
:109C30002B60CCE60466FF1FB059FF1F4021FF1FB9
:109C400000007A44D34D62105859FF1F90B80300AA
:109C5000C85BFF1F5417FF1F60B803006857FF1F42
:109C60001466FF1F841F040078B80300A8B803001F
:109C700010B5044684B0114621F0F0FFA368142B00
:109C80000ADC06D00D49204622F068F8A368132BA1
:109C9000F8DD204604B010BD14230022684621469A
:109CA00022F0A0F86946204622F018F8684621F014
:109CB00081FFA368132BE5DDEBE700BFF44404004C
:109CC0002DE9F047D0F83431D0F83041D0F8348065
:109CD0001C1B24118AB007465ED0D0F83C31002B03
:109CE000C0F29C80E21A032A49DCA4F1060A7A63D6
:109CF0002AEAEA7A013C07F14C09260101252CE009
:109D00001FF098FBD7F8301104A8314421F0A6FFCA
:109D100004AA39466846FFF7ABFF04A821F04AFFC2
:109D20000023152204A9684622F042F804A94846F7
:109D300026F04CFFFB68012153F825001DF0D0F9F7
:109D40007D62684621F036FF0135072D04F1FF34AE
:109D500009F11609A6F1100644D0A2454FF00202FF
:109D600032494846CCDD1422314948461FF062FB97
:109D7000FB68002153F825001DF0B2F9E4E7022B3F
:109D800046DC052CD4BF04F1FF340524E31A01336B
:109D900043634FF0000AAEE7264A274B52684C3027
:109DA00053F8221027F00AF9FB68012158681DF0CA
:109DB00097F90824FB680021185904341DF090F924
:109DC0001C2CF7D1B8F1000F05DBFB68002153F81C
:109DD00028001DF055FAFA68002310687B63012102
:109DE0001DF04EFAB8F1060F0BD97B6B062B05D888
:109DF000FA68012152F823001DF042FA0AB0BDE8CA
:109E0000F087FB68002153F828001DF039FAECE7D1
:109E1000032242639C1CA3F1020A6CE7A4F1070A27
:109E2000002343632AEAEA7A013C64E7F44404002D
:109E3000981F04005859FF1FE021FF1F012910B58A
:109E400003461ED0022918D1D0F83C21013AC0F8AF
:109E50003C21013208DAD0F83421D0F83011521AFE
:109E60001211013AC0F83C211C461846FFF728FFA2
:109E700020461BF0F1F8002010BDBDE810401BF09B
:109E800079B9D0F83C21D0F83411D0F83001013242
:109E9000091AB2EB211FC3F83C21E5DB4FF0FF327A
:109EA000C3F83C21E0E700BF10B50446F9F794FD84
:109EB000064B23600023236584F85D30236684F815
:109EC000643084F85C30204610BD00BFD41A040012
:109ED0002DE9F04F81468FB0F9F77EFD4A46C34B1E
:109EE00042F8943B09F1A800C14B0B92014642F89D
:109EF000043F824241F8043F03F10C03F7D1D02024
:109F000021F0A4FF00240EAEBA4B019401220546B5
:109F10000094B949DFF880831DF0F2FC46F8045D37
:109F200009F10C0731463846F7F712FDDC2021F025
:109F30008DFF09F19801039105210291AF4AB049C3
:109F4000019123460092059401220494AD490546EF
:109F50001DF064FC314638460D95F7F7F9FCDC201E
:109F600021F074FFA849A94A03910A2123468DE8EC
:109F700004010291012205940494A54905461DF0AF
:109F80004DFC314638460D95F7F7E2FCDC2021F018
:109F90005DFF08F5AE7E9F499F4ACDF804E00A2395
:109FA00002930391234600920594012204949B4955
:109FB00005461DF033FC314638460D95F7F7C8FCD1
:109FC000D02021F043FF964B019401220094954943
:109FD00005461DF095FC314638460D95F7F7B8FC5F
:109FE000D02021F033FF904B0194012200948F493F
:109FF00005461DF085FC314638460D95F7F7A8FC5F
:10A00000E02021F023FF8A4B029401228DE8180002
:10A010008849894B05461DF067FD314638460D9548
:10A02000F7F796FCD42021F011FF754B834A00927C
:10A03000A3F1140101910123814902911A4604946C
:10A040000394804905461DF03FFC314638460D9586
:10A05000F7F77EFCD42021F0F9FE7B4B019401221E
:10A0600000947A4905461DF073FC314638460D953B
:10A07000F7F76EFCD82021F0E9FE754B029401221F
:10A0800001940094734905461DF018FD3146384689
:10A090000D95F7F75DFCDC2021F0D8FE584B6E499A
:10A0A0000391043B6D4A01930321234602910092E0
:10A0B0000594012204946A4905461DF0AFFB314620
:10A0C00038460D95F7F744FCD42021F0BFFE08F187
:10A0D000500E01236349644ACDF804E002910092D6
:10A0E00004941A460394614905461DF0EDFB314680
:10A0F00038460D95F7F72CFCE02021F0A7FE08F17B
:10A1000058030125009305226323019202932A46F6
:10A11000574B059404940395564982461DF0FEFA68
:10A1200031463846CDF834A0F7F712FCE02021F094
:10A130008DFE08F154026FF01D016FF06D03009267
:10A1400002912A46019305944B4B04940395494987
:10A1500082461DF0E3FA31463846CDF834A0F7F7D1
:10A16000F7FBD42021F072FEDFF830E14349CDF84F
:10A1700008E008F15D032A46019300912B46049400
:10A1800003943F4982461DF09FFB31463846CDF887
:10A1900034A0F7F7DDFBE02021F058FE9FED391ADF
:10A1A000029408F160032A46B0EE410AF0EE000A7C
:10A1B0008DE818003449354B82461DF0F3FA3146DC
:10A1C0003846CDF834A0F7F7C3FBE02021F03EFE7F
:10A1D0009FED2F1ADFED2F0A029408F16403B0EE11
:10A1E000410A2A468DE818005AE000BF141C0400FA
:10A1F0007059FF1F8C0CFF1FC81B0400841AFF1F1F
:10A200006C59FF1F881C04005418FF1FC41FFF1F38
:10A210002C1B0400C41DFF1FAC0CFF1F081B0400F7
:10A22000D41FFF1F781904003415FF1FF419040010
:10A230004C430400181E0400F41AFF1FA41CFF1F47
:10A240002C0FFF1F441E0400B41FFF1F301E04000C
:10A250001C0FFF1F841D04005417FF1F0419FF1F4C
:10A26000E01B0400F414FF1F541FFF1F601A0400BA
:10A270001412FF1F701D0400041DFF1F741BFF1F1D
:10A280005C1C0400CDCC4C3E301D04004418FF1F64
:10A29000CDCCCC3D6666663FB059FF1F241FFF1F23
:10A2A000CC49CD4B82461DF07DFA31463846CDF87B
:10A2B00034A0F7F74DFBD82021F0C8FD08F10403C6
:10A2C0002A468DE818000294C44BC54982461DF009
:10A2D000F5FB31463846CDF834A0F7F739FBD820E6
:10A2E00021F0B4FD08F10A032A468DE81800029413
:10A2F000BC4BBD4982461DF0E1FB31463846CDF8E6
:10A3000034A0F7F725FBF82021F0A0FD08F1280282
:10A3100044F250638DE8240021462A4602930494B7
:10A32000B24B039482461DF03DFE31463846CDF8CF
:10A3300034A0F7F70DFBF82021F088FD08F12C027E
:10A340004AF6C0038DE8240021462A46029304946D
:10A35000A74B039482461DF025FE31463846CDF8C2
:10A3600034A0F7F7F5FAE02021F070FD4FF0960BDE
:10A3700009F59C732A46CDF808B0009305949D4BCF
:10A380000494039501959C4982461DF0C7F9314616
:10A390003846CDF834A0F7F7DBFAE02021F056FD7F
:10A3A00009F59E732A46CDF808B000930594934BA7
:10A3B000049403950195924982461DF0AFF9314608
:10A3C0003846CDF834A0F7F7C3FAE02021F03EFD7F
:10A3D0009FEDA31ADFED8B0A029409F5A0732A46BC
:10A3E000B0EE410A00930194874B884982461DF0E4
:10A3F000D9F931463846CDF834A0F7F7A9FAE0206C
:10A4000021F024FD9FED961ADFED7E0A029409F5F6
:10A41000A273B0EE410A2A46009301947C4B7D4919
:10A4200082461DF0BFF931463846CDF834A0F7F723
:10A430008FFAE02021F00AFD08F120036322029246
:10A4400000932A46744B039501950594049473492F
:10A4500082461DF063F931463846CDF834A0F7F74F
:10A4600077FAE02021F0F2FC08F1240240F2E73311
:10A47000009202932A466A4B039501950594049431
:10A48000684982461DF04AF931463846CDF834A075
:10A49000F7F75EFADC2021F0D9FC6349039108F15B
:10A4A00030034FF0070A614901932A462346CDF84D
:10A4B00008A00091059404945D4983461DF0AEF90F
:10A4C00031463846CDF834B0F7F742FADC2021F0B7
:10A4D000BDFC554A039208F13403544ACDF808A054
:10A4E000009201932A4623460594049450498346DA
:10A4F0001DF094F931463846CDF834B0F7F728FA14
:10A50000DC2021F0A3FCDFF850E14A49CDF80CE053
:10A5100008F5AA730322029201932A46234600916A
:10A5200005940494444982461DF078F93146384632
:10A53000CDF834A0F7F70CFADC2021F087FCDFF827
:10A540001CE13E49CDF80CE008F1380305220292E7
:10A5500001932A4623460091059404943849824683
:10A560001DF05CF931463846CDF834A0F7F7F0F924
:10A57000D42021F06BFC08F13C033249324A0292AC
:10A5800001932A462B460091049403942F49824656
:10A590001DF09AF931463846CDF834A0F7F7D8F9CE
:10A5A000E02021F053FC08F1400219238DE814004B
:10A5B00002932A46264B0395059404942549824626
:10A5C0001DF0ACF831463846CDF834A0F7F7C0F9A5
:10A5D0004AE000BF98190400E41AFF1F4415FF1F4A
:10A5E000D41D0400E41EFF1FF81B04005420FF1FAD
:10A5F000F415FF1F3418FF1F481D0400B417FF1F78
:10A60000481C0400000040422411FF1FF01C0400FD
:10A61000B414FF1F381A04009417FF1F8C1A04008B
:10A62000741CFF1F241A04007021FF1FB410FF1FA9
:10A630005C1D04002415FF1F041D0400A41EFF1F41
:10A64000B01904003413FF1F2C0FFF1F80190400E2
:10A65000841EFF1F9C1B04005413FF1FDC22FF1FDE
:10A66000CDCCCC3D00000000E02021F0EFFB08F550
:10A67000B6731FED051A1FED050A0294F3EE090AE1
:10A680002A468DE81800C649C64B82461DF08AF856
:10A6900031463846CDF834A0F7F75AF9DC2021F0DE
:10A6A000D5FBDFF888E3C049CDF80CE008F5AC73C2
:10A6B0000322029201932A462346009105940494B2
:10A6C000BA4982461DF0AAF831463846CDF834A082
:10A6D000F7F73EF9D42021F0B9FB08F14503B4495E
:10A6E000B44A029201932A462B46009104940394A3
:10A6F000B149DFF83CA383461DF0E6F83146384601
:10A70000CDF834B0F7F724F9D42021F09FFB08F1FD
:10A710004403AA49A74A029201932A46234600917C
:10A7200004940394A64983461DF0CEF8314638467A
:10A73000CDF834B0F7F70CF9D82021F087FB08F1F9
:10A7400046030522019200932A469E4B08940794E3
:10A75000069505950494039502949B4983461CF045
:10A76000AFFF31463846CDF834B0F7F7F1F8E020C6
:10A7700021F06CFB08F14C038DE8280008232A46E1
:10A7800002930594914B04940395914983461CF0E0
:10A79000C5FF31463846CDF834B0F7F7D9F8E02098
:10A7A00021F054FB08F16C020A214FF4616303911C
:10A7B0000191009202932A46864B0594049486499F
:10A7C00083461CF0ABFF31463846CDF834B0F7F77E
:10A7D000BFF8D42021F03AFB08F168037F490193C8
:10A7E0002A462346CDF808A00091049403947C499E
:10A7F00083461DF069F831463846CDF834B0F7F796
:10A80000A7F8D02021F022FB2A46764B0194009431
:10A81000754983461DF074F831463846CDF834B09A
:10A82000F7F796F8D42021F011FB08F5A8736F49CB
:10A83000CDF808A02A46019300912346049403947E
:10A840006B4983461DF040F831463846CDF834B0A8
:10A85000F7F77EF8E02021F0F9FA08F5B07232231C
:10A860008DE8240002932A46624B059404940395D4
:10A87000614982461CF052FF31463846CDF834A07B
:10A88000F7F766F8DC2021F0E1FADFF8A8E15B4990
:10A89000CDF80CE008F5B2730522029201932A4626
:10A8A0002346009105940494554982461CF0B6FF56
:10A8B00031463846CDF834A0F7F74AF8E02021F0C9
:10A8C000C5FA08F5B4730A2202928DE818002A46E8
:10A8D0004C4B0594049403954B4982461CF01EFF93
:10A8E00031463846CDF834A0F7F732F8DC2021F0B5
:10A8F000ADFADFF844E14549CDF80CE008F5B8734E
:10A900000322029201932A4623460091059404945F
:10A910003F4982461CF082FF31463846CDF834A0CC
:10A92000F7F716F8DC2021F091FA3A4BDFF80CE14A
:10A930003949CDF80CE04FF0040A103B2A46019348
:10A940000091234605940494CDF808A0334983462A
:10A950001CF064FF31463846CDF834B0F6F7F8FF06
:10A96000D02021F073FA2A462D4B019400942D49F2
:10A9700083461CF0C5FF31463846CDF834B0F6F7B3
:10A98000E7FFD42021F062FA0A4B029326490B9B81
:10A9900001932A46234600910494039450E000BF9B
:10A9A000881B0400FC0EFF1F241CFF1F1C1D04003D
:10A9B0001415FF1F2C0FFF1FC8190400141AFF1FC6
:10A9C000A01A04000C0DFF1F441B0400441DFF1FB0
:10A9D000781A0400641BFF1F741B0400141FFF1F60
:10A9E000B41A0400A41DFF1FD01B0400941EFF1FF7
:10A9F000B01B0400041CFF1F4C1A0400C41EFF1FE0
:10AA0000E01904001419FF1F101A0400941BFF1F03
:10AA1000A01C04006C59FF1FE41BFF1F5C1B0400FB
:10AA2000E415FF1F141E04003C0EFF1F2C23FF1F04
:10AA3000641AFF1FEC21FF1F3416FF1F7415FF1F40
:10AA4000534983461CF040FF31463846CDF834B0B8
:10AA5000F6F77EFFD02021F0F9F92A464D4B0194FC
:10AA600000944D4983461CF04BFF31463846CDF8E3
:10AA700034B0F6F76DFFD42021F0E8F908F5A9739A
:10AA800001934649464B02932A462346009104947B
:10AA90000394444983461CF017FF31463846CDF8ED
:10AAA00034B0F6F755FFDC2021F0D0F93E4BDFF84B
:10AAB00018E13E49CDF80CE0083B082202920193D0
:10AAC0002A462346009105940494394980461CF097
:10AAD000A5FE31463846CDF83480F6F739FFD4204C
:10AAE00021F0B4F933492E4B029309F1950E8DE80C
:10AAF000024023462A46049403942F4980461CF0C2
:10AB0000E3FE31463846CDF83480F6F721FFD020F9
:10AB100021F09CF92A46294B01940094284980464B
:10AB20001CF0EEFE31463846CDF83480F6F710FFC3
:10AB3000D9F80C3051462246186F1CF0A1FED9F806
:10AB40000C302246186F05211CF09AFED9F80C3003
:10AB50002246186F06211CF093FED9F80C302246CD
:10AB6000D3F8BC0002211CF08BFED9F80C30224631
:10AB7000D3F8BC0003211CF083FE124B89F89440EB
:10AB8000484689F895401C700FB0BDE8F08F00BFB3
:10AB9000701C0400C41CFF1F141E04001C0DFF1FAA
:10ABA0002C0FFF1F001E04006C59FF1FB41AFF1F5B
:10ABB000141B04006415FF1FF8190400B41CFF1FC8
:10ABC000182104001557FF1F7C0FFF1F2DE9F04FC0
:10ABD00007468DB08046F8F7FFFE554B47F80C3B13
:10ABE000D02021F033F900240CAE524B524901948D
:10ABF0000122054600941CF083FE46F8045D3846A9
:10AC00003146F6F7A5FED82021F020F9DFF844916F
:10AC1000089401254FF00B0A08F160032A460093BF
:10AC20004946464B0794049402940695059503956E
:10AC3000CDF804A083461CF043FD31463846CDF8DC
:10AC40002CB0F6F785FED82021F000F908F16C034E
:10AC50002A468DE808044946394B0894079406951E
:10AC6000059504940395029483461CF029FD314612
:10AC70003846CDF82CB0F6F76BFED82021F0E6F878
:10AC800008F178032A468DE8080449462D4B0894BC
:10AC900007940695059504940395029483461CF049
:10ACA0000FFD31463846CDF82CB0F6F751FED820CE
:10ACB00021F0CCF808F184032A4649460093CDF8E8
:10ACC00004A0214B089407940695059504940395D8
:10ACD000029483461CF0F4FC31463846CDF82CB083
:10ACE000F6F736FED02021F0B1F82A46174B019432
:10ACF0000094114981461CF003FE31463846CDF8D8
:10AD00002C90F6F725FED02021F0A0F82A46104B13
:10AD100001940094084981461CF0F2FD3846314602
:10AD2000CDF82C90F6F714FE40460DB0BDE8F08F3C
:10AD3000BC1C04004420FF1FD81B0400AC0DFF1FE7
:10AD4000BC0DFF1FCC0DFF1FDC0DFF1F5415FF1F97
:10AD50003420FF1FE81D04002DE9F04F82468BB020
:10AD6000F8F73AFE00242A4BCAF80030CAF83041FE
:10AD7000CAF83441CAF83841D02021F067F80DF103
:10AD800028080546234B24490194012200941CF015
:10AD9000B7FD48F8185D0AF10C0B58464146F6F726
:10ADA000D7FD0AF14C052F460AF1D006D02021F03C
:10ADB0004DF80023012201930093174933461444B0
:10ADC00081461CF09DFD03A95846CDF80C90F6F77E
:10ADD000BFFD22461149404625F07EFE38464146D9
:10ADE00026F0ECF8062C06F1100607F11607DDD167
:10ADF00053460AF16002C3F8D050C3F8D450103360
:10AE0000934205F11605F6D150460BB0BDE8F08F20
:10AE1000A01D04004420FF1FD81B0400AC1F040029
:10AE20002DE9F04790E850000746301B5FEA2018F4
:10AE30008A463CD04FEA480398453BD96FF00F084B
:10AE4000404621F003F897E850008146804400F125
:10AE50001005301B19EB000004D0514620F032FFE2
:10AE600097E85000B44217D04D462146284610348A
:10AE70000DB120F0F3FEB44205F11005F5D197E8CD
:10AE80005000B44205F1100506D02046103420F0E1
:10AE900091FEA642F9D13E6816B1304620F0DAFFA5
:10AEA000C7F800907D60C7F80880BDE8F0874FF0D4
:10AEB0001008C5E7B3F1805FC0D21BB99846994628
:10AEC0001025C7E74FEA4818BAE700BF814238D0DB
:10AED0002DE9F04300F110068E4285B029D0894655
:10AEE000804600F1200741463046344620F05AFFA4
:10AEF00010B3C8EB06053146684620F0E3FE0F2D7F
:10AF0000C8BF751B07DDA4F1100120460C4620F0D8
:10AF1000E5FEA542F7D16946404620F0DFFE6846CF
:10AF200020F048FE3B464B4506F1100607F110079E
:10AF3000D9D105B0BDE8F0833046FCF7D7FD3B46DC
:10AF4000F1E770472DE9F04F02F1FF3909EBD979AC
:10AF500087B04FEA69094945009288460746019340
:10AF600061DA8A4600E0A2460AF101064FEA460B82
:10AF70000BF1FF3407EB041507EB46162946304664
:10AF800020F010FF002804BF35465C4607EB0A108E
:10AF9000294620F0A3FE4C45E5DB009BDA0707D4E9
:10AFA000009BA3F1020B0BEBDB7BB4EB6B0F30D000
:10AFB00002AE0199304620F085FE444509DC314659
:10AFC000284620F08BFE304620F0F4FD07B0BDE8A7
:10AFD000F08F04F1FF3909EBD9794FEA690907EBE2
:10AFE00009153146284620F0DDFE294610B907EB49
:10AFF0000415E4E707EB041020F070FE09F1FF33BD
:10B0000003EBD373C8454FEA6303D8DA4C4699463D
:10B01000E5E76400013407EB04162846314620F0CA
:10B020005DFE3546C4E7009BDB0703D400EB01154A
:10B030000C46B5E702AE0199304607EB081520F043
:10B0400041FEBCE72DE9F04F0B1A8FB0B3F5887FB6
:10B050000392C0F2DD800446002A00F08D8000F1EA
:10B060001003049300F1200389460D460AAF0593AF
:10B070002D1B2B1103EBD3735D10039B049804EB82
:10B0800005152946013B039320F08CFEA9F110061B
:10B09000314600284ED0284620F084FE002869D191
:10B0A0003146049820F07EFE214600285DD03846C7
:10B0B00020F008FE3146204620F010FE394630468A
:10B0C00020F00CFE384620F075FD059ECB46A6F11B
:10B0D000100528462146A84620F064FED8B9ABF1F9
:10B0E000100A5146204620F05DFED346AAF1100A10
:10B0F0000028F6D15D4510D22946384620F0E2FD01
:10B100005946284620F0EAFD3946584620F0E6FD2B
:10B11000384620F04FFD1036D9E74946039A2846B5
:10B12000FFF790FF2B1BB3F5887F71DB039A2AB3DF
:10B13000A9469DE7049820F035FEA8B93146284677
:10B1400020F030FE21460028B1D1384620F0BAFD6B
:10B150002946204620F0C2FD3946284620F0BEFD93
:10B16000384620F027FDB0E72146384620F0AAFDFA
:10B17000049DEDE72146E8E788460AAF1D11AE1EA3
:10B18000761004EB061902E0013E20F013FD49465B
:10B1900006A820F097FD06A9384620F093FD4FF051
:10B1A00000038DF800302A463B4631462046FFF723
:10B1B000C9FE384620F0FEFCA9F1100906A8002EB1
:10B1C000E2D106A820F0F6FCA8F11008414606A836
:10B1D00020F078FD2146404620F080FD06A9384643
:10B1E00020F070FDC4EB08054FF000032A11002188
:10B1F0008DF8003020463B46FFF7A4FE384620F08D
:10B20000D9FC06A820F0D6FC1F2DA8F11008DDDC23
:10B210000FB0BDE8F08F00BF2DE9F041D0F83071DC
:10B22000D0F83461B742D4B0054618BF3C4605D0CB
:10B230002046103420F0BEFCA642F9D16B4B6C4A7C
:10B240001968C5F8347100234FF47A708DF8B43062
:10B250008DF8BC303E933F938DF804318DF80C315E
:10B26000529353932E9042902C92409244AC0029DA
:10B2700065D020465F4A15F03BFC00285FD00022D5
:10B28000214630A8002615F073FC002843D03E98D4
:10B290008DF81060002857D0502204A914F0DEF970
:10B2A00004A918A825F08AFE18A825F057FF5249CE
:10B2B00004A825F019FD20B33E9B002B4CD01B7831
:10B2C00013F0700F14BF01230023D3B918A84B4902
:10B2D00026F04EF9A8B104A9684620F0ABFCD5F8D9
:10B2E0003401D5F83831984279D020B1694620F040
:10B2F000E9FCD5F834011030C5F83401684620F077
:10B3000059FC30A815F0B0FB0022214630A815F0FA
:10B310002FFC0028BBD1D5F83081D5F83471C8EBAB
:10B320000706331123D12046354C409415F09CFB81
:10B3300030A82C9415F098FB54B0BDE8F081314949
:10B34000314820F029FC9AE73F980028A8D05022E5
:10B3500004A911F0CFF9A3E73F9B002BB6D093F8D7
:10B36000313013F0500F14BF01230023ADE7B8456F
:10B3700021D0B3FA83F3C3F11F025200394640468D
:10B38000FFF760FEB6F5887F19DB08F5807640464A
:10B3900031464FF00002FFF799FDB74215D0304615
:10B3A0001036FCF7A3FBB742F9D1D5F83431D5F804
:10B3B00030219B1A1B11013BC5F83C31B3E73946DC
:10B3C00040464FF00002FFF781FDD5F83431D5F843
:10B3D00030219B1A1B11013BC5F83C31A3E769469C
:10B3E00005F59870FFF71CFD88E700BFE860FF1FB8
:10B3F000C8FC0300101F0400BC1F0400B0160400AA
:10B40000A4FC0300D81F0400882AFF1F10B50446BF
:10B41000FBF786FB2046FFF7FFFE0023A3622046D2
:10B42000BDE81040FEF74CBC03682DE9F047DFF89B
:10B4300070815B69DFF86C91514F06469847D8F8E8
:10B440000000083018F04AF8D9F804204D4BD8F81D
:10B45000004053F822A00025A4F8B850A4F8BA5030
:10B46000504625F00DFE2368024651465B68204693
:10B470009847204620F074FBD9F80420424BD8F8B6
:10B48000004053F82290A4F8B8500A23A4F8BA3028
:10B49000484625F0F5FD2368024649465B6820468C
:10B4A0009847204620F05CFBD8F80000083018F0E0
:10B4B00021F8C6F88C5017F071FCC6F890003046A1
:10B4C000FEF7BAF9F3683A689969052A4FF0010363
:10B4D0004B7203D8934013F0260F48D12B4D06F141
:10B4E000C00406F1FC082946204625F067FD2946E0
:10B4F00004F13C000C3425F061FD444505F10C05D8
:10B50000F1D197ED067AD7ED077ADFED216A3A6936
:10B510007B692049B8EEC77AF8EEE77A87EE266AAB
:10B5200081FB024081FB0341D217DB17C3EBA11360
:10B53000C2EBA012C6F83C31C6F83821304687EE7F
:10B54000A67A86ED506A86ED517AFCF78BFE124B97
:10B55000197821B9F368D3F8D0001BF0C1FD00239E
:10B5600086F838303046BDE8F04719F00FBC0B4B79
:10B570001B68012B01D03D60B0E706233B60ADE7BF
:10B58000B059FF1F1C10FF1F741EFF1F7059FF1FB3
:10B5900000007A44D34D62106857FF1F5059FF1FB7
:10B5A000C85BFF1F5859FF1F70B50E4D0646F8F7D0
:10B5B000EDFF2C68052C04D80123A34013F02E0FB7
:10B5C00004D1304619F0D6FB2C6070BD064B1B68C9
:10B5D000012B0CBF0623002330462B6019F0CAFB59
:10B5E0002C6070BDB059FF1F5059FF1F70B5044645
:10B5F00082B0FBF795FA3D23E364104A104900201E
:10B600001AF07EF80F4B1B680025022B656513DDD1
:10B610004FF4077020F01AFC0646F7F753FD266535
:10B6200030462A462946F7F7A7FD074B1B680193CA
:10B63000019B03F57A73636502B070BD681E040058
:10B64000042004005059FF1F7466FF1FF8B506461A
:10B65000EC3006F007FDD6F8D870D6F8DC50AF42D3
:10B6600018BF3C4605D02046103420F0A3FAA5426E
:10B67000F9D1C6F8DC703046BDE8F840FBF784BA73
:10B6800030B585B004460146684620F01BFB103CEF
:10B6900003E0284620F022FB103C2146684620F0BB
:10B6A00081FB04F1100521460028F2D169462846A5
:10B6B00020F014FB684620F07DFA05B030BD00BFD5
:10B6C0002DE9F041044682B00120F9F77BF807EE3E
:10B6D000900A94ED197AE36DF8EE676AF2EE047A57
:10B6E000E6EE877A022BE368C4ED187A4ED05869EB
:10B6F00001211BF0F5FCE368002198691BF0F0FCC8
:10B70000E36C012B38D02D4F2D493868DFF8B88015
:10B71000083018F031FC04F5CE463D685422002371
:10B720006C36A5F8B820A5F8BA30304625F0A8FC4C
:10B730002B6802465B68314628469847386821499D
:10B74000083018F019FCD8F800300093009AD4F8AB
:10B75000E8309A420DD9F9F767F8D8F8003001932C
:10B76000019B03F5EA433033C4F8E8300120F8F7D1
:10B77000C1FF02B0BDE8F08194F8F430CBB1D4F849
:10B780000822B4F80C326265A365BCE75869002151
:10B790001BF0A6FCE368012198691BF0A1FCE36C97
:10B7A000012BB0D194ED180A04F1EC0006F0CEFCA8
:10B7B000A6E7E3646365A365A5E700BFC85BFF1F59
:10B7C000A07804002C8404007466FF1F46F28C22CB
:10B7D0004BF680338158994270B504460CD04ADC50
:10B7E00046F2A813994258D07ADDB1F5164F54D0DD
:10B7F0004AF6444399427AD1E56D6B1E012B7DD800
:10B8000000231D46E3651E464BF67F339942DCBF9D
:10B8100001EB810149002A4604F1EC0006F0CAFB65
:10B82000D4ED3E7A9FED3D7AD4F804322365F8EEEC
:10B83000E77AC7EE876A002E44D0F2EE047A66EE0D
:10B84000A77A17EE900A23F061FD024604F5CE4078
:10B850000B466C30324925F03FF9E368002D34D1B6
:10B86000586901211BF03CFCE36829469869BDE852
:10B8700070401BF035BC2B4B99420ED007DC2A4B95
:10B880009942B9D0294B994231D1012206E0284B87
:10B89000994202D0274B994229D10022E56D6B1EB7
:10B8A000012B34D99DBB012652BB0123E365224BFA
:10B8B000994205DD214BCA1783FB0131C2EBA1017F
:10B8C0000025A8E716EE900ABDE7586900211BF095
:10B8D00007FCE36801219869BDE870401BF000BCDB
:10B8E000B1F5964FD9D045F6C053994284D0E56D55
:10B8F0006B1E012B84D975B92E46D6E75DB92E464D
:10B900000025A5F10205B5FA85F56D097CE701264C
:10B91000012DF6D1CBE70026FAE700BF00007A44FC
:10B920002C21040090D003000077010000EE0200FB
:10B9300000DC050020A1070030E6020067666666AD
:10B94000D0F8D810D0F8DC305B1A1B1127D0D0F813
:10B95000E4209A4223DA254B1B7870B504466BB17C
:10B960001301234DCB5823482349002B08BF2B46F6
:10B9700020F012F9D4F8E420D4F8D8101C4D1201AC
:10B9800004F1EC0689583046002908BF294606F024
:10B99000CBFA30B12046FFF719FF012070BD00201F
:10B9A00070474FF4FA701EF091FAD4F8E430D4F8EE
:10B9B000D8201B013046D158002908BF294606F07F
:10B9C000B3FA0028E6D10D4BD4F8D8205B68012BE0
:10B9D000D4F8E4300CBF0A490A491B01D258002AA6
:10B9E00008BF2A4619F08CFE002070BD6857FF1F63
:10B9F000B2A00400882AFF1F342104005859FF1FF9
:10BA0000E0B70300B4B7030038B50D4BD0F8D82029
:10BA10005B680C4D012BD0F8E4300CBF0A490B4990
:10BA20001B010446D2580020824208BF2A4619F062
:10BA300067FE04F1EC0006F0CFFC0123E36438BD9F
:10BA40005859FF1FB2A004009CB7030088B7030039
:10BA5000084B5B6810B5012B04460CBF064907492B
:10BA6000002019F04DFE04F1EC0006F0FBFA002373
:10BA7000E36410BD5859FF1F6CB7030054B70300AF
:10BA800010B5044684B0114620F0E8F8A368142BE2
:10BA900011DD182B1BDC684614230022214620F000
:10BAA000A1F96946204620F019F9684620F082F88D
:10BAB000204604B010BD104A143B9342F8D90F49F8
:10BAC000204620F04BF9A368132BF8DDF0E7043B88
:10BAD00000226846214620F085F96946204620F07C
:10BAE000FDF8684620F066F8A2686846143A2146D8
:10BAF00020F09CF9D5E700BFEBFFFF7FF444040082
:10BB00002DE9F047D0F8DC30D0F8D840D0F83490A8
:10BB10001C1B24118AB0804672D0D0F8E430E21A9F
:10BB2000032A53DC1346A4F1050A063343632AEAC9
:10BB3000EA7A013C08F1680627010725A2454FF083
:10BB400002024C4930464EDC1DF074FCD8F8D81087
:10BB500004A8394420F082F804AA41466846FFF759
:10BB60008FFF04A820F026F80023152204A96846B8
:10BB700020F01EF904A9304625F028F8D8F80C303A
:10BB8000012153F825001BF0ABFAC8F82450684691
:10BB900020F010F801350C2D04F1FF3406F11606E3
:10BBA000A7F11007CAD1A9F10703042B54D9D8F87B
:10BBB0003430DA1F042A06D8D8F80C20012152F8B4
:10BBC00023001BF05DFB0AB0BDE8F087022B4BDCC5
:10BBD000042CD4BF04F1FF340424E31A0733436375
:10BBE0004FF0000AA6E71422234930461DF022FC3C
:10BBF000D8F80C30002153F825001BF071FAC9E782
:10BC00001E4A1F4B5268683053F8221025F0D6F9AF
:10BC1000D8F80C300121D8691BF062FA2024D8F83A
:10BC20000C300021185904341BF05AFA302CF6D18C
:10BC3000B9F1000F06DBD8F80C30002153F82900C9
:10BC40001BF01EFBA9F107034FF0FF32042BC8F8CD
:10BC50003420C8F8E420B6D8D8F80C30002153F8C6
:10BC600029001BF00DFBA2E7092242639C1CA3F1F3
:10BC7000020A5FE7F4440400981F04005859FF1FAC
:10BC8000641EFF1F38B54B1E0446062B4ED8DFE856
:10BC900003F01936404D4D040600012038BDD0F8A0
:10BCA000DC30D0F8D800181A001143D0D4F8E430B2
:10BCB000002B3DDBE56C002D3DD12046FFF7A4FEB7
:10BCC000284638BDC36C002B3AD1D0F8DC30D0F810
:10BCD000D810D0F8E4205B1A1B1101329A42A8BF99
:10BCE00003F1FF33C0F8E420A8BFC0F8E4302046D9
:10BCF000FFF706FF2046FFF723FE002038BDC36C88
:10BD000063BBD0F8E430013B48BF0023C0F8E43007
:10BD1000EDE7C36C012B30D0C36D0133022BC8BFDC
:10BD20000023C365FFF752FD002038BD19F022FA49
:10BD3000002038BD38BD2046FFF78AFE002038BD00
:10BD40000A220121EC3006F0B3F978B1D4F80822C8
:10BD5000B4F80C326265A365002038BD0A224FF0AA
:10BD6000FF31EC3006F0A4F90028EFD12046FFF7B0
:10BD70006FFE00206065A06538BD002545658565BE
:10BD8000FFF766FE2046FFF73FFE284638BD00BF9E
:10BD90002DE9F04F064693B00025F7F71DFE844BC2
:10BDA00033608449C6F8D850C6F8DC50C6F8E05075
:10BDB00006F1EC0006F068F87F4B336601244FF083
:10BDC000FF3306F5CE407D49C6F8E4300522F46520
:10BDD0006C301DF02FFBD42020F038F80DF148080E
:10BDE0006A23122207468DE82800754908231CF0B3
:10BDF00097F848F8187D06F10C0941464846F5F7D2
:10BE0000A7FDD82020F022F809274FF0180ECDF812
:10BE100000E022462B4606F14C010197039502955E
:10BE200082461CF057F841464846CDF830A0F5F759
:10BE30008FFDE82020F00AF864221923019406F10E
:10BE400058010392009338220723029582461CF082
:10BE500085F841464846CDF830A0F5F779FDE02059
:10BE60001FF0F4FF42F20F7A06F1500228230597E3
:10BE700003948DE8240004932A46524BCDF808A081
:10BE8000514983461BF04AFC41464846CDF830B044
:10BE9000F5F75EFDE0201FF0D9FF06F154032A46B6
:10BEA000CDF808A0059703948DE828004649454B36
:10BEB000049583461BF032FC41464846CDF830B02D
:10BEC000F5F746FDDC201FF0C1FF4FF0470ADFF811
:10BED0001CC13E49CDF80CC04FF0030E06F15C02C8
:10BEE0002346CDF808E00597019200912A4638498B
:10BEF000CDF810A083461BF091FC41464846CDF892
:10BF000030B0F5F725FDE0201FF0A0FF06F160033B
:10BF100002978DE808042A46B5EE001ADFED2D0AD7
:10BF20002D4B2E49B2EE000A04461BF03BFC414665
:10BF300048460C94F5F70CFD06F16807D8201FF071
:10BF400085FF002415230122009701932449254BE6
:10BF50000894079406940594049403940294154459
:10BF600082461BF0ADFB0BA94846CDF82CA0F5F797
:10BF7000EFFC2A461C49404624F0AEFD38464146B7
:10BF800025F01CF8052D07F11607D7D1F068031F1F
:10BF9000183053F8042F83424FF000011472F8D187
:10BFA0003046F16431657165B16513B0BDE8F08F5D
:10BFB000C4210400B059FF1F00002042602104008A
:10BFC000AC57FF1F6C23FF1F682104005C23FF1F79
:10BFD000F82104000000FA427423FF1F202104000E
:10BFE000702104006423FF1F882104000C0EFF1F32
:10BFF0002DE9F04F0B1A8FB0B3F5887F0392C0F292
:10C00000DD800446002A00F08D8000F110030493C7
:10C0100000F1200389460D460AAF05932D1B2B1115
:10C0200003EBD3735D10039B049804EB05152946BD
:10C03000013B03931FF0B6FEA9F11006314600281C
:10C040004ED028461FF0AEFE002869D13146049834
:10C050001FF0A8FE214600285DD038461FF032FEB2
:10C06000314620461FF03AFE394630461FF036FE74
:10C0700038461FF09FFD059ECB46A6F110052846C9
:10C080002146A8461FF08EFED8B9ABF1100A5146E2
:10C0900020461FF087FED346AAF1100A0028F6D1E9
:10C0A0005D4510D2294638461FF00CFE59462846F9
:10C0B0001FF014FE394658461FF010FE38461FF098
:10C0C00079FD1036D9E74946039A2846FFF790FFD5
:10C0D0002B1BB3F5887F71DB039A2AB3A9469DE732
:10C0E00004981FF05FFEA8B9314628461FF05AFE9B
:10C0F00021460028B1D138461FF0E4FD29462046EC
:10C100001FF0ECFD394628461FF0E8FD38461FF0C9
:10C1100051FDB0E7214638461FF0D4FD049DEDE700
:10C120002146E8E788460AAF1D11AE1E761004EBE3
:10C13000061902E0013E1FF03DFD494606A81FF02A
:10C14000C1FD06A938461FF0BDFD4FF000038DF874
:10C1500000302A463B4631462046FEF7F3FE38467D
:10C160001FF028FDA9F1100906A8002EE2D106A8AB
:10C170001FF020FDA8F11008414606A81FF0A2FDFF
:10C18000214640461FF0AAFD06A938461FF09AFD39
:10C19000C4EB08054FF000032A1100218DF8003090
:10C1A00020463B46FEF7CEFE38461FF003FD06A8AC
:10C1B0001FF000FD1F2DA8F11008DDDC0FB0BDE859
:10C1C000F08F00BF2DE9F041D0F8D870D0F8DC60D6
:10C1D000B742D4B0054618BF3C4605D020461034BF
:10C1E0001FF0E8FCA642F9D17C4B7D4A1968C5F8DE
:10C1F000DC7000234FF47A708DF8B4308DF8BC30C9
:10C200003E933F938DF804318DF80C315293539344
:10C210002E9042902C92409244AE002964D0304639
:10C22000704A14F065FC00285ED0002427460022E6
:10C23000314630A814F09CFC002841D03E988DF87F
:10C240001070002855D0502204A913F007FA04A951
:10C2500018A824F0B3FE18A824F080FF624904A8AF
:10C2600024F042FD30B33E9B002B4AD01B7813F0E4
:10C27000700F14BF01230023E3B918A85B4925F010
:10C2800077F9B8B104A968461FF0D4FCD5F8DC00F2
:10C29000D5F8E030984200F08E8020B169461FF05A
:10C2A00011FDD5F8DC001030C5F8DC0068461FF041
:10C2B00081FC013430A814F0D7FBB4F5FA6FB6DB7B
:10C2C000D5F8D880D5F8DC70C8EB0704231123D14A
:10C2D000474C4094304614F0C7FB30A82C9414F01F
:10C2E000C3FB54B0BDE8F081424943481FF054FC01
:10C2F0009BE73F980028AAD0502204A910F0FAF931
:10C30000A5E73F9B002BB8D093F8313013F0500FC6
:10C3100014BF01230023AFE7B84521D0B3FA83F35C
:10C32000C3F11F02520039464046FFF761FEB4F5E3
:10C33000887F46DB08F58074404621464FF00002B6
:10C34000FEF7C4FDA74242D020461034FFF798F90B
:10C35000A742F9D1D5F8DC30D5F8D8209B1A1B11AB
:10C36000264A1278013BC5F8E430002AB0D01621E5
:10C3700023481FF061F920481FF0F2FBD5F8D810D0
:10C38000D5F8DC305B1A1B09A2D01E4F0024230114
:10C390002246CB5818481C49002B08BF3B461FF0CB
:10C3A000FBFBD5F8D810D5F8DC3001345B1AB4EBC0
:10C3B000231FECD38CE7694605F1D800FEF730FD6A
:10C3C00074E7394640464FF00002FEF77FFDD5F88E
:10C3D000DC30D5F8D8209B1A1B11C1E7E860FF1F9D
:10C3E000C8FC0300101F0400BC1F040084460400A6
:10C3F000A4FC0300D81F0400882AFF1F6857FF1FF2
:10C4000098210400B2A004005421040010B5044691
:10C4100082B0FAF785FB2046FFF7D4FE1223A36211
:10C420002046FFF76DFB2046FFF78AFAF8F7FCF984
:10C43000074B1B680193019B03F5EA433033C4F8B3
:10C44000E8300120F8F756F9024B636602B010BDE0
:10C450007466FF1F0000DC3C70B50F4B064640F8C9
:10C46000EC3B06F019F9D6F8D840D6F8DC50AC42CF
:10C4700007D0204610341FF09DFBA542F9D1D6F815
:10C48000D85015B128461FF0E5FC044B3360304608
:10C4900018F026FC304670BDC421040008190400C1
:10C4A00070B5124B064640F8EC3B06F0F5F8D6F8AE
:10C4B000D840D6F8DC50AC4207D0204610341FF0EC
:10C4C00079FBA542F9D1D6F8D85015B128461FF00E
:10C4D000C1FC074B3360304618F002FC304646F290
:10C4E00078711FF0BBFC304670BD00BFC421040052
:10C4F0000819040001207047704700BF10B50446BA
:10C50000C06C074B236020B103685B689847002329
:10C51000E364044B2360204618F0E2FB204610BD84
:10C520008C2604000819040010B50446FFF7E6FF46
:10C53000204658211FF092FC204610BD10B5034B39
:10C5400003600446FFF7DAFF204610BDC022040056
:10C5500010B5054B03600446FFF7D0FF20465C2171
:10C560001FF07CFC204610BDC022040010B5034B18
:10C5700003600446FFF7C2FF204610BDC02204003E
:10C5800010B5054B03600446FFF7B8FF204678213D
:10C590001FF064FC204610BDC022040010B5034B00
:10C5A00003600446FFF7AAFF204610BDC022040026
:10C5B00010B5054B03600446FFF7A0FF20465C2141
:10C5C0001FF04CFC204610BDC022040010B5034BE8
:10C5D00003600446FFF792FF204610BD08220400C6
:10C5E00010B5054B03600446FFF788FF2046702115
:10C5F0001FF034FC204610BD0822040010B5034B88
:10C6000003600446FFF77AFF204610BD08220400AD
:10C6100010B5054B03600446FFF770FF20467021FC
:10C620001FF01CFC204610BD0822040010B5034B6F
:10C6300003600446FFF762FF204610BD0822040095
:10C6400010B5054B03600446FFF758FF20467021E4
:10C650001FF004FC204610BD0822040010B504465B
:10C66000C06C30B148F25703C35C13B103681B6957
:10C6700098472046BDE81040FAF786BA10B5044640
:10C68000F7F782FF2046BDE81040FFF7E7BF00BF85
:10C690002DE9F0432DED028B0446C06C89B010B13A
:10C6A0000368DB6B9847E36B504DD3B12A68039264
:10C6B000039A934215D22046F8F7B0F92046F8F7CE
:10C6C00013FAE06C4A4E18B196F84430002B49D169
:10C6D0002B680493F26E049B4FF47A7101FB0233D2
:10C6E000E3632B680593059B226D9A421AD2404B57
:10C6F0001B68052B16D01BF017FADFED3E7AB4EE5F
:10C70000E70AF1EE10FAB0EE408A30D9636D0BB350
:10C71000013B6365F3B12B680793079B03F56A53ED
:10C7200018332365E36C83B1334A12783AB1334846
:10C7300018F000FE324AE36C152111602BB148F26B
:10C74000A4529B5C0BB1FAF7FFFA09B0BDEC028B67
:10C75000BDE8F0832B680693069B03F56A436033BC
:10C760002365DFE794ED120A09F0AEFCB0E7FAF7B3
:10C77000EBFAA0B3626DDFF8A09002F10108C4F8F3
:10C78000548018EE100A22F0C1FDD9F804201D4B88
:10C7900006460F46002053F822104246CDE90067B6
:10C7A00018F0AEFF636D032BB4D9D9F80400164915
:10C7B00032463B4651F82010002018F0A1FF00211E
:10C7C000012018F0BDFDD9F80420104B53F82200C9
:10C7D00018F0B0FD0A4A636D152111609AE70C4903
:10C7E0000C481FF0D9F9636D94E700BF7466FF1F12
:10C7F000B059FF1FCDCC4C3D545BFF1F605BFF1F4A
:10C800000466FF1F5412FF1F0420FF1F0411FF1FA7
:10C8100014230400882AFF1F5859FF1F10B504462F
:10C82000006F03681B6998472046BDE81040FFF77A
:10C830002FBF00BF10B590F85A3084B00446BBB18A
:10C84000C36D0366002280F85A20032B0ED8DFE860
:10C8500003F03E455C371B680293029B226803F598
:10C86000FA73A3662046D36B9847E36D012B3FD044
:10C8700094F86C3083B904B010BD274A036812687D
:10C880000392039ADB6862669847244B1B68032B6C
:10C89000EED0012384F86C30E06C0028EBD048F235
:10C8A0005603C35C002BE6D096201DF00FFBE06C16
:10C8B000036800229B6984F86C20984704B010BD7F
:10C8C00003685B6C9847E36D012BD1D110E00368DE
:10C8D0009B6B9847E36D012BCAD109E00E4B816E2B
:10C8E0001A680192019A0120914284F85A00B2D349
:10C8F000E06C0028BFD048F25703C35C002BBCD0CB
:10C9000094F86C30002BB6D0C9E703681B6C9847CD
:10C91000E36D012BACD1EBE77466FF1FB059FF1F2D
:10C92000032910B50CD006290AD00E4CF7F75AFE91
:10C9300010B9206808B910BD02200023236010BD83
:10C9400090F859302BB90F2280F85A3080F85920CE
:10C95000EBE7054B034C1B68012B0CBF0B2301239A
:10C960002360E3E70466FF1F5059FF1F38B50C4BE7
:10C970001B68012B044648F6846008DD1FF066FA48
:10C980000822054607490AF045FEE56438BD1FF058
:10C990005DFA08220546034908F096FDE56438BDB6
:10C9A0005059FF1FB059FF1F08B5FFF757FE064B40
:10C9B0001B7803B908BD1A2104481EF03DFE044847
:10C9C000BDE808401FF0CCB86857FF1F482304009B
:10C9D000882AFF1F10B50446F7F7D6FD2046FFF75B
:10C9E0003DFE064B1B7803B910BD1E2104481EF006
:10C9F00023FE0448BDE810401FF0B2B86857FF1F7F
:10CA000064230400882AFF1F10B50446F7F7BCFD15
:10CA10002046FFF723FE064B1B7803B910BD1F21EC
:10CA200004481EF009FE0448BDE810401FF098B805
:10CA30006857FF1F84230400882AFF1F10B50C4C81
:10CA4000FFF70CFE237803B910BD1A2109481EF028
:10CA5000F3FD09481FF084F82378002BF4D01C2143
:10CA600006481EF0E9FD0448BDE810401FF078B804
:10CA70006857FF1F48230400882AFF1FA4230400CF
:10CA800010B5044600201DF085F90E4B206F0022E2
:10CA90001A6010B103685B6898470B4B626FDA60ED
:10CAA0002046FFF7DBFD094B1B7833B11A210848FC
:10CAB0001EF0C2FD07481FF053F8074B20221A60F2
:10CAC00010BD00BF445BFF1F5859FF1F6857FF1F71
:10CAD00048230400882AFF1F88F00F402DE9F04109
:10CAE000264C274F2068083016F0F8FC7A68254B52
:10CAF000256853F822800026A5F8B860A5F8BA602A
:10CB0000404624F0BDFA2B68414602465B68284641
:10CB1000984728461FF024F87A681B4B256853F87D
:10CB20002280A5F8B8600923A5F8BA30404624F061
:10CB3000A7FA2B68414602465B6828469847284674
:10CB40001FF00EF87A68114B256853F82270A5F88B
:10CB5000B8602423A5F8BA30384624F091FA2B683F
:10CB6000024639465B682846984728461EF0F8FF7B
:10CB70002068BDE8F041083016F0BCBCC85BFF1F60
:10CB80005859FF1F041FFF1F9C0DFF1F4C0CFF1F58
:10CB90002DE9F041264C274F2068083016F09EFC06
:10CBA0007A68254B256853F822800026A5F8B860DE
:10CBB000A5F8BA60404624F063FA2B684146024665
:10CBC0005B682846984728461EF0CAFF7A681B4BC8
:10CBD000256853F82280A5F8B8600923A5F8BA3073
:10CBE000404624F04DFA2B68414602465B682846D1
:10CBF000984728461EF0B4FF7A68114B256853F811
:10CC00002270A5F8B8602423A5F8BA30384624F07D
:10CC100037FA2B68024639465B682846984728460B
:10CC20001EF09EFF2068BDE8F041083016F062BC9F
:10CC3000C85BFF1F5859FF1FC419FF1F9C0DFF1F22
:10CC40004C0CFF1F2DE9F043364C374F236889B059
:10CC5000814603F1080016F041FC7A68334B2568E1
:10CC600053F822800026A5F8B860A5F8BA604046BF
:10CC700024F006FA2B68024641465B68284698472E
:10CC800028461EF06DFF236878682949A3F8B8602C
:10CC90000922A3F8BA2099F8582051F8201001A8C9
:10CCA00023F01AFF256801A824F0EAF92B6801A9EE
:10CCB00002465B682846984728461EF051FF7A686E
:10CCC0001C4B256853F82280A5F8B8602423A5F8EA
:10CCD000BA30404624F0D4F92B68414602465B68DE
:10CCE0002846984728461EF03BFF7A68124B256875
:10CCF00053F82270A5F8B8603623A5F8BA30384644
:10CD000024F0BEF92B68024639465B6828469847EE
:10CD100028461EF025FF2068083016F0EBFB09B00E
:10CD2000BDE8F083C85BFF1F5859FF1F041FFF1F9A
:10CD3000941CFF1F6416FF1F441BFF1F2DE9F043C7
:10CD4000364C374F236889B0814603F1080016F04E
:10CD5000C5FB7A68334B256853F822800026A5F876
:10CD6000B860A5F8BA60404624F08AF92B680246FC
:10CD700041465B682846984728461EF0F1FE236826
:10CD800078682949A3F8B8600922A3F8BA2099F86D
:10CD9000582051F8201001A823F09EFE256801A814
:10CDA00024F06EF92B6801A902465B682846984773
:10CDB00028461EF0D5FE7A681C4B256853F8228061
:10CDC000A5F8B8602423A5F8BA30404624F058F9F5
:10CDD0002B68414602465B682846984728461EF065
:10CDE000BFFE7A68124B256853F82270A5F8B86028
:10CDF0003623A5F8BA30384624F042F92B680246AB
:10CE000039465B682846984728461EF0A9FE2068E8
:10CE1000083016F06FFB09B0BDE8F083C85BFF1F58
:10CE20005859FF1FC419FF1FC41BFF1F6416FF1FA3
:10CE3000441BFF1F2DE9F043364C374F236889B060
:10CE4000814603F1080016F049FB7A68334B2568E8
:10CE500053F822800026A5F8B860A5F8BA604046CD
:10CE600024F00EF92B68024641465B682846984735
:10CE700028461EF075FE236878682949A3F8B86033
:10CE80000922A3F8BA2099F8582051F8201001A8D7
:10CE900023F022FE256801A824F0F2F82B6801A9EE
:10CEA00002465B682846984728461EF059FE7A6875
:10CEB0001C4B256853F82280A5F8B8602423A5F8F8
:10CEC000BA30404624F0DCF82B68414602465B68E5
:10CED0002846984728461EF043FE7A68124B25687C
:10CEE00053F82270A5F8B8603623A5F8BA30384652
:10CEF00024F0C6F82B68024639465B6828469847F6
:10CF000028461EF02DFE2068083016F0F3FA09B00E
:10CF1000BDE8F083C85BFF1F5859FF1FC419FF1FEE
:10CF20000418FF1F641DFF1F3C10FF1F2DE9F04F69
:10CF3000456E8BB08246002D00F08480424A434B00
:10CF400012680292029A4249551BA3FB05384FEA28
:10CF50009838A8EB0813A1FB05259B0003EB95155A
:10CF60003C4CDFF804912068083016F0B7FAD9F885
:10CF70000420394B276853F822B00026A7F8B86080
:10CF8000A7F8BA60584624F07BF83B680246594639
:10CF90005B683846984738461EF0E2FD2368D9F8AA
:10CFA00004102E48A3F8B8600922A3F8BA209AF812
:10CFB000582050F821100095434603A823F08CFD1B
:10CFC000256803A824F05CF82B6803A902465B6877
:10CFD0002846984728461EF0C3FDD9F80420204B68
:10CFE000256853F82270A5F8B8601323A5F8BA3065
:10CFF000384624F045F82B68394602465B682846D7
:10D00000984728461EF0ACFDD9F80420154B25683A
:10D0100053F82270A5F8B8603623A5F8BA30384620
:10D0200024F02EF82B68024639465B68284698475C
:10D0300028461EF095FD2068083016F05BFA0BB00C
:10D04000BDE8F08FA8468BE77466FF1F73B2E74513
:10D05000D34D6210C85BFF1F041FFF1F6C0EFF1F24
:10D06000041BFF1F3C10FF1F5859FF1F2DE9F04FF5
:10D07000456E8BB08246002D00F097804C4A4D4B98
:10D0800012680292029A4C49551BA3FB05394FEADC
:10D090009939A9EB0913A1FB05259B0003EB951515
:10D0A000464C474F2068083016F018FA7A68454B0E
:10D0B000D4F8008053F822B00026A8F8B860A8F889
:10D0C000BA60584623F0DCFFD8F8003002465946D3
:10D0D0005B684046984740461EF042FD23687968E9
:10D0E0003948A3F8B8600922A3F8BA209AF8582062
:10D0F00050F8211000954B4603A823F0EDFC25685D
:10D1000003A823F0BDFF2B6803A902465B682846ED
:10D11000984728461EF024FD7A682C4B256853F862
:10D120002280A5F8B8601323A5F8BA30404623F052
:10D13000A7FF2B68414602465B6828469847284669
:10D140001EF00EFD7A68224B256853F82280A5F860
:10D15000B8602423A5F8BA30404623F091FF2B682D
:10D16000414602465B682846984728461EF0F8FC70
:10D170007A68184B256853F82270A5F8B8602D23FB
:10D18000A5F8BA30384623F07BFF2B6802463946B3
:10D190005B682846984728461EF0E2FC2068083065
:10D1A00016F0A8F90BB0BDE8F08FA94678E700BFEC
:10D1B0007466FF1F73B2E745D34D6210C85BFF1F53
:10D1C0005859FF1FC419FF1F1418FF1F241BFF1FEE
:10D1D000E411FF1FF41CFF1F90F8593003B970478A
:10D1E0002DE9F04F2DED028B91B090F85850044688
:10D1F00015F0D4FD854200F0978115F0CFFD94F82D
:10D20000593084F85800012B00F0B68194F85A6028
:10D21000002E40F08581E06C002800F0818148F20A
:10D220005602825C002A00F07B810368C14D1B6AB4
:10D23000DFF84083DFF808933146984728680123D8
:10D24000083084F85A3016F049F92A68D8F80400F2
:10D25000B949A2F8B86009F10A0351F82010A2F800
:10D26000BA6008A89A1F23F037FC2F6808A823F09B
:10D2700007FF3B6802465B6808A93846984738466E
:10D280001EF06EFCD9F830302A680921062BA2F86E
:10D29000B860A2F8BA1000F28C81A84A52F8236054
:10D2A00099F83C10A648D8F80420002900F0908195
:10D2B000022B40F3A781A34BA34953F8223051F826
:10D2C0002210026C009208A8324623F005FC2E685A
:10D2D00008A823F0D5FE336802465B6808A93046EB
:10D2E000984730461EF03CFCD9F838302A68013B9C
:10D2F000032B4FF012004FF00001A2F8BA00A2F881
:10D30000B8109CBF914A52F8230099F850308C4ACB
:10D3100088BF0846002B40F04F818D4ED8F804108E
:10D32000D36C56F82110926D009008A823F0D4FB1E
:10D330002E6808A823F0A4FE336802465B6808A99B
:10D340003046984730461EF00BFCD9F800102B6889
:10D350007B4A00261B200829A3F8B860A3F8BA006E
:10D3600003D0136B022B00F33781D9ED067A9FEDC2
:10D37000798AF8EEE77A87EE887A17EE100A21F0BC
:10D38000C5FFD9ED077A744BD8F80420F8EEE77A98
:10D39000064687EE887A53F822A00F4617EE100A49
:10D3A00021F0B4FF3246CDE900013B46514608A8C2
:10D3B00023F092FB2E6808A823F062FE3368024631
:10D3C0005B6808A93046984730461EF0C9FB634E9B
:10D3D000D8F80420624B286853F822103668D9F830
:10D3E0002430D9F8202024274FF00009A0F8BA7083
:10D3F000A0F8B890009608A823F06EFB2E6808A845
:10D4000023F03EFE336802465B6808A93046984721
:10D4100030461EF0A5FB2B68E26CA3F8B8902D27D0
:10D4200048F2380648F2400148F25400A3F8BA70B6
:10D43000105A935B525A4B4F4B4ED8F8041000B21F
:10D440001BB212B287FB00CE87FB03CAC017DB17E3
:10D4500087FB02C7D217C0EBAE00C3EBAA0AC2EB30
:10D46000A70756F821100FFA8AFA06B23FB23246E1
:10D470005346009708A823F02FFBD5F800B008A862
:10D4800023F0FEFDDBF8003008A902465B68584631
:10D49000984758461EF064FB2B683622A3F8BA2042
:10D4A000A3F8B89015F08AFC834615F097FC079016
:10D4B00015F0A4FC069015F051FC059015F05EFCEB
:10D4C0000699059A079B009102902849019208A8A5
:10D4D0005A4623F001FBD5F800B008A823F0D0FD90
:10D4E000DBF80030024608A95B6858469847584662
:10D4F0001EF036FB2868083015F0FCFFD8F8042031
:10D500001B4B009753F8221048465346324618F0FA
:10D51000F7F8E06C036801211B6A984794F85930CA
:10D5200013B1013B84F8593011B0BDEC028BBDE85A
:10D53000F08F00BFC85BFF1F4411FF1FF8220400DB
:10D54000B059FF1F2412FF1FE41CFF1F0427040013
:10D550000412FF1F00007A444413FF1F1066FF1FD0
:10D56000D419FF1F67666666F41FFF1FC4230400FB
:10D57000F418FF1F5859FF1FE06C18B10368002111
:10D580001B6A98472A4D2868083015F0A7FF2868BD
:10D59000083015F0AFFFE06C18B1036801211B6A79
:10D5A0009847002384F8593011B0BDEC028BBDE8D8
:10D5B000F08F4FF4C07673E61E4ED8F80410D36C8B
:10D5C00056F82110526D009008A823F085FAAFE6B6
:10D5D000022B2ADD184B6FE656691169174AD8F8F5
:10D5E0000400174F82FB06E382FB01E2F617C9171E
:10D5F000C1EBA212C6EBA31357F8201008A823F022
:10D600006BFAD7E60F49104BD0F86C0153F8227033
:10D6100051F822A021F07AFE5346CDE900013246AE
:10D62000394608A823F058FA51E60349EBE700BF52
:10D63000C85BFF1F5411FF1F5C0CFF1FD34D62100E
:10D640002413FF1F2412FF1FA41AFF1F70B50446E6
:10D6500082B051B9994D2B68042B0ED0984B1868A5
:10D6600008B100221A6002B070BDC36D032B00F236
:10D67000B980DFE803F092635725C06C0028EDD035
:10D6800048F25703C35C002BE8D08E4A636E1268E1
:10D690000192019A03F5AF2303F5C8639342DDD2EB
:10D6A000E36D032B00F29E8001A252F823F000BF2D
:10D6B000A7D7000071D800005DD60000CDD60000CD
:10D6C000032900F0ED800229C8D1C06C78B148F27E
:10D6D0005803C35C23B10368DB699847E06C30B141
:10D6E00048F25703C35C13B103681B699847764A35
:10D6F000764B516894F8582053F82110002017F009
:10D70000FFFF94F8583094F859200133DBB29A4265
:10D7100084F8583080F0A9800223E365012384F85F
:10D720005A309BE7032901D0062997D1684A644BF8
:10D730001268012A0CBF0B20012092E7032900F098
:10D74000998002294FF0000654D0012986D15B4B05
:10D750001B68052B82D1C06C78B148F25803C35CBA
:10D7600023B10368DB699847E06C30B148F2570396
:10D77000C35C13B103681B699847534A554B516802
:10D7800094F8582053F8211003200123E06584F811
:10D790005A30002017F0B4FF60E7032971D0022946
:10D7A0007FF45CAFC06C78B148F25803C35C23B11E
:10D7B0000368DB699847E06C30B148F25703C35CFB
:10D7C00013B103681B6998473F4B434958680222CD
:10D7D000012351F82010E26584F85A30002017F038
:10D7E0008FFF3BE726213D481DF026FF3C481EF0F9
:10D7F000B7F933E7314D2B68042B7FF42FAFE06C82
:10D8000078B148F25803C35C23B10368DB699847D9
:10D81000E06C30B148F25703C35C13B103681B6975
:10D820009847294A002E3ED12B68052B3BD05168E2
:10D830002C4B94F8582053F82110304617F060FF15
:10D8400094F858202B6828480132052BD2B284F86E
:10D8500058200CBF2549264923F03EF994F858205A
:10D8600094F859309A423FF657AF0023E36555E7E5
:10D870000126C0E7114D2B68052B7FF4EFAE002683
:10D88000BDE7114A1B4B516894F8582053F82110FA
:10D89000002017F035FF0123E36584F85A30DDE6F8
:10D8A000094A154BEFE7094B516894F8582053F893
:10D8B0002110002017F024FFC2E700BFB424FF1F8F
:10D8C0000466FF1F7466FF1F5859FF1F9423FF1F34
:10D8D0005059FF1F7C23FF1F8423FF1FF4230400E4
:10D8E000882AFF1F9C23FF1FF659FF1FE423040013
:10D8F000EC2304008C23FF1FA423FF1F2DE9F04F0E
:10D90000036FD3F808320A2B83B0064607D80122EA
:10D9100002FA03F340F23E721A40002A4AD196F806
:10D920006050002D40D1DFF824B2DBF80000083051
:10D9300015F0D4FDF46D002C40F0E2802546A046A1
:10D94000316FDFF824A201270EE0002508F1090855
:10D950002A46316F34B18B68032B00F085800A2F83
:10D9600000F08D800134013704F10209DAF8043047
:10D9700051F82920DBF80000C3EB03110A44714978
:10D9800003EB830351F822206F49A0F8B85004EB51
:10D990004303A0F8BA8051F823101EF0FDF8002DC3
:10D9A000D3D140252A46D4E73046FFF715FC03B013
:10D9B000BDE8F08F654FDFF8B0813868083015F0AA
:10D9C0008DFD3C686249236800255B68A4F8B85067
:10D9D000A4F8BA500D222046984720461EF0C0F801
:10D9E000326FD8F80430D2F808225A493C6803EB69
:10D9F000830003EB400313440A2251F82390A4F858
:10DA0000B850A4F8BA20484623F03AFB23684946A8
:10DA100002465B682046984720461EF0A1F8D8F8D9
:10DA200004204D4B3C6853F82270A4F8B8503623BC
:10DA3000A4F8BA30384623F023FB2368024639465F
:10DA40005B682046984720461EF08AF833683046C7
:10DA50001B6B9847414B1B680193019B03F6B8333E
:10DA6000B36603B0BDE8F08F51F829300A2B7FF47C
:10DA700076AF01230A2F86F861307FF473AF08F187
:10DA800009059146ADB2F26DE2B9354A1278CAB9CC
:10DA900096F86120B2B1DAF80410324ADBF800706F
:10DAA00052F82140A7F8B8902046A7F8BA8023F092
:10DAB000E7FA3B680246214638465C68A04738468C
:10DAC0001EF04EF8DAF80420234BDBF8004053F840
:10DAD0002270A4F8B890A4F8BA50384623F0D0FACF
:10DAE0002368024639465B682046984720461EF068
:10DAF00037F8336830461B6B984703B0BDE8F08FAA
:10DB0000DFF864A0316FDAF804200F4BA71CC2EBDA
:10DB1000021051F827100B4F02EB820204EB420473
:10DB20004218DBF8000057F8222053F82410A0F820
:10DB3000B850A0F8BA50A9461EF02EF836254FF07E
:10DB40002D08A0E78413FF1F2419FF1FC85BFF1FC8
:10DB50001C2404009416FF1FD41CFF1F7466FF1FB3
:10DB60001557FF1F841DFF1F5859FF1F10B504468E
:10DB7000F5F732FF034B23600023E3646365E3633F
:10DB8000204610BD8C2604002DE9F0472DED028BB8
:10DB9000B34EB44CC4B0F6F747FEB34A7068B3490D
:10DBA0001268B34B51F820100092D3E900230020F3
:10DBB00017F0A6FDAF4B776812A853F8271022F094
:10DBC000DFFF2368092B21D002AD002B3AD0032BB5
:10DBD00038D0A44AD4F83080A248082B04BF516B37
:10DBE0001163B8F1060F98BFA34A94F83C1094BF94
:10DBF00052F828904FF4C07900293ED0082B03D06A
:10DC0000036B022B00F31D819C4A3DE0D4F85C318C
:10DC10009B4A07EB870103EB410302AD52F8231047
:10DC20008046284622F0ACFFC5EB000909F101024D
:10DC3000294640461BF0FEFB08EB090003229149F0
:10DC40001BF0F8FBDFF888828F49A8F1060251F833
:10DC500027104346284622F03FFF12A823F010FA6F
:10DC600012AB1844294622F08BFF032285491BF092
:10DC7000E1FB58F80A3C7768ABE7082B03D0036B4D
:10DC8000022B00F3EB80814A814BD4F86C0152F8EF
:10DC900027A053F8277021F039FB5346CDE9000146
:10DCA0004A463946284622F017FF12A823F0E8F921
:10DCB00012AB1844294622F063FF032271491BF07E
:10DCC000B9FBA36B013B032B9CBF724A52F82300A4
:10DCD00094F85030634A88BF0020002B71D16E4FFA
:10DCE0007168D36C57F82110926D0090284622F08D
:10DCF000F3FE12A823F0C4F912AB1844294622F00F
:10DD00003FFF03225F491BF095FB2368554A082B10
:10DD100002D0B8F1020F7DDCD4ED067A9FED5F8A68
:10DD2000F8EEE77A87EE887A17EE100A21F0EEFA1D
:10DD3000D4ED077A5A4B7268F8EEE77A804687EEA0
:10DD4000887A53F82270894617EE100A21F0DEFA1D
:10DD50004246CDE900014B463946284622F0BCFE3A
:10DD600012A823F08DF912AB1844294622F008FFBF
:10DD7000032244493B4F1BF05DFB4A4872684A4B03
:10DD8000006853F82210226A636A0090284622F045
:10DD9000A3FE12A823F074F912AB1844294622F00E
:10DDA000EFFE022241491BF045FB2368092B13D0EB
:10DDB00012A9002017F0A4FC44B0BDEC028BBDE812
:10DDC000F0873B4F7168D36C57F82110526D00906B
:10DDD000284622F081FE8CE73A6B032A2FD0354B80
:10DDE000354F042A08BF1F467368D4F86401D4F87D
:10DDF0006021D4F86841314903EB8303034428468A
:10DE000057F82330009422F067FE294612A822F02A
:10DE1000DDFECDE757691169294A2A4882FB07E3ED
:10DE200082FB01E2C917C1EBA2127168FF1750F81B
:10DE30002110C7EBA313284622F04EFE90E7224F95
:10DE4000D2E70E4B214A53F8273052F82710026CC4
:10DE5000009228464A4622F03FFE26E70B4BF1E7A8
:10DE60005859FF1FB059FF1FAC57FF1FC415FF1FA4
:10DE7000285BFF1F141CFF1FF82204002412FF1F41
:10DE8000C41DFF1FC8F503004411FF1F5C0CFF1FDA
:10DE9000A41AFF1F042704000412FF1F00007A4485
:10DEA0004413FF1F1066FF1FD419FF1F44F1030026
:10DEB0005411FF1F8C22FF1F3C22FF1F2C24040043
:10DEC000D34D62102413FF1FEC21FF1FE41CFF1F22
:10DED000BA59FF1F2DE9F0415A4D002786B007655A
:10DEE0002E680446F8F71CFE95F844302E600BB1FE
:10DEF000002E39D1F6F77CFD00283BD0524E95F824
:10DF0000442037784F4B012131704ABBDA6E4F49BC
:10DF10004F4B4968DFF82C8153F82110002017F08F
:10DF2000EFFB2B684B4937700022042BA16422645D
:10DF30002ED12046FFF728FE236820465B6B9847CA
:10DF4000E06C50B12A6B3F4B022A3BDD1B6C4FF457
:10DF50007A7101FB03F108F063FC06B0BDE8F081C3
:10DF60004FF46172DA66D2E785F84470F6F740FD47
:10DF70000028C3D13549344E374A49683778E063C1
:10DF8000012352F82110337017F0BAFB377013E0F9
:10DF90002046F6F743FD2046F6F7A6FD98F84430F4
:10DFA000FBB92E4BD8F86C201B680593059B4FF4EA
:10DFB0007A7101FB0233E3632B68052BBCD0092B7C
:10DFC000BAD0B6E7D3ED5B7A9FED257A67EE877A14
:10DFD000FDEEE77A17EE901A08F022FC06B0BDE8D5
:10DFE000F08114F0CBFE1D4B0F2806461B681ADD8E
:10DFF0001E281FDD2D280FDD0493049F14F0CEFE94
:10E00000C6F13C06C6EB0616C0EB86064FF47A70E6
:10E0100000FB0676E663CFE70393039FC6F12D0668
:10E0200014F0BCFEEEE70193019FC6F10F0614F059
:10E03000B5FEE7E70293029FC6F11E0614F0AEFE9E
:10E04000E0E700BFB059FF1FB024FF1F5859FF1F62
:10E05000241DFF1F0000C8428414FF1F7466FF1FA9
:10E0600000007A44244B1B782DE9F0410446002B34
:10E0700039D1224BDB6801253D2000210F22052BE1
:10E08000257284F8580084F85A1084F8592001D079
:10E09000AB420DD82046FFF71DFFE06C08B3184BCC
:10E0A0001B68092B1DD00368BDE8F041DB681847E9
:10E0B000144F154E2025C8203D601BF007FFC820D7
:10E0C00035601BF003FFC8203D601BF0FFFEC82039
:10E0D00035601BF0FBFE2046FFF7FCFEE06C0028DD
:10E0E000DDD1BDE8F0811C2108481DF0A5FA0848E3
:10E0F0001DF036FDBDE700BF6857FF1F5859FF1FD1
:10E10000B059FF1F84F00F4088F00F4040240400F6
:10E11000882AFF1F264AF8B5264BD2F85C51DA68E8
:10E12000426701260446DE60C5653DBB1E212248CC
:10E130001DF082FA21481DF013FD4FF407701DF009
:10E1400085FE0746F4F7BEFF2767314628461BF0D9
:10E1500093FE1B4B4FF480321A60206F144A036801
:10E16000E16D9B6898472046FFF77CFFE26DCAB9D6
:10E170000622144914481BF05DF9F8BD1D2113480F
:10E180001DF05AFA0D481DF0EBFC4FF407701DF01E
:10E190005DFE0546F4F7BAFF2567022100201BF05B
:10E1A0006BFEDAE70A490848BDE8F84022F094BC63
:10E1B000B059FF1F5859FF1F60240400882AFF1F11
:10E1C00048F00F40A8240400F659FF1F80240400E3
:10E1D000A024040070B5044682B0FFF77BFE11480E
:10E1E000114DF6F7BDFBE26C2E7801232B7052B176
:10E1F00048F2FC514FF40053525800920B499203DD
:10E20000002017F07DFA002301222E7084F8582098
:10E2100084F85A2084F86C30E3656366A36602B024
:10E2200070BD00BF90220400B024FF1F2CF2030039
:10E2300070B590F8603084B004467BB901294FD0A6
:10E24000022900F0BA80C36D002B4CD1036F9B688C
:10E25000042B4ED06A4B186804B070BDC36EF3B97E
:10E260002046FEF75DFBE36D654D002B286040F313
:10E2700091800233226F52F823300B2B62D0A36EB1
:10E28000002BE9D05F4A12680392039A9342E3D2CB
:10E29000226F0023C2F80832A36604B070BD594A49
:10E2A00012680292029A9342DAD2FFF76DFCE06C98
:10E2B000002845D003689B689847E06C0368DB68DA
:10E2C0009847E36DE06C0021E166002B58D10028EF
:10E2D000C0D0036801215B699847494B1868BBE7C8
:10E2E000C36D002B76D00233226F52F823300A2BF5
:10E2F000B0D14549454D002017F002FAE26D44487F
:10E300004FF0FF330121002A2B60036084F8601076
:10E310000BDD04223F4900201BF0C0FC34213E48A5
:10E320001DF08AF93D481DF01BFC364B344A1B6832
:10E330000193019B106803F59673E36604B070BD0A
:10E34000E06687E73649002017F0DAF9E06C10B193
:10E3500003681B6998470821206FF4F7ADFE314B25
:10E3600000210F22042684F8601084F859204FF40D
:10E3700096701E601BF0AAFD2B4B28681E606BE791
:10E3800000283FF467AF03685B6998471C4B186827
:10E3900004B070BD7FF473AF01287FF470AF2349E0
:10E3A000184617F0ADF9206F0368DB6898474FF403
:10E3B00096701BF08BFD28684EE7006F104C0368C9
:10E3C0000122DB68226098474FF496701BF07EFDB7
:10E3D000206841E70E4A0D4D80F860104FF0FF3382
:10E3E000006F13602B60F4F777FE064B044A1B683E
:10E3F0000093009B106803F59673E3662CE700BF5B
:10E400000466FF1F7466FF1F6CB503004421FF1FE5
:10E41000A420FF1FFDE40000B0240400882AFF1F91
:10E4200044B5030088F00F4084F00F4024B503008A
:10E4300010B50446F5F7D0FA034B23600023E364DC
:10E440006365E363204610BDC022040010B5044696
:10E45000F5F7C2FA044B23600023E3646365E363CA
:10E4600084F86C30204610BD3C26040010B50446EC
:10E47000F5F7B2FA044B23600023E3646365E363BA
:10E4800084F86C30204610BD1C27040010B50446EB
:10E49000F5F7A2FA034B23600023E3646365E363AB
:10E4A000204610BDCC26040010B50446F5F794FABA
:10E4B000074A084B236000231460E3646365E36349
:10E4C00084F86130E36684F86030A366204610BDAE
:10E4D000445BFF1F58220400074B1B68DB0304D575
:10E4E000C06C38B103689B691847C06C18B10368E9
:10E4F000DB6918477047704750F00F4008B5044B70
:10E500001A6822B172B61868FFF7E6FF62B608BD56
:10E51000445BFF1F1C4B1B7870B5054633B12021AF
:10E520001A481DF089F81A481DF01AFB194C2846A4
:10E5300016F0D2FB002301225A211420A16584F891
:10E540005030A36384F83C30236484F84520E264AF
:10E55000114985F8383005224FF4347385F8590095
:10E560004FF4FA5628466161226326612362636292
:10E57000FFF730FE04F1460095F858200749BDE842
:10E58000704022F0A9BA00BF6857FF1FE8240400BA
:10E59000882AFF1FB059FF1FC0D40100E4230400E4
:10E5A0001C4B1B7870B5054633B121211A481DF06C
:10E5B00043F81A481DF0D4FA194C284616F08CFB83
:10E5C000002301225A210F20A16584F85030A36353
:10E5D00084F83C30236484F84520E264114985F8CE
:10E5E000383005224FF4D27385F859004FF4FA56AB
:10E5F000284661612263266123626362FFF7EAFDB8
:10E6000004F1460095F858200749BDE8704022F013
:10E6100063BA00BF6857FF1F0C250400882AFF1F3C
:10E62000B059FF1FC0D40100EC230400F8B5174B0C
:10E630001B78044633B11E2115481CF0FDFF154818
:10E640001DF08EFA204616F047FB134B134A5A6111
:10E650000121002283F84510D964102002271E26CC
:10E660004FF4FA550521986583F850209A6383F892
:10E670003C201A64204684F838201F625E621D61C7
:10E680001963BDE8F840FFF7EDBC00BF6857FF1FF6
:10E6900030250400882AFF1FB059FF1FC0D4010095
:10E6A00010B50446C06C064B236020B103685B685C
:10E6B00098470023E3642046FDF720FF204610BD65
:10E6C000D429040010B50446FFF7EAFF2046742160
:10E6D0001DF0C4FB204610BD38B5044649F25C70FD
:10E6E0001DF0B4FB0249054609F080FEE56438BD23
:10E6F000B059FF1F032938B5054622D0062920D07E
:10E700001D4CF5F76FFFEB6C88B1022020605BB108
:10E7100048F20C629B5C3BB1184B5B68012B26D026
:10E72000174816F007FE15200023236038BD23B1DB
:10E7300048F20C629B5C002BEED120680028F3D1DC
:10E7400038BD95F860304BB9AB6E3BB195F8613090
:10E7500023B91E23084C85F86130D2E7094B064CDB
:10E760001B68012B0CBF0B2301232360C9E706485C
:10E7700016F0E0FDD7E700BF0466FF1F5859FF1FE2
:10E780007C2704005059FF1F642704002DE9F04F37
:10E7900095B090F85850044614F000FB854200F004
:10E7A0006181B24E14F0FAFAF36884F85800002B35
:10E7B00000F0F781AE4FE36D3A680792079A9A42EC
:10E7C00000F2F881E56C002D00F0D98148F2560383
:10E7D000EB5C002B00F0688194F86030002B00F0B7
:10E7E0006381A44F3868083014F078FE7368012BF9
:10E7F00000F08082DFF8AC9299F850300CAD2846DA
:10E80000002B00F06E82D9F854209B4922F064F965
:10E81000D7F800800023A8F8B830A8F8BA30284606
:10E8200022F02EFCD8F80030294602465B684046AC
:10E83000984740461DF094F97368D9F83820012BA9
:10E840008E4B0CBF8E498F4953F82220284622F068
:10E8500043F9D7F8008000220923A8F8B820A8F8C7
:10E86000BA30284622F00CFCD8F8003002465B682B
:10E8700029464046984740461DF072F97368012BBF
:10E88000E36C00F0518248F2540E48F2380C48F222
:10E89000400033F80EE033F80CC0185A7A4A7B492E
:10E8A00000B282FB00830FFA8EFE0FFA8CFCC017B9
:10E8B000C0EBA30082FB0C8382FB0E824FEAEC7C50
:10E8C0004FEAEE7E00B2CCEBA303CEEBA2020090A7
:10E8D0001BB212B2284622F0FFF8D7F800800022BF
:10E8E0001223A8F8B820A8F8BA30284622F0C8FBAE
:10E8F000D8F8003002465B682946404698474046B3
:10E900001DF02EF97368E16C48F24202012B31F9D7
:10E91000028000F0FC81B8F1000F00F05082B8F1E5
:10E92000010F00F09C8242465949284622F0D4F853
:10E93000D7F8009000221B23A9F8B820A9F8BA3014
:10E94000284622F09DFBD9F8003002465B68294634
:10E950004846984748461DF003F9B8F1000F40F3C8
:10E96000A6827368012BE36C03F50043586C00F03A
:10E970005B8220F0CBFC02460B462846454922F03C
:10E98000ABF8D7F8008000222423A8F8B820A8F814
:10E99000BA30284622F074FBD8F8003002465B6893
:10E9A00029464046984740461DF0DAF84FF02D09B9
:10E9B0007368626E012B0CBF37493849284622F034
:10E9C0008BF83E684FF00008A6F8BA90A6F8B88019
:10E9D000284622F055FB336802465B6829463046DC
:10E9E000984730461DF0BCF814F0E8F9064614F0DC
:10E9F000F5F9814614F002FA059014F0AFF9824659
:10EA000014F0BCF9834614F0C9F9059B244900931E
:10EA1000324603904B46CDF808B0CDF804A0284606
:10EA200022F05AF83E683623A6F8BA30A6F8B88025
:10EA3000284622F025FB3368024629465B683046AB
:10EA4000984730461DF08CF8236820461B6B98478A
:10EA500094F86030013BDBB284F8603013B91E23B8
:10EA600084F8613015B0BDE8F08F00BF5859FF1F22
:10EA70007466FF1FC85BFF1FBC270400AC23FF1F89
:10EA8000E8270400F8270400676666662CD80300B0
:10EA9000602804008028040090280400A0280400B6
:10EAA000B0280400B059FF1F48F25603EB5C002B5E
:10EAB00065D094F86130012B63D9A56E002D40F02C
:10EAC000A480C34F3868083014F008FDD7F80080E0
:10EAD0007368A8F8B850012BD8F800300CBFBD49B6
:10EAE000BD495B68A8F8BA50102240469847404696
:10EAF0001DF036F873683D6800210C22012BA5F843
:10EB0000B810A5F8BA202B6800F0A081B3495B6863
:10EB100009222846984728461DF022F873683D6868
:10EB200000212422012BA5F8B810A5F8BA202B68E3
:10EB300000F08381AA495B6811222846984728463D
:10EB40001DF00EF83D687368012B2B684FF0000133
:10EB50004FF03002A5F8B810A5F8BA200CBFA149B3
:10EB6000A1495B680F222846984728461CF0F8FF09
:10EB7000236820461B6B984715B0BDE8F08F94F8CA
:10EB80006130012B7FF46EAF914B1868083014F0A0
:10EB9000A5FC236820461B6B9847002384F861304E
:10EBA00060E7924B20251D6001201BF08FF9904BF0
:10EBB0001D60FFE5F5F738FE2046F5F72FFFE56C01
:10EBC000DDB18C4BD4F848A0D4F84090D3E90001D3
:10EBD00020F0E8FE884B8046D3E9000120F0E2FEF9
:10EBE00005F5174349F250720121A954C3F854A006
:10EBF000C3F85890C3F84C8098643B680693069B12
:10EC000003F56A436033E365DDE5714F7B4E386899
:10EC1000DFF810A208304FF0000914F05FFC4D46F9
:10EC200004E00135072D06F1200647D07368002B5C
:10EC3000F7D008AA2946E06C09F094FEBDF9260039
:10EC400005F07CFF8AFB0038C017C0EBA808BDF9AF
:10EC5000280005F0CDFFF7EE007AB4EEE70AF1EEFA
:10EC600010FA0FFA88F810EE100A40D420F04EFB8C
:10EC70003246CDE90201BDF920306149CDF800806E
:10EC80000CA821F029FFD7F800800023A8F8BA903B
:10EC9000A8F8B8300CA822F0F3F9D8F800300246F2
:10ECA0000CA95B6840469847013540461CF058FF68
:10ECB000072D09F1090906F12006B7D1236820467E
:10ECC0001B6B98474F4B93F85031002B7FF4CAAE23
:10ECD00094F86130012B7FF6C5AE013B84F86130BA
:10ECE000C0E6D9F85820484921F0F6FE90E500200A
:10ECF0000021BDE7DFF80C9199F850300CAD2846A3
:10ED0000ABB3D9F85420414921F0E6FE80E5B8F1D3
:10ED1000000F32D0B8F1010F00F0BE8042463C49EE
:10ED2000284621F0D9FE03E648F2400048F2540E8E
:10ED300048F2380233F80EE09A5A1B5ADFF8E4C062
:10ED400034491BB28CFB03800FFA8EFE12B2DB1724
:10ED5000C3EBA0008CFB0283D2178CFB0E8C4FEA16
:10ED6000EE7EC2EBA30300B2CEEBAC02AFE5D9F866
:10ED70005820294921F0B0FE4AE5284B0FCBAE467A
:10ED8000AEE807002EF8023B1B0C8EF80030D7F8D7
:10ED9000008000221B23A8F8B820A8F8BA30284623
:10EDA00022F06EF9D8F8003002465B6829464046EA
:10EDB000984740461CF0D4FE4FF02409F8E5184B64
:10EDC0000FCBAE46AEE807008EF80030DFE700BF9D
:10EDD000C85BFF1FD0280400E428040008290400B1
:10EDE000142904007CEE03002829040084F00F405D
:10EDF00088F00F403857FF1F285BFF1F205AFF1F66
:10EE000038290400B059FF1FD027040094270400BC
:10EE10002C2804003CD80300A82704000C28040078
:10EE2000402804006766666620F070FA02460B46CA
:10EE30002846204921F050FEA3E51F495B681322B4
:10EE40002846984728461CF08BFE7BE61B495B68EA
:10EE50000E222846984728461CF082FE5EE6184B94
:10EE60000FCBAE46AEE807008EF80030D7F8008032
:10EE700000221B23A8F8B820A8F8BA30284622F0B0
:10EE8000FFF8D8F8003002465B68404629469847AC
:10EE900040461CF065FE64E50A4B0FCBAE46AEE87B
:10EEA00007002EF8023B1B0C8EF80030DEE74FF017
:10EEB00024097DE570280400A0EE0300F828040072
:10EEC000502804001C28040010B50446FEF74EFE2E
:10EED000024B23600023E364204610BDD4290400C4
:10EEE0002DE9F04FB24B1B78CBB00546002B40F01C
:10EEF0004181284615F0F0FEAE4A3C21536916695F
:10EF0000D16600204FF4FA71042711612B67144673
:10EF10001763EE66134602F1E00182F8500082F8B2
:10EF20003C0050615A6F0AB3D4ED046A93ED217A24
:10EF3000D3ED227AB8EEE66AD4ED056AF8EEE66A19
:10EF4000B4EE467AF1EE10FAF4EE676AC8BFB0EE9E
:10EF5000467AF1EE10FAA8BFF0EE667ABDEEC77AF7
:10EF6000FDEEE77A84ED047AC4ED057A20338B4216
:10EF7000D8D1002385F838302846FEF7ABFFF5F7E7
:10EF800053FC2846F5F74AFDEE6CD6B18A4BD5F80E
:10EF90004890D5F84080D3E9000120F003FD874B6D
:10EFA0000746D3E9000120F0FDFC06F5174349F2BE
:10EFB00050720121B154C3F85490C3F85880DF64F3
:10EFC00098647F4B7F4E1B680993099BD6F8800499
:10EFD00003F56A436033EB65002800F0C58011F04B
:10EFE000EFFBD6F88034774A002B00F00B81DB6909
:10EFF0006422013B02FB00F0734A90FBF3F053687C
:10F0000068660126B3426B4B2E724FF03D004FF005
:10F010000A014FF0000285F8580085F8601085F865
:10F0200061206A4994F85020986B00F0AB80002A68
:10F0300047D10AAE9A6D51F820306549304621F02B
:10F040004BFD31460020634C634FDFF8B0B1DFF871
:10F05000B0A116F055FB002304F1E008AB6612E006
:10F06000032B5E492246304653D0012B32D03B68F9
:10F0700051F8231021F030FD20343146002016F0E5
:10F080003FFBA04562D06368022BE9D1AB6E3A68C2
:10F09000A0695BF822900133AB66A368049320F06B
:10F0A00035F9CDE90201E3696069079320F02EF993
:10F0B000079BCDE9000122464946304621F00CFD70
:10F0C000DAE70AAE5A6D51F820304549304621F052
:10F0D00003FDB6E7AB6E3A684249206951F82290C9
:10F0E0000133AB6620F012F9CDE90401E369A069B0
:10F0F000079320F00BF9CDE90201606920F006F9D1
:10F10000079BCDE9000122464946304621F0E4FC48
:10F11000B2E7AB6E3A68A0695AF822900133AB6649
:10F12000E268A3680493059220F0F0F8CDE90201AB
:10F13000E3696069079320F0E9F8079BCDE90001D6
:10F1400022464946304621F0C7FC95E72648F5F7A8
:10F1500007FCAB6E002B04DDE86C10B10368DB68C4
:10F1600098474BB0BDE8F08FD6F88404E8B10FF0B3
:10F17000D9F936E71B211D481CF05EFA1C481CF02B
:10F18000EFFCB6E642B10AAE5A6D51F8203019498B
:10F19000304621F0A1FC54E70AAE9A6D51F82030B8
:10F1A0001549304621F098FC4BE7034624E700BFA1
:10F1B0006857FF1FB059FF1F3857FF1F285BFF1FFD
:10F1C0007466FF1F1C5CFF1F5859FF1FAC23FF1FF5
:10F1D0007CB40300205AFF1FB465FF1F641CFF1F8F
:10F1E000ECB40300AC0EFF1FA42904005029040056
:10F1F000882AFF1FB4B403006C290400241AFF1FDF
:10F20000D41BFF1FD2F88434642202FB00F0002BD1
:10F210003FF4F2AED3F83034EEE600BF036810B529
:10F220005B69044698470C4BE16E1961002284F833
:10F2300039202046226F5A61FDF710FA074B1B78E0
:10F2400003B910BD1A2106481CF0F6F90548BDE8BF
:10F2500010401CF085BC00BFB059FF1F6857FF1F4E
:10F2600048230400882AFF1F10B50446D0F8C408BC
:10F27000044B236008B11CF0EFFD2046FDF73EF97A
:10F28000204610BD1C2E040010B50446D0F8C4085A
:10F29000074B236008B11CF0DFFD2046FDF72EF977
:10F2A000204640F6D8011CF0D9FD204610BD00BF15
:10F2B0001C2E040001220A2310B50446C0F89C202D
:10F2C000C0F8A43013F06AFDE368C4F8A800002178
:10F2D000186817F005FFE3680021586817F000FF71
:10F2E000E36800219868BDE8104017F0F9BE00BF40
:10F2F000012903D0081C18BF0120704710B5D0F8B1
:10F300009C4024B1032C0CBF1420012010BDFFF73A
:10F31000D1FF204610BD00BF2DE9F0411831324D1C
:10F320006FF068000723002601E055F8040F51F83C
:10F33000044F01338442C8BF0136792BF5D12B49E4
:10F340002B4BD1F858812B4900271C3203F5E47C64
:10F35000BE4611E00C681068651D854201DB0EF1A8
:10F36000010E844203F10403C8BF0137634502F173
:10F37000040201F1040108D0B8F1020FEAD11C68BF
:10F380001068651D8542ECDBE9E7052E05DDBEF161
:10F39000000F17D10320BDE8F0814EB9BEF11D0F5B
:10F3A00018DDEFB1142FCCBF04200220BDE8F0819E
:10F3B000BEF1180F11DD9FB10A2FCCBF042002202F
:10F3C000BDE8F081002FE5D00A2FB4BF0220042051
:10F3D000BDE8F0813046BDE8F0810020BDE8F08155
:10F3E0000120BDE8F08100BF302A0400B059FF1FA2
:10F3F000702E0400302C04002DE9F043B34DC26D93
:10F400002B6893B004460693069B9A423CBF6FF06C
:10F410007703C0F880302B680793079B026E9A42EF
:10F420003CBF6FF07703C0F88430C36E13F1770FE1
:10F43000C0F23D810A3BC366236F13F1770FC0F220
:10F4400031810A3B2367E06C30B105AB009304AA1D
:10F4500003AB02A908F042F8029AE36E934201DA84
:10F46000E266A267D4F88030934208DA2B680893EA
:10F47000089BC4F8802003F51C531033E365039BFD
:10F48000216F8B4201DD2367E367D4F884108B4240
:10F4900008DD296809910999C4F8843001F51C51E7
:10F4A0001031216612F1770FC0F20681934280F28B
:10F4B0004A8104996267C4F88810D4F88C1091428C
:10F4C00004DA0499C4F88C20C4F8941013F1770F6F
:10F4D00008DBD4F89020934204DD059AC4F89030FC
:10F4E000C4F898207A4D7B4F2868083013F0F6FF57
:10F4F0007A68794BD5F8008053F822900026A8F856
:10F50000B860A8F8BA60484621F0BAFDD8F80030D3
:10F51000494602465B684046984740461CF020FB3F
:10F520007A686E4BD5F8008053F82290A8F8B8603E
:10F530000923A8F8BA30484621F0A2FDD8F80030D7
:10F54000494602465B684046984740461CF008FB27
:10F550007A68634BD5F8008053F82290A8F8B86019
:10F560001223A8F8BA30484621F08AFDD8F80030B6
:10F57000494602465B684046984740461CF0F0FA10
:10F580007A68584BD5F8008053F82290A8F8B860F4
:10F590001B23A8F8BA30484621F072FDD8F8003095
:10F5A000024649465B684046984740461CF0D8FAF8
:10F5B0002A68636FA2F8B8602621A2F8BA100AA8D8
:10F5C000D4F88820484921F087FA2E680AA821F04B
:10F5D00057FD336802465B680AA9304698473046B3
:10F5E0001CF0BEFA414B1B68012B40F38980404B55
:10F5F000D3F85431002B40F083807A682B68512077
:10F600002E21012AA3F8B800A3F8BA1000F0A280B6
:10F61000A26F38490AA821F05FFA2E680AA821F0E3
:10F620002FFD336802465B680AA93046984730468A
:10F630001CF096FAE3685868036801228271DB685F
:10F640003122002198477A682B68012A4FF0370150
:10F650004FF05100A3F8BA10A3F8B8000CBF264928
:10F660002649E26F0AA821F037FA2D680AA821F08E
:10F6700007FD2B6802460AA95B682846984728467A
:10F680001CF06EFAE3689868036801228271DB68F7
:10F69000392200219847236820461B6B984713B0F6
:10F6A000BDE8F0836FF077032367E367CBE66FF085
:10F6B0007703C3668367BFE613F1770FFFF612AFD8
:10F6C000059A6367C4F8882000E700BF7466FF1FCF
:10F6D000C85BFF1F5859FF1F341CFF1F441CFF1F2E
:10F6E000541CFF1F9414FF1F543204005059FF1F75
:10F6F000B059FF1F703204007832040080320400D9
:10F700002B68A26F164932265320A3F8B800A3F83D
:10F71000BA600AA821F0E0F92D680AA821F0B0FC2F
:10F720002B6802460AA95B682846984728461CF0C1
:10F7300017FAE36818680368012181713246DB68B3
:10F7400000219847A7E77FF7B8AE05996367C4F82B
:10F750008810B2E6A26F03490AA821F0BDF95CE760
:10F76000E02704006832040038B5044678230A22F2
:10F7700028254FF4207021706261A3612561E0614A
:10F780001CF066FBE269E060002120F03FFF2046AC
:10F7900038BD00BF70B582B0144605460E4608223B
:10F7A0001449684619F046FEA4F114036B2B1ED8C9
:10F7B0006FF03B039B1B07EE903AB8EEE77AF7EE4B
:10F7C000086AC7EE267AE210A4EBC20402AB1C441E
:10F7D000E96814F8080CFDEEE77A17EE903A272B4B
:10F7E000A8BF272302EB0313CA5C0243CA5402B02A
:10F7F00070BD00BF0C2A04002DE9F04FC36CDFF888
:10F80000F0B0DFF8F090DFF8F0A048F2240285B005
:10F810009A58039248F2200200F6B80153F8028089
:10F8200002910023074604460125019332E0039B21
:10F8300053F82560DBF85831A9FB06267209022B24
:10F84000019243D000B205F079F98AFB0023C0177A
:10F85000C0EBA30097F8B63800B2C4F8B00043BBC1
:10F860006FF07801C4F8B014D4F8B0309942B8BF42
:10F87000194628B20E4605F0BBF9FDEEC07A0135F7
:10F88000314617EE902A0298FFF784FF802D04F18D
:10F89000040420D058F8040F97F8B638A9FB0020CC
:10F8A0004009002BC3D1DBF85831022B08BFC00040
:10F8B000C8E7BDF9040005F041F98AFB0031C01723
:10F8C000C0EBA10109B2C4F8B014CDE7019BDB0085
:10F8D000C0000193B6E702220F23C7F89C20C7F8A7
:10F8E000A43013F05BFAC7F8A80005B0BDE8F08FAC
:10F8F000B059FF1FB5814E1B676666662DE9F04360
:10F90000044689B013F04AFAD4F8A830984208D0D7
:10F91000D4F8A430013BC4F8A43013F03FFAC4F883
:10F92000A800D4F8A430002B79D0574D574E286842
:10F93000DFF86491DFF86481083013F0CFFD73685D
:10F94000286859F82310083014F026FB73682F68D4
:10F9500059F82390C0F1800000EBD07000234010D4
:10F96000A7F8B800A7F8BA30484621F089FB3B68F1
:10F97000024649465B683846984738461CF0F0F81E
:10F980007368286858F82310083014F005FB736872
:10F990002F6858F82380C0F1800000EBD070092355
:10F9A0004010A7F8B800A7F8BA30404621F068FB2D
:10F9B0003B6802465B6841463846984738461CF02B
:10F9C000CFF8D4F8A4203249684621F085F8286899
:10F9D0006946083014F0E0FAC0F180002F6800EBAF
:10F9E000D0701B234010A7F8B800A7F8BA306846BB
:10F9F00021F046FB3B6802465B68694638469847FB
:10FA000038461CF0ADF8D4F8A430043B032B0AD9D7
:10FA1000236820461B6B984709B0BDE8F083204659
:10FA2000FFF7EAFE81E7736828681A4F083057F835
:10FA3000231014F0B1FA73682D6857F82360C0F1F1
:10FA4000800000EBD07028234010A5F8B800A5F87E
:10FA5000BA30304621F014FB2B6802465B68314611
:10FA60002846984728461CF07BF8D4F8A430052B8C
:10FA7000CED194F8B438002BCAD1E06C05F012F85E
:10FA8000012384F8B438C3E7C85BFF1F5859FF1F30
:10FA900088320400E417FF1FC417FF1FD417FF1F8D
:10FAA0002DE9F04FC36CDFF828B4DFF82884DFF8C5
:10FAB000289448F22402ADF5697D9A580B9248F2D9
:10FAC000200200F6B8019F580A910023824604469E
:10FAD0000125099332E00B9B53F82560DBF8583180
:10FAE000A8FB06267209022B099243D000B205F04A
:10FAF00025F889FB0023C017C0EBA3009AF8B6389D
:10FB000000B2C4F8B00243BB6FF07801C4F8B0167D
:10FB1000D4F8B0329942B8BF194628B20E4605F063
:10FB200067F8FDEEC07A0135314617EE902A0A9843
:10FB3000FFF730FE802D04F1040420D057F8040FA5
:10FB40009AF8B638A8FB00204009002BC3D1DBF897
:10FB50005831022B08BFC000C8E7BDF9240004F0EB
:10FB6000EDFF89FB0031C017C0EBA10109B2C4F859
:10FB7000B016CDE7099BDB00C0000993B6E7DAF8C1
:10FB80004C0058B148F25703C35C002B40F09982F7
:10FB900003685B6898470023CAF84C300AF1AC034D
:10FBA0000AF52B72194650460C930D92FFF7B4FBE1
:10FBB0009AF8B638CAF8AC0843B10AF2AC620AF255
:10FBC000AC415046FFF7A8FBCAF8B0084FF47A746E
:10FBD000A948AA4BAA49279425900024A94A8DF840
:10FBE00098401BA88DF8A0403794389420F074FFFB
:10FBF000A54B196829AB0B9341B118461BAA40F2DB
:10FC0000092310F075FF002840F0DF809F4BA049CA
:10FC1000A04809931BAA1BF0BFFF9F4B0A939AF8B9
:10FC2000B63839AC002B00F048829C4B099A5268D8
:10FC300053F8229013F0E2F8054613F0CFF8064689
:10FC400013F0BCF80E9013F089F8074613F096F8FD
:10FC5000804613F0A3F80E9B009303903346494669
:10FC6000CDF8088001972A461BA820F035FF9AF8A6
:10FC7000B638002B00F02382894B099A526853F85A
:10FC8000229013F0BBF8054613F0A8F8064613F0CF
:10FC900095F80E9013F062F8074613F06FF880465F
:10FCA00013F07CF8099A0E995368DAF8AC280091A1
:10FCB00003EB430302EB43030A9A52F82330049305
:10FCC0002A463346494603900197CDF808802046DE
:10FCD00020F002FF34201CF0B9F8B4250A236FF09D
:10FCE00036016FF077021BAF0797059303930293DA
:10FCF00004950191009200234FF496724FF42F71F6
:10FD0000069406460CF078F8099B664A5B68664DD7
:10FD100052F823100D9B01938027002302223046C6
:10FD2000029500970CF0C2F8DBF85831574A022BC5
:10FD300000F032845D4B52680D9319465C4B51F8CC
:10FD400022100193029500970223082230460CF0FE
:10FD5000ADF8099FDFF884917B68564A59F8231063
:10FD6000019201234FF080081A4630460295CDF8E3
:10FD700000800CF09BF87B684F4ACDF8008052F869
:10FD800023100C9B019303220023304602950CF0B4
:10FD90008DF830460CF094FC30460BF0F3FD304605
:10FDA00034211CF05BF89AF8B638384E002B40F03E
:10FDB000CF810323CAF89C300B98404B259310F059
:10FDC00053FE0DF5697DBDE8F08F9AF8B638002B2B
:10FDD00040F080812D4B30490A911A460992384BE8
:10FDE000526853F8228013F009F8054612F0F6FF26
:10FDF000064612F0E3FF044612F0B0FF074612F089
:10FE0000BDFF814612F0CAFF099B0A995B68009406
:10FE1000DAF8AC28039003EB430302EB430339AC5D
:10FE200051F8230004902A4641463346CDF8089005
:10FE30000197204620F050FE204621F021F902468D
:10FE40003798002800F05C8221460FF0AFFA25A811
:10FE50001BF086FE099B1B4A5B680F92154603EB5D
:10FE60008303194A204652F8231021F0A7F805F51C
:10FE7000E277164836E000BFC8FC0300D060FF1FE1
:10FE800090320400F659FF1FE860FF1F5859FF1F0A
:10FE9000B4320400882AFF1F4C10FF1F8C0EFF1F76
:10FEA000D411FF1FC410FF1F54300400D410FF1FD3
:10FEB000142C0400142A0400F410FF1FA4FC0300F7
:10FEC000B41BFF1F743004002C0DFF1F00002841DD
:10FED000B059FF1FF119760567666666E410FF1FCB
:10FEE00055F8040B1FF012FA02460B4616A88D496E
:10FEF00020F0F2FD204621F0C3F816A9204420F09E
:10FF00003FFEAF42ECD1379B021B002B00F0F0818B
:10FF1000184621460FF04AFA25A81BF021FE099B3E
:10FF2000814A5B6803EB830302EB83032046596835
:10FF300021F044F80AF531760AF28C4556F8042F80
:10FF40007A4916A820F0C8FD204621F099F816A994
:10FF5000204420F015FEB542F0D1379B021B002B48
:10FF600000F0BE81184621460FF020FA25A81BF0AC
:10FF7000F7FD099B6C495B686D4A109203EB8303A4
:10FF800001EB8303154620466A4A99680E9221F0D8
:10FF900015F8DFF8A08105F5E476DBF85831634900
:10FFA000022B0CBF2A68D8F8002016A820F094FD78
:10FFB000204621F065F8043516A9204420F0E0FD24
:10FFC000B54208F10408E8D1379B021B002B00F072
:10FFD0007F81184621460FF0E9F925A81BF0C0FDE6
:10FFE000099B554A5B68119215464F4A03EB830300
:10FFF00002EB83032046D96820F0E0FF2A469046B2
:020000021000EC
:1000000005F5E2756FF0680201E058F8042F4749E2
:1000100016A820F061FD204621F032F816A92044F0
:1000200020F0AEFD4545F0D1379B021B002B00F0C0
:100030004781184621460FF0B9F925A81BF090FD1D
:10004000099B394A5B6803EB830302EB8303204679
:10005000196920F0B3FF0AF1C4090AF5237859F8A9
:10006000042F324916A820F037FD204621F008F869
:1000700016A9204420F084FDC145F0D1379B021B16
:10008000002B00F04C81184621460FF08FF925A86F
:100090001BF066FD9AF8B638002B40F04F81379878
:1000A000002800F035810FF07BF90B9810F0DCFC94
:1000B0009AF8B638002B7FF4B8AD204BB6E5204B4C
:1000C000DBE503681B699847DAF84C0000287FF4E9
:1000D0005FAD63E51B4B1C490A911A4609921B4B05
:1000E000526853F8228012F089FE054612F076FE1F
:1000F000064612F063FE044612F030FE074612F088
:100100003DFE814612F04AFE099B0F495B68009450
:10011000DAF8AC28039003EB430302EB430339AC5A
:100120007EE600BFA43204002C0DFF1FAC32040099
:10013000702E0400302C0400302A0400AC10FF1F85
:100140002C10FF1F5859FF1F4C10FF1F2416FF1FB4
:10015000A14B726853F82210119112F04FFE0C90CF
:1001600012F03CFE0E9012F029FE0F9012F0F6FDF8
:10017000074612F003FE109012F010FE7368DAF8D2
:10018000B0280F99009103EB430302EB43030A9A53
:10019000119952F823300493109B03900293019716
:1001A0000E9B0C9A204620F097FC8C4B726853F8FB
:1001B0002210109112F022FE074612F00FFE0F904F
:1001C00012F0FCFD0A9012F0C9FD0E9012F0D6FD5F
:1001D0000C9012F0E3FD0A9B0E9A00930C9B109971
:1001E0000390029301920F9B3A461BA820F074FCE7
:1001F00034201BF02BFE0A234FF0B40E6FF0770C67
:100200006FF036011BAA0792059303930293CDF872
:1002100010E00191CDF800C000234FF496724FF426
:100220002F71069407460BF0E7FD6D4A7368029242
:100230006C4A52F82310CDF800800AF2AC630193A7
:100240003846002302220BF031FEDBF85831022B36
:1002500000F0BA81624A736802920D9A52F8231034
:10026000614B0193CDF800800223082238460BF041
:100270001DFE099E7368029559F823105B4B01938C
:10028000802401231A46384600940BF00FFE736851
:10029000574A009452F8231002950AF2AC43032205
:1002A0000193384600230BF001FE38460CF008FAA3
:1002B00038460BF067FB384634211BF0CFFD78E55C
:1002C000389800283FF4B9AE21460DF015FAB4E68F
:1002D000389800283FF481AE21460DF00DFA7CE6F7
:1002E000389800283FF442AE21460DF005FA3DE66D
:1002F000389800283FF410AE21460DF0FDF90BE6CA
:10030000389800283FF4A3AD21460DF0F5F99EE59D
:10031000389800283FF4C9AE0DF08EF8C5E638983D
:1003200000283FF4B4AE21460DF0E6F925A81BF0F5
:1003300017FC9AF8B638002B3FF4B1AE099A2D4B52
:10034000526853F82210159112F058FD149012F0D3
:1003500045FD814612F032FD129012F0FFFC8046FE
:1003600012F00CFD139012F019FD099ADAF8B0C8DA
:10037000D2F804E0129B00930EEB4E0E0CEB4E0EE7
:100380000A9B149A53F82E300493139B15990390EB
:100390000293CDF804804B46204620F09DFB20467A
:1003A00020F06EFE02463798002800F005812146B5
:1003B0000EF0FCFF25A81BF0D3FB099B0E4A5B68DF
:1003C00003EB8303204652F8231020F0F7FD0B487F
:1003D000DDF83C8016E000BFF41BFF1F940EFF1FEA
:1003E00054300400C410FF1F142C0400142A04000D
:1003F000F410FF1F541BFF1F2C0DFF1F000028418E
:1004000058F8040B1EF082FF02460B4616A88949D5
:1004100020F062FB204620F033FE16A9204420F095
:10042000AFFB4745ECD1379B021B002B00F0F98056
:10043000184621460EF0BAFF25A81BF091FB099B38
:100440007D4A5B6803EB830302EB83032046596814
:1004500020F0B4FD0AF2C4680AF68C0758F8042F9D
:10046000764916A820F038FB204620F009FE16A990
:10047000204420F085FBB845F0D1379B021B002BB0
:1004800000F0C780184621460EF090FF25A81BF00B
:1004900067FB099B684A5B6803EB830302EB8303FA
:1004A0002046996820F08AFDDDF83880109FDBF83F
:1004B00058316249022B0CBF3A68D8F8002016A8C0
:1004C00020F00AFB204620F0DBFD043716A920446B
:1004D00020F056FBB74208F10408E8D1379B021B15
:1004E000002B00F08E80184621460EF05FFF25A8F5
:1004F0001BF036FB099B504A5B6803EB830302EB5E
:1005000083032046D96820F059FD6FF06802119EE0
:1005100001E056F8042F494916A820F0DDFA2046DC
:1005200020F0AEFD16A9204420F02AFBAE42F0D107
:10053000379B021B002B5DD0184621460EF036FF7C
:1005400025A81BF00DFB099B3B4A5B6803EB83036B
:1005500002EB83032046196920F030FD0AF2C446FD
:100560000AF28C6556F8042F344916A820F0B4FA24
:10057000204620F085FD16A9204420F001FBB5425D
:10058000F0D1379B021B73B3184621460EF00EFFC5
:1005900025A81BF0E5FA82E55168294A0D9210461C
:1005A000284A50F8211001920295009708223046FF
:1005B0000BF07CFCFFF7CDBB389800283FF4FAAE77
:1005C00021460DF099F8F5E61F49726802910D99E0
:1005D00051F822101B4A0192CDF8008008223846BB
:1005E0000BF064FC45E638980028D1D021460DF088
:1005F00083F8CDE738980028A2D021460DF07CF88A
:100600009EE7389800283FF472AF21460DF074F849
:100610006DE7389800283FF439AF21460DF06CF8AB
:1006200034E7389800283FF407AF21460DF064F80E
:1006300002E700BFA43204002C0DFF1FAC320400FF
:10064000D410FF1F542E0400543004002DE9F04351
:10065000044689B012F0A2FBD4F8A830984208D022
:10066000D4F8A430013BC4F8A43012F097FBC4F8CE
:10067000A800D4F8A430002B79D05B4D5B4E2868DD
:10068000DFF87491DFF87481083012F027FF736887
:10069000286859F82310083013F07EFC73682F681F
:1006A00059F82390C0F1800000EBD0700023401077
:1006B000A7F8B800A7F8BA30484620F0E1FC3B683C
:1006C000024649465B683846984738461BF048FA68
:1006D0007368286858F82310083013F05DFC7368BD
:1006E0002F6858F82380C0F1800000EBD0700923F8
:1006F0004010A7F8B800A7F8BA30404620F0C0FC78
:100700003B6802465B6841463846984738461BF0CE
:1007100027FAD4F8A4203649684620F0DDF9286885
:100720006946083013F038FCC0F180002F6800EBF8
:10073000D0701B234010A7F8B800A7F8BA3068465D
:1007400020F09EFC3B6802465B6869463846984745
:1007500038461BF005FAD4F8A430043B082B0AD91C
:10076000236820461B6B984709B0BDE8F0832046FC
:10077000FFF796F981E7736828681E4F083057F82D
:10078000231013F009FCD4F8A4302D68DB074FF0D8
:100790002803A5F8BA30C0F18000736800EBD07070
:1007A00057F823604FEA600054BF0F380F30A5F8A8
:1007B000B800304620F064FC2B6802465B68314686
:1007C0002846984728461BF0CBF9D4F8A430082BCC
:1007D000C6D194F8B538002BC2D1E06C04F088F98A
:1007E000012384F8B538BBE7C85BFF1F5859FF1FCA
:1007F000883204001411FF1F1420FF1F2420FF1F44
:100800002DE9F043594F5A493B6887B0064603F13A
:10081000080013F0B1FB142422465649DFF84C813E
:1008200003A820F059F9386803A9083013F0B4FB85
:100830001FFA84F93D683378A5F8BA3000EBD07020
:10084000A9EB6000A5F8B80003A820F019FC2968FE
:1008500002464B68284603A998473278386802F167
:1008600008030093143406324B464946083013F00F
:1008700083FC8C2CD0D13278D8F80000338BB18A2D
:1008800009320092083013F077FC3278D8F8000073
:10089000F168338A009301910A3208301023002155
:1008A00012F03AFCD8F800003478036832495B68EB
:1008B000002504F10A02A0F8BA20A0F8B8500322DB
:1008C0009847D8F800002D490368A0F8B85004F103
:1008D0001002A0F8BA205B6803229847D8F80000FD
:1008E00027490368A0F8B85004F11702A0F8BA200D
:1008F0005B6803229847D8F8000022490368A0F8F3
:10090000B85004F11D02A0F8BA205B680322984792
:10091000D8F800001C490368A0F8B85004F124027C
:10092000A0F8BA205B6804229847D8F8000017495D
:100930000368A0F8B8502A34A0F8BA405B680422D3
:1009400098473278D8F800000C233F210A320091F2
:100950000830194613F010FCD8F800000C49083094
:1009600013F00AFB07B0BDE8F08300BFC85BFF1FB0
:10097000A48D040010490400D0320400D4320400D5
:10098000D8320400DC320400E0320400E832040013
:100990002C840400F0B52B4D2B68044689B003F17C
:1009A000080012F09BFD94F8B638002B34D1264B8A
:1009B000D4F8AC285B68254903EB430302EB4303FF
:1009C00001AE51F82310304620F0F8FA286831467D
:1009D000083013F0E1FAC0F180002D6800EBD07010
:1009E00000234010A5F8B800A5F8BA30304620F032
:1009F00047FB2B68024631465B68284698472846E5
:100A00001BF0AEF804F6B800FFF7FAFE23682046A4
:100A10001B6B984709B0F0BD0B4BD4F8AC085B6872
:100A2000D4F8B028094F0A4903EB43035B0018448C
:100A30001A4401AE57F8203057F82220304620F0F3
:100A40004BF8C3E7C85BFF1F5859FF1F4C10FF1F2F
:100A5000F032040010B5134A846D116882B0009121
:100A600000998C420FD212680192019AD0F89C1022
:100A700002F596720229826507D003290DD001295B
:100A800007D0FEF7B9FC02B010BDFFF7DFFD02B0E2
:100A900010BDFEF733FF02B010BDFFF77BFF02B0C1
:100AA00010BD00BF7466FF1F2DE9F04F044687B0EC
:100AB000FDF75CF8404B23606FF0770500270921B4
:100AC00004F6B800FEF750FEC4F8887084F8B678D3
:100AD0006566A566E5662567A567E567C4F8805085
:100AE000C4F88450E8201BF0B1F906AE04F16C0A9A
:100AF0006FF031093223502283465146019302950B
:100B000008230097CDF80C9017F028FA46F804BD9A
:100B100004F10C0831464046F0F71AFFE8201BF0BC
:100B200095F931234E2251460193CDF80C900623BE
:100B300002950097834617F011FA31464046CDF8EA
:100B400014B0F0F705FFE8201BF080F9392304F119
:100B5000700101934E220623CDF80C900295009768
:100B6000824617F0FBF931464046CDF814A0F0F765
:100B7000EFFE124B1B68012B03DD114BD3F8541110
:100B8000A9B1E3680021586816F0AAFAE3680021C9
:100B9000986816F0A5FA002305222046C4F89C3078
:100BA000C4F8A030C4F8AC2807B0BDE8F08FE36803
:100BB000186816F095FAEEE71C2E04005059FF1F36
:100BC000B059FF1F2A4B1B782DE9F0410446002B3A
:100BD00044D1284E284D3068284B6B6101220023F8
:100BE0009042C8BFC5F854312B6485F83C302B6265
:100BF0006B620023052185F84520EA6484F8B43847
:100C000084F8B53884F838304FF4FA5720462F610D
:100C100029602963FDF75EF93368012B02DDD5F801
:100C20005431BBB1E06C00236FF078026FF07701B4
:100C3000C4F88C20C4F89020C4F89430C4F89830DC
:100C4000A365E3652366616780B10368BDE8F04191
:100C5000DB681847012384F8B638E3E71921084810
:100C60001AF0EAFC07481AF07BFFB2E7BDE8F08112
:100C70006857FF1F5059FF1FB059FF1FF0C60200F1
:100C8000F8320400882AFF1FF0B50446002680F8D9
:100C9000396083B0FBF7E2FC94F8B6082C4D0028CD
:100CA00033D069682B4AD4F89800D4F8907052F881
:100CB0002110D4F89430D4F88C200190009730465D
:100CC00014F01EFDD4F8AC38042B15DC94F8B608EB
:100CD00030B36A682049D4F8B00851F822101F4D8B
:100CE00002EB420252001044134455F8232055F8F9
:100CF0002030002014F004FD236820465B699847EB
:100D0000174B1B78D3B903B0F0BD164A6968D4F805
:100D1000943052F82110D4F88C2014F0F1FCD1E773
:100D200069680E4A104D01EB410603EB460355F886
:100D3000211052F8232014F0E3FCDDE71A210B48C0
:100D40001AF07AFC0A4803B0BDE8F0401AF008BF78
:100D50005859FF1FA417FF1F0416FF1F4C10FF1F39
:100D60006857FF1F4C0EFF1F641FFF1F1433040042
:100D7000882AFF1F0120704738B5044649F6E46011
:100D80001BF064F807220546024906F04DFCE564B5
:100D900038BD00BFB059FF1F013938B504460629D8
:100DA0001CD8DFE801F004382E1B1B361D00294A31
:100DB000936D0333632B00DD63239365E3680322A4
:100DC00084F8AC20D869002116F08AF9E368012183
:100DD000D86816F085F92046F3F70CF8002038BDE6
:100DE000836EFBB9C06C48F25803C35C03F0FF0587
:100DF000002BF3D103689B69984702232846A3661A
:100E000038BD144B93F85C20FAB9012283F85C20BA
:100E1000E1E70B2038BD0F4A936D033B042BD8BF8D
:100E20000523CAE7022BD9D1E06C48F25803C35C12
:100E3000002BD3D005F0C0FF0128CFD9E06C0368A8
:100E4000DB6998470020A06638BD002283F85C204B
:100E5000C1E700BFB059FF1F10B50446C06F054B76
:100E6000236008B11AF0F8FF2046FBF747FB204645
:100E700010BD00BF7C33040010B50446C06F074BA3
:100E8000236008B11AF0E8FF2046FBF737FB204645
:100E9000BC211AF0E3FF204610BD00BF7C330400E4
:100EA00070B504468AB00120F3F78CFC304B07EE96
:100EB000900A93F85C30B8EE677A002B4AD1D4EDF3
:100EC000246AF2EE047AE7EE267AC4ED167A17EE7B
:100ED000900A1EF01BFA274C02460B4603A826492F
:100EE0001FF0FAFD20682549083013F045F8206806
:100EF00023490368002525225B68A0F8B820A0F8E4
:100F0000BA500322984720682946083013F006F9A2
:100F1000266803A8A6F8B850A6F8BA5020F0B0F892
:100F20003368024603A95B683046984720680D2263
:100F3000009246232946083013F01EF9206801214B
:100F4000083013F0EBF820680E49083013F014F85D
:100F50000AB070BD94ED256AD4ED176AFAEE047AF2
:100F6000E7EE067A77EEA67AC4ED167AAFE700BF11
:100F7000B059FF1FC85BFF1FC8330400985E040010
:100F80000CB203002C84040030B504467F23080112
:100F9000002583B0A36122702161E06165611AF0D0
:100FA00057FFE269E06029461FF030FB054B1B68E4
:100FB0000193019B4FF47A72134420466260A36050
:100FC00003B030BD7466FF1F2DE9F0475A4F3B68F0
:100FD00088B00646894603F10800584912F0CCFF54
:100FE000142422465649DFF8508105A81FF074FDED
:100FF000386805A9083012F0CFFF1FFA84FA3D685F
:101000003378A5F8BA3000EBD070AAEB6000A5F8F1
:10101000B80005A820F034F82B6802465B6805A9E3
:10102000284698473278386802F108030093143450
:10103000063253465146083013F09EF88C2CD0D11E
:10104000D8F800003F49404C083012F095FF327844
:10105000D8F80000338BB18A09320092083013F0BF
:101060008BF83278B38AD8F8000002F108010091B9
:1010700006321946083013F07FF83278338BD8F8EF
:10108000000002F10801009106321946083013F001
:1010900073F81FFA89F93278D8F8000009F1FF33A4
:1010A0009BB202F10C05194600950632083013F088
:1010B00063F83278D8F8000002F10C034946009337
:1010C00006324B46083013F057F83278D8F8000053
:1010D00009F101091FFA89F302F10C0519460632DC
:1010E0000830009513F048F83278D8F80000F1681D
:1010F000338A009301910D3210230830002112F041
:101100000BF823680393039BB2689A4211D2F168EB
:10111000F26901F11000103A1FF014FA10220021B8
:10112000F0681FF073FA23680493049B72681344F9
:10113000B36008B0BDE8F087C85BFF1FA48D040052
:10114000104904002C8404007466FF1F2DE9F0434D
:1011500093B090F8AD40054611F020FE844210D0C7
:1011600011F01CFEB74B85F8AD001B78002B40F04A
:101170009B8195F8AC40002C00F0AD81013C85F8D6
:10118000AC40EA6C48F25803D35C03F0FF01002B3B
:1011900000F01181AB6E022B1CBF0223AB66EB6823
:1011A0000121586815F09CFFE86C05F005FEE86623
:1011B00005ABE86C009304AA03AB02A906F08EF914
:1011C0006B6E029A93420DDADDED047A95ED287A82
:1011D000F8EEE77AB8EE477AF4EEC77AF1EE10FA55
:1011E00080F2B380984FD5F898103A680792079A22
:1011F0009142C0F04381013B6B66E86CDFF8788276
:1012000048F2100248F21203845AC35AA4B29BB2A5
:1012100000F509469C4206F1200600F37181264440
:1012200007E000F50043123301341B889BB2A34250
:1012300024DB16F8012BD8F84C309A42F1DB20B2AF
:1012400003F0D6FCFDEEC07A082217EE909A7F4993
:101250000BA818F0EFF8B9F1000F4B46B8BF09F131
:101260000703DB1012AAA9EBC3099144E96F19F82F
:101270001C0CCA5C0243CA54E86CD2E700F5094072
:101280002030802200211FF0C1F9D5ED167A704C74
:10129000FDEEE77A05F1700017EE901AFFF794FE65
:1012A00020686C49083012F067FED8F830302068AA
:1012B00050210022042BA0F8B810A0F8BA2074D056
:1012C000062B3CD0036864495B680322984720687A
:1012D000624903685E4E5B685022A0F8B82006227F
:1012E000A0F8BA200322984720685D49083012F020
:1012F00043FEF3F77DFB002863D1FFEE000A95ED76
:10130000160AE86C504C06F06BFA3B680993099A90
:10131000D5F89C309A420FD92846F3F77FFBF3F7B4
:1013200083FA23680A930A9B03F5EA433033C5F82E
:101330009C300120F3F7DEF913B0BDE8F0830368B9
:1013400048495B6803229847C1E795ED297AB8EED2
:10135000477AF4EEC77AF1EE10FA3FF643AFB2EEF9
:101360000E7AF4EEC77AF1EE10FA2A666A6608DBA6
:101370009FED3D7AF4EEC77AF1EE10FA98BFC5ED15
:10138000177A314FEA683B680693069B106903F5AC
:101390009C530833C5F89830012115F0A1FEEB6885
:1013A0000121586915F09CFE27E703682F495B6807
:1013B000032298478BE7EB68A966586815F090FE02
:1013C000F6E6D5ED127A2A49FDEEE77AB02317EE5C
:1013D000902A0BA81FF080FB346834234FF00C08D0
:1013E000A4F8B8300BA8A4F8BA801FF049FE23680F
:1013F00002465B6820460BA99847D5ED107AFDEEB2
:10140000E77AB1EE047AF8EEE76AF4EEC76AF1EE35
:1014100010FA7FF772AF17EE902A16490BA81FF04B
:101420005BFB34684D23A4F8B830A4F8BA800BA84D
:101430001FF026FE236802460BA95B6820469847EA
:101440005BE700BF545BFF1F7466FF1F303304006F
:10145000C85BFF1FA0780400701804000CB20300E2
:101460002C840400741804000000F0426C1804007E
:1014700038F1030040F10300B059FF1F3B680893A7
:10148000089BE96803F59C5308336FF077020869FD
:10149000C5F898302A66002115F022FEEB6800217D
:1014A000586915F01DFEA8E6FF22EB6885F8AC2010
:1014B000D869002115F014FEEB680021D86815F0FA
:1014C0000FFEEB680121186A15F00AFE95F8AC4092
:1014D000002C7FF453AEEB680121D86915F000FEB3
:1014E000EB682146D86815F0FBFDEB682146186AC9
:1014F00015F0F6FD95F8AC30013B85F8AC3040E6D0
:101500003046BEE62DE9F04F05468DB0FCF72EFBC8
:1015100028468A4B40F8703B14211E220024FFF716
:1015200033FD6FF0770A864A864BAA65EB65C5F8EE
:1015300060A0C5F864A0AC66EC66D8201AF086FC02
:101540000B2703970926192364278DE8C8000CAEE2
:1015500022460123804605F1680116F0BBFC46F8DF
:10156000048D05F10C0731463846F0F7F1F9E0201B
:101570001AF06CFC4FF0010840F2E73E05F16C02F6
:1015800060211523CDF808E08DE81400059322466C
:101590006D4B0491CDF80C806C49DFF8F8918346CF
:1015A00016F0BCF831463846CDF82CB0F0F7D0F93B
:1015B000D4201AF04BFC4FF0020E3C21CDF810E085
:1015C0000391DFF8D4E1624943468DE802422246A6
:1015D0006049834616F078F931463846CDF82CB08C
:1015E000F0F7B6F9E0201AF031FC4FF0030C4FF0A1
:1015F000630EA9F1040305214FF00C09CDF80CC0CE
:10160000CDF808E0224600930191534B0494CDF8A5
:1016100014905249834616F081F831463846CDF889
:101620002CB0F0F795F9E0201AF010FC05F15C03FE
:1016300015229FED4B1ADFED4B0A0292B2EE040A1F
:1016400022468DE818004849484B834616F0AAF810
:1016500031463846CDF82CB0F0F77AF9E0201AF090
:10166000F5FB6FF0270E05F1600236211523CDF84A
:1016700008E0CDF804A0059300923D4B049122466A
:10168000CDF80C803B49834616F048F83146384681
:10169000CDF82CB0F0F75CF9D4201AF0D7FB642316
:1016A00018228DE8080134490823824616F038FCD8
:1016B00031463846CDF82CA0F0F74AF9D8201AF078
:1016C000C5FB22462D4BCDF80890019400942C497F
:1016D000824616F0F3F931463846CDF82CA0F0F7E3
:1016E00037F9D8201AF0B2FB05F1AE0A08232246DA
:1016F0000193CDF82090234B0794CDF81880CDF8B6
:1017000014800494CDF80C800294CDF800A01E49FA
:10171000834615F0D5FF31463846CDF82CB0F0F7AA
:1017200017F91A4A1A4B5268504653F822101FF004
:1017300045FC28460DB0BDE8F08F00BF7C330400A7
:101740000000344200002042C823FF1F643304001D
:10175000E823FF1FD0330400C411FF1F68330400C7
:10176000CDCCCC3D0000F04238330400D023FF1F25
:10177000D823FF1FC0330400AC57FF1FC023FF1F37
:10178000B4330400E023FF1F403304005859FF1F07
:10179000FC0DFF1F0C5AFF1FE412FF1FF0B54D4E4A
:1017A00083B0044613F098FA326C0023092A86F8B5
:1017B000503086F83C30DCBF0A233364012000231C
:1017C00086F84500062184F8383020463160FCF761
:1017D00081FB336B3F4A042BC4BF04231363E368CC
:1017E0003D2284F8AD200CCB0025157218461D72E1
:1017F000294615F075FCE368606B9F68D9681A6923
:101800003D725F690D72D96915721A6A53F820002A
:101810003D720D721572294615F032FDE3682946B6
:10182000D86815F05DFCE3682946186A15F058FC85
:10183000294B9FED2A7A1A68D6ED187A0192019FFA
:101840001B68009367EE877A009930697269244BB0
:1018500084F8AC50FDEEE77A643117EE905AC4F884
:101860009C1083FB00E183FB02E3C017D217C0EB9F
:10187000A111C2EBA3132F44C4ED1D7AC4F8A0102C
:10188000C4F88410C4F8A430C4F88830A7670120D5
:10189000F2F730FF336B134AC4F89420062B98BF3D
:1018A000114AE06C98BF52F823301049C4F89010E8
:1018B00094BF1B0A40F2DC53C4F8A8300368DB680D
:1018C00098470B4A4FF4003100231160C4F8983058
:1018D00003B0F0BDB059FF1F7466FF1F00007A44CB
:1018E000D34D62100000A03B483304000000DC3CF4
:1018F00008F00F4038B50368094A5B6909494FF49D
:101900000035934204460D6004D12046BDE83840BE
:10191000FAF7A4BE98472046BDE83840FAF79EBEC5
:10192000750D010004F00F4010B5034B0360044631
:1019300013F0D6F9204610BD0819040010B5054B68
:101940000360044613F0CCF9204670211AF086FAA1
:10195000204610BD08190400436D10B50446032B42
:1019600000F28180DFE803F05A3E2702C3680121BC
:10197000986815F0B5FBE3680121586915F0B0FBD4
:10198000E3680121986915F0ABFBE3680121D86990
:1019900015F0A6FBE3680121186A15F0A1FBE368C6
:1019A0000021586A15F09CFBE36801211869BDE825
:1019B000104015F095BBC3680121986815F090FBA5
:1019C000E3680121586915F08BFBE36801219869F0
:1019D00015F086FBE3680121D86915F081FBE36807
:1019E0000021D9E7C3680121986815F079FBE36805
:1019F0000121586915F074FBE3680121986915F01D
:101A00006FFBE3680021D86915F06AFBE3680021E9
:101A1000186A15F065FBE3680121C2E7C36800217D
:101A2000986815F05DFBE3680021586915F058FBD4
:101A3000E3680021986915F053FBE3680021D86939
:101A400015F04EFBE3680021186A15F049FBE368C6
:101A50000021586A15F044FBE36800211869BDE8CD
:101A6000104015F03DBB10BD70B50646094DF5F7A9
:101A700057F80123F3640FCD06F150040FC495E825
:101A80000F0084E80F00002575633046BDE8704004
:101A9000FFF762BF205AFF1FF8B5054659B1052967
:101AA0001FD0062936D0072945D008292AD0032976
:101AB00049D0264E0FE000F150060FCEEF6C244CBB
:101AC00004EB471450340FC496E80F0084E80F006D
:101AD0001E4E012737602B6828469B69984730685F
:101AE000F8BDD0ED197A90ED1A7AF4EEC77AF1EEDE
:101AF00010FADEDDB0EE007A77EE877A134EC0ED95
:101B00001A7AE8E7C36D826D9342D2DA083B8365A7
:101B10000E4EE0E7D0ED1A7A90ED197AF4EEC77A1E
:101B2000F1EE10FAC5D5B0EE007A77EEC77A074E1F
:101B3000C0ED197ACFE7836DC26D9342B9DD0833EA
:101B4000C365024EC7E7FFF707FFB2E70466FF1F52
:101B5000B059FF1F426B012A01D013F00BBB0329C0
:101B6000F8B50446C56C08D0052906D0042929D04B
:101B700013F000FBE36C074604E06B1C072B26DC2C
:101B8000E3640027AB421BD004F1500EBEE80F0007
:101B9000104E06EB451550350FC59EE80F0085E841
:101BA0000F00E56C06EB451550350FCD04F15006DE
:101BB0000FC695E80F008EE80F002046FFF7CCFE19
:101BC0003846F8BD6B1E002BD8BF0723D8E701238A
:101BD000D6E700BFB059FF1F2DE9F04F2DED028B66
:101BE00006468DB00746F1F7F7FE8F4B46F80C3BE3
:101BF000D0201AF02BF900240CAD22468B4B019417
:101C0000804600948A499FED8B8A15F079FE45F84D
