:1000000000000320D10100009DD9020059D902004F
:1000100059D9020059D9020059D9020059D9020010
:1000200059D9020059D9020059D902009DD90200BC
:100030009DD9020059D9020079D002007DD002007A
:100040009DD902009DD90200257E01004D3D010091
:100050009DD902009DD902009DD902009DD90200C0
:100060009DD902009DD902009DD902009DD90200B0
:100070009DD902009DD902009DD902009DD90200A0
:100080009DD902009DD902009DD902009DD9020090
:100090009DD902003109FF1F9DD902009DD90200A0
:1000A00081C202008DC202009DD902009DD90200CA
:1000B0009DD902009DD902009DD902009DD9020060
:1000C0009DD9020045EA02009DD902009DD9020097
:1000D0009DD902009DD902009DD902009DD9020040
:1000E0009DD902009DD902009DD902009DD9020030
:1000F0009DD902009DD902009DD902009DD9020020
:10010000E1D20200F9D2020011D3020029D3020089
:100110009DD90200A1ED02009DD902009DD90200E7
:100120009DD902009DD902009DD902009DD90200EF
:100130009DD902009DD902009DD902009DD90200DF
:100140009DD902009DD902009DD902009DD90200CF
:100150009DD902009DD902009DD902009DD90200BF
:100160009DD902009DD9020099C202009DD90200CA
:100170009DD902009DD902009DD902009DD902009F
:100180009DD902009DD902009DD902009DD902008F
:100190009DD902009DD902009DD902009DD902007F
:1001A0009DD902009DD902009DD902009DD902006F
:1001B0009DD902009DD902009DD902009DD902005F
:1001C0009DD902009DD902009DD902009DD902004F
:1001D0005F4B4CF2205210B5DA814DF62812DA81CD
:1001E00000BF00BF2CF0A6FC5A4B4FF030621A63E0
:1001F000594A9A63594ADA634FF0E0234FF4700288
:10020000C3F8882D03F5E823554A1A60554B9A78B0
:10021000110703D59A7842F008029A70524B53485E
:10022000AA221A70524BDA1C121AC11E22F00302C3
:10023000994288BF00224F492DF0BAFA4E4B4F48E1
:10024000DA1C121AC11E22F00302994288BF002252
:1002500000213DF0BBFF4A494A484FF4E8722DF0B7
:10026000A7FA494B494A802103F8011B9342FBD16D
:100270004FF0E023434AC3F8082D454B8A221A70F9
:10028000A3F5805324225A70A0221A709A799207FB
:10029000FCD59A79D406FCD43E4A937903F00C033A
:1002A000082BFAD1304B60225A70DA78802AFCD1C0
:1002B000384B01221A715D225A719A799006FCD549
:1002C0009A795106FCD5234A33495164002191643F
:1002D000202119702F498B7903F00C030C2BFAD1D4
:1002E0002E4B53602E4A136913F4807303D153616C
:1002F0004FF4A85313614FF0E0232A4A5A610022B9
:100300009A6107221A61284AC3F8202D62B62DF09F
:100310006DFE234B5B69DA0705D524482DF05AFEA4
:10032000234B244ADA61244B1B785B0609D5204C09
:10033000204BE2699A4204D11C482DF04BFE002369
:10034000E3612DF02FFB3EF06DFB2DF029FAFEE767
:100350000020054000800440823F04000100002B83
:100360000300008500D0074000E007403009FF1F70
:100370003835FF1F1C0C0700E46EFF1F3835FF1FC8
:10038000000000000004FF1F00E400E064E400E05F
:10039000005006400040064000000602C010070062
:1003A00000D003401FBF020000002020E98D04653B
:1003B00000E00340A5C3945A00F00740FFFFFFFF91
:1003C000FFFFFFFFFFFFFFFFFFFFFFFFFFFFFFFF3D
:1003D000FFFFFFFFFFFFFFFFFFFFFFFFFFFFFFFF2D
:1003E000FFFFFFFFFFFFFFFFFFFFFFFFFFFFFFFF1D
:1003F000FFFFFFFFFFFFFFFFFFFFFFFFFFFFFFFF0D
:10040000FFFFFFFFFFFFFFFFFFFFFFFFDEF9FFFF23
:100410000548064B1B1AD90F01EBA301491002D066
:10042000034B03B1184770473835FF1F3835FF1F9E
:100430000000000008B5054B1BB105490548AFF3A6
:100440000080BDE80840FFF7E3BF00BF00000000E8
:100450003835FF1F44090700438E018DB0F938205D
:10046000B0F93AC00B44B0F92E104386B0F93030E1
:100470008A42A8BF0A466345B8BF6346B0F92A104E
:100480004387B0F9343002878B4202DA838D81864C
:10049000C3867047B0F96630002B31DDB0F874C008
:1004A000B0F87610B0F8682063441144B0F86AC020
:1004B000B0F87820A0F8743002EB0C03B0F97E207D
:1004C000B0F970C0A0F878306245B0F97230A0F889
:1004D0007610A8BF6246B0F980C0B0F96C10A0F8E1
:1004E0007E206345B8BF6346B0F97AC0A0F880307B
:1004F0008C4505DAB0F86E30A0F87A10A0F87C30A0
:10050000704700BFB0F924302DE9F041B0F9266002
:1005100003F1010EB64540DA01EB830502EB830CD3
:100520001F4B1C880021DCF80020674612B25CF8E3
:10053000043FBF68D5F80080002A1BB2B8BF524202
:100540001FFA88F8002B92B2B8BF5B4242459BB2BB
:1005500005F104080CD86A6892B293423FB207D8FA
:10056000002FAA68B8BF7F42BFB292B297420DD99E
:10057000D0F898200A44B2F9066095889E42B8BF28
:100580001E466319D6809380B0F926600EF1010EE5
:100590007645454601F10801C5DCBDE8F08100BFA4
:1005A0005035FF1F2DE9F041B0F92430B0F926E0B5
:1005B000734542DC2249002219440EF1010E904697
:1005C0001646174608E0A642B8BF264698460133AD
:1005D0009E4502F1080219D011F8014B002CF6D10A
:1005E000D0F89850C46805EB020CBCF90450A54241
:1005F000EDDBBCF90640B4424FF00107E3DC013308
:100600009E454FF0010702F10802E5D1AFB1B0F904
:100610003830428E4345A8BF434601320387B0F9C4
:100620003A304286B0F934204345B8BF4346B2421F
:100630004387BCBF8686A0F83680BDE8F08100BF46
:100640005C55FF1FB0F924302DE9F04FB0F926B00A
:100650005C1CA34540F3828002EB830C01EB830119
:100660003F4BD0F898501F884FF0000E0126F046FF
:1006700016E001F1040905EB0E0205F80E60B2F96F
:1006800006109942B8BF19469388D1803B449380A5
:10069000B0F926B00134A34549460EF1080E5DDDE0
:1006A000DCF80020E14612B25CF8043FD9F808A05B
:1006B000D1F80090002A1BB2B8BF524292B2002B70
:1006C0001FFA89F9B8BF5B424A459BB2D1D84A6844
:1006D00092B2934201F10409CDD80FFA8AFABAF125
:1006E000000F8A68B8BFCAF1000A1FFA8AFA92B2EC
:1006F0009245C0D815F80E3005EB0E02002BC9D07C
:10070000B2F90410C368994218DB0369994215DCF9
:10071000D0F89C3003F80E607344B3F904A051453F
:10072000B8BF51469980B2F906A0B3F906105145F9
:10073000B8BF5146D980598801315980A2F802804A
:10074000A2F80680A2F80480B0F926B082F80080F2
:100750000134A34549460EF1080EA1DCBDE8F08F37
:100760005035FF1FB0F92430B0F926C0634536DCA0
:100770001B490022F0B519440CF1010C17469646AE
:10078000164611F8014B6CB9D0F89C40A55C144496
:1007900045B1B4F9064074452E4603DDA645B8BF01
:1007A000A6461F4601339C4502F10802E9D1AEB1CD
:1007B000B0F93830428EBB42A8BF3B4601320387B6
:1007C000B0F93A304286B0F93420BB42B8BF3B465C
:1007D00072454387BCBFA0F834E0C786F0BD7047C0
:1007E0005C55FF1F704700BF10B5A82104462DF0CF
:1007F0005FF9204610BD00BF38B500F1580504462A
:100800000E22294666302CF0D3FF0E220021284606
:100810003DF0DCFC4FF48063A4F8623038BD00BFCB
:1008200038B500F1740504460E22294682302CF0BA
:10083000BFFF0E22002128463DF0C8FC4FF4806324
:10084000A4F87E3038BD00BF2DE9F047054600F121
:10085000940A17460E460A22002150463DF0B6FC87
:10086000B5F92640B5F92480444571DBDFF80091E5
:1008700007EB840706EB840608F1FF38002119E036
:10088000D9F800201D2ADCBF0132C9F8002022B2AD
:10089000002961D1A5F89420A5F89620A5F89A30F2
:1008A000A5F89C200121013C4445A7F10407A6F1CD
:1008B000040634D03B6832681BB2002BB8BF5B42E1
:1008C0009BB292B29342DBD80029ECD0B5F99630B6
:1008D0001A1B042A3EDDB5F99410B5F9A200CA1A14
:1008E000013290420DDAA5F8A030B5F89A30A5F89B
:1008F000A430B5F89C30A5F89E10A5F8A220A5F864
:10090000A63000210A225046013C3DF05FFC4445E0
:100910004FF00001A7F10407A6F10406CAD1B9B14E
:10092000B5F99410B5F99620B5F9A2008B1A0133E8
:1009300098420DDAB5F89A00A5F8A020B5F89C20E9
:10094000A5F89E10A5F8A230A5F8A400A5F8A62049
:10095000BDE8F0870121A6E7B5F99A00A5F8962031
:100960009842F7DAA5F89A30A5F89C209BE700BFDB
:100970006857FF1FF8B58D0A07EE905AF8EEE76A40
:10098000DFED407A9FED407ADFED405A87EEA66AB0
:1009900004463F4884F8923001603E493E4B0D606A
:1009A00094463E4904F1040E40F2FF174FF480656F
:1009B000C7EE267A0E2685EEA67ABDEEC66ABDEE95
:1009C000C77A16EE102AFDEEE77A0A8017EE101AA3
:1009D000334A9FED347A118017EE902A1A80BCE8D2
:1009E0000F00AEE80F009CE80F008EE80F00D4ED7A
:1009F000077A94ED066A226867EE877A26EE076A20
:100A000087EEA67AD2682046C6EE267AF6EE005A1F
:100A100037EE657A77EEA57ABDEEC77AFDEEE77A16
:100A200017EE103A1BB2BB42A8BF3B46E38417EE59
:100A3000903A1BB223EAE373A38490470A22002171
:100A400004F132003DF0C2FB32460021258704F15B
:100A50003C003DF0BBFB32460021A4F8465004F1B7
:100A600058003DF0B3FBA4F862503246002104F177
:100A700074003DF0ABFB0023A4F87E50A4F8903046
:100A8000F8BD00BF0070944700F8A747005CC1475D
:100A90005855FF1F6057FF1F6457FF1F6657FF1F02
:100AA0005435FF1F00007A44B0F89030B0F932108E
:100AB000026A01331BB2914210B50446A0F890308F
:100AC0002ADB828F01210A44052B8287A0F840107F
:100AD00005DDC38F00220B44C387A0F89020B4F932
:100AE0004620B4F93800B4F94810B4F93A308242DB
:100AF000A8BF02468B42B8BF0B46B4F94200B4F916
:100B00003410A4F846208842A4F8483004DAE38E72
:100B1000A4F84210A4F844300A22002104F1320063
:100B20003DF054FB4FF48063238710BD30B500F1D6
:100B30003C0585B004460E2229464A302CF038FE8A
:100B40000F4B1B781BB1B4F93C30002B0ADC0E2292
:100B5000002128463DF03AFB4FF48063A4F846306C
:100B600005B030BDB4F93E20B4F9401003910291B4
:100B700001920092034904481A462CF011FCE6E762
:100B80005C57FF1F805A0400C02DFF1F10B504469C
:100B9000D0F89800034B236008B12CF087FF204663
:100BA00010BD00BF005B040010B50446D0F89800EB
:100BB000054B236008B12CF079FF20469C212CF0D6
:100BC00077FF204610BD00BF005B040010B504464F
:100BD000D0F89C00054B236008B12CF067FFD4F8D7
:100BE000980008B12CF062FF204610BD785B04002D
:100BF00010B50446FFF7BEFEB4F92420B4F9263040
:100C00009B1A0133B3F1805FC4F8943034BFD8002D
:100C10004FF0FF302CF046FFD4F89420C4F8980031
:100C2000D200BDE8104000213DF0D0BA10B5044616
:100C3000FFF7A0FEB4F92430B4F92600C01A013041
:100C4000B0F1805FC4F8940034BFC0004FF0FF30B3
:100C50002CF028FFD4F89430C4F89800B3F1805FEA
:100C600034BFD8004FF0FF302CF01CFFD4F8942094
:100C700003460021D4F89800C4F89C30D2003DF01F
:100C8000A5FAD4F89420D4F89C00D200BDE8104016
:100C900000213DF09BBA00BF144B1B7823BB144AC4
:100CA000B0F9A23012689FED136AD0ED056A02FB1D
:100CB00003F307EE903AF8EEE77A87EE867AF4EEE1
:100CC000C76AF1EE10FA0FD8038DB0F8A0C0B0F8E3
:100CD0009E10B0F8A420A0F82EC001330385B0F810
:100CE000A630018642858385704700BF5D57FF1F90
:100CF0006057FF1F00007A44B0F94A20002A37DD10
:100D0000B0F858101D4B0A441B7812B210B50446B7
:100D1000A0F858206BBBB4F85A00B4F84C30B4F8C3
:100D20005C10B4F84EC0B4F9622018446144A4F8D1
:100D30005A00B4F95400B4F96430A4F85C10B4F962
:100D400056108242A8BF02468B42B8BF0B46B4F988
:100D50005E00B4F95010A4F862208842A4F8643010
:100D600005DAB4F85230A4F85E10A4F8603010BD73
:100D70007047034903482CF013FBCCE75C57FF1F77
:100D8000CC5A0400C02DFF1F10B50446D0F89C00BB
:100D9000074B236008B12CF089FED4F8980008B105
:100DA0002CF084FE2046A0212CF082FE204610BDAF
:100DB000785B040038B54FF4805204460021104897
:100DC0003DF004FA0A254FF4805200210D483DF011
:100DD000FDF92A46002104F128003DF0F7F94FF40F
:100DE00080632A460021E38504F194003DF0EEF98A
:100DF0002A4604F19E000021BDE838403DF0E6B9E6
:100E00005845FF1F5835FF1F10B54FF48052044658
:100E100000210F483DF0DAF94FF4805200210D48CF
:100E20003DF0D4F90A22002104F128003DF0CEF96A
:100E3000D4F898004FF48063E38538B1D4F8942057
:100E40000021BDE81040D2003DF0C0B910BD00BF88
:100E50005845FF1F5835FF1F10B54FF48052044608
:100E6000002113483DF0B2F94FF48052002111489F
:100E70003DF0ACF90A22002104F128003DF0A6F96A
:100E8000D4F898004FF48063E38578B1D4F89420C7
:100E90000021D2003DF09AF9D4F89420D4F89C00B7
:100EA000D200BDE8104000213DF090B910BD00BF58
:100EB0005845FF1F5835FF1F3F4BB3F90030B3F5BE
:100EC000007F77DA2DE9F04F3C4A3D4CB2F900A0A3
:100ED0003C4AB4F9008012683B4F83B008F1010826
:100EE000019292B200926FF040494FF0010B86469A
:100EF000984508BF534603EB0906B50051F8264054
:100F000005F1040C083551F80C2048595EF82660AC
:100F100024B2002C12B2B8BF6442A4B2002AB6B206
:100F2000B8BF5242B44292B228D85EF80C40A4B284
:100F3000A24223D800B200285EF80540B8BF404264
:100F400080B2A4B2A04219D817F833207AB107EBC7
:100F5000C304019DB4F90400A8424FEAC3021CDC9B
:100F60004FF000003A4407F833000020506001338E
:100F7000B3F5007FBCDB03B0BDE8F08F07EBC30027
:100F800007F833B0B0F90640A242B8BF2246C2808B
:100F9000009C828822448280E9E70C4D1544B5F913
:100FA00004608642DCDAA880E088E880074D05F816
:100FB00033B0D5E7704700BF6657FF1F5435FF1F9A
:100FC0006457FF1F5035FF1F5845FF1F5835FF1F3F
:100FD0002DE9F0470025DFF8E881744888F80050D3
:100FE0004FF4007229463DF0F1F8714A714BB2F9A5
:100FF0000040B3F900A054454EDA6F4EDFF8AC91D3
:1010000040F2FF1702E00134A24541D036F93430F6
:10101000092BF8DD04EBD4756D106D422B19981E69
:101020000333BB42A8BF3B4620EAE0701A1A834252
:10103000B8BF0022651B012148443DF0C7F8A81E37
:101040000335BD42A8BF3D4620EAE0702A1AA842F7
:10105000C8BF0022012148443DF0B8F86300B3F551
:10106000007FC8BFC3F58063981E0333BB42A8BF8F
:101070003B4620EAE0701A1A9842C8BF00220121BC
:10108000484401343DF0A2F8A2454FF00105BDD11E
:1010900015B1012388F80030484BB3F90040B4F58E
:1010A000007F5DDA0325444EDFF800A105EB44051F
:1010B000002240F2FF1905E00134B4F5007F05F18C
:1010C000020549D036F93430092BF5DD1AF8043021
:1010D000002BF1D104EBD4777F107F423B19981E8F
:1010E00003334B45A8BF4B4620EAE0701A1A8342EF
:1010F000B8BF002201215044E71B3DF067F8B7F567
:10110000007F3ADAB81E20EAE07003374F45A8BFE7
:101110004F463A1A8742B8BF0022012150443DF0A1
:1011200055F86300B3F5007F1CDA681F20EAE07011
:101130002B464B45A8BF4B461A1A8342B8BF002224
:101140000121504401343DF041F8B4F5007F4FF0E7
:10115000010205F10205B5D112B1012388F8003072
:10116000BDE8F087C5F580630333B3F5007F13D185
:1011700040F2022340F2FD10DBE7B7F5007F04D117
:1011800040F2022740F2FD10C0E7C7F57F70C7F5B7
:10119000806702300337B9E7C5F580600130C5F5D7
:1011A000806320EAE0700633C3E700BF5C55FF1F91
:1011B0006657FF1F6457FF1F5C35FF1F5435FF1F25
:1011C0005D57FF1F054A0649016010B401241460F1
:1011D00000225DF8044BC0F8982070475035FF1F7F
:1011E000005B040030B4064C064901600022012572
:1011F0002560C0F8982030BCC0F89C20704700BF24
:101200005035FF1F785B0400024A034B0360012145
:10121000116070475035FF1F3C5B04000120704790
:1012200038B504464DF6C0302CF03AFC034905466B
:10123000022217F0C3FAE56438BD00BF1858FF1F3B
:1012400010B50446806F054B236008B12CF02EFCCE
:1012500020460BF0E5FB204610BD00BFE85C040013
:1012600010B50446806F074B236008B12CF01EFCBC
:1012700020460BF0D5FB2046C8212CF019FC204657
:1012800010BD00BFE85C04002DE9F041544F554902
:101290003B682DED028B054688B003F1080026F06F
:1012A00039F9D5ED078AD5ED087AF4EEE78AF1EE43
:1012B00010FA42D5DFF8388118EE900A37F00EFDAB
:1012C00002460B4605A841463CF05AFC95ED098ABA
:1012D000386828EE888A05A9BDEEC88A083026F04D
:1012E0004DF918EE103A3E682A78A6F8BA209CB25A
:1012F00000EBD073A4EB6303A6F8B83005A83DF06B
:10130000DFFD336802465B6805A9304698472A78B6
:10131000386802F10803009306322346214608305C
:1013200026F00CFA95ED067AD5ED087A78EE878AE4
:10133000F4EEE87AF1EE10FABEDC38682A492B4C5C
:10134000083026F0E7F82A7838682B8E09320092A8
:10135000A98D083026F0F2F92A78AB8D386802F1B1
:101360000801083000910632194626F0E7F92A787C
:101370002B8E386802F108010830009106321946B8
:1013800026F0DCF92A783868E9682B8A0093019105
:1013900010230D320021083025F0AEF823680393A6
:1013A000AA68039B9A4204D308B0BDEC028BBDE847
:1013B000F081E9686A6B01F11000103A3CF08AFE96
:1013C000E868102200213CF001FF23680493049A8E
:1013D0006B681344AB6008B0BDEC028BBDE8F081D4
:1013E000305EFF1F5C3C0500104A0500E869FF1FE6
:1013F000B85B04002DE9F04194B090F8B150044678
:1014000024F084FE854240F0018105A9E06C009142
:1014100003AB04AA04F1B40116F068FFE368D869CD
:1014200003680121DB688171342200219847E36C55
:1014300003F5004393F85C3003F0FF01002B00F04C
:10144000F180636E022B1CBF02236366E3680121F7
:10145000586829F0A3F9E06C16F0D0FCA066236E62
:101460000399049A8B4210DA07EE902A94ED2E7AB3
:10147000F8EEE77AB4EEE77AF1EE10FA05D8B4EEBA
:10148000677AF1EE10FA00F01781AB4DD4F8A41092
:101490002A680792079A91423AD3013B2366E06C8F
:1014A00000F5004200F51641138A528A9BB292B2AF
:1014B000934201F1400100F33D8103F5164C0CF11C
:1014C0003F0C9E4E9E4F84440DF1340E06E000F515
:1014D00000420133528A92B29A423ADB1CF8011F51
:1014E000F26C9142F3DB97E8030003F007028EE809
:1014F00003005032A06F4FEAE3086A44414612F8F5
:101500001C2C10F8088042EA08024254E06CDEE726
:1015100094ED167ADFED8B7AE268B4EEE77A6FF03D
:101520007703F1EE10FAE36544BF874BA3652B68A0
:101530000893089BD06803F59C530833C4F8A43083
:10154000002129F02BF9E3680021186929F026F918
:10155000A5E700F51641403180227C4F0846002166
:101560003CF034FE04F16C00FFF78EFE38687849D9
:10157000083025F0CFFF3868726B4F23C0F8B830C1
:101580000368012A5B6800F09380022A00F08D80D6
:10159000002A00F086806F490322984738686E4B16
:1015A000C0F8B83003686D495B6803229847386813
:1015B0006B49083025F0AEFF02F058F9002837D10A
:1015C0002B680993099BD4F8A8209A421BD2654B3B
:1015D0005878002800F08880634E33789BB9634BBD
:1015E0001B78002B40F0D280012001F0DDFF2B683A
:1015F0000B930B9B7D33C4F8A830204602F04CF9C6
:10160000012001F061FF14B0BDE8F08124F07EFDFF
:1016100094F8B05084F8B100002D78D0013D84F8E2
:10162000B050F2E6E3686166586829F0B7F816E74B
:10163000D4ED127A4E49FDEEE77AB02317EE902AE8
:101640000DA83CF09DFA3E684A4BC6F8B8300DA88C
:101650003DF036FC336802465B6830460DA998477A
:10166000D4ED107AFDEEE77AB1EE047AF8EEE76A8F
:10167000F4EEC76AF1EE10FAA2DD17EE902A3E49A9
:101680000DA83CF07DFA3E683C4BC6F8B8300DA87A
:101690003DF016FC336802465B680DA9304698475A
:1016A0008EE737490222984778E73649984775E729
:1016B00035490222984771E71F4DE2682B6806936F
:1016C000069BD068E16503F59C5308332166C4F896
:1016D000A430C4ED167A012129F060F8E3680121F5
:1016E000186929F05BF8DAE601F05EFF2B680A93CF
:1016F0000A9B03F5EA4330332046C4F8A83002F0D1
:10170000CBF8012001F0E0FE14B0BDE8F081E36801
:101710000121986929F042F8E3682946986829F080
:101720003DF8E36898680368DB69984784F8C4501B
:1017300065606AE6014E0FE7E869FF1F1858FF1F52
:10174000AC5B0400CDCCCC3D00002042305EFF1FDE
:1017500098420500CC5B04004F000600FCBB04006F
:10176000104A0500A459FF1FA659FF1F9457FF1FD9
:10177000D05B040034000C00D85B04004D000C006A
:10178000C05B0400C85B0400C45B0400022001F0DD
:101790000BFF40B12B680C930C9B03F5EA433033ED
:1017A000C4F8A83029E7034927F064FA012333700D
:1017B00023E700BFE05B04002DE9F84FD0E9008982
:1017C0000F4692466FF06041A9EB0802B1EBA20F01
:1017D00058D09310012B1A4638BF01229C18064698
:1017E0004CD2A7EB0805A346002C3DD1DAF8003017
:1017F0004BF80530002D26DCA9EB07090435B9F1BB
:10180000000F5D4415DC4D44B8F1000F05D1C6F85A
:1018100000B07560B460BDE8F88FB168A1EB080155
:1018200040462CF045F9C6F800B07560B460BDE8DC
:10183000F88F284639464A462BF0BAFF4D44B8F196
:10184000000FE4D0E9E72A46A9EB070941465846CC
:101850003CF040FC0435B9F1000F5D44E9DCB168AF
:101860004D44A1EB0801DBE78C4228BF0C46A400E5
:1018700020462CF015F983460444B7E7034CA7EB48
:101880000805F5E702482FF063FF00BFFCFFFF7F6C
:10189000F85B040070B5044688B00CF0E3FCA34B81
:1018A000A34AC4F89020C4F88430C4F888301422C5
:1018B0001E23E26784F86C307F224BF680330025CC
:1018C0009C49C4F89C204FF4A0704FF07952C4F8A2
:1018D0009430994BC4F88C302160C4F89850C4F807
:1018E0008020C4F8A0002CF0DDF82946D4F8A02010
:1018F000A0673CF06BFC914B65661B680793079BE8
:10190000A5666FF07702002103F57A734FF47A70C1
:1019100020676367A165E2652266D8202CF0C0F8D5
:101920001921092264234FF00B0E8DE80E4001238C
:101930002A4604F16401064629F0D2FF2169636951
:101940000696994204F10C0500F0C58041F8046B3D
:101950002161E0202CF0A4F8152305936023049363
:101960000123039340F2E7330293002204F168035A
:10197000734900930192734B064629F015FB2169C8
:1019800063690696994200F0AB8041F8046B2161CF
:10199000E0202CF085F80C2305936B4B0093032378
:1019A0000393632300220293052368490193049261
:1019B000674B064629F0F8FA216963690696994251
:1019C00000F0938041F8046B2161E0202CF068F86E
:1019D00015230293002204F158035E4900939FED02
:1019E0005E1A5E4BDFED5E0A0192B2EE040A064615
:1019F00029F01EFB21696369069699427AD041F865
:101A0000046B2161E0202CF04BF81523059336235D
:101A10000493012303936FF0270302936FF077037E
:101A2000019304F15C034F49009300224E4B06469C
:101A300029F0BAFA21696369069699425FD041F8A4
:101A4000046B2161D4202CF02BF864234FF0010C9F
:101A5000CDE9003C454908231822064629F07EFFBF
:101A600021696369069699424ED041F8046B216161
:101A7000D8202CF015F800220C233D490293019246
:101A80003C4B0092064629F0FDFC216963690696ED
:101A900099423ED041F8046B2161E8202CF000F817
:101AA0006FF0310303936FF07703029300230193E8
:101AB000009304F1B40108234B22064629F088FF65
:101AC000216963690696994228D041F8046B204643
:101AD000216108B070BD06AA2846FFF76DFE38E701
:101AE00006AA2846FFF768FE52E706AA2846FFF72F
:101AF00063FE6AE706AA2846FFF75EFE82E706AAAB
:101B00002846FFF759FE9DE706AA2846FFF754FE30
:101B1000AEE706AA2846FFF74FFEBEE7284606AA0C
:101B2000FFF74AFE204608B070BD00BF0000A0408D
:101B3000ABAAAA40E85C04000000C041E869FF1FAE
:101B4000AC5C0400FC0CFF1F7058FF1FB05C04006D
:101B50000414FF1F905C0400CDCCCC3DCC0CFF1FC7
:101B60000000F042985C0400EC0CFF1FA057FF1F20
:101B7000A05C0400DC0CFF1FF0B5044685B0824E6B
:101B8000824F002526F066FB012386F83C3086F85C
:101B9000505086F845503564B563204684F8C450EB
:101BA00084F838500CF044FDE3683D2284F8B120FD
:101BB0001A68586815722946057228F0EFFDE36827
:101BC0009A681572DA6815721A6915729A6915722F
:101BD000626B294653F8220028F09CFEE3682946F0
:101BE000986828F0DBFDD6ED197A9FED697A3A689E
:101BF000039267EE877A039A84F8B050FDEEE77A95
:101C0000284617EE903A13446367C4ED1C7A01F03E
:101C1000CBFC3B680293029B716B03F5EA430139ED
:101C200030330229C4F8A83077D85A4A5A4B52F8B0
:101C3000212053F821301046150AB16999424DDD33
:101C40000121DFED565AF361B1615549C4F89400A2
:101C50008A424ED053498A4200F083804BF680314D
:101C60008A426BD0D4ED247A9FED495AC4ED2E5AA6
:101C700007EE103AB8EEC77A67EEA56A87EE056AF6
:101C8000C4F8AC504848494DFDEEE66A67EE867AE6
:101C9000C4ED266AFDEEE77A84ED2F6AC4ED277A5B
:101CA00001F09CFDE26C02F510420121D2F80823FC
:101CB00000922E78297092033D494FF40053002082
:101CC00026F0D8FFE06C2E700368DB68984700F0C0
:101CD0001FFD0023C4F8A43005B0F0BDF7699F4292
:101CE00022DD2F49DFED2D5AF3618A42C4F89400BA
:101CF000B0D19FED307A304AC4F88C204FF07B5140
:101D00002E4AC4F880102E4984ED247AF0EE477AEA
:101D1000C4F88410C4F88820A6E745F6C0505D25B5
:101D200042F6E063024688E707EE901A9FED187AC4
:101D3000F8EEE77A3B46C7EE875A86E79FED217AB1
:101D40001E4A84ED247A4FF07951C4F880101E4960
:101D5000C4F88C10F0EE477AC4F88420C4F88820C8
:101D600082E79FED1A7A164A1949C4F88C104FF091
:101D70007D50C4F88000F0EE477A84ED247AC4F8F0
:101D80008420C4F888206FE71858FF1FE869FF1FF8
:101D900000007A44785C0400845C04006F12833A8B
:101DA0000077010000EE0200BC5C04009927FF1FD1
:101DB000145C0400ABAA2A40000040420000A0408E
:101DC00000002041ABAAAA400000C041ABAAAA3F34
:101DD0000000C04210B5044600F0D8FC2368084A51
:101DE0005B69934204D12046BDE810400AF02EBE44
:101DF000204698472046BDE810400AF027BE00BFA5
:101E00001D1200004B1E70B50446062B23D8DFE8D8
:101E100003F004043522225A250090F8C450002D06
:101E200065D10322C36880F8B0200126986984F840
:101E3000C460294628F0B2FCE3683146986828F06F
:101E4000ADFCE368986803689B6998470223636365
:101E50006660284670BD0025284670BD456E002D81
:101E600034D1C06C00F5004393F85C30002BF3D103
:101E700003689B69984702236366EDE790F8C450B6
:101E8000002DE9D0C368986803685B699847E368E8
:101E900098680368DB699847E3680121986928F02E
:101EA0007DFCE36800269868314628F077FCFF2324
:101EB000E06C84F8C4603546666084F8B03013F096
:101EC000FBFF284670BD0B25284670BD022DC2D1F0
:101ED000C06C00F5004393F85C3003F0FF05002B65
:101EE000BAD003680025DB6998476566B4E726F039
:101EF0001FFC0323002584F8B030284670BD00BFC6
:101F000000207047704700BF90F92410124B036007
:101F10004B1C1FD070B4114D55F82130834201D0B5
:101F200070BC70470E4E56F8213043B14FEA810C19
:101F3000002403EB0C0253685460002BF9D1094ACA
:101F4000002346F8213045F821301378013B137007
:101F500070BC7047704700BF647804008C69FF1F35
:101F60006869FF1F8969FF1F70B590F924506B1CC9
:101F700014D00B4A0B4B52F82540EDB21D706CB1DA
:101F80000E46AD0094F825302046314613B1236843
:101F90001B6898472C446468002CF3D170BD00BFC7
:101FA0006869FF1F8869FF1F704700BF70B5094E41
:101FB000094B327853F822405CB10546236820462D
:101FC0009B6829469847337804EB83046468002CA7
:101FD000F4D170BD8869FF1F6869FF1F054B186841
:101FE00021B1054A1268012A01D0012070470B2255
:101FF0001A607047EC68FF1F1058FF1F054A1368EE
:102000000133042BC8BF02231360034B1868036815
:10201000DB6918476C57FF1F7057FF1F10B5034B44
:102020000360044626F01AF9204610BD187C04000F
:1020300010B5054B0360044626F010F920464C21EC
:102040002BF036FD204610BD187C040010B5034B64
:102050000360044626F002F9204610BD187C0400F7
:1020600010B5054B0360044626F0F8F820465021D1
:102070002BF01EFD204610BD187C040010B5064B49
:10208000044640F8783B2BF005F9044B23602046CA
:1020900026F0E4F8204610BDA07B0400187C040064
:1020A00030B583B0EFF31084B4FA84F46409E4012A
:1020B00072B6214D04232868009300220823184497
:1020C000114624F071FC6CB362B601202CF0A0F82C
:1020D00072B6286804220823009218440022194688
:1020E00024F062FC2CB362B601202CF091F872B699
:1020F00028680422082300921844002124F054FC8C
:10210000ACB162B601202CF083F872B628680823BF
:10211000042200921844194624F046FC24B162B609
:1021200003B030BD72B6D0E772B603B030BD72B640
:10213000E8E772B6D8E700BF305EFF1F00B5836CDA
:1021400083B08DF8071043B101220DF10701184645
:102150001FF0B4FB03B05DF804FBC06C0028F9D09D
:1021600001220DF107011DF0EFFD03B05DF804FB46
:1021700000B5836C83B063B101220DF107011846ED
:102180001FF06EF801280CD19DF8070003B05DF830
:1021900004FBC06C28B101220DF107011CF07EFF89
:1021A000F0E74FF0FF30F1E7836C13B118461FF0F2
:1021B00065B9C06C08B11DF07DB84FF0FF307047B5
:1021C000836C53B1187810F008000DD0D8695B69A2
:1021D000C01A48BF6FF000407047C36CA3B193F8BA
:1021E000310010F0080000D17047186919685A6969
:1021F0005B68401A62EB0303B0F1004F73F1000318
:10220000F2D36FF0004070471846EDE710B5084B69
:10221000044640F8783B2BF03DF8064B23602046FF
:1022200026F01CF8204680212BF042FC204610BDF1
:10223000A07B0400187C0400836C13B118461FF0C7
:1022400037BBC06C08B11DF047BC704700B5036CCC
:1022500083B08DF8071043B101220DF10701184634
:102260001FF02CFB03B05DF804FB406C0028F9D094
:1022700001220DF107011DF067FD03B05DF804FBBD
:10228000836C13B118461FF019BBC06C08B11DF068
:102290005BBD704790F92410124B03604B1C1FD09C
:1022A00070B4114D55F82130984201D070BC704780
:1022B0000E4E56F8213043B14FEA810C002403EB57
:1022C0000C0253685460002BF9D1094A002346F8E8
:1022D000213045F821301378013B137070BC7047F2
:1022E000704700BF647804008C69FF1F6869FF1F96
:1022F0008969FF1F90F92410124B03604B1C1FD0FB
:1023000070B4114D55F82130984201D070BC70471F
:102310000E4E56F8213043B14FEA810C002403EBF6
:102320000C0253685460002BF9D1094A002346F887
:10233000213045F821301378013B137070BC704791
:10234000704700BF647804008C69FF1F6869FF1F35
:102350008969FF1F70B5564D56492B6888B0002219
:10236000C3F8B8200446C26E68463BF009FC2E68EC
:1023700068463CF0A5FD336802465B686946304616
:10238000984730462AF0F4FF2B684FF41022C3F828
:10239000B820226FB2F57A7F6FD9474B83FB0213C7
:1023A000D2174649C2EBA31268463BF0E9FB2E6800
:1023B00068463CF085FD336802465B6869463046F6
:1023C000984730462AF0D4FF2B683D494FF49012CD
:1023D000C3F8B8206846626F3BF0D2FB2E686846AF
:1023E0003CF06EFD336802465B68694630469847AC
:1023F00030462AF0BDFF334A334B5268334853F816
:102400002210D0F88034A26E04F14C06002B47D085
:10241000DB7930463BF0B4FBE36828681B682C4945
:10242000C3F8CC60083025F075F8E36E27221E2B28
:10243000ADF8002026D8236F42F20F72934224D8C1
:10244000636F132B26D821238DF800302C68214B85
:10245000C4F8B83068463CF033FD236802465B6838
:1024600069462046984720462AF082FF28681A4984
:10247000083025F04FF808B070BD184968463BF0A9
:102480007FFB94E73C2BE1D8236F43F698229342DD
:10249000DCD8636F322B9CBF24238DF80030D5E746
:1024A000D0F88434002BB4D093F84434B1E700BFA3
:1024B000305EFF1F205D0400D34D6210305D0400CC
:1024C000505D0400A857FF1F9418FF1F485EFF1FB0
:1024D0001071050050000200104A0500405D040024
:1024E000002938D02DE9F0410C4601EB82011D4650
:1024F0004E684FEA820C16B306EB0C014F68B7B179
:1025000007EB0C01D1F80480B8F1000F07D0C444E8
:10251000DCF80410FFF7E4FF98F82530E3B997F8EA
:10252000253023B13B6838465B682946984796F8C2
:10253000253023B1336829465B683046984794F8C4
:10254000253033B12368294620465B68BDE8F04159
:102550001847BDE8F0817047D8F8003040465B6806
:1025600029469847DBE700BF90F92420531C7BD015
:102570002DE9F04F8B46404951F8224083B0002CA2
:102580006FD0D2B204EB820591006D68002D5DD052
:102590006E187668002E51D077187F68002F4AD0C9
:1025A00007EB010CDCF80480B8F1000F3BD008EB1E
:1025B000010CDCF80490B9F1000F2BD009EB010CF1
:1025C000DCF804A0BAF1000F1BD00AEB010CDCF818
:1025D00004306BB11944019349685B46FFF780FFF3
:1025E000019890F825201AB1026859465268904720
:1025F0009AF825202AB1DAF8002050465268594648
:10260000904799F825202AB1D9F800204846526809
:102610005946904798F825202AB1D8F8002040461E
:1026200052685946904797F8252022B13A683846B3
:1026300052685946904796F82520B2B995F825205A
:1026400022B12A68594652682846904794F82520B6
:102650003AB1226853685946204603B0BDE8F04FAE
:10266000184703B0BDE8F08F7047326830465268B3
:1026700059469047E2E700BF6869FF1F38B5044636
:1026800025F098FF06490748A1640749074D2560D2
:10269000002200230370226462640B70204638BD60
:1026A00000008C42A359FF1FA659FF1F187C04008D
:1026B00010B5104C104809212DF04CF820462AF096
:1026C00057FE0E481AF00CFE09210D482DF042F875
:1026D00020462AF04DFE0B4819F0D6F80A4B024668
:1026E00012210A481A702DF035F82046BDE8104036
:1026F0002AF03EBEC02DFF1F605D0400A459FF1FDD
:102700006C5D0400A059FF1FA359FF1F785D0400F2
:1027100070B51C4A1C4D4FF0010C64204FF400347E
:1027200040F65C764EF6602E0FE0013BFDD16C600A
:10273000EAB11346013BFDD1B0F57A7F17D9A2F576
:10274000167272450CF1010C17D006FB00F3B0F5C0
:102750007A7FCCEB0C11AC604FEA1343E5D98900CA
:1027600001D00139FDD16C60002AE2D1E7E7A2F582
:102770001672724500F16400E7D1034B4FF400324A
:102780009A6070BDC0D4010000F00F40024B4FF4BE
:1027900000325A60704700BF00F00F402DE9F84F3B
:1027A000524C534EDFF870B1DFF870A13168C4F8B5
:1027B00088B00123A3670423E36708230325C4F833
:1027C000803004F174004B4BC4F88430C4F88CA002
:1027D000C4F890503CF0C2FA474BC4F8A830474BBD
:1027E0007168C4F8AC304FF060084FF07E574FF07E
:1027F0000209202304F19400C4F89C30C4F8989096
:10280000C4F8B050C4F8A080C4F8A4703CF0A6FA94
:102810003B4AC4F8C8203B4AB168C4F8CC2004F154
:10282000B4001822C4F8B890C4F8BC20C4F8C08022
:10283000C4F8C470C4F8D0503CF090FA324AF16841
:10284000C4F8E8202023314AC4F8EC2004F1D40075
:10285000C4F8D890C4F8DC30C4F8E080C4F8E47060
:10286000C4F8F0503CF07AFA2023C4F8FC30284B2E
:102870003169C4F8083104F1F400264BC4F8F8902B
:10288000C4F80C314FF00C09C4F80081C4F804718D
:10289000C4F810513CF062FA7169C4F828B1002301
:1028A00004F58A70C4F81831C4F82CA1C4F820814A
:1028B000C4F82471C4F83051C4F81C913CF04EFAAD
:1028C0000023B169C4F848B1C4F84CA1C4F8383148
:1028D000C4F83C91C4F8408104F59A70C4F844717E
:1028E000C4F85051BDE8F84F3CF038BA1858FF1FF3
:1028F000BC0DFF1F00002041000098420000AC42C8
:102900000000C8420000D0420080D0420000D54202
:102910000080D5420000F0420000204200008C42BE
:10292000F8B54D4DAA680023012A2B70EB606B604F
:102930002B6140F28C80494A1668012E08BF33464D
:10294000AB604748474A484F00210B466961016028
:102950000C4603EB83032344104657F823103CF046
:10296000FDF901340246052C02F10C0201D06B681E
:10297000EFE7012E6ED0D4BF0126002600223B4B8C
:102980003B48C3F858614FF47A769E6144F620665E
:10299000DE610A265E623C269E624FF40776DE62A6
:1029A00005261A601E63334A5A616FF059065E6548
:1029B00012224FF416769A651E67082443F6982271
:1029C0004FF07E5601214FF48075C3F864411A61BF
:1029D000032400225E664FF07C5619625963A3F807
:1029E0004450C3F85C119A6383F83C2083F850206C
:1029F000DA6583F8602083F86C2083F8562183F829
:102A000054211A64C3F86021C3F86821DC649E660F
:102A1000C3F86C41C3F87411C3F87811C3F880216E
:102A200083F8861107C8C3F87C411C1D84E80700A1
:102A3000A3F8845100241049C3F87041062203F121
:102A400046002AF0B5FEBDE8F840FFF7A7BE034BED
:102A50001E6876E7062292E7A857FF1F1058FF1F4F
:102A60006069FF1FC057FF1F9411FF1F1858FF1FF9
:102A7000707A0400C0D401008C5D0400F8B5374EB4
:102A8000374D3378374F012B84BF00233370736881
:102A9000032B84BF01237360B368012B84BF002321
:102AA000B360F368072B84BF0023F3603369022B04
:102AB00084BF002333617369042B84BF00237361D7
:102AC000012428463CF0FCF90B282ED80134062CB2
:102AD00005F10C05F5D1D6E9164522462B462046D0
:102AE000294636F0BBFB30B11F4B00222046294659
:102AF00036F0BEFB48B300220023C6E91623D6E910
:102B0000184522462B462046294636F0A7FB30B111
:102B1000164B00222046294636F0AAFB58B1002267
:102B20000023C6E918230120F8BD2246284639466D
:102B30003BF026F8CAE70E4B00222046294636F025
:102B4000B5FB0028EBD10120F8BD0A4B002220463E
:102B5000294636F0ABFB0028D1D0CCE7A857FF1FA1
:102B6000C057FF1F945D0400000008C0000020C093
:102B700000002040000008402DE9F843204B0020D1
:102B80001C882AF0C7FDE1B2814202D000202AF061
:102B9000DBFD01202AF0BEFD210A884202D001207F
:102BA0002AF0D2FD174F3D4607F1680815F8016B72
:102BB000EC1B013420462AF0ADFD8642314620460A
:102BC00001D02AF0C1FD4545F0D17F69DFF838809A
:102BD00001377F02454608F5C47915F8016BA5EB6E
:102BE0000804013C3C4420462AF094FD86423146CC
:102BF000204601D02AF0A8FD4D45EED1BDE8F8836E
:102C00001458FF1FA857FF1F1858FF1FFFF7B4BF26
:102C10002DE9F04F294E2A4D736985B002240193A6
:102C200007460291039205F146084FF0040A4FF05F
:102C3000060BA146FFF774FE09F1FF343946404602
:102C40003CF08CF8032C746111D0042C4FF0050279
:102C50004FF0000312D0022C2DD02A632B60FFF717
:102C60008BFFB9F1050F19D009F10109E2E7C5F8A9
:102C700030A0C5F800A0FFF77FFFF5E7114B1B68F8
:102C8000A3F10103B3FA83F35B09DB002B6001239B
:102C90002B63002385F84530FFF76EFFFFF740FEFA
:102CA000039BB360029B7360FFF766FF019B736138
:102CB00005B0BDE8F08FC5F830B0DCE7A857FF1FBE
:102CC0001858FF1F1058FF1F10B5104C104984B042
:102CD00001AB6A46201D3AF073FF03AB02AA0C4910
:102CE00004F10A003AF06CFF009A029B01980399E4
:102CF000084CC2EB021200EB8200C3EB0313064A3E
:102D0000206001EB8301116004B010BD1858FF1F53
:102D1000A05D0400100DFF1F140DFF1F70B5124EB3
:102D2000124D33682A68134301D5FFF7CDFF23F016
:102D3000BDF9044623F0D2F933682A68934207D0DC
:102D4000C4EB041400EB840004DC0ADA824203DCE6
:102D5000002070BD824204DC8342ACBF0020012011
:102D600070BD012070BD00BF140DFF1F100DFF1FAF
:102D700038B550202BF04CFA25202BF0DDF9054614
:102D800024202BF0D9F9044623202BF0D5F9104943
:102D9000002201280A6007D045EA04031843C0B2A4
:102DA00030B90420086038BD012C204609D00CB190
:102DB000104638BD012D08D0002DF4D10320086045
:102DC00038BD002DEED01046F3E70220086038BD74
:102DD0001058FF1F2DE9F047B64CA36D2269053B43
:102DE0005E2B84BF1423A3652DED048BB24BA2F19F
:102DF0006401994282B000F23C826369AE49A3F15A
:102E00006400884284BFAD4B63619A4208DD4CF296
:102E10004F318A4200F3F98102F59C42203262610F
:102E2000A369A74E643B4BF61C32934284BF6423D4
:102E3000A361E3694BF61C32643B934284BF44F6C2
:102E40002063E361236A5A1E622A626A88BF0323F1
:102E500040F2E63102F1FF3088BF2362884288BF2A
:102E60001E22316888BF62629342C8BF6362012933
:102E7000236B40F3E481052B40F2AF814FF4616096
:102E8000A26A002A40F3B0818242E26AC8BFA0620F
:102E9000002A40F3AF81B2F5616FC4BF4FF40772EF
:102EA000E262062B84BF05232363636BD4ED5C7A57
:102EB000022B84BF01236363A36B042B84BF002315
:102EC000A363236C192B88BF0023F4EE677A88BFB5
:102ED0002364F1EE10FA80F17381F5EEC07AF1EE21
:102EE00010FA00F16D81B3EE097AF4EEC77AF1EED3
:102EF00010FA00F36581636DD4ED197A6E33502BAF
:102F000088BF6FF05903F4EE677A88BF6365F1EE0E
:102F100010FA07D19FED6B7AF4EEC77AF1EE10FA52
:102F200040F181814FF07E536366D4ED1A7AF4EE5E
:102F3000677AF1EE10FA07D19FED637AF4EEC77A63
:102F4000F1EE10FA40F166814FF07C53A3665F4DBD
:102F500023685F4A68681060022B00F33581002BFC
:102F600000F33581FFF704FF012806D02368062B04
:102F700000F06281082B00F05F8194F83C305548E6
:102F8000012B84BF002384F83C3094F84530012B9A
:102F900084BF002384F84530E36C013B072B84BFDA
:102FA0000423E364236F40F606620A3B934284BF26
:102FB0004FF4167323673BF083FF052800F054811C
:102FC000454B93E80300454B6060198044483BF053
:102FD00077FF052800F043814249414806222AF044
:102FE000E7FB41483BF06CFF052804D03F493E48D1
:102FF00006222AF0DDFB3268012A40F327816B6943
:10300000002B00F0FA80D4F85831022B02D90023AB
:10301000C4F85831D4F85C31022B84BF0123C4F8C2
:103020005C31D4F86031092B84BF0023C4F86031CF
:10303000D4F86431322B84BF0823C4F86431D4F847
:103040006831052B84BF0023C4F86831D4F86C3193
:103050000A2B84BF0023C4F86C31D4F87431022BDE
:1030600084BF0123C4F87431D4F878310A2B84BFAB
:103070000123C4F87831D4F87C31013B092B84BF9B
:103080000323C4F87C31D4F88031032B84BF0023A0
:10309000C4F88031022A08DD6B6933B90822C4F80C
:1030A0006421C4F86831C4F86C31114C114DDFED66
:1030B000128A23E01858FF1F8C490200C0D4010077
:1030C0001058FF1FCDCC4C3ECDCCCC3DA857FF1F98
:1030D0006069FF1F1C58FF1FE05D04002058FF1FA0
:1030E0002258FF1FE85D04005E58FF1FF05D0400DA
:1030F0008C58FF1FBC0DFF1F0000FA42DFF8B4A17F
:103100009FED659ADFF8B091002704F1E008B2EE78
:10311000048A3E462046E6703BF0D2FE032803D0E8
:10312000296820463BF01AFED4ED057AF4EEC87A01
:10313000F1EE10FA04D4F4EEE87AF1EE10FA01DDC3
:10314000C4F81490D4ED067AF4EEC87AF1EE10FAD1
:1031500004D4F4EEE87AF1EE10FA01DDC4F818A018
:103160006268A368D4ED047A013B032A84BF6660D9
:103170000022622B84BF1823A360E368013B622B0B
:10318000B6EE007A88BF6023F4EEC77A88BFE360AA
:10319000F1EE10FA04D4F4EEC97AF1EE10FA01DD82
:1031A0003E4B236102B101372034A04505F10405EF
:1031B000B0D1002F68D002B0BDEC048BBDE8F08721
:1031C0000023C4F8703196E6052B7FF4CBAE0129BD
:1031D0000CBF062300232360C4E6314A52F82300C3
:1031E000A26A002A3FF750AE0122A262E26A002AD8
:1031F0003FF751AE0122E26253E6D4F8581100299C
:103200003FF408AFC4F8583104E7A3F59C43203BD2
:10321000236105E69FED237AF4EEC77AF1EE10FA0A
:103220007FF795AE90E6B0EE007AF4EEC77AF1EE55
:1032300010FA7FF77AAE75E6002323609DE6062B31
:103240003FF61CAE184A52F8230019E6D4F858315C
:10325000012B3FF4DFAE0123C4F85831DAE6237BBB
:103260003A2B7FF4B9AEBCE6A3793A2B7FF4A8AE33
:10327000ACE6643300930D490D4864232AF090F8BE
:1032800043F698222261B8E502B0BDEC048BBDE89C
:10329000F047FFF783BA00BF0000C6420000A0411C
:1032A000307B04006666663F487B0400A85D04002E
:1032B000C02DFF1F00007042000020422DE9F043A6
:1032C0000020D7B02AF026FA804601202AF022FA00
:1032D0005FFA88F860F30F2808F47043B3F5805F55
:1032E0001FFA88F800F081804FF6912398451DD091
:1032F00045F2AA53984500F0B6804AF65523984502
:103300003FD045F65A2398453BD04AF2A5539845FD
:1033100037D0654965482AF043F8FFF701FB644B55
:1033200064489A680021FFF773FC26E0624B604D09
:103330001B786BB16C1E05F16707C5F103063019E8
:103340002AF0E8F904F8010FBC42F8D1FFF796FB28
:103350005A4E6B69C6EB4323741E06F2871803F2BC
:10336000032738192AF0D6F904F8010FA045F8D13F
:103370003368092B2AD8FFF72DFD012057B0BDE88F
:10338000F0834D4B4A4D1B786BB16C1E05F16707FE
:10339000C5F1030630192AF0BDF904F8010FBC424B
:1033A000F8D1FFF76BFB454E6B69C6EB4323741EE8
:1033B00006F2871803F2032738192AF0ABF904F84C
:1033C000010FA045F8D13368092BD4D93C493748BF
:1033D00029F0E6FFFFF7A4FAAA6836480021FFF7B4
:1033E00017FC012057B0BDE8F083334B304D1B78FC
:1033F000FBB9C8F30B08314E6B69C6EB4323741E4F
:1034000003F2012706F2871938192AF083F904F824
:10341000010FA145F8D1B8F1950F3CD0B8F1970F45
:10342000A6D196F88531002BA2D1012386F88631EA
:103430009EE76C1E05F16707C5F1030630192AF0F7
:1034400069F904F8010FBC42F8D1C8F30B08B8F1D0
:10345000960F05D800220023C5E91623C5E91823D5
:10346000FFF70CFBC7E701AF0DF103040DF2571690
:10347000C7F1030528192AF04DF904F8010FB442E9
:10348000F8D10DF13200BA6C796CFFF7C1FB012065
:1034900057B0BDE8F08396F88531002B7FF468AF14
:1034A000012386F8853163E71C5E0400C02DFF1FF1
:1034B000A857FF1F5E58FF1F0C0DFF1F1858FF1F56
:1034C000F85D0400FFF7FABE1C491D4BCA6B42F0C1
:1034D000006210B4CA63552400229C60DA6000B90F
:1034E00001221A62164B0721872259625A625A6AD0
:1034F0001206FCD49A6BD96B5DF8044B0A44196C24
:103500000A44596C986C0A44D96C02440A44C2F3C8
:103510004E0242F40042DA629A6DD96D0A44196E85
:103520000A44596E986E0A44D96E02440A44C2F3A2
:103530004E0242F400421A63704700BF008004400C
:1035400000B0034030B5144B144C864693E8070096
:1035500087B0EC46ACE803001149ACF8002007C97D
:103560000EF118030DEB030E03AB03C300251A8005
:10357000E5601EF80C3C1BB9E36843F01003E36000
:10358000064A1EF8183C136013681B06FCD5106928
:1035900080B207B030BD00BF485E040000B00340F9
:1035A0007C7A0400FFFFFFFF2DE9F0477E4B7F4D43
:1035B00093F8008006460FCDAAB06C460FC495E87C
:1035C000030084E80300B8F1000F40F0A380784CBA
:1035D000607870B1012E40F3CF80022E00F0AF80F2
:1035E0007348DFF8E89119F0BFFD724BD3E900672B
:1035F0001DE0FFF769FF704BDFF8D0911B68012BCE
:10360000CCBF07200220FFF79DFF35F045FB62A3EA
:10361000D3E9002335F0BAFBD9E9162335F000FAD7
:10362000644B06460F46C3E900674FF00108DFF818
:10363000A0E1DFF8A0A1BEE80F000DF1180C65466F
:10364000ACE80F00BEE80F00ACE80F009EE80F00EA
:103650008CE80F000024CAF8004055F8040B35F040
:103660003DFB32463B4635F00DFE002844D1013487
:103670000C2CF2D10446B8F1000F47D00120FFF71F
:1036800061FF35F009FB46A3D3E9002335F07EFB4B
:10369000D9E9182335F0C4F9DFF83C91474B0646C9
:1036A0000F466022464912A80025C3E900670DF1C4
:1036B00048082AF07DF8C9F80050F8E8022330469F
:1036C000394635F0E9FD40B901350C2DF5D10A2C0C
:1036D0000EDD01202AB0BDE8F0872AAB03EB4505DB
:1036E0000A2C35F9A83CC9F80030F2DC0A2BF0DCD2
:1036F00000202AB0BDE8F0872AAB03EB440434F97C
:10370000A84CCAF80040B8F1000FB7D14046FFF707
:10371000DBFEB3E72B48DFF8B49018F07FFC10EE27
:10372000100A35F0DBFAD9E9162335F079F9214B87
:1037300006460F46C3E900674FF0000877E7224DC1
:103740001B481C4CDFF8849019F0AEFC10EE100AF8
:1037500035F0C4FAC4E90001154819F005FDD9E9AE
:103760001623D4E9000135F05BF9C4E90001002318
:103770002B70012EADD033E7204619F071FC124DAD
:10378000204619F051FD01232B70002EF1D17D2030
:103790002AF03EFDD4E700BF00000040C093563F32
:1037A00000000080F6A0763FA359FF1F887A04002E
:1037B000A459FF1F9857FF1F1058FF1F8857FF1F5E
:1037C000D07A0400A059FF1F9457FF1FA857FF1F6E
:1037D000A07A0400A057FF1F9057FF1F2DE9F04368
:1037E0001E4F1F4E3C6895B00AAD0246284609920E
:1037F00037F0D6F9129B28462C1B1C4437F0D0F921
:103800002846DDF8288037F0CBF92846DDF84490CB
:1038100037F0C6F93B680094EB1A0693751B06F166
:1038200060436421059503F58033129DCDF80C901B
:1038300001FB04F4B4FBF3F401940A4CCDF80880C6
:103840000495012625780849099A2670002025F05C
:1038500011FA257015B0BDE8F08300BFF02BFF1FF3
:10386000000003209927FF1F545E040008B5074B92
:103870001A7812B1064B187808BD012205481A7053
:1038800017F0CEFF024B187008BD00BF8457FF1F12
:10389000A259FF1F7857FF1F10B51E4B1B782DED47
:1038A000028B044690ED128AD0ED108A2BBBF0EE0D
:1038B000687AB0EE480A9FED187AB4EEC70AF1EEC6
:1038C00010FA17D49FED157AB4EEC70AF1EE10FA8C
:1038D00010DCF5EEC07AF1EE10FA06D99FED107A01
:1038E000F4EEC77AF1EE10FA01DDC4ED108ABDECFA
:1038F000028B10BD84ED128AEBE70A4818F0A0FA9B
:10390000084884ED100A18F0F5FAD4ED107A84ED29
:10391000120AD0E7A259FF1F000048C20000A042CF
:103920000000C8427857FF1F2DE9F041D8B00022AF
:103930009149319204464FF47A70CDE94222329097
:103940008DF8CC2030918D4B8D4A8E4908A83AF0E5
:1039500017F9D4ED127A9FED8C7AF4EEC77AF1EE76
:1039600010FA07DD9FED897AF4EEC77AF1EE10FACE
:1039700000F1868022F0E2FB079022F0F7FB069030
:1039800022F00CFC064622F091FB074622F0A6FB33
:10399000804622F0BBFB12AD03908DE8C001069B70
:1039A000079A7B4928463AF0EBF8D4ED107AB1EE4D
:1039B000047AF4EEC77AF1EE10FA06DD9FED757A1F
:1039C000F4EEC77AF1EE10FA7BD9734B1B68ADF8B1
:1039D00084301B0C21AC8DF8863028463BF070FA01
:1039E000DFF8BC81214628443AF082FF02226B496D
:1039F00029F0DEFED8F88024002A6CD044AE0023E3
:103A00001146304608AA44931DF0D6FB80F0010011
:103A1000C4B2304608AA6249624F44F202231FF042
:103A2000F3FC459B319334AE469B329348A99DF8F5
:103A30001C318DF8CC3030461FF08AFB48A84497E3
:103A40001FF0CAFB4298002853D0002C7AD130AC2A
:103A50002946204629F0A4FC429858B11DF028FFC1
:103A600030461FF0B9FB304630971FF0B5FB58B019
:103A7000BDE8F08143980028F2D01CF02DF8EFE764
:103A800022F05CFB079022F071FB069022F086FB8F
:103A9000054622F00BFB064622F020FB074622F0EB
:103AA00035FB8046A06C35F019F98DE8E00112ADC8
:103AB000CDE90401069B3C49079A28463AF060F894
:103AC00073E7FDEEE77A21AC17EE902A37492046DE
:103AD0003AF056F881E7D8F88414C1B144AE509258
:103AE0001346304608AA1BF09FFE80F00100C4B2C6
:103AF0008FE7439800282DD0002CA8D02C491E22F7
:103B00001CF022F930AC204629F032FCA0E708AACC
:103B100044F20223414644A81FF076FC459B3193B2
:103B200034AE469B329348A99DF81C318DF8CC30B9
:103B300030461FF00DFB1B4F449748A81FF04CFB6D
:103B4000429820B11A491E221DF0B8FEDAE74398C8
:103B50000028D3D1D8F88C0403685B6B9847154BC9
:103B6000154918704968154B08AA53F82110002010
:103B700025F080F877E700BF9C780400385EFF1FCF
:103B80005E58FF1FB85E0400000048C20000A0425B
:103B9000F05E04000000C842145F0400A037050076
:103BA000485EFF1F78780400C85E0400105F0400C0
:103BB000185F0400F468FF1FA857FF1FC41BFF1FF6
:103BC0002DE9F04F2DED028BAE4B97B01968AE4B3F
:103BD00004930025CDE91455059506AB002900F0A6
:103BE000FF8308EE103A1846A84A40F201231FF05E
:103BF00007FB002800F0E983A549A64CA64FDFF893
:103C00009CB304A829F0CCFBA44904A829F0C8FB64
:103C1000A34904A829F0C4FBA24904A829F0C0FBC9
:103C2000A14904A829F0BCFBA04904A829F0B8FBCD
:103C30009F4904A829F0B4FB9E4904A829F0B0FBD1
:103C40009D4904A829F0ACFB9C4904A829F0A8FBD5
:103C50009B4B22699B4953F8222004A829F0A0FB22
:103C60006369994903931E4604A829F099FB974973
:103C7000324604A829F094FB8E4904A829F090FB51
:103C8000934B1D7004F118030293824B914C5D61BC
:103C90000135FFF713FB9049904EDFF804A3DFF8DE
:103CA0000493DFF804832A4604A829F079FB2B4605
:103CB0008B492A4604A829F073FB029A894904A873
:103CC00029F06EFB88492A4604A829F069FB3B6865
:103CD000864A874952F8232004A829F061FB8549C8
:103CE0002A4604A829F05CFB8349844A04A829F0E9
:103CF00057FB83492A4604A829F052FB8149824A8E
:103D000004A829F04DFB81492A4604A829F048FB64
:103D10007F49BA6A04A829F043FB7E492A4604A8D1
:103D200029F03EFB7C49FA6A04A829F039FB7B495B
:103D30002A4604A829F034FB79493A6904A829F0F5
:103D40002FFB78492A4604A829F02AFB76497A698C
:103D500004A829F025FB75492A4604A829F020FB70
:103D60007349BA6904A829F01BFB72492A4604A8C2
:103D700029F016FB7049FA6904A829F011FB6F4974
:103D80002A4604A829F00CFB6D493A6A04A829F0D8
:103D900007FB6C492A4604A829F002FB6A497A6AA3
:103DA00004A829F0FDFA69492A4604A829F0F8FA7E
:103DB000674997F8502004A829F0F2FA65492A4685
:103DC00004A829F0EDFA6449BA6D04A829F0E8FACC
:103DD00062492A4604A829F0E3FA61497A6D04A8E9
:103DE00029F0DEFA5F492A4604A829F0D9FA5E498B
:103DF000FA6C04A829F0D4FA5C492A4604A829F0F0
:103E0000CFFA3B6B5A4954F8232004A829F0C8FA8A
:103E100058492A4604A829F0C3FA7B6B564954F83E
:103E2000232004A829F0BCFA54492A4604A829F002
:103E3000B7FABB6B524A534952F8232004A829F021
:103E4000AFFA51492A4604A829F0AAFA4F4997F82F
:103E50003C2004A829F0A4FA4D492A4604A829F0D8
:103E60009FFA4C493A6C04A829F09AFA2A464A4922
:103E700004A829F095FAD7F8700134F02FFF0B460B
:103E8000024693E02463FF1FD8780400381B050026
:103E9000385F0400A857FF1F1858FF1F685F040011
:103EA000B85F04000460040048600400DC600400A3
:103EB00050610400A4610400A8610400B46104001E
:103EC000B00DFF1FE4610400F46104001C620400F3
:103ED0000C0DFF1F7C0DFF1F306204008C58FF1F6C
:103EE00040620400686204007C620400540DFF1FFD
:103EF0002863040038630400646304001C58FF1F37
:103F0000746304009C6304002258FF1FAC63040028
:103F1000FC630400086404004C6404005C64040056
:103F2000CC640400DC6404004C6504005C6504009F
:103F3000C8650400D86504004466040054660400A3
:103F40008C6604009C660400D4660400E4660400E9
:103F50001467040028670400646704007C67040099
:103F6000BC670400D46704002468040034680400BB
:103F70008868040098680400DC680400EC680400A9
:103F8000400DFF1F286904003C6904009869040083
:103F9000AC690400F0690400046A0400180DFF1FF6
:103FA000007104003471040048710400B84904A889
:103FB00029F0F6F9B7492A4604A829F0F1F9B649DB
:103FC00097F8452004A829F0EBF9B4492A4604A83B
:103FD00029F0E6F9B249B34A04A829F0E1F9B24957
:103FE0002A4604A829F0DCF9B0493A6F04A829F060
:103FF000D7F9AF492A4604A829F0D2F9AD4997F874
:104000006C2004A829F0CCF9AB492A4604A829F071
:10401000C7F9AA4997F8562104A829F0C1F9A84977
:104020002A4604A829F0BCF9A64997F8442004A818
:1040300029F0B6F9A4492A4604A829F0B1F9A34900
:10404000FA6D04A829F0ACF9A1492A4604A829F080
:10405000A7F9A04997F8602004A829F0A1F92A46F9
:104060009D4904A829F09CF9786E34F037FE0B4680
:1040700002469A4904A829F093F92A46984904A8C7
:1040800029F08EF9B86E34F029FE0B4602469549A8
:1040900004A829F085F994492A4604A829F080F952
:1040A000D7F85831914A924952F8232004A829F0B0
:1040B00077F990492A4604A829F072F9D7F85C31BB
:1040C0008D4A8E4952F8232004A829F069F98C49B9
:1040D0002A4604A829F064F98A49D7F8602104A87F
:1040E00029F05EF988492A4604A829F059F9874938
:1040F000D7F8642104A829F053F985492A4604A871
:1041000029F04EF9D7F86831824A834952F82320C2
:1041100004A829F045F981492A4604A829F040F964
:104120007F49D7F86C2104A829F03AF97D492A463D
:1041300004A829F035F9D7F874317B4A7B4952F845
:10414000232004A829F02CF979492A4604A829F04B
:1041500027F9784997F8542104A829F021F97649DC
:104160002A4604A829F01CF97449D7F8782104A834
:1041700029F016F972492A4604A829F011F9D7F84E
:104180007C21704904A829F00BF9D7F880216E49E9
:1041900004A829F005F997F884216C4904A829F0AE
:1041A000FFF897F885216A4904A829F0F9F897F8EB
:1041B0008621684904A829F0F3F800240134234635
:1041C0002A46514604A829F0EBF8334622464946D0
:1041D00004A829F0E5F823462A46414604A829F018
:1041E000DFF873685C495BF82330224604A829F0A5
:1041F000D7F85A4923462A4604A829F0D1F8B368CB
:104200005749224604A829F0CBF8564923462A46A6
:1042100004A829F0C5F8F3685349224604A829F0F8
:10422000BFF823462A46514904A829F0B9F8306955
:1042300034F054FD2246CDE900014D4904A829F08F
:10424000AFF823462A464B4904A829F0A9F870691B
:1042500034F044FD2246CDE90001474904A829F085
:104260009FF823462A46454904A829F099F8B069E1
:1042700034F034FD2246CDE90001414904A829F07B
:104280008FF8404923462A4604A829F089F87BE0A4
:104290004C6A0400606A0400946A0400A06A040086
:1042A000C86A04005E58FF1FD86A04002C6B040023
:1042B000446B0400886B0400986B0400C86B040016
:1042C000D86B0400146C0400286C0400546C0400C7
:1042D000686C0400A06C0400B46C0400FC6C040066
:1042E000106D0400486D0400586D0400980DFF1F08
:1042F0009C6D0400B06D0400340DFF1FEC6D0400D4
:10430000046E0400446E0400546E0400846E0400C5
:10431000986E0400A40DFF1FD46E0400E86E040024
:10432000146F0400246F0400280DFF1F586F040051
:10433000686F0400B46F0400C46F040024700400AC
:104340003870040094700400AC700400C87004005D
:10435000DC700400F07004008C710400A071040093
:10436000E8710400FC7104004472040058720400F7
:10437000AC720400C072040020730400387304009F
:1043800098730400B0730400F3691749224604A827
:1043900029F006F8072C06F120067FF40FAF029BE8
:1043A00012490C3304A8029328F0FAFF052D7FF47C
:1043B0006CAC18EE100A1EF00FFF0D4B039A5A61F9
:1043C000FEF77CFF0B4A012313700B4B049318EE8E
:1043D000100A1EF001FF17B0BDEC028BBDE8F08F94
:1043E00008EE103AF1E700BF14740400A461040061
:1043F000A857FF1F0C0DFF1FC07804002DE9F041E6
:104400000646006CAEB088461746002836D000211C
:104410001DF028F9346C01AD0CE01CF0F7FF844668
:10442000BCF1000F3946284616DD3AF0ADF9854259
:1044300020D0346C0023B42229462046002CECD135
:10444000706C234640B1B4221AF0FCFE8446BCF1E5
:10445000000F39462846E8DC0D4B0E4A596800200B
:1044600052F821103B46424624F004FC00202EB0B6
:10447000BDE8F08101202EB0BDE8F081746C002C05
:10448000C9D02046002200231AF02CFF346CC2E76A
:10449000A857FF1F141DFF1F2DE9F041AEB00546C0
:1044A0000F4690461E4601AC0FE01CF0AFFF84465D
:1044B000BCF1000F314620461DDD3AF065F984421B
:1044C0002CD09DF804305B2B15D0286C0023B4222F
:1044D00021460028E9D1D5F844C00346BCF1000FBD
:1044E00009D06046B4221AF0ADFE8446BCF1000F3C
:1044F00031462046E1DC1549154A4968334652F8F1
:10450000211000203A4624F0B5FB424639462846A1
:10451000FFF774FF00202EB0BDE8F08130463AF07E
:10452000CFFC01306A460B49204439F049FB009B1F
:10453000359A934206DB369A934203DC349A012083
:104540001360E8E7349B379A1A60D4E7A857FF1F37
:10455000941BFF1F58B004002DE9F043AFB005468F
:104560009DF8DC900F4690461E4601AC0FE01CF013
:104570004DFF8446BCF1000F314620461DDD3AF068
:1045800003F984422CD09DF804305B2B15D0286CA5
:104590000023B42221460028E9D1D5F844C00346BF
:1045A000BCF1000F09D06046B4221AF04BFE8446DD
:1045B000BCF1000F31462046E1DC1549154A496837
:1045C000334652F8211000203A4624F053FB42466D
:1045D00039462846FFF712FF00202FB0BDE8F083D0
:1045E00030463AF06DFC01300B4920446A4639F000
:1045F000E7FA009B012B03D9369B83F80090DCE798
:10460000369A03F00103012013702FB0BDE8F08348
:10461000A857FF1F941BFF1F58B004002DE9F0415D
:104620002DED048BAEB0B0EE408A0546B0EE609A38
:104630000F46F0EE418A90461E4601AC0FE01CF09A
:10464000E5FE8446BCF1000F314620461DDD3AF000
:104650009BF884422ED09DF804305B2B15D0286C3B
:104660000023B42221460028E9D1D5F844C00346EE
:10467000BCF1000F09D06046B4221AF0E3FD844675
:10468000BCF1000F31462046E1DC1949194A49685E
:10469000334652F8211000203A4624F0EBFA424605
:1046A00039462846FFF7AAFE00202EB0BDEC048B49
:1046B000BDE8F08130463AF003FC01300E49204459
:1046C0006A4639F07DFADDED007A389BF4EEC87A5F
:1046D000F1EE10FA08DBF4EEC97AF1EE10FA03D825
:1046E000C3ED007A0120E0E7C3ED008ACDE700BF0B
:1046F000A857FF1F941BFF1F2C7404002DE9F041E5
:10470000AEB005460F4690461E4601AC0FE01CF0C9
:104710007DFE8446BCF1000F314620461DDD3AF097
:1047200033F884422CD09DF804305B2B15D0286CD4
:104730000023B42221460028E9D1D5F844C003461D
:10474000BCF1000F09D06046B4221AF07BFD84460C
:10475000BCF1000F31462046E1DC1949194A49688D
:10476000334652F8211000203A4624F083FA42469C
:1047700039462846FFF742FE00202EB0BDE8F08102
:1047800030463AF09DFB023004442221204639F0A5
:104790008FFD08B10023037020463AF091FB359B52
:1047A000984208DC421C2146349829F001F8012087
:1047B0002EB0BDE8F081369934983AF0CFFACCE7C4
:1047C000A857FF1F941BFF1F2DE9F04FAFB0914674
:1047D0001F46DDE93A2306468846136001AC0FE028
:1047E0001CF014FE8446BCF1000F394620461ADD49
:1047F00039F0CAFF844229D09DF804305B2B12D0D7
:10480000306C0023B42221460028E9D1756C0346A0
:104810004DB1B42228461AF015FD8446BCF1000FB4
:1048200039462046E4DC2049204A49683B4652F894
:1048300021100020424624F01DFA4A4641463046E7
:10484000FFF7DCFD00202FB0BDE8F08F38463AF0CE
:1048500037FB023004442221204639F029FD08B1FB
:104860000023037020463AF02BFB0028DBD03028D1
:10487000D9D8399B002BD6DD389B4FF0000BA3F124
:10488000040A04E0399B0BF1010B5B45CBD05AF8CD
:10489000041F204639F078FF8442F3D13A9B01206F
:1048A000C3F800B0CFE700BFA857FF1F941BFF1F3E
:1048B0002DE9F04F2DED0A8B4C4AA9B0D2F8803487
:1048C000002181460991002B3AD0494918461EF033
:1048D00017FC484B1968484B16930025CDE926551F
:1048E00017950DF1600AF1B12B464A4650461EF06D
:1048F00087FCC0B1414A494616A8FFF77FFD8346B1
:1049000030BB3F4B0593054650461EF065FC059BAA
:104910003C4C5D6100232370FEF7D0FC0123237023
:10492000FEF72AF901E04FF0010B374B1693504682
:104930001EF052FC584629B0BDEC0A8BBDE8F08F42
:10494000D2F884040028C4D029491CF0D3F9C0E768
:104950002E4B2F4E00930323284A019349462D4B9B
:104960000395029616A8FFF72FFF0423029309ABC5
:1049700004460093214A284B03950195494616A801
:10498000FFF78AFD06F1080300280693DFED23BA3E
:104990009FED23BADFED23AA9FED23AADFED238A43
:1049A000A6F110030CEE10AA08BF0024059307958A
:1049B00001351F492A460CA839F0E2F80CAA4946ED
:1049C00016A8FFF71BFD8346A0BB059B079A5A61FB
:1049D000069B0C330693FEF7CFF8052D01D05C46FD
:1049E000E5E71CEE10AA099D8EE700BF485EFF1F99
:1049F000807D04002463FF1FD87804003074040015
:104A0000A857FF1F0C0DFF1FC0780400B00DFF1F3B
:104A1000B857FF1F3C7404004874040000000000F5
:104A2000CDCC4C3E6666663FCDCCCC3D0000C64248
:104A300030620400069B0093059B079A5B68DFF8D1
:104A4000688303EB83031344B94A52F8233002937B
:104A50000B2301930CAAB74B494616A8FFF74EFE4D
:104A60000A23B0F1000B4FF0000618BFA3460193D4
:104A7000B14CB24B00930CAAB14B02944946039639
:104A800016A8FFF7A1FEAF4B02930627231DB042E5
:104A9000019700930CAAAC4B494616A808BFB34631
:104AA000FFF72CFEA94B029304F10A03B0420197D1
:104AB00000930CAAA64B494616A808BFB346FFF7B9
:104AC0001DFE4AF6C0034FF0010A029304F12803C9
:104AD000B04200930CAA9F4BCDF80CA04946CDF8EC
:104AE00004A016A808BFB346FFF7D6FC9A4B029362
:104AF00004F12C03B04200930CAA984BCDF80CA003
:104B00004946CDF804A016A808BFB346FFF7C4FC79
:104B100042F210736427039304F11003B04201972B
:104B2000CDF8088000930CAA8D4B494616A808BF03
:104B3000B346FFF7B1FC8B4B039304F11403B0426F
:104B4000CDF80880019700930CAA874BDFF85C82B0
:104B5000494616A808BFB346FFF79EFC04F11803A8
:104B6000B04203970197CDF8088000930CAA7F4BC1
:104B7000494616A808BFB346FFF78EFC4BF68033B4
:104B8000039304F11C03B042CDF808800197009311
:104B90000CAA774B494616A808BFB346FFF77CFC22
:104BA000632704F12003B042029700930CAA714BD3
:104BB000CDF80CA04946CDF804A016A808BFB3460E
:104BC000FFF76AFC0A23039340F2E733029304F1F0
:104BD0002403B04200930CAA674BCDF804A04946C9
:104BE00016A808BFB346FFF757FC04F15003B042C4
:104BF00000930CAA614B0196494616A808BFB3461C
:104C0000FFF7AAFC0F2302970393052704F158032B
:104C1000B04200930CAA5A4B0197494616A808BF08
:104C2000B346FFF739FC6FF04F0303936FF01D039A
:104C300002936FF06D03019304F15403B0420093AB
:104C40000CAA504B494616A808BFB346FFF724FCF0
:104C500008234FF00308029304F14C03B042009381
:104C60000CAA494BCDF804A04946CDF80C8016A8F3
:104C700008BFB346FFF710FC444B0093072204F132
:104C80003003B042019202930CAA414B039749466C
:104C900016A808BFB346FFF797FD3C4B00930722C9
:104CA00004F13403B042019202930CAA394BCDF8BF
:104CB0000CA0494616A808BFB346FFF785FD364B42
:104CC00000930223039304F13803B04202930CAA29
:104CD000324B0197494616A808BFB346FFF774FD4B
:104CE00004F13C03B04200930CAA2D4B01964946B7
:104CF00016A808BFB346FFF72FFC1923029304F14F
:104D00004003B04200930CAA264B039649460196F5
:104D100016A808BFB346FFF7BFFB04F5B873B0EEA3
:104D20004A1AB0EE6B0AF3EE090AB04200933FE074
:104D30009411FF1F587404001858FF1F540DFF1FD3
:104D400064740400E05D04006C740400E85D040019
:104D50007874040080740400805101008874040099
:104D600094740400C0D40100A0740400AC74040066
:104D7000B8740400C4740400D0740400DC7404002B
:104D8000EC74040000750400147504007C0DFF1F12
:104D9000207504002C750400400DFF1F38750400B9
:104DA0004475040054750400F049020000770100C6
:104DB0000CAAB44B494616A808BFB346FFF72EFC11
:104DC00004F14503B04200930CAAAF4BCDF804A008
:104DD000494616A808BFB346FFF7BEFBAB4B02938C
:104DE00004F14603B04200930CAAA94B019749462F
:104DF00016A808BFB346FFF781FC0A2301933C23A2
:104E000003934FF46163029304F17003B042009383
:104E10000CAAA04B494616A808BFB346FFF73CFBB7
:104E200004F16C03B04200930CAA9B4B01964946D7
:104E300016A808BFB346FFF78FFB04F5AB73B0426B
:104E400000930CAA954B0196494616A808BFB34695
:104E5000FFF782FB04F14403B04200930CAA904B8D
:104E60000196494616A808BFB346FFF775FB04F143
:104E70005C03B04200930CAA8A4B03964946CDF8D6
:104E80000880019616A808BFB346FFF705FB04F19A
:104E90006003B04200930CAA834B0196494616A8C2
:104EA00008BFB346FFF758FB04F16403B042B0EE0D
:104EB0004B0AB7EE001AF0EE000A00930CAA7B4BE7
:104EC000494616A808BFB346FFF7A8FB04F16803DC
:104ED000B0429FED770A0093B0EE4A1A754BF0EEA0
:104EE0006A0A0CAA494616A808BFB346FFF796FB04
:104EF000714B009304F5AC73B042029303966F4B71
:104F0000CDF804800CAA494616A808BFB346FFF79F
:104F10005BFC6B4B1B68534540F3BE81694E6A4B8B
:104F2000029601274FF003080397CDF80480009301
:104F30000CAA664BDFED669A9FED668A9FED669A36
:104F4000494616A8FFF740FC092300240293331DAD
:104F500000930CAA614B03944946019416A8FFF7ED
:104F60009BFA022303933223029306F1080301976D
:104F700000930CAA5A4B494616A8FFF78DFA594BD5
:104F8000009306F10C030293052301930CAA564BE0
:104F90000394494616A8FFF717FC0A23029306F16B
:104FA000100300930CAA514B03944946019416A890
:104FB000FFF772FA4E4B009306F118030397CDF8F2
:104FC000048002930CAA4B4B494616A8FFF7FCFB42
:104FD000A6F1080300930CAA474B0194494616A872
:104FE000FFF7BAFA4FF00F0A06F11C03A04203972D
:104FF000CDF808A000930CAA404B0194494616A88E
:1050000008BFA346FFF748FA06F12003CDF808A031
:105010000397019700930CAA394B494616A8FFF74E
:105020003BFA06F12403CDF8088000930CAA354B17
:1050300003944946019416A8FFF72EFA06F12803B7
:1050400000930CAA304B0194494616A8FFF784FA46
:1050500006F12903019700930CAA2C4B494616A888
:10506000FFF77AFA06F12A03019700930CAA284B5E
:10507000494616A8FFF770FAE83E0DF1280A042702
:10508000A84647E06475040074750400F05D0400F0
:105090007C750400887504009C750400A8750400E4
:1050A000B4750400C4750400D4750400E4750400EC
:1050B000CDCCCC3DF4750400980DFF1F00760400A4
:1050C0001058FF1F7459FF1F340DFF1F0C7604008A
:1050D000000098420000FA420000AC421C76040036
:1050E00028760400A40DFF1F3876040044760400DF
:1050F000280DFF1F507604005C76040068760400DB
:10510000787604008C760400A8760400B876040053
:10511000C876040001346449224611A838F030FDF5
:10512000624B0096CDF808A0CAF800300323019323
:105130000CAA11AB494616A8FFF7E0FA5C49002813
:10514000224611A808BF4FF0000B38F019FD594B4B
:105150000093331D0293002303930CAA11AB49461D
:10516000019716A8FFF730FB53490028224611A8E3
:1051700008BF4FF0000B602538F002FD06F1080370
:1051800000930CAA11AB494603970197029516A804
:10519000FFF782F949490028224611A808BF4FF0BD
:1051A000000B38F0EDFC06F10C0300931023039381
:1051B0000CAA11AB49460295019716A8FFF76CF9A6
:1051C0003F490028224611A808BF4FF0000B38F0D5
:1051D000D7FC06F11003F0EE680AB7EE001AB6EE3F
:1051E000000A00930CAA11AB494616A8FFF716FA5D
:1051F00034490028224611A808BF4FF0000B38F0B0
:10520000BFFC06F11403B0EE691AF0EE480AB2EEE4
:10521000000A00930CAA11AB494616A8FFF7FEF945
:1052200029490028224611A808BF4FF0000B38F08A
:10523000A7FC06F11803B0EE491AF0EE480AB2EEE8
:10524000000A00930CAA11AB494616A8FFF7E6F92D
:105250001E490028224611A808BF4FF0000B38F065
:105260008FFC06F11C0300930A230393142302937B
:10527000012301930CAA11AB494616A8FFF70CF9BC
:10528000002808BF4FF0000B072C06F120067FF422
:1052900041AF4546FFF799BBD4F85831002B7FF456
:1052A0003DAEC4F858A139E6D47604004E6F200014
:1052B000E4760400180DFF1FF47604000477040060
:1052C0001477040024770400387704004C77040036
:1052D00070B5384C384AD4F88004A2B00023CDE928
:1052E000203311931092002841D034491DF008FF5B
:1052F000D4F880248AB102AE002311463046304AE9
:1053000002931BF059FFA8B900252E4B109312A849
:105310001DF062FF284622B070BDD4F88414002925
:10532000F2D002AE13460E923046254A1AF07CFAAD
:105330000028E9D02248FFF7BBFA05460028E3D051
:10534000D4F88024DAB102F5896100231C4A019166
:10535000304602931BF0AEFE019928BB1A4A1B4B44
:105360005268002053F8221023F084FCCDE7D4F8D3
:1053700084040028C8D011491BF0BCFCB8E7D4F85D
:1053800084140029EAD001F5896113460E92304653
:105390000B4A01911AF0E0F901990028DED00C4A7D
:1053A00030461AF021FCD9E7094A30461CF09EF835
:1053B000D4E700BF485EFF1FD8780400807D04005A
:1053C000F4FA0400C0780400A857FF1F241BFF1F35
:1053D000607704002DE9F04F884C894AD4F88004A6
:1053E000AFB00023CDE92C331D931C92002851D07F
:1053F00084491DF085FED4F880249AB10EAF0023B5
:1054000011463846804A0E931BF0D6FEB8B91EAE40
:1054100000257E4B1C9330461DF0DEFE28462FB043
:10542000BDE8F08FD4F884140029F0D00EAF1346F5
:105430001A923846744A1AF0F7F90028E7D0744BEC
:1054400019680029E3D01EAE6F4A002330461DF0D4
:10545000D7FE05460028DBD06E4A6B491CA8FEF734
:10546000CDFF002833D130461DF0B6FED4F880249D
:10547000C2B102F589610023634A059138460E9353
:105480001BF018FE05990028C3D0634A38461CF06B
:105490002DF8BEE7D4F884040028B8D059491BF091
:1054A00029FCA8E7D4F884140029B2D001F5896159
:1054B0001A9213463846544A05911AF04DF9059947
:1054C0000028A6D0544A38461AF08EFBA1E71F23C5
:1054D0004FF00109029308AB00934E4A4F4B4A49E3
:1054E000CDF80C90CDF804901CA8FEF7D5FF18B9A4
:1054F00030461DF071FE8BE70C23029309AB00933D
:10550000444A474B4049CDF80C90CDF804901CA874
:10551000FEF7C2FF0028EBD04FF47A63029340F20B
:10552000E47301930AAB00933A4A3E4B3649CDF8F7
:105530000C901CA8FEF7B0FF0028D9D017230293C7
:105540004FF000080BAB0093324A374B2E49CDF891
:105550000C90CDF804801CA8FEF79EFF0028C7D051
:105560000CAB4FF03B0A00932A4A304B2649CDF84A
:105570000C90CDF80480CDF808A01CA8FEF78CFF95
:105580000028B5D00DAB0093224A294B1E49CDF817
:105590000C90CDF808A0CDF804801CA8FEF77CFF85
:1055A0000028A5D0DDE90CB2DDE9089A0A9B0B982A
:1055B0000693019359464B46CDF800A007920590FB
:1055C00020F028FE20F01CFD28F004FD079A059825
:1055D000069B1849039201900093CDF808B0D1F8CA
:1055E00004C01549534651F82C104A46404623F052
:1055F00041FB30461DF0F0FD38E700BF485EFF1F5D
:10560000D8780400807D040070770400C07804001E
:105610002463FF1F80770400B87704008C770400B0
:105620009077040098770400A0770400A87704001E
:10563000B0770400A857FF1F441BFF1F2DE9F0415E
:10564000D0F88C54002290B004460F46C0F8802455
:10565000C0F8842435B12B682846DB6B984710BB13
:10566000D4F88C542B682846DB699847B0B14FF0CA
:105670000008B0F1806F3B462246294631D8684683
:105680001DF0B2F80646B8F1000F08D0D4F88C042B
:1056900020B1036800215B6C984700B900263046B2
:1056A00010B0BDE8F081D4F88C040028F6D003686F
:1056B0001B6C984706460028D2D1D4F88C040028E9
:1056C000ECD0036801215B6C984780460028E5D048
:1056D000D4F88C542B682846DB6998470028C8D139
:1056E000D4E70BA81AF034FD0646CCE7F0B589B034
:1056F000044622F05FFF4D494D4AA2640025002375
:105700004C4A0D702364802163644B4F4B4BA5675B
:1057100084F8655084F87C102360D02015703D60BB
:1057200028F0BEF91B23464900952A460193454BB4
:10573000064625F097FD216963690796994204F1B1
:105740000C055ED041F8046B2161DC2028F0A8F93B
:105750003D4A3E4B039224220093059200230522EA
:105760003B490493029201971A46064625F09CFC99
:10577000216963690796994248D041F8046B216119
:10578000E02028F08DF92D2302930022314B32497D
:1057900000930192314B064625F0BEFE21696369F4
:1057A0000796994237D041F8046B2161D02028F048
:1057B00077F936230022224901930092284B0646AE
:1057C00025F050FD216963690796994228D041F878
:1057D000046B2161E36800225868022125F092FCE5
:1057E000E36800225868032125F08CFCE36800225E
:1057F0005868042125F086FC1A4B20461C6009B02D
:10580000F0BD07AA2846FBF7D7FF9EE707AA284660
:10581000FBF7D2FFB4E707AA2846FBF7CDFFC5E7A1
:1058200007AA2846FBF7C8FFD4E700BFA359FF1F0C
:1058300000008C42A659FF1F6C57FF1FA07B04007D
:10584000647B04009418FF1F0413FF1FF415FF1F4F
:105850006C7B0400C4770400847B0400E413FF1F06
:105860008418FF1F7057FF1F2DE9F047DFF85082A3
:10587000834CDFF83492834E8AB027F011FF202248
:10588000002108F1040038F0A1FC4FF0000A7E4B23
:10589000C8F80030FF2701257C4A7D4988F824702C
:1058A00088F8265088F825A040462BF023FF2022B8
:1058B0005146201D38F08AFC764B744A764984F8AC
:1058C000265084F82470236084F825A0C4F83CA0F6
:1058D000C4F840A084F844A020462BF00BFF4846B3
:1058E0006E4D40F8046B2022514638F06FFC28784A
:1058F00089F824706A4F89F825A057F8202089F884
:1059000026A0002A00F09F80424500F0B480134694
:10591000810001E0434547D00B445B68002BF9D17F
:10592000800013185A68002AFBD1C3F8048095F848
:10593000008089F8248009EB88094FF0000A2022B2
:105940005146C9F804A001A8009638F03FFC57F86A
:1059500028208DF825A0FF238DF826A08DF824306F
:105960004FEA8801002A7AD0A24244D0134601E0CF
:10597000A34240D00B445B68002BF9D14FEA880862
:1059800002EB08035A68002AFAD15C602B780AAA55
:1059900002EB8302002103F1010842F8241C5FFAA4
:1059A00088F88DF824302AE00023A2428DF82530B3
:1059B00046D0134601E0A34242D00B445B68002B63
:1059C000F9D1810053185A68002AFBD101305C607C
:1059D000C0B228702D4A334933482BF08BFE334830
:1059E00015F010FF324817F037FB32480AB0BDE817
:1059F000F04715F045BF08F101085FFA88F89DF9F6
:105A0000241085F800804B1C0096E3D02A4E56F8EF
:105A100021206B469A42DDD157F8213033B18C00FA
:105A200000201A1953685060002BFAD1002308F1A6
:105A3000FF3847F8213046F8213085F80080C9E763
:105A40000130C0B2C5E71C4B47F8208043F82090D6
:105A500000287FF46CAF194827F0F2F967E7164B7E
:105A600047F8284043F828D0B8F1000F8ED11348EA
:105A700027F0E6F98AE78DF825A0134681009CE718
:105A8000A859FF1F647804001C850500C80CFF1F7F
:105A900095220000F4840500F52200008969FF1FAB
:105AA0006869FF1F091F0000F059FF1F7857FF1F8B
:105AB000A459FF1FA059FF1F8C69FF1FAD1F0000D5
:105AC000185AFF1F10B500230446038722F020FC5C
:105AD000FCF7EEFDFDF7F8F80123237210BD00BFBF
:105AE0000E4B1B7810B504467BB900232387204654
:105AF00022F00EFCFCF7DCFDFDF7E6F840F63D7306
:105B00000122A4F84C30227210BD1621044829F05D
:105B100021FE044827F02CFCE7E700BFA159FF1F36
:105B2000C8770400C02DFF1F22F0E6BB2DE9F04727
:105B30006E4ED6F88034B6B00546002B00F0B58026
:105B4000DA69013A82661B7969495B0802FB03F353
:105B50008B4204DD674A934274DC042300E0022395
:105B6000AB664FF4804027F09DFF634B00F57F5CF0
:105B70000446821E0CF13E0C9E4622F8023F013381
:105B80001BB2B3F5006F08BF73466245F5D111A88B
:105B900016F026FF28F01AFB0023584A58490093B4
:105BA0008146012311A816F0CDFF28F00FFB0A272C
:105BB00082464FF001084FF40052214611A817F019
:105BC0004FF9002808BF4FF00008013FF3D128F03B
:105BD000FDFA074611A816F041FF28F0F7FA022156
:105BE000034620461C4627F063FF464AAAEB0903FA
:105BF000A2FB03239B09EB66B8F1000F1FD0424ABA
:105C0000A7EB0A03A2FB0323DB082B673D4BE01B3A
:105C1000A3FB0023D6F880049B096B67A8B300237D
:105C200001460293354A012302A81BF0C5FA002859
:105C300048D111A816F06CFF36B0BDE8F08740F2ED
:105C4000E733E2E702F5741202F51062934242DD97
:105C500002F5F40202F5905293423EDD02F5740221
:105C600002F5105293423ADD284A934239DB284A22
:105C7000934238DD02F1F46202F590329342CCBFD8
:105C80004FF400734FF480736AE7D6F88414002948
:105C9000CFD00E90194A012302A819F0C5FD0028A3
:105CA000C7D002A819F024FEC3E7D6F88434002B2D
:105CB0003FF455AFD3F83024826693F8451401239E
:105CC0008B4041E702A81CF07BFA11A816F020FFD8
:105CD00036B0BDE8F087082342E7102340E72023D1
:105CE0003EE740233CE780233AE700BF485EFF1FC2
:105CF000BFC62D003F4B4C0000F8FFFFE0770400CB
:105D000000DC0500D34D6210CDCCCCCC40D2DF03FB
:105D10003F62B00710B500230446038722F0F8FA6B
:105D2000FCF7C6FCFCF7D0FFE268926801232372FF
:105D300020465372BDE81040FFF7F8BE70B5354EEF
:105D400082B004242025C820C6F8845028F060FAC8
:105D5000C6F88850C82028F05BFA013CF3D12E4DDC
:105D6000D5F88C04C5F88044C5F8844410B10368A4
:105D70009B689847294C0023FF22194685F8B824D0
:105D8000204685F8C4341EF029FF2046C5F88C440F
:105D90001EF026FA60B90123D5F88C141A46A4F532
:105DA00092601DF0C1FA18B10124204602B070BD06
:105DB000D5F88C0403685B6B984717281ED0D5F87C
:105DC0008C04174D174A6968036852F821105B6B01
:105DD0000191984701990246002022F04BFF0446AA
:105DE000002CE1D16A68104B53F8220022F080FDAC
:105DF0000E4B152220461A6002B070BD084D0C4BA8
:105E00006A68002053F8221022F034FF0446002C68
:105E1000CAD1E7E700F00F40485EFF1FD862FF1FBE
:105E2000A857FF1FA422FF1F9422FF1FEC68FF1F2B
:105E3000B422FF1F08B50A4BD3F8800440B11CF010
:105E4000F3FF08B1012008BDBDE80840FFF776BFA9
:105E5000D3F884040028F7D01AF09AFEF1E700BFC7
:105E6000485EFF1F38B50C4610B103685B68984761
:105E7000611E142900F21F81DFE811F00B01ED0013
:105E8000E400DB00D200C800BF00B600AC00A300F5
:105E90009900900087007E0075006B005700270076
:105EA0001D011D011500402027F0FAFD044622F0D7
:105EB000F9FC894A894B5268002053F8221022F0DD
:105EC000D9FE0546B5B1204638BD782027F0E8FD5B
:105ED000044608F05BFE804A814B5268002053F86C
:105EE000221022F0C7FE05467E49012022F006FD61
:105EF000002DE8D17C4BD3F88004002800F0D3803B
:105F00001CF092FF0028DED1FFF718FF0028DAD13D
:105F10001CB1236820465B689847402027F0C0FDED
:105F2000044622F0BFFC204638BD682027F0B8FDAB
:105F3000044603F091FB684A6C4B5268002053F80A
:105F4000221022F097FE00210546012022F0D6FC07
:105F5000B8E74FF4A07027F0A3FD044603F08EFBD2
:105F60005D4A634BE9E7902027F09AFD044603F071
:105F700003FC594A5F4BE0E77C2027F091FD044683
:105F800016F01CFA544A5C4BA7E7802027F088FDE6
:105F90000446FFF7ABFB504A584BCEE7702027F082
:105FA0007FFD04460DF062F84B4A554BC5E748F6B5
:105FB000106027F075FD044605F086FE464A514BF9
:105FC000BBE7C82027F06CFD0446FBF763FC424AA0
:105FD0004D4BB2E74FF4B07027F062FD04460BF072
:105FE0007BFF3D4A494BA8E7742027F059FD044642
:105FF00009F0E8FA384A464B6FE75C2027F050FD7D
:10600000044608F0B5FD344A424B66E740F6D80036
:1060100027F046FD04460BF0B7F82F4A3E4B5CE7ED
:10602000702027F03DFD044608F082FD2A4A3B4BD4
:1060300053E7702027F034FD044608F089FD264A16
:10604000374B4AE75C2027F02BFD044608F062FD41
:10605000214A344B41E7502027F022FD044622F02C
:10606000A9FA1D4A304D5168304AA26400232364C6
:1060700063640F2384F84D302D4A2E4B52F82110C3
:10608000002018702C4B2360287022F0F3FD054689
:106090002AE74FF4B87027F003FD044603F068FCCC
:1060A0000D4A264B49E7D3F8840400283FF42CAF6F
:1060B0001AF06EFD26E7084C214B6268002053F869
:1060C000221022F0D7FD62681E4B054653F82200CD
:1060D00022F00EFC002407E7A857FF1FB41BFF1F88
:1060E000341BFF1FC0D40100485EFF1F841BFF1F2D
:1060F000741CFF1F641CFF1F841DFF1F541DFF1F06
:10610000541BFF1F241CFF1F041BFF1FD41BFF1F5A
:10611000A41CFF1F341CFF1F941DFF1F541CFF1FD6
:10612000441CFF1F141BFF1FA359FF1F00008C42BC
:10613000A41DFF1FA659FF1FDC7B0400141CFF1FBA
:10614000E41BFF1F2423FF1F2DE9F04FB14C2368F0
:106150008DB0834603F1080020F0A8FD20680021DF
:10616000083022F02BF80020FDF71EFAAA4BDB685E
:1061700073B1AA4E04242025C820C6F8845028F004
:1061800047F8C6F88850C82028F042F8013CF3D1FF
:10619000A34B1B68012B00F0D181A24AA24BA34C58
:1061A0000B94D2E90001CDE90401A14AA14812688B
:1061B0000692994A0A90526853F822100368029393
:1061C000D4E900459C4ACDE90045002022F052FD6B
:1061D0009A4B1A78002A00F0C981994B1B780993D1
:1061E000984D994CDFF8A482DFF8A4A29748DFF815
:1061F000A49207210323022226F0F2FB1FF056FF90
:1062000006461FF06BFF924BC6EB06161B6800EBB1
:1062100086008342D8BF03F5B4631B1A89FB0312BF
:106220001A44DE17C6EB6216F6B2A6EB061203EBB3
:106230008203DFB21FF06AFF099AC3B24AB3854AEC
:1062400092F86C1029B3116FC7EB071292004FF44C
:10625000616000FB0622D21A91421ADA7E4B83FB60
:1062600001230B44CE17C6EBE3267C4AF6B202FBB1
:10627000061289FB02031344D217C2EB6313DFB289
:10628000C6EB061301EB0313A7EB071203EB820324
:10629000DBB23A463146724826F050F9714826F092
:1062A00001F88146C82027F0B3FF2E6840F2EE27A0
:1062B00029F058FB2378002B00F0FF8098F800307D
:1062C000DB0740F1FA802B68DAF800209B1A0E2BCE
:1062D00040F2F380C82027F09BFF1421624829F088
:1062E00039FA624827F044F861481FF0C9FF614B52
:1062F000D3F88004002800F000811CF095FD0028F0
:1063000000F0E9805B4BD3F88004002800F0FD80AA
:106310001CF08AFDB9F1070F15D0574BB3F90030C7
:10632000092B10D0099B73B14A4B93F86C3053B1D1
:106330005846FDF7B1FA5846FDF7F6FAFCF7EEFCC1
:1063400000287FF453AF344BDB68002B40F0E6802D
:10635000304C2068083020F0C1FA2F4A474B526871
:10636000246853F822500023C4F8B83045B12846B9
:1063700038F0A6FD236802465B6829462046984708
:10638000204626F0F5FF244A3D4B526853F8225030
:10639000204B1C684FF42023C4F8B83045B1284680
:1063A00038F08EFD236802465B68294620469847F0
:1063B000204626F0DDFF174B1868083020F09AFAC7
:1063C000174B1B680F22012B8BF84D20124B00F04E
:1063D000D6805A682B4B164D53F822100A9B114C4D
:1063E0001B6800930B9B2D68D3E900230495D4E927
:1063F00000450020CDE9024522F03CFC224B04463A
:10640000186822F08FFE002C00F0CE80114B1B6824
:10641000032B41E0305EFF1FA857FF1F00F00F4025
:106420001058FF1F8857FF1F341DFF1F9857FF1F6D
:106430009057FF1FA057FF1F1C58FF1F8457FF1FB7
:10644000A259FF1FE869FF1F546BFF1F185AFF1F57
:10645000100DFF1F1858FF1FC5B3A291F0F1FFFFE9
:10646000A859FF1FF059FF1FEC770400C02DFF1F34
:10647000A9D50100485EFF1F7457FF1FA41BFF1F13
:10648000E41CFF1F041DFF1F5469FF1F786BFF1FD3
:106490007C6BFF1F8988888800F09280072B00F0B2
:1064A000A180042B00F09A80092B514B0CBF1222C3
:1064B00003221A600DB0BDE8F08F2B6822789B1B79
:1064C00032B1B3F5FA6F3FF605AF29F04BFAEFE6BC
:1064D000BB42FAD9FEE6FFF731FC00287FF412AF89
:1064E0001F21444829F036F9434826F041FF4FF078
:1064F000E023424AC3F80C2DFEE7414BD3F8840455
:106500000028E8D01AF044FBF9E63D4BD3F88404A8
:1065100000283FF4FFAE1AF03BFBFBE6394D0426A2
:106520002024C820C5F8844027F072FEC5F88840B2
:10653000C82027F06DFE013EF3D109E7324A334807
:106540005268334B334C53F82210036802930B9478
:10655000D4E90045304A0A90CDE90045002022F0F8
:1065600089FB2E4B1A78002A7FF437AE01222C4883
:106570001A7015F055F92B4B0990187030E65968D0
:106580000A9B294A1B6852F8211000930B9B00209C
:10659000D3E9002322F06EFB244B0446186822F056
:1065A000C1FD002C7FF432AF154BD3F8800468B1E5
:1065B0001CF03AFC38B90DB0BDE8F04FFFF7BEBB98
:1065C0000B4B07221A600DB0BDE8F08F0C4BD3F8CF
:1065D00084040028EFD01AF0DBFAEBE7044B082222
:1065E0001A60F0E7024B0E221A600DB0BDE8F08F82
:1065F000EC68FF1F04780400C02DFF1F0400FA059B
:10660000485EFF1F00F00F40A857FF1FA057FF1F55
:10661000241DFF1F9857FF1F1C58FF1F8457FF1F83
:106620007857FF1FA259FF1FF41CFF1F5469FF1F5B
:106630002DE9F0418CB090F84C5004461FF066FDF7
:10664000854202D10CB0BDE8F0815B4D5B4E1FF07E
:106650005DFD2B6884F84C0003F1080020F03EF942
:10666000574B72682F6853F822800023C7F8B83060
:10667000B8F1000F08D0404638F022FC3B680246D3
:106680005B68414638469847384626F071FE726886
:106690004C4B05A853F8221094F84D2037F070FAAF
:1066A0002F684FF41023C7F8B83005A838F008FC5D
:1066B0003B6802465B6805A938469847384626F08D
:1066C00057FE414B726805A853F822103F4A37F035
:1066D00057FA2F684FF49013C7F8B83005A838F070
:1066E000EFFB3B6802465B6805A938469847384689
:1066F00026F03EFE1FF0DAFC03901FF0EFFC029044
:106700001FF004FD039A3249029B009005A837F060
:1067100037FA2F684FF4D813C7F8B83005A838F007
:10672000CFFB3B6802465B6805A938469847384668
:1067300026F01EFE2F6872684FF41013C7F8B830A9
:10674000244B53F82280B8F1000F08D0404638F0AF
:10675000B7FB3B6802465B68414638469847384677
:1067600026F006FE72682E684FF43413C6F8B8306F
:10677000194B53F8227047B1384638F0A1FB336803
:1067800002465B68394630469847304626F0F0FDB1
:106790002868083020F0AEF894F84D30013BDBB2A9
:1067A00084F84D30002B7FF44DAF2046FFF7CCFC32
:1067B0000CB0BDE8F08100BF305EFF1FA857FF1F7F
:1067C0001C27FF1F2C27FF1F3C27FF1F1C58FF1FE4
:1067D000247804004C27FF1F5C27FF1F0329F8B50E
:1067E0000BD00C4621B101290BD04C4B1868F8BDD9
:1067F000FFF79CF9494B1868F8BD484B0120186019
:10680000F8BDC368464F05460A465868022124F081
:1068100079FCEB6822465868032124F073FCEB688E
:10682000224658683F4C042105F1780624F06AFCA2
:106830003D493E4A02233046236026F0E1FC2B68A6
:106840002846DB69984700213846FEF7F7FE18BB5B
:10685000374B324F5B68012B0CBF3648364822F06D
:1068600047F815233B60304626F014FDEB68002204
:106870005868022124F046FCEB6800225868032186
:1068800024F040FCEB6800225868042124F03AFC14
:10689000002338682360F8BDD7F88004002835D07D
:1068A0001CF0C2FA28B1EB681C4F9B6801225A7297
:1068B000D9E7FFF743FA07460028F4D11F4D2868AF
:1068C000083020F00BF81A4A1D4B52682C6853F818
:1068D0002260C4F8B87046B1304638F0F1FA236847
:1068E00002465B68314620469847204626F040FD28
:1068F000286808301FF0FEFF4FF4487027F088FC2E
:106900004FF0E0230F4AC3F80C2DFEE7D7F88404BC
:106910000028CED01AF03CF9C4E700BFEC68FF1F96
:10692000485EFF1F6C57FF1FFD1F0000FF356E0103
:10693000A857FF1F3478040048780400305EFF1F1A
:106940008422FF1F0400FA05704700BF11B9024BF3
:106950001868704701207047EC68FF1F10B50446A7
:106960001FF0D4FBD4F89030984204D12046BDE803
:10697000104021F073BD1FF0C9FBD4F88C30C4F86F
:1069800090000133B3F5617FC4F88C30EEDB044B2B
:1069900003222046BDE810401A6021F05FBD00BF11
:1069A000EC68FF1F034AC36C12680BB110467047B6
:1069B00021F0BEBEEC68FF1F10B5044641B10023B4
:1069C0000629C0F88C3003D1104B1B68012B0CD06A
:1069D000204621F0ADFEE3689B6A5B7923B9236A08
:1069E000092BDCBF0123237210BD09490B685A1E15
:1069F000082A08D80748052B50F82200EBD1D4F814
:106A00006C310B60E7E70320E5E700BF1058FF1F7C
:106A10001858FF1F44800400002945D04B1E052B49
:106A200070B50D463DD8C3682B4A53F82130126823
:106A3000C3F8CC200368294EDB6904469847D4F894
:106A40003C31D4F830211B01D058002808BF304613
:106A5000FDF72EFF60BBD4F83C31D4F8302120493B
:106A60001B01D258002A08BF324622F003F91D4A02
:106A70001D4B526853F8220021F03AFF1520D4F83C
:106A80003C31D4F83011E268144C52F825201B0137
:106A9000CB581649002B08BF23460860C2F8CC30FB
:106AA00070BD124B186870BD104B01201860704704
:106AB0000C4BD4F830215B68012BD4F83C310CBF6F
:106AC0000B490C491B010020D258002A08BF32464E
:106AD00022F0D0F80120D2E7880FFF1F948505002F
:106AE0004C7C0400A857FF1FA412FF1FEC68FF1F77
:106AF000607C0400787C040010B50446006D064BF1
:106B0000236010B103685B689847044B23602046FC
:106B100021F0A4FB204610BD6C850400187C040005
:106B200010B5034B0360044621F098FB204610BDCE
:106B3000187C040010B5054B0360044621F08EFB61
:106B40002046902126F0B4FF204610BD187C04009A
:106B500010B5034B0360044621F080FB204610BDB6
:106B6000187C040010B5064B0360044621F076FB48
:106B700020464FF4B87126F09BFF204610BD00BFA1
:106B8000187C040070B5D0F83041D0F834510D4B6A
:106B90000360AC42064607D02046103426F042FC83
:106BA000A542F9D1D6F830512DB1D6F83811284682
:106BB000491B26F07DFF044B3360304621F04EFB2D
:106BC000304670BDA8850400187C04002DE9F04F04
:106BD00087B088460092013A02EBD272B1EB620FA5
:106BE000064601934EDA4FEA62090F4600E02F464F
:106BF0007C1C650005F1FF3A06EB441406EB0A1B0A
:106C00005946204626F0C2FC00281CBF5C4655466B
:106C100006EB0710214626F055FC4D45E7DB009BAF
:106C2000DA0735D50DF10809019948466F1E26F09F
:106C3000E3FB07EBD77745454FEA67070BDC17E027
:106C400026F040FC7B1E03EBD373B8454FEA630389
:106C50003D460DDA1F4606EB07144946204626F04E
:106C600095FC0346214606EB0510002BE8D10446AF
:106C70004946204626F026FC484626F0D3FB07B0BE
:106C8000BDE8F08F009BDB0713D400EB01140D4629
:106C9000009BA3F1020B0BEBDB7BB5EB6B0FC1D1C0
:106CA0006D000135204606EB0514214626F00AFC4E
:106CB000B8E70DF108090199484626F09DFB06EB5F
:106CC0000814D5E710B584B004460146684626F09E
:106CD00093FB103C01E026F0F5FB2146684626F0C8
:106CE00055FC0346214604F11000103C002BF2D164
:106CF000694626F0E7FB684626F094FB04B010BD19
:106D0000884235D02DE9F04300F11003994285B057
:106D10000746894624D000F12006A6F11004394622
:106D2000204626F033FCF0B12146684626F064FB8D
:106D3000E31B002BB0464FEA231506DD2046103C2E
:106D4000214626F0BFFB013DF8D16946384626F0C2
:106D5000B9FB684626F066FBC14506F11006DCD19A
:106D600005B0BDE8F0832046FFF7ACFFB046F3E77F
:106D7000704700BFF8B5D0F83071D0F83451AF4249
:106D8000064608D03C462046103426F04BFBA54270
:106D9000F9D1C6F834713046BDE8F840FEF7C4BEFC
:106DA0002DE9F041BCB00646FEF78CFE444F454D40
:106DB00006F1540406F190083946204637F0CEFF1C
:106DC00001E026F0F5FC204638F07AF80A284FF06A
:106DD000020229462044F4D90C34444507F10C073B
:106DE000EAD1394A1168394A149200234FF47A7073
:106DF000CDE92633CDE93A33159316908DF85C3002
:106E000029932A908DF8AC3028922CAC19B1304AD5
:106E100020461CF0F5F90022214618A82D4F002528
:106E20001CF046FAD8B126988DF8005000283FD0C3
:106E3000502269461BF018FE684637F09FFA269BE1
:106E400003B31B7813F0700F23D018A81CF0C4F9FB
:106E50000022214618A81CF02BFA0028E3D1F36881
:106E60000146986923F09AFC00231B4DF3642046E9
:106E700028951CF0B1F918A814951CF0ADF93CB098
:106E8000BDE8F081279B23B193F8313013F0500F08
:106E9000DBD13946684637F077FC0028D5D018A8F2
:106EA0001CF09AF9F3680121986923F077FCDBE77D
:106EB00027980028C0D05022694619F0F3FBBBE7A1
:106EC000C057FF1F04A404002463FF1F9C78040024
:106ED000807D0400787704007878040070B5D0F8DD
:106EE0003041D0F83451104B0360AC42064607D015
:106EF0002046103426F096FAA542F9D1D6F8305142
:106F00002DB1D6F838112846491B26F0D1FD074B84
:106F10003360304621F0A2F930464FF4A07126F0DC
:106F2000C7FD304670BD00BFA8850400187C040072
:106F3000C36C03B9704730B504468FB01FF0E6F854
:106F4000236D984201D00FB030BDE368002518686A
:106F5000E564012123F022FCE3680121586823F055
:106F60001DFCE3680121986823F018FCE368012107
:106F7000D86823F013FCE3680121186923F00EFCA4
:106F8000E3680121586923F009FC114BD3F8800410
:106F900078B101460F4A00952B4668461AF00CF965
:106FA00090B1E368012198690FB0BDE8304023F04B
:106FB000F5BBD3F8841439B103460C90054A6846F2
:106FC00018F032FC0028ECD1E3680021EBE700BFA9
:106FD000485EFF1F381B050010B50446006D084BC6
:106FE000236010B103685B689847064B2360204616
:106FF00021F034F92046682126F05AFD204610BDC4
:107000006C850400187C040030B504468FB0062956
:107010007FD8DFE801F01D040404043C380001EBD4
:1070200041018B003C483D4D03F15401184421447B
:1070300037F094FE34213A4828F08CFB394826F08A
:1070400097F9FBF799FDE36C43B128680FB030BDA9
:10705000324D01232B60E36C002BF6D13249D1F87D
:107060008024002A3FD011466846304A00931AF027
:10707000A3F8002842D0E3680121986923F08EFB31
:1070800028680FB030BD254D10232B60DBE7C368A7
:107090000021186823F082FBE3680021586823F080
:1070A0007DFBE3680021986823F078FBE36800210A
:1070B000D86823F073FBE3680021186923F06EFBA6
:1070C000E3680021986923F069FB2046FCF778FD0E
:1070D0000123E3641FF01AF801303B2816DD00237A
:1070E0000E4D2365AFE7D1F8841439B113460C92E5
:1070F00068460E4A18F098FB0028BCD1E3680021CE
:10710000986923F04BFB28680FB030BD034D206514
:1071100099E7024D97E700BFC057FF1FEC68FF1FBC
:10712000887C0400C02DFF1F485EFF1F381B050030
:107130002DE9F047064690B01EF0E8FFF36C984248
:1071400033D1306D90B1736D9BB1C74C2268009202
:10715000009A93420AD203685B69984723680193B7
:10716000019B002203F5FA737265B36510B0BDE8A8
:10717000F08703689B699847092800F0AF8196F86B
:107180005C30002BF2D1B84CB26D23680293029BA5
:107190009A42EBD2306D03685B699847236803938A
:1071A000039B03F5FA73B365E0E7B04D1EF0AEFF45
:1071B0002B68F06403F108001FF090FB2868AC49CD
:1071C000083020F0A7F996F8643003AC002B7ED08D
:1071D000A84AA949204636F0D3FC28682146083041
:1071E00020F0CCF9C0F180002F6800EBD0700023B4
:1071F0004010A7F8B800A7F8BA30204637F060FE74
:107200003B6802465B68214638469847384626F078
:10721000AFF828689949083020F07CF9B4229849E1
:10722000204636F0ADFC28682146083020F0A6F94B
:10723000C0F180002F6800EBD0700D234010A7F83C
:10724000B800A7F8BA30204637F03AFE3B6802464D
:107250005B68214638469847384626F089F8DFF8BB
:107260003CE2884FBEE80F00A446ACE80F00DEF811
:1072700000302CF8023B2A681B0C8CF8003002F11D
:107280000800214620F07AF9C0F18000D5F800808E
:1072900000EBD07016234010A8F8B800A8F8BA3058
:1072A000204637F00DFED8F8003002465B682146D4
:1072B00040469847404626F05BF83B68032B00F2B7
:1072C0001C81DFE813F0FF00CB000A00F3006E4AD8
:1072D0006E49204636F054FC7FE76D4B93E807007B
:1072E00084E8070028682146083020F047F9C0F1FB
:1072F0008000D5F8008000EBD0701E234010A8F865
:10730000B800A8F8BA30204637F0DAFDD8F80030D7
:1073100002465B68214640469847404626F028F8DA
:1073200028685C49083020F0F5F8DFF874C1BCE843
:107330000F00A146A9E80F009CE803002B68C9F8DC
:10734000000029F8041F03F10800214620F016F977
:10735000C0F18000D5F800A000EBD07029234010C8
:10736000AAF8B800AAF8BA30204637F0A9FDDAF832
:10737000003002465B68214650469847504625F04B
:10738000F7FFDFF820C1BCE80F00A046A8E80F0017
:107390009CE803002B68C8F80000A9F8001003F16E
:1073A0000800214620F0EAF8C0F18000D5F80090EE
:1073B00000EBD07031234010A9F8B800A9F8BA301A
:1073C000204637F07DFDD9F8003002465B68214643
:1073D00048469847484625F0CBFFDFF8CCC0BCE8CC
:1073E0000F00A646AEE80F00DCF8003088F8003049
:1073F0002B68214603F1080020F0C0F8C0F180009E
:10740000D5F8008000EBD07039234010A8F8B80000
:10741000A8F8BA30204637F053FDD8F800300246BD
:107420005B68214640469847404625F0A1FF286802
:1074300008301FF05FFA3B68022B7FF782AE336E95
:107440000133032B33667FF77CAE96F8643000225D
:1074500083F0010386F86430326672E60E4B0FCB80
:1074600084E80F003EE700BFE869FF1F305EFF1FA2
:107470006C530500485CFF1FC07C0400B868050021
:10748000EC7C04001058FF1FD07C0400D87C040062
:107490003C7D0400D87905002C7D0400047D0400A7
:1074A0006C7D0400847D04009C7D0400DFF864E0B2
:1074B000BEE80F00A446ACE80F00DEF80030CCF8C0
:1074C00000300FE7DFF850E0BEE80F00A446ACE85C
:1074D0000F00DEF800308CF8003003E7336D1A68D7
:1074E00001461846D3699847064A0749074825F0D8
:1074F00057FF012386F85D3038E6054B0FCB84E853
:107500000F00EFE6485CFF1FB07D0400C02DFF1F99
:107510005C7D0400487D0400187D040030B5244BD8
:107520005A68244B00F5A47587B053F8221004461E
:10753000284637F013FCFCF799F920B32046FCF7F6
:10754000ABF9D4ED127A1C49FDEEE77AB02317EEC1
:10755000902A01A836F014FB01A9284636F088FECF
:10756000D4ED107AFDEEE77AB1EE047AF8EEE76A30
:10757000F4EEC76AF1EE10FA0EDCE368DB69C3F8DB
:10758000CC5007B030BD284637F09AFC0B49032297
:10759000284426F00DF9F0E717EE902A084901A8D3
:1075A00036F0EEFA01A9284636F062FEE5E700BFA4
:1075B000A857FF1FF418FF1FD05B0400C47D040010
:1075C000D4FB04002DE9F041C26803699B1A002B2B
:1075D00082B004460CDD002552F82500012123F07D
:1075E000DDF8E268236901359B1AB5EBA30FF3DBE5
:1075F00094F85C51D2F8D800002D40F0B8800121F9
:1076000023F0CCF8E3688A4ED3F8DC00294623F057
:10761000C5F83368012B00F0B88094F86451E36832
:10762000002D00F0B580D3F8E000002123F0B6F87B
:10763000E3680121D3F8E40023F0B0F8E368012106
:10764000D3F8880023F0AAF8E3680021D3F88C006F
:1076500023F0A4F8E3680121986E23F09FF8E36813
:107660000121D86E23F09AF8E3680021186F23F007
:1076700095F8E3680021586F23F090F8E368002143
:10768000186C23F08BF8E3680021986C23F086F8DF
:10769000E3680021586D23F081F8E3680021586CFD
:1076A00023F07CF8E3680021D86C23F077F8E368D6
:1076B0000021186D23F072F83368012BE3680CBFCA
:1076C00000210121D86923F069F8E3680021186ED0
:1076D00023F064F8E3680021586E23F05FF8336804
:1076E000022B40F3E181012B41F37081E36800221A
:1076F0009868062123F006FDE368002298680821B7
:1077000023F000FDE3684B4F98680122002123F02D
:10771000F9FCE36801229868114623F0F3FCE36862
:1077200001229868022123F0EDFCE36801229868A9
:10773000032123F0E7FCE36801229868042123F089
:10774000E1FCE36801229868052123F0DBFC336843
:10775000012B3B6B40F39381062B2BD8DFE813F012
:107760002400EA080209FA08F2080A0912090021AD
:1077700023F014F8E3682E4ED3F8DC00012123F047
:107780000DF83368012B7FF448AFE368002100E077
:107790000121D3F8E00023F001F8E3680021D3F8D9
:1077A000E40022F0FBFF49E7E3684AF6C001186EE7
:1077B00023F030FC204DD5F81480B8F1000F3DD1F6
:1077C000E368C5F81080D86A414622F0E7FFE36815
:1077D0004246D86A012123F095FCE3684246D86A04
:1077E000022123F08FFC3368012B3BDD2969E3681C
:1077F0000029D3F89000D4BF0021012122F0CEFF50
:107800006B6923B9D7F85821002A40F041823B68C0
:10781000092B30D0082B00F22F87DFE813F0F50397
:10782000500150015001D0073007F505D90433034A
:107830001058FF1F1858FF1FA857FF1FE3680121AA
:10784000D86A22F0ABFFE3680122D86A114623F020
:1078500059FCE3680122D86A022123F053FC336803
:10786000012BC3DCE3680021D3F8900022F096FFDF
:107870003B68092BCED1E3680121D86822F08EFF46
:10788000D7F86021E368002A40F00582D3F8880029
:107890000192114623F036FCE368019AD3F8880080
:1078A000012123F02FFCE368019AD3F8880002211C
:1078B00023F028FCE368019AD3F88800062123F01E
:1078C00021FC2969E3680029D3F8C800D4BF00214E
:1078D000012122F063FF2969E3680029D3F8CC0075
:1078E000D4BF0021012122F059FF2969E368002952
:1078F000D4BF00210121D3F8D00022F04FFFE3686C
:107900000121D3F8D40022F049FF3B6B042B01F096
:107910005F81052B01F06C81032B01F0618197F8E9
:107920005010E368002901F05F80986B012122F07C
:1079300035FFE3680021586B22F030FFE368002137
:10794000D86B22F02BFFE3680021D86C22F026FFD1
:10795000E3680021586D22F021FFE3680121986D52
:1079600022F01CFFE3680121D86D22F017FF29697E
:10797000E3680029986ED4BF0021012122F00EFF98
:107980002969E3680029D4BF00210121D86E22F0C3
:1079900005FFE3680021186F22F000FFE368002173
:1079A000586F22F0FBFEE3680121D3F8800022F03B
:1079B000F5FEE3680121D3F8840022F0EFFE296987
:1079C000E3680029D3F88800D4BF0021012122F008
:1079D000E5FE2969E3680029D4BF00210121D3F81D
:1079E000940022F0DBFEE3680021D3F8980022F037
:1079F000D5FEE3680021D3F8A40022F0CFFE296968
:107A0000E3680029D4BF00210121D3F89C0022F0B3
:107A1000C5FEE3680021D3F8A00022F0BFFE29696B
:107A2000E3680029D3F8A800D4BF0021012122F087
:107A3000B5FEE3680021D3F8AC0022F0AFFEE368A6
:107A40000021D3F8B00022F0A9FE2969E3680029DB
:107A5000D3F8B400D4BF0021012122F09FFEFBF730
:107A600005FF0746002840F0C680E3683946D3F892
:107A7000B80022F093FEE368394600F09ABE062B68
:107A80003FF698AE01A252F823F000BF958900009E
:107A9000A97700003589000065890000A3890000EE
:107AA0005589000045890000E36800229868092193
:107AB00023F028FB3368002B3FF418AE13E6E3688D
:107AC0000021D86822F06AFEE3680021D3F8C800DC
:107AD00022F064FEE3680021D3F8CC0022F05EFEC1
:107AE000E3680021D3F8D00022F058FEE3680021BB
:107AF000D3F8D40022F052FEE3680021186B22F084
:107B00004DFEE3680021986B22F048FEE3680021F7
:107B1000586B22F043FEE3680021D86B22F03EFE52
:107B2000E3680021D86C22F039FE3B68032BE36840
:107B300001F04380986D002122F030FEE3680021BF
:107B4000D86D22F02BFEE3680021986E22F026FE0D
:107B5000E3680021D86E22F021FEE3680021D3F80B
:107B6000800022F01BFEE3680021D3F8840022F09D
:107B700015FEE3680021D3F8880022F00FFEE368C9
:107B80000021D3F8940022F009FEE3680021D3F825
:107B9000980022F003FEE3680021D3F89C0022F055
:107BA000FDFDE3680021D3F8A00022F0F7FDE368B3
:107BB0000021D3F8A40022F0F1FDE3680021D3F8FE
:107BC000A80022F0EBFDE3680021D3F8AC0022F01E
:107BD000E5FDE3680021D3F8B00022F0DFFDE368A3
:107BE0000021D3F8B40022F0D9FDFBF73FFE074691
:107BF00000283FF43AAF2969E3680029D3F8B800B8
:107C0000D4BF0021012122F0C9FD2969E3680029C0
:107C1000D3F8BC00D4BF0021012122F0BFFDE368EE
:107C20000021D3F8C00022F0B9FDE3680021D3F8A9
:107C3000C40022F0B3FDE3683268012A14BFD3F810
:107C400000015869002122F0A9FDE3680121D3F861
:107C5000F40022F0A3FD2B69022BE36800F0A98653
:107C6000D3F8F800002122F099FDE3680021D3F851
:107C7000FC0022F093FDE3680021986F22F08EFD56
:107C8000E368D86F002102B0BDE8F04122F086BD64
:107C9000C7F85831BBE5586A002122F07FFDE36840
:107CA0000021986A22F07AFDE3680021586822F0EA
:107CB00075FDE3680021D86A22F070FDE3680021B9
:107CC000186B22F06BFDE3680021586B22F066FD13
:107CD000E3680021986B22F061FDE3680021D86B16
:107CE00022F05CFDE3680021D86C22F057FDE368C8
:107CF0000021586D22F052FDE3680021986D22F0BA
:107D00004DFDE3680021D86D22F048FDE3680021B5
:107D1000186E22F043FDE3680021586E22F03EFD0C
:107D2000E3680021986E22F039FDE3680021D86EE7
:107D300022F034FDE3680021186F22F02FFDE36884
:107D40000021586F22F02AFDE3680021D3F880005B
:107D500022F024FDE3680021D3F8840022F01EFD08
:107D6000E3680021D3F8880022F018FDE3680021C1
:107D7000D3F88C0022F012FDE3680021D3F89000C4
:107D800022F00CFDE3680021D3F8940022F006FDF8
:107D9000E3680021D3F8980022F000FDE368002199
:107DA000D3F89C0022F0FAFCE3680021D3F8A0008D
:107DB00022F0F4FCE3680021D3F8A40022F0EEFCEA
:107DC000E3680021D3F8A80022F0E8FCE368002172
:107DD000D3F8AC0022F0E2FCE3680021D3F8B00055
:107DE00022F0DCFCE3680021D3F8B40022F0D6FCDA
:107DF000E3680021D3F8B80022F0D0FCE36800214A
:107E0000D3F8BC0022F0CAFCE3680021D3F8C0001C
:107E100022F0C4FCE3680021D3F8C40022F0BEFCC9
:107E2000E3680021D3F8C80022F0B8FCE368002121
:107E3000D3F8CC0022F0B2FCE3680021D3F8D000E4
:107E400022F0ACFCE3680021D3F8D40022F0A6FCB9
:107E5000E3680021D3F8F00022F0A0FCE3680021E1
:107E6000D3F8F40022F09AFCE3680021D3F8F8007C
:107E700022F094FCE3680021D3F8FC0022F08EFC91
:107E8000E368D9E6E3680021D86822F087FCE3685C
:107E90000021D3F8C80022F081FCE3680021D3F868
:107EA000CC0022F07BFCE3680021D3F8D00022F064
:107EB00075FCE3680021D3F8D40022F06FFCE3687E
:107EC0000021986E22F06AFCE3680021D86E22F04F
:107ED00065FC2969E3680029186FD4BF00210121DE
:107EE00022F05CFC2969E3680029D4BF002101214C
:107EF000586F22F053FCE3680021D3F8880022F089
:107F00004DFC2969E3680029D3F88C00D4BF002117
:107F1000012122F043FC2969E3680029D4BF002134
:107F20000121186B22F03AFC97F85010002940F01C
:107F30008E85E368986B22F031FC2969E36800299B
:107F4000586BD4BF0021012122F028FCE3680021F6
:107F5000986D22F023FCE3680021D86D22F01EFC0E
:107F6000E3680121D3F8800022F018FCE3680121C6
:107F7000D3F8840022F012FC2969E3680029D3F8C1
:107F80009400D4BF0021012122F008FC7B6B062B5A
:107F900005D0022B03DD3368012B40F33186E36803
:107FA0000021D3F8980022F0F9FBE3680021D3F810
:107FB000A40022F0F3FB3B6B022B40F39A85296966
:107FC000E3680029D3F89C00D4BF0021012122F0EE
:107FD000E5FBE3680021D3F8A00022F0DFFBE368B3
:107FE0000021D3F8A40022F0D9FBE3680021D3F8E4
:107FF000A80022F0D3FBE3680021D3F8AC0022F004
:10800000CDFBE36801211CE5E3680021D86822F07C
:10801000C5FBE3680021D3F8C80022F0BFFBE3688A
:108020000021D3F8CC0022F0B9FBE3680021D3F89B
:10803000D00022F0B3FBE3680021D3F8D40022F093
:10804000ADFB2969E3680029186BD4BF0021012129
:1080500022F0A4FBE36897F85010986B002940F0D9
:10806000EC8422F09BFBE3680121586B22F096FB25
:10807000E3680021D86B22F091FBE3680021D86C03
:1080800022F08CFBE3680121986D22F087FBE36806
:108090000121D86D22F082FB3B6B022B40F3598506
:1080A0002969E3680029986ED4BF0021012122F0DC
:1080B00075FB2969E3680029D86ED4BF002101212E
:1080C00022F06CFBE3680021186F22F067FBE36885
:1080D0000021586F22F062FBE3680121D3F8800091
:1080E00022F05CFBE3680121D3F8840022F056FB08
:1080F0002969E3680029D3F88800D4BF0021012151
:1081000022F04CFB2969E3680029D3F89400D4BF1E
:108110000021012122F042FB3B6B062B05D0022BF4
:1081200003DD3368012B40F38185E3680021D3F838
:10813000980022F033FBE3680021D3F8A40022F07A
:108140002DFB3B6B022B40F322852969E368002954
:10815000D3F89C00D4BF0021012122F01FFBE3686B
:108160000021D3F8A00022F019FB2969E368002957
:10817000D3F8A800D4BF0021012122F00FFB296908
:10818000E3680029D4BF00210121D3F8AC0022F01C
:1081900005FBE3680121D3F8B00022F0FFFA29695A
:1081A000E3680029D3F8B400D4BF0021012122F0F4
:1081B000F5FAFBF75BFB8046002800F08D84296907
:1081C000E3680029D3F8B800D4BF00210121C0E042
:1081D000E3680021D86822F0E1FAE3680021D3F8CF
:1081E000C80022F0DBFAE3680021D3F8CC0022F0CB
:1081F000D5FAE3680021D3F8D00022F0CFFAE36883
:108200000021D3F8D40022F0C9FAE3680021186BEA
:1082100022F0C4FAE3680021986B22F0BFFAE36809
:108220000021586B22F0BAFAE3680021D86B22F0E3
:10823000B5FAE3680021D86C22F0B0FAE3680121B6
:10824000986D22F0ABFAE3680121D86D22F0A6FA0E
:10825000E3680021986E22F0A1FAE3680021D86E4D
:1082600022F09CFAE3680121186E22F097FAE36885
:108270000121586E22F092FAE3680021D3F88000C1
:1082800022F08CFAE3680021D3F8840022F086FA09
:108290002969E3680029D3F88800D4BF00210121AF
:1082A00022F07CFA2969E3680029D3F89400D4BF4E
:1082B0000021012122F072FA3B6B062B02D0022B27
:1082C00000F3F183E3680021D3F8980022F066FA06
:1082D000E3680021D3F8A40022F060FA3B6B022B84
:1082E00000F38C83E3680021D3F89C0022F056FA57
:1082F0002969E3680029D3F8A000D4BF0021012137
:1083000022F04CFA2969E3680029D4BF0021012139
:10831000D3F8A80022F042FAE3680021D3F8AC00B9
:1083200022F03CFAE3680121D3F8B00022F036FADB
:10833000E3680021D3F8B40022F030FAFBF796FA94
:10834000E3688046D3F8B800B8F1000F00F0C783A7
:10835000012122F023FA2969E3680029D3F8BC003F
:10836000D4BF0021012122F019FAE3680021D3F8DB
:10837000C00022F013FAE3680021D3F8C40022F011
:108380000DFAE3680122D3F88800002122F0BAFE3A
:10839000E3680122D3F88800114622F0B3FEE368B7
:1083A0000122D3F88800022122F0ACFEE36801220A
:1083B000D3F88800032122F0A5FEE3680122D3F858
:1083C0008800042122F09EFEE3680122D3F8880091
:1083D000052122F097FE3368012BE368D3F888006B
:1083E00004DDD7F85821002A00F0E383012206219A
:1083F00022F088FE3B6B032B00F22E84DFE813F0A3
:108400004C0345033E033703E3680021D86822F09C
:10841000C5F9E3680021D3F8C80022F0BFF9E3688A
:108420000021D3F8CC0022F0B9F9E3680021D3F899
:10843000D00022F0B3F9E3680021D3F8D40022F091
:10844000ADF9E3680121186C22F0A8F9E368012175
:10845000186D22F0A3F9E3680121986C22F09EF9CF
:10846000E3680121586D22F099F92969E368002930
:10847000D4BF00210121186B22F090F997F8501019
:10848000002900F0CC822969E3680029986BD4BFE9
:108490000021012122F082F9E3680021586B22F0CB
:1084A0007DF9E3680022D3F88800062122F02AFE35
:1084B000E3680122D3F88800052122F023FEE36857
:1084C0000021D86B22F06AF9E3680021D86C22F011
:1084D00065F9E3680021986D22F060F9E3680021F6
:1084E000D86D22F05BF92969E3680029986ED4BF42
:1084F0000021012122F052F92969E3680029D4BF43
:1085000000210121D86E22F049F9E3680121D3F856
:10851000800022F043F9E3680121D3F8840022F0BF
:108520003DF92969E3680029D3F88800D4BF002108
:10853000012122F033F92969E3680029D4BF002121
:108540000121D3F8940022F029F9E3680021D3F83F
:10855000980022F023F93B6B022B40F3E982296952
:10856000E3680029D3F89C00D4BF0021012122F048
:1085700015F9E3680021D3F8A00022F00FF9E368B1
:108580000021D3F8A40022F009F92969E368002941
:10859000D4BF00210121D3F8A80022F0FFF8E3683E
:1085A0000021D3F8AC0022F0F9F8E3680121D3F8F8
:1085B000B00022F0F3F82969E3680029D3F8B40089
:1085C000D4BF0021012122F0E9F8FBF74FF907465B
:1085D000002800F0A0822969E3680029D3F8B800D8
:1085E000D4BF0021012122F0D9F82969E3680029CC
:1085F000D3F8BC00D4BF0021012122F0CFF8E368FA
:108600000021D3F8C00022F0C9F8E3680021D3F8B4
:10861000C40022F0C3F8E3680022D3F888001146B2
:1086200022F070FDE3680022D3F88800012122F0D7
:1086300069FDE3680022D3F88800022122F062FD80
:10864000E3680022D3F88800032122F05BFDE36891
:108650000122D3F88800042122F054FDE3680122AE
:10866000D3F88800062122F04DFDE3680122D3F8FB
:108670008800052122F046FDE368FFF7DDBAE368D4
:108680000021D86822F08AF8E3680021D3F8C800F6
:1086900022F084F8E3680021D3F8CC0022F07EF8C1
:1086A000E3680021D3F8D00022F078F8E3680021D5
:1086B000D3F8D40022F072F8E3680021186B22F09E
:1086C0006DF8E3680021986B22F068F8E3680021F8
:1086D000586B22F063F8E3680021D86B22F05EF853
:1086E000E3680021D86C22F059F8E3680021986D06
:1086F00022F054F8E3680021D86D22F04FF8E368C7
:108700000021986E22F04AF8E3680021D86E22F02A
:1087100045F8E3680021D3F8800022F03FF8E368D1
:108720000021D3F8840022F039F8E3680021D3F85F
:10873000880022F033F8E3680021D3F8940022F097
:108740002DF8E3680021D3F8980022F027F8E368B9
:108750000021D3F89C0022F021F8E3680021D3F82F
:10876000A00022F01BF8E3680021D3F8A40022F057
:1087700015F8E3680021D3F8A80022F00FF8E368A9
:108780000021D3F8AC0022F009F8E3680021D3F807
:10879000B00022F003F8E3680021D3F8B40021F020
:1087A000FDFFE3680021D3F8B80021F0F7FFE3688C
:1087B0000021D3F8BC0021F0F1FFFFF730BAE368E5
:1087C0000021D86821F0EAFFE3680021D3F8C8004F
:1087D00021F0E4FFE3680021D3F8CC0021F0DEFFB4
:1087E000E3680021D3F8D00021F0D8FFE36800212E
:1087F000D3F8D40021F0D2FFE3680021186B21F0F8
:10880000CDFFE3680121586B21F0C8FFE368002128
:10881000986B21F0C3FFE3680021D86B21F0BEFF05
:10882000E3680021D86C21F0B9FFE3680121986D5D
:1088300021F0B4FFE3680121D86D21F0AFFFE368B8
:108840000021986E21F0AAFFE3680021D86E21F084
:10885000A5FFE3680021D3F8800021F09FFFE368C3
:108860000021D3F8840021F099FFE3680021D3F8B8
:10887000880021F093FFE3680021D3F8900021F0F5
:108880008DFFE3680021D3F8940021F087FFE368AF
:108890000021D3F8980021F081FFE3680021D3F88C
:1088A0009C0021F07BFFE3680021D3F8A00021F0B9
:1088B00075FFE3680021D3F8A40021F06FFFE3689F
:1088C0000021D3F8A80021F069FFE3680021D3F864
:1088D000AC0021F063FFE3680021D3F8B00021F081
:1088E0005DFFE3680021D3F8B40021F057FFE3688F
:1088F0000021D3F8B80021F051FFE3680021D3F83C
:10890000BC0021F04BFF2969E3680029D3F8C000BF
:10891000D4BF0021012121F041FF2969E36800292A
:10892000D3F8C400D4BF0021012121F037FFE36850
:10893000FFF782B9E36845F26041186E22F06AFBE6
:10894000FEF738BFE3684FF46161186E22F062FBF6
:10895000FEF730BFE36841F21851186E22F05AFB5F
:10896000FEF728BFE36842F63021186E22F052FB72
:10897000FEF720BFE36840F68C21186E22F04AFB18
:10898000FEF718BFE3684FF4E161186E22F042FB76
:10899000FEF710BFE368B449186E22F03BFBFEF708
:1089A00009BFE3684FF4E151186E22F033FBFEF784
:1089B00001BFD3F8F800012121F0F0FEE3680121A6
:1089C000D3F8FC0021F0EAFEFFF755B9E368012275
:1089D0009868062122F096FBE36801229868082136
:1089E00022F090FBFEF78EBE986B21F0D7FEE36875
:1089F0000121586B21F0D2FEFEF7A0BF2969E36880
:108A00000029D3F89C00D4BF0021012121F0C6FE2B
:108A1000E3680021D3F8A00021F0C0FE72E4E3680F
:108A2000986B21F0BBFE2969E3680029586BD4BF1D
:108A30000021012121F0B2FE33E5012121F0AEFE3B
:108A4000E3680021586B21F0A9FEFFF711BB2969EB
:108A5000E3680029986BD4BF0021012121F09EFE1C
:108A6000E3680021586B21F099FEFFF76FBAE368C5
:108A70007E49D3F898205164FFF7DEB8E3687C495B
:108A8000D3F898205164FFF7D7B8E3687949D3F851
:108A900098205164FFF7D0B8E3687749D3F898205D
:108AA0005164FFF7C9B83368012B3FF70BAC296954
:108AB000E3680029D4BF00210121D3F8980021F0F8
:108AC0006DFE2969E3680029D3F8A400D4BF002112
:108AD000012121F063FE01E4E368D3F8B8004146C8
:108AE00021F05CFEE3684146D3F8BC0021F056FE5D
:108AF0003BE4E3680021D3F89C0021F04FFE296994
:108B0000E3680029D3F8A000D4BF0021012121F09F
:108B100045FEFFF764BAE3683946D3F8B80021F0A0
:108B20003DFEE3683946D3F8BC0021F037FE66E528
:108B3000E3680021D3F89C0021F030FE2969E36846
:108B40000029D3F8A000D4BF0021012121F026FE86
:108B500015E5E3680021986E21F020FEE36800210E
:108B6000D86E21F01BFE2969E3680029D4BF0021DB
:108B70000121186F21F012FE2969E3680029586F5E
:108B8000D4BF0021012121F009FEFFF7A5BAE36857
:108B90000021D3F89C0021F001FE2969E368002937
:108BA000D3F8A000D4BF0021012121F0F7FDFFF789
:108BB000DCBA062122F0A6FA1CE4986D012121F00E
:108BC000EDFDE3680121D86D21F0E8FDFEF7BBBFA4
:108BD000E3682A49D3F8CC0022F090FAFEF79FBE52
:108BE000E3682749D3F8CC0022F088FAFEF797BE55
:108BF000E3682449D3F8CC0022F080FAFEF78FBE58
:108C00002969E3680029D4BF00210121D3F8980025
:108C100021F0C4FD2969E3680029D3F8A400D4BF7A
:108C20000021012121F0BAFDFFF7C5B92969E368E8
:108C30000029D4BF00210121D3F8980021F0AEFD16
:108C40002969E3680029D3F8A400D4BF00210121D9
:108C500021F0A4FDFFF775BAE3680B49D3F898201B
:108C60005164FEF7E9BF00BF805101004415FF1FAA
:108C70007415FF1F6415FF1F5415FF1F280EFF1FDB
:108C8000D80DFF1F780EFF1F8415FF1FFFFFFFFF8A
:108C9000F0B5044697B00020FAF786FC3249D1E9D6
:108CA00000672FA3D3E900233046394630F0E0FABD
:108CB000002835D02D4D2E4B6A6804F14C0653F830
:108CC00022102C4A304634F05BFFE2682A4B1269CE
:108CD000C2F8CC60D3E900670022284B3046394601
:108CE00030F0C6FA00282FD1254B1A68CDE900676D
:108CF000642A02AE0CBF23492349304634F040FFBA
:108D00006A68224B04F16B0553F82210284632465C
:108D100034F036FFE3685B69C3F8CC5017B0F0BDA0
:108D20001B4B124D1A681B49CDE9006702A834F0AD
:108D300027FF6A680E4B04F14C0653F822103046A8
:108D400002AA34F01DFFC0E7104B6968094A53F8C6
:108D5000211004F16B05284634F012FFDAE700BF5A
:108D600000000040333307409857FF1FA857FF1FEC
:108D70002414FF1FC47D04008857FF1F00002440F7
:108D80009057FF1FD87D0400E47D04001415FF1FD9
:108D9000A057FF1FC87D04002DE9F8430368574C16
:108DA0005B69574FDFF878910646984720683B6823
:108DB000C6F86C3108301DF091FD2568D9F8042003
:108DC0000023C5F8B8304F4B53F82280B8F1000F9C
:108DD00008D0404636F074F82B6802465B6841467E
:108DE00028469847284624F0C3FA474BD9F8042070
:108DF000256853F822804FF42023C5F8B830B8F125
:108E0000000F08D0404636F05BF82B6802465B68DE
:108E1000414628469847284624F0AAFA2068083098
:108E20001DF068FD0023C6F88C301DF06FF9F36863
:108E30009B69C6F8900001225A723B68022B4BDCFA
:108E4000002B4BDC314D06F1C00406F1FC0829462D
:108E5000204635F083FF294604F13C000C3435F000
:108E60007DFF444505F10C05F1D1D7ED077A9FED63
:108E7000287A3B692749F8EEE77A81FB030287EEFF
:108E8000876ADB17C3EBA2127B69C6F8382181FB26
:108E90000301DB17C3EBA113C6F83C313046D7ED15
:108EA000067A86ED516AF8EEE77AC7EE876AC6ED74
:108EB000506AFEF787FB184B1978B1B1002386F88A
:108EC00038303046FCF7FEFD3046FFF7E1FE304615
:108ED000BDE8F843FEF722BB052BB3D10F4B1B684F
:108EE000012B08D000233B60ACE7F368D3F8FC000B
:108EF00021F054FCE2E706233B60A3E7305EFF1F4E
:108F00001858FF1F441DFF1FC41CFF1FC057FF1F21
:108F100000007A44D34D6210A159FF1F1058FF1F63
:108F2000A857FF1F436B70B50446412B45D8DFE8B7
:108F300013F09A005F0058004400420042004400D1
:108F40004E004B01440044003301440044004400FF
:108F500044004400440044004400440044004400F1
:108F60004400440044002A01210115010901440084
:108F700044004400440044004400440044004400D1
:108F800044004400440044004400440044004400C1
:108F90004400050144004400440044004400E30050
:108FA00087016501D5015701DF00D600D2004400DA
:108FB0004400B600B200FFF76BFE2046FEF702FB4E
:108FC000236820469B699847B44B186870BDC368F6
:108FD000D86922F067F90028EFD02046FEF79EFA04
:108FE000EBE7AF4B1B68052BE7D0C0F86C31E4E72B
:108FF000AC4E00253570FAF761F9A94B9FEDAA7ABE
:10900000D3ED077A1969A948F8EEE77A0122C7EE8D
:10901000876A327080FB01C6C917C1EBA611A44A4A
:10902000C4F83811D3ED067AC4ED516AF8EEE77A48
:109030005B69C7EE876A80FB0310DB17C3EBA013E5
:10904000C4F83C315369516803EB4303012902EB37
:1090500083020CBF974998491832C4ED506A2846DC
:109060001FF008FEA9E7C368186822F01BF98C4AB4
:109070001368002800F08281013B082B00F2A581D3
:10908000DFE813F07801740170016C016501610182
:10909000590155015D01814B11221A608DE790F84D
:1090A0009530002B89D0854D286808301DF016FCBE
:1090B0002C68236800215B68C4F8B810122280492C
:1090C00020469847204624F053F9286808301DF0C0
:1090D00011FC25F063FE714B0F221A606DE790F8CA
:1090E0009430002B40F06E81002384F8943064E7C4
:1090F0006A4B0D221A6060E790F85C11C368002982
:1091000000F05381D3F8D8000368DB699847E3681F
:10911000D3F8DC0003689B699847E3680021D3F823
:10912000D80021F0F7FBE3680121D3F8DC0021F03F
:10913000F1FB01223723626063633EE7574B0C2249
:109140001A603AE7D0ED517A9FED577A544B67EEAB
:10915000877AFDEEE77AC3ED077A2EE7D0ED507AF5
:109160009FED517A4E4B67EE877AFDEEE77AC3EDBD
:10917000067A22E7D0F83C31494A4FF47A7101FB74
:1091800003F3536119E7D0F83831454A4FF47A7147
:1091900001FB03F3136110E7454D6B68012B00F0F1
:1091A000F7802969474A03EB43030B4400204649F3
:1091B00052F823201FF05EFD2B69022B434B0CBF9E
:1091C000012200221A70F8E6394B1B78002B00F0C0
:1091D000D8803A4B1868012108301EF0F9FFECE600
:1091E000334A3B4B52681A60FFF752FDE3689B69B4
:1091F000012220465A72FEF791F9DEE690F86411DA
:10920000C368002900F0CE80D3F8E0000368DB6972
:109210009847E368D3F8E40003689B699847E368DC
:109220000021D3F8E00021F075FBE3680121D3F8B9
:10923000E40021F06FFB0122392362606363BCE626
:109240001B4E002200230220C6E91623FAF7ACF9D0
:10925000D4F860012FF042FD1E4BD3E900232FF01C
:10926000DDFBC6E916012046FFF712FDE368002585
:10927000D3F8DC0084F85C51294621F04BFBE3680D
:109280000121D3F8D80021F045FB3621D6E9162379
:109290002846616310491FF0EDFC8EE6EC68FF1F65
:1092A0001858FF1F0C0DFF1F00007A44D34D6210A9
:1092B000A857FF1FF47D0400187E0400305EFF1FD6
:1092C000607E0400B41AFF1F487E0400A159FF1FEE
:1092D0006069FF1F9857FF1F747E04003D4D0022F8
:1092E00000230220C5E91823FAF75EF9D4F86801D3
:1092F0002FF0F4FC384BD3E900232FF08FFB0B4603
:1093000002462046C5E91823FFF7C2FCE3680021A6
:10931000D3F8E40084F8641121F0FCFAE368012139
:10932000D3F8E00021F0F6FA3823636345E62B4BCF
:109330000A221A6041E6294B0E221A603DE6274BAD
:1093400012221A6039E6254B09221A6035E6234BB2
:1093500006211960D4F86C3113602EE61F4B0822E9
:109360001A602AE61D4B07221A6026E61B4B0522CF
:109370001A6022E6194B04221A601EE6052BE9D07A
:109380001BE6174B1868FF2108301EF021FF14E67A
:109390002B69144A14490333002052F823201FF08C
:1093A00069FC09E7D3F8E400B6E7D3F8DC0021F064
:1093B000B1FAE3680121D3F8D80021F0ABFA3623E3
:1093C0006363FAE5F9F7ACFA8EE6044B03221A6000
:1093D000F3E500BFA857FF1F8857FF1FEC68FF1F6A
:1093E000305EFF1FB41AFF1F307E040030B5044604
:1093F00085B0114623F0E2FFA368142B0CDC132B7D
:1094000007DC0D4D2946204624F0B2F8A368132B43
:10941000F8DD204605B030BD142300222146684601
:1094200024F012F96946204624F04CF8684623F0EF
:10943000F9FFA368E3E700BF04A404002DE9F04F9F
:10944000D0F83431D0F83021D0F834B09A42044604
:109450008BB0A3EB020000F08E80D4F83C31002BDF
:109460004FEA20115DDBCA1A032A73DCA1F106085A
:109470004F1E134628EAE878DFF854A1DFF854912C
:10948000636304F14C0601252BE024F091F9D4F834
:10949000301104A801EB071123F090FF04AA214624
:1094A0006846FFF7A3FF04A823F0BCFF15220023A2
:1094B00004A9684624F082F804A9304634F0D8FEA6
:1094C000E368012153F8250021F068F965626846D8
:1094D000013523F0A7FF072D07F1FF3706F1160628
:1094E00016D0B8454FF0020249463046CDDD514610
:1094F000142224F05DF9E368002153F825000135BA
:1095000021F04CF9072D07F1FF3706F11606E8D1D7
:10951000BBF1060F0CD9636B062B12D90BB0BDE85B
:10952000F08FA1F107084F1E28EAE8780023A3E78F
:10953000E368002153F82B0021F0ECF9636B062B54
:10954000ECD8E26852F8230001210BB0BDE8F04FDF
:1095500021F0E0B9022B09DC5028D4BF01F1FF371C
:109560000527FB1A01334FF0000885E79F1CA3F184
:109570000208032380E7144A144B526804F14C009C
:1095800053F8221035F0EAFBE3680121586821F016
:1095900005F90825E36800215859043521F0FEF843
:1095A0001C2DF7D1BBF1000F05DBE368002153F858
:1095B0002B0021F0AFF9E2680023106863630121FA
:1095C00021F0A8F9A4E700BFA857FF1FBC0FFF1F99
:1095D000947E040004A40400012910B5044605D0BB
:1095E000022919D0BDE810401FF0A2B8D0F8301100
:1095F000D0F83C31D0F834210133521AB3EB221F9A
:10960000A8BF4FF0FF33C0F83C31FFF717FF2046EB
:109610001EF0F6FF002010BDD0F83C31013BC0F831
:109620003C31013307DB2046FFF708FF20461EF0E0
:10963000E7FF002010BDD0F83021D0F834319B1A5C
:109640001B11013BC0F83C312046FFF7F7FE2046D6
:109650001EF0D6FFEDE700BF10B50446F9F70EF88F
:109660000023054A22602365236684F86430A4F849
:109670005C30204610BD00BF6C8504002DE9F04F22
:109680002DED028B04468BB0F8F7F8FF0025364B22
:109690002360C4F83051C4F83451C4F83851D02094
:1096A00024F0FEF904F10C02304B3149019500958C
:1096B00008EE102A0122054621F0D4FD21696369D4
:1096C000049599420DF1100A48D041F8045B2161DC
:1096D00004F14C06DFF898B004F1D009B046002739
:1096E00012E043F8045B2361013722493A465046B1
:1096F00034F046FA4046514635F030FB062F09F16A
:10970000100908F1160817D0D02024F0C9F900215B
:109710004B460122019100915946054621F0A2FDD8
:1097200021696269039591420B46DAD118EE100A5D
:1097300003AAF8F741F8D7E7234604F16002C3F81B
:10974000D060C3F8D4601033934206F11606F6D108
:1097500020460BB0BDEC028BBDE8F08F18EE100A6E
:109760005246F8F729F8B3E7A88504008417FF1FCD
:10977000F0840400A87E040070B505468CB0044651
:10978000F8F77CFF704B45F80C3BD02024F088F9AB
:1097900000236E490193009301226D4B064621F090
:1097A00061FD216963690B96994200F0A78041F839
:1097B000046B2161D82024F073F9002308930793E8
:1097C000049302930B230122019304F16003614986
:1097D00000930692604B05920392064621F082FBAD
:1097E000216963690B96994200F08D8041F8046B02
:1097F0002161D82024F054F900230893079304939F
:1098000002930B230122019304F16C03514900934D
:109810000692524B05920392064621F063FB2169A2
:1098200063690B96994273D041F8046B2161D8208B
:1098300024F036F9002308930793049302930B2333
:109840000122019304F17803424900930692444BAC
:1098500005920392064621F045FB216963690B9648
:1098600099425AD041F8046B2161D82024F018F9AC
:10987000002308930793049302930B23012201937F
:1098800004F18403334900930692364B0592039208
:10989000064621F027FB216963690B96994241D066
:1098A00041F8046B2161D02024F0FAF80023274905
:1098B0000193009301222C4B064621F0D3FC216931
:1098C00063690B96994232D041F8046B2161D02034
:1098D00024F0E6F800231D49019300930122234B55
:1098E000064621F0BFFC216963690B96994223D09B
:1098F00041F8046B204621610CB070BD0BAA2846CC
:10990000F7F75AFF56E70BAA2846F7F755FF70E717
:109910000BAA2846F7F750FF89E70BAA2846F7F766
:109920004BFFA2E70BAA2846F7F746FFBBE70BAAB7
:109930002846F7F741FFCAE728460BAAF7F73CFF8E
:1099400020460CB070BD00BFE4850400F084040024
:109950008417FF1FB48304003417FF1F4417FF1F31
:109960005417FF1F6417FF1F9417FF1F7417FF1F63
:109970002DE9F04707468CB00446F8F77FFEAF4B61
:1099800047F8943BAE4A3B4604F1A80143F8042F44
:109990008B425A6102F10C02F8D1D02024F080F8F9
:1099A0000023A849019300930122A74B064621F00A
:1099B00059FC216963690B96994204F10C0501F089
:1099C000C08041F8046B2161DC2024F069F89F4AD3
:1099D00001929F4A009204F198020023039205220B
:1099E0009C490593049302920122064621F05CFBF8
:1099F000216963690B96994201F0A98041F8046BD3
:109A00002161DC2024F04CF8934A0392934A01929E
:109A1000934A009200230A229249059304930292EA
:109A20000122064621F040FB216963690B969942A9
:109A300001F0938041F8046B2161DC2024F030F8C0
:109A4000894A0392894A0192894A009200230A2294
:109A500088490593049302920122064621F024FBD3
:109A6000216963690B96994201F07D8041F8046B8E
:109A70002161D02024F014F800237F490193009342
:109A800001227E4B064621F0EDFB216963690B96AE
:109A9000994201F06E8041F8046B2161D02023F0DF
:109AA000FFFF00237649019300930122754B064680
:109AB00021F0D8FB216963690B96994201F05F8020
:109AC00041F8046B2161E02023F0EAFF00230293B8
:109AD00001936D4B6D49009301226D4B064621F0B9
:109AE0001BFD216963690B96994201F04E8041F894
:109AF000046B2161D02023F0D3FF00235E49019342
:109B000000930122634B064621F0ACFB2169636997
:109B10000B96994201F03F8041F8046B2161D420FB
:109B200023F0BEFF00235C4A0493039301920123B8
:109B30005A4A5B4E5B49009202961A46804621F0D3
:109B400041FB21696369CDF82C80994201F029809D
:109B500041F8048B2161D42023F0A2FF0023524955
:109B6000019300930122514B804621F0A3FB216910
:109B70006369CDF82C80994201F0198041F8048B7B
:109B80002161D82023F08CFF0023494902930193DF
:109B900000930122474B804621F074FC21696369E0
:109BA000CDF82C80994201F0088041F8048B2161A6
:109BB000DC2023F075FF404A0392404A0192404A5C
:109BC0000092002303223F4905930493029201224D
:109BD000804621F069FA21696369CDF82C809942A9
:109BE00000F0F18741F8048B2161D42023F058FF65
:109BF000354A02920023354A0493039301920123CC
:109C0000334A344900921A46804621F0DBFA216932
:109C10006369CDF82C80994200F0DB8741F8048B12
:109C20002161E02023F03CFF0023059304932A4B9D
:109C3000009363230122029305234FE03085040043
:109C4000C057FF1F108304002417FF1FBC57FF1FBE
:109C5000F417FF1FD88304003421FF1F1858FF1F7B
:109C60001417FF1FF8820400541EFF1F7859FF1FAE
:109C7000A417FF1FCC830400688004002414FF1F76
:109C8000A08004001415FF1FCCA20400108504005E
:109C90007418FF1FF418FF1FA857FF1FD416FF1FCB
:109CA000F41FFF1FC080040020810400B414FF1FB4
:109CB000CC8204005416FF1FB41AFF1FB857FF1FB1
:109CC0009419FF1F70820400141FFF1F6858FF1FA4
:109CD0007419FF1F588404007058FF1FAD49019389
:109CE0000392AD4B804621F05FF921696369CDF89D
:109CF0002C80994200F0738741F8048B2161E020A9
:109D000023F0CEFE002305930493A44B00936FF041
:109D10001D03012202936FF06D039E49019303928C
:109D20009F4B804621F040F921696369CDF82C8072
:109D3000994200F05A8741F8048B2161D42023F026
:109D4000AFFE984A02920023974A0493039301922C
:109D50000123964A964900921A46804621F032FA2B
:109D600021696369CDF82C80994200F0448741F85D
:109D7000048B2161DC2023F093FE8E4A03928E4AED
:109D800001928E4A0092002304228D490593049388
:109D900002920122804621F087F921696369CDF89A
:109DA0002C80994200F02D8741F8048B2161DC2042
:109DB00023F076FE834A0392834A0192834A0092FB
:109DC00000230422824905930493029201228046D3
:109DD00021F06AF921696369CDF82C80994200F07D
:109DE000168741F8048B2161D42023F059FE00230B
:109DF000784A0493039301920123774A77490092AA
:109E000002961A46804621F0DDF921696369CDF892
:109E10002C80994200F0018741F8048B2161E020F9
:109E200023F03EFE00239FED6E1A029301936D4BCB
:109E30006D490093F0EE000A6C4BB0EE410A01222E
:109E4000804621F0F5F821696369CDF82C809942AC
:109E500000F0E98641F8048B2161D42023F020FE34
:109E60000023634A0493039301920123614A6249E8
:109E7000009202961A46804621F0A4F9216963698E
:109E8000CDF82C80994200F0D48641F8048B2161F2
:109E9000D42023F005FE0023584A04930393019233
:109EA0000123574A5749009202961A46804621F0EC
:109EB00089F921696369CDF82C80994200F0BF8649
:109EC00041F8048B2161D82023F0EAFD002302939E
:109ED00001934D4B4D49009301224D4B804621F09B
:109EE000D1FA21696369CDF82C80994200F0AD86E2
:109EF00041F8048B2161D82023F0D2FD0023029386
:109F00000193444B444900930122444B804621F085
:109F1000B9FA21696369CDF82C80994200F09B86DB
:109F200041F8048B2161F82023F0BAFD3C4B0093EB
:109F30000021012244F250630491039102930192A3
:109F4000384B804621F0A2FD21696369CDF82C8051
:109F5000994200F0868641F8048B2161F82023F0B5
:109F60009FFD314B0093002101224AF6C00304916A
:109F70000391029301922D4B804621F087FD2169C8
:109F80006369CDF82C80994200F0718641F8048B0A
:109F900021614DE018830400B418FF1F6C58FF1FA7
:109FA000A418FF1FF41EFF1F7858FF1F0419FF1F7E
:109FB0001C8404006413FF1F7458FF1F2416FF1F26
:109FC000D8840400A413FF1F9859FF1F9416FF1F85
:109FD000E08204009D59FF1F7416FF1F8C8304004C
:109FE000CDCC4C3E7C58FF1FF88404002418FF1F82
:109FF0009C59FF1F1414FF1FC08404009E59FF1FAB
:10A000004416FF1F788304001C58FF1FC8810400FA
:10A010003416FF1F2258FF1FDC8104006416FF1F47
:10A020004058FF1F4418FF1F4458FF1F3418FF1FDC
:10A03000E02023F035FD00230593049396230122AD
:10A04000029304F59C73B44900930392B34B0192BD
:10A05000804620F0A9FF21696369CDF82C809942E0
:10A0600000F00B8641F8048B2161E02023F018FDFD
:10A0700000230593049396230122029304F59E7313
:10A08000A74900930392A74B0192804620F08CFFD2
:10A0900021696369CDF82C80994200F0F48541F87C
:10A0A000048B2161E02023F0FBFC00239FED9E1A2E
:10A0B0000293019304F5A0739C490093DFED9C0A81
:10A0C0009C4BB0EE410A0122804620F0B1FF21698D
:10A0D0006369CDF82C80994200F0DB8541F8048B50
:10A0E0002161E02023F0DCFC00239FED8F1A029316
:10A0F000019304F5A27390490093DFED8D0A8F4B15
:10A10000B0EE410A0122804620F092FF2169636986
:10A11000CDF82C80994200F0C28541F8048B216172
:10A12000E02023F0BDFC0023059304930193844BAE
:10A13000009301220A23834902930392824B8046B3
:10A1400020F032FF21696369CDF82C80994200F03C
:10A15000AC8541F8048B2161E02023F0A1FC0023B1
:10A1600005930493794B009301220A2375490293C6
:10A170000392754B0192804620F016FF21696369B6
:10A18000CDF82C80994200F0968541F8048B21612E
:10A19000E02023F085FC0023059304936C4B00938F
:10A1A000012263236B49029303926B4B0192804619
:10A1B00020F0FAFE21696369CDF82C80994200F005
:10A1C000808541F8048B2161E02023F069FC0023A5
:10A1D00005930493614B0093012240F2E7336049F9
:10A1E000029303925F4B0192804620F0DDFE2169CD
:10A1F0006369CDF82C80994200F0698541F8048BA1
:10A200002161DC2023F04CFC574A019200230722F5
:10A21000DFF88CA1DFF88C915449059304930292E6
:10A22000CDF80CA0CDF800900122804620F03CFF34
:10A2300021696369CDF82C80994200F04E8541F880
:10A24000048B2161DC2023F02BFC494A019200237E
:10A2500007224649059304930292CDF80CA0CDF84D
:10A2600000900122804620F01FFF21696369CDF82C
:10A270002C80994200F0378541F8048B2161DC2065
:10A2800023F00EFC3B4A03923B4A01923B4A009268
:10A29000002303223A490593049302920122804647
:10A2A00020F002FF21696369CDF82C80994200F00B
:10A2B000208541F8048B2161DC2023F0F1FB314A39
:10A2C0000392314A0192314A00920023052230491B
:10A2D0000593049302920122804620F0E5FE216955
:10A2E0006369CDF82C80994200F0098541F8048B10
:10A2F0002161D42023F0D4FB0023264A0493039346
:10A3000001920123244A2549009202961A4680466A
:10A3100020F058FF216947E09C810400C415FF1F0D
:10A32000888104009415FF1FCDCCCC3DA48204008D
:10A3300000004042D415FF1F90820400A415FF1FA7
:10A340009059FF1FAC840400E417FF1F9459FF1FAE
:10A350003858FF1F48810400F414FF1F3C58FF1FAA
:10A3600034810400E414FF1F4858FF1F5C8104007F
:10A370004C58FF1F2424FF1F7059FF1FC418FF1FD4
:10A380002C830400380FFF1F5058FF1F1416FF1FA7
:10A39000B08104005458FF1F8415FF1F7081040012
:10A3A000C80EFF1F2415FF1F6369CDF82C8099424A
:10A3B00000F0AB8441F8048B2161E02023F070FBB6
:10A3C0000023059304930193B04B009301221923BA
:10A3D000AF4902930392AF4B804620F0E5FD21691F
:10A3E0006369CDF82C80994200F0958441F8048B84
:10A3F0002161E02023F054FB002302930193A64B3C
:10A40000A64900939FEDA61AA64B9FEDA70AF3EE6F
:10A41000090A0122804620F00BFE21696369CDF80C
:10A420002C80994200F07D8441F8048B2161DC206E
:10A4300023F036FB9D4A03929D4A01929D4A009269
:10A44000002303229C490593049302920122804633
:10A4500020F02AFE21696369CDF82C80994200F032
:10A46000668441F8048B2161D42023F019FB00237A
:10A47000924A0493039301920123914A91490092D5
:10A4800002961A46804620F09DFE21696369CDF848
:10A490002C80994200F0518441F8048B2161D42032
:10A4A00023F0FEFA884A01920023884A88490493DF
:10A4B0000393009202960122804620F083FE2169D8
:10A4C0006369CDF82C80994200F03D8441F8048BFB
:10A4D0002161D82023F0E4FA002308930793049322
:10A4E00002937C4B0093012205237B490193069242
:10A4F0007A4B05920392804620F0F4FC216963694F
:10A50000CDF82C80994200F0248441F8048B21611D
:10A51000E02023F0C5FA002305930493704B0093C9
:10A52000012208236F49029303926F4B01928046E8
:10A5300020F03AFD21696369CDF82C80994200F042
:10A540000E8441F8048B2161E02023F0A9FA002356
:10A55000059304930A2303930193644B00934FF4F0
:10A560006163634902930122624B804620F01CFD27
:10A5700021696369CDF82C80994200F0F68341F897
:10A58000048B2161D42023F08BFA5B4A01920023D3
:10A590005A4ADFF8A0815A49049303930092CDF8F8
:10A5A00008800122814620F00DFE21696369CDF803
:10A5B0002C90994200F0DE8341F8049B2161D02069
:10A5C00023F06EFA00234F490193009301224E4B72
:10A5D000814620F047FE21696369CDF82C909942AD
:10A5E00000F0CD8341F8049B2161D42023F058FA78
:10A5F000464A01920023464A464904930393009237
:10A60000CDF808800122814620F0DCFD21696369D4
:10A61000CDF82C90994200F0B78341F8049B21615A
:10A62000E02023F03DFA0023059304933A4B009376
:10A6300001223223394902930392394B0192814618
:10A6400020F0B2FC21696369CDF82C90994200F0AA
:10A65000A08341F8049B2161DC2023F021FA314AD8
:10A660000392314A0192314A009200230522304977
:10A670000593049302920122814620F015FD216981
:10A680006369CDF82C90994256E000BF5858FF1FDF
:10A69000A08304008416FF1F8859FF1F98840400BC
:10A6A000CDCCCC3D3415FF1F000000008C0FFF1FE8
:10A6B0007459FF1FF416FF1F1C8204005D58FF1F12
:10A6C0000415FF1F888004005C58FF1F3414FF1F0F
:10A6D000EC8004005E58FF1F44820400D417FF1F63
:10A6E0006458FF1F30820400B417FF1F8858FF1FF3
:10A6F0005C8204001418FF1F8458FF1F1419FF1FE9
:10A70000D4800400008104004414FF1F6C59FF1F13
:10A710005418FF1FF08304007C59FF1FB882040007
:10A720000416FF1FD80DFF1F8059FF1F2419FF1F9C
:10A73000308404006C27FF1F00F0308341F8049B35
:10A740002161E02023F0ACF90023059304930193E9
:10A75000B44B009301220A23B34902930392B34BF3
:10A76000814620F021FC21696369CDF82C90994243
:10A7700000F0198341F8049B2161DC2023F090F95B
:10A78000AB4A0392AB4A0192AB4A009200230322E8
:10A79000AA490593049302920122814620F084FC89
:10A7A00021696369CDF82C90994200F0018341F84A
:10A7B000049B21614FF0000984F85C91D42023F0C0
:10A7C0006FF99F4A009204F5AE724B469D49CDF851
:10A7D0001090CDF80C900192CDF8088001228146AE
:10A7E00020F0F0FC21696369CDF82C90994200F0CB
:10A7F000E48241F8049B2161E02023F051F9002319
:10A800000293019304F5B0738F4900939FED8F1A63
:10A810008F4BDFED900AB0EE080A0122814620F04E
:10A8200007FC21696369CDF82C90994200F0CA8237
:10A8300041F8049B21614FF00009874BC4F8603157
:10A8400084F86491D42023F02BF9844A009204F513
:10A85000B2728349CDF808804B460192CDF8109032
:10A86000CDF80C900122804620F0ACFC2169636990
:10A87000CDF82C80994200F0AA8241F8048B216126
:10A88000E02023F00DF900230293019304F5B47343
:10A89000744900939FED6D1A734BF3EE000AB2EE0C
:10A8A000040A0122804620F0C3FB21696369CDF8C8
:10A8B0002C80994200F0908241F8048B21616B4B0F
:10A8C000C4F86831DC2023F0EBF8694A0392694A46
:10A8D0000192694A00920023042268490593049377
:10A8E00002920122804620F0DFFB21696369CDF8E6
:10A8F0002C80994200F0758241F8048B2161D020B0
:10A9000023F0CEF800235E490193009301225D4BB2
:10A91000804620F0A7FC21696369CDF82C8099421C
:10A9200000F0648241F8048B2161D42023F0B8F850
:10A930000023554A554901970493039300920296C8
:10A940000122074620F03EFC216963690B9799427A
:10A9500000F0588241F8047B2161D02023F0A0F858
:10A9600000234749019300930122494B074620F0F9
:10A9700079FC216963690B97994200F0488241F89C
:10A98000047B2161D42023F08BF8424A01920023FA
:10A99000414A4249049303930092029601220746DA
:10A9A00020F010FC216963690B97994200F0348212
:10A9B00041F8047B2161DC2023F072F8384A0392CD
:10A9C000384A0192384A00920023082237490593F9
:10A9D000049302920122074620F066FB2169636915
:10A9E0000B97994200F01D8241F8047B2161D4202D
:10A9F00023F056F804F1950301932D4B00930023A7
:10AA00002C490296049303930122064620F0DAFBB8
:10AA1000216963690B96994200F0088241F8046B42
:10AA2000216149E08459FF1F448404003419FF1F49
:10AA3000341AFF1F8C59FF1FC416FF1F0882040021
:10AA40008414FF1F7084040048830400CDCCCC3DE7
:10AA50007414FF1FCDCC8C4066668640A414FF1F83
:10AA600084840400608304009414FF1F00004041AC
:10AA7000741AFF1FAC57FF1FA416FF1FF0810400BC
:10AA8000448304008419FF1FC414FF1F7080040056
:10AA90000418FF1F6E59FF1FD418FF1F08840400FD
:10AAA000B419FF1FB457FF1FB416FF1FA88004007E
:10AAB0005414FF1F08810400D02022F0F1FF00236E
:10AAC000CD49019300930122CC4B064620F0CAFBEE
:10AAD000216963690B96994200F0AD8141F8046BDE
:10AAE0002161E3680022D3F88C00042120F00AFBE6
:10AAF000E3680022D3F88C00052120F003FBE36813
:10AB00000022D3F88C00062120F0FCFAE368002232
:10AB1000D3F8E800022120F0F5FAE3680022D3F828
:10AB2000E800032120F0EEFAE268B54B506C0021FA
:10AB3000A4F8941019701FF031FE20460CB0BDE847
:10AB4000F0870BAA2846F6F737FEFEF73DBF0BAAA3
:10AB50002846F6F731FEFEF754BF0BAA2846F6F753
:10AB60002BFEFEF76ABF0BAA2846F6F725FEFEF776
:10AB700080BF0BAA2846F6F71FFEFEF78FBF0BAA71
:10AB80002846F6F719FEFEF79EBF0BAA2846F6F7F1
:10AB900013FEFEF7AFBF0BAA2846F6F70DFEFEF731
:10ABA000BEBF0BAA2846F6F707FEFEF7D4BF0BAAD6
:10ABB0002846F6F701FEFEF7E4BF0BAA2846F6F793
:10ABC000FBFDFEF7F5BF0BAA2846F6F7F5FDFFF7EC
:10ABD0000CB80BAA2846F6F7EFFDFFF722B80BAA30
:10ABE0002846F6F7E9FDFFF78AB80BAA2846F6F7DC
:10ABF000E3FDFFF7A3B80BAA2846F6F7DDFDFFF744
:10AC0000B9B80BAA2846F6F7D7FDFFF7D0B80BAABC
:10AC10002846F6F7D1FDFFF7E7B80BAA2846F6F766
:10AC2000CBFDFFF7FCB80BAA2846F6F7C5FDFFF7EA
:10AC300014B90BAA2846F6F7BFFDFFF729B90BAAEE
:10AC40002846F6F7B9FDFFF73EB90BAA2846F6F7F6
:10AC5000B3FDFFF750B90BAA2846F6F7ADFDFFF795
:10AC600062B90BAA2846F6F7A7FDFFF777B90BAA3A
:10AC70002846F6F7A1FDFFF7DBB90BAA2846F6F741
:10AC80009BFDFFF7F2B90BAA2846F6F795FDFFF7F3
:10AC900009BA0BAA2846F6F78FFDFFF722BA0BAACE
:10ACA0002846F6F789FDFFF73BBA0BAA2846F6F7C8
:10ACB00083FDFFF751BA0BAA2846F6F77DFDFFF793
:10ACC00067BA0BAA2846F6F777FDFFF77DBA0BAAFD
:10ACD0002846F6F771FDFFF794BA0BAA2846F6F757
:10ACE0006BFDFFF7AFBA0BAA2846F6F765FDFFF735
:10ACF000C6BA0BAA2846F6F75FFDFFF7DDBA0BAA26
:10AD00002846F6F759FDFFF7F4BA0BAA2846F6F7DE
:10AD100053FDFFF752BB0BAA2846F6F74DFDFFF790
:10AD200068BB0BAA2846F6F747FDFFF780BB0BAAC6
:10AD30002846F6F741FDFFF797BB0BAA2846F6F722
:10AD40003BFDFFF7ACBB0BAA2846F6F735FDFFF736
:10AD5000C0BB0BAA2846F6F72FFDFFF7D9BB0BAAFD
:10AD60002846F6F729FDFFF7EFBB0BAA2846F6F7B2
:10AD700023FD07E40BAA2846F6F71EFD1FE40BAAE5
:10AD80002846F6F719FD30E40BAA2846F6F714FD1D
:10AD900046E40BAA2846F6F70FFD5DE40BAA284609
:10ADA000F6F70AFDCDE40BAA2846F6F705FDE4E424
:10ADB0000BAA2846F6F700FDFCE40BAA2846F6F796
:10ADC000FBFC19E50BAA2846F6F7F6FC33E50BAABF
:10ADD0002846F6F7F1FC53E50BAA2846F6F7ECFCFB
:10ADE0006DE50BAA2846F6F7E7FC88E50BAA28468E
:10ADF000F6F7E2FC99E500BF888204006414FF1FA7
:10AE0000465CFF1F0BAA2846F6F7D6FCA5E50BAA61
:10AE10002846F6F7D1FCB5E50BAA2846F6F7CCFC98
:10AE2000C9E50BAA2846F6F7C7FCE0E50BAA2846B9
:10AE3000F6F7C2FC40E60BAA2846F6F7BDFC50E642
:10AE40002DE9F04FD0F8008046688B46A6EB08034A
:10AE500011466FF07842B2EB231F85B061D01F110D
:10AE6000012F3B4638BF0123FF1881465D4654D26F
:10AE7000ABEB0803002F3FD101971024BA460AEB31
:10AE8000030022F0B9FAC3450DD04746544639466F
:10AE90002046103722F092FA5F45224604F1100452
:10AEA000F5D102F12004B34508D0294620461035DB
:10AEB00022F084FAB54204F11004F6D1B04518BF6F
:10AEC000454605D02846103522F0ACFAB542F9D1F6
:10AED000B8F1000F06D0D9F808104046A1EB0801E0
:10AEE00022F0E6FD019BC9F800A0C9F80440C9F8AA
:10AEF000083005B0BDE8F08F974228BF17463F01E4
:10AF000038460391029322F0CBFDC31901930399B4
:10AF1000029B824600F11004B1E7034FABEB08033C
:10AF2000EEE7024826F014FCF0FFFF7FF85B040018
:10AF30002DE9F0430B1A102B89B005460C46174635
:10AF40004FEA231840DDA8F1020606EBD67676100C
:10AF500000EB061902E0013E22F064FA4946684619
:10AF600022F04AFA694604A822F046FA04AB4246A7
:10AF700031462846FBF72AFE04A822F053FAA9F12D
:10AF800010096846002EE6D122F04CFAA7421DD8DF
:10AF900009B0BDE8F0832146684622F02DFA294623
:10AFA000204622F08FFA694604A822F025FA04AB65
:10AFB000424600212846FBF709FE04A822F032FA97
:10AFC000684622F02FFA1034A742E1D929462046DC
:10AFD00022F0DCFA0028F6D0DDE700BF0B1AB3F54B
:10AFE000807F40F3C9802DE9F04F064689B0924634
:10AFF000002A00F09580894606F1100B0DF110082B
:10B00000A9EB0603DC0F04EB2314641006EB041415
:10B010002146584622F0BAFAA9F110050AF1FF3A82
:10B02000294600284AD0204622F0B0FA002859D0FC
:10B030003146404622F0E0F92146304622F042FAFD
:10B040004146204622F03EFA404622F0EBF94F46B8
:10B050005B46184631461D4622F098FA05F110036A
:10B060000028F6D1A7F110042146304622F08EFACE
:10B070002746103C0028F7D1BD4211D22946404650
:10B0800022F0BAF93946284622F01CFA41463846E1
:10B0900022F018FA404622F0C5F905F11003D8E76E
:10B0A000524649462846FFF799FFAB1BB3F5807F10
:10B0B0005FDDBAF1000F36D0A946A1E7584622F06D
:10B0C00065FA28B33146404622F096F95946304693
:10B0D00022F0F8F94146584622F0F4F9404622F0B1
:10B0E000A1F9B4E72946584622F050FA3146002823
:10B0F000E9D0404622F080F92946304622F0E2F9B4
:10B100004146284622F0DEF9404622F08BF99EE7C0
:10B110002946204622F03AFA3146002889D0E8E74D
:10B120000D460DF110084FF000032A46294630461F
:10B13000A5F11004FFF7FCFE2146684622F05CF9F9
:10B140003146204622F0BEF9A51B6946404622F052
:10B1500053F943462A1100213046FBF737FD40469C
:10B1600022F060F9684622F05DF9102DA4F1100478
:10B17000E2DC09B0BDE8F08F704700BF2DE9F04375
:10B18000D0F83071D0F83461B742D5B0054608D058
:10B190003C462046103422F045F9A642F9D1C5F8C4
:10B1A00034715C4A11685C4A2C9200234FF47A7027
:10B1B000CDE93E33CDE952332D932E908DF8BC303E
:10B1C000419342908DF80C31409244AC21B1534AE6
:10B1D000204618F015F818B95149524822F0E0F805
:10B1E000514EDFF84C8105F59879002718E0502280
:10B1F00004A917F039FC04A918A833F0AFFD18A86A
:10B2000033F0BCF8314604A833F03EFC28B13E9B35
:10B21000CBB11B7813F0700F1CD030A817F0DCFFF7
:10B220000022214630A818F043F878B33E988DF8F4
:10B2300010700028DBD13F980028DCD0502204A9F0
:10B2400015F030FAD7E73F9B23B193F8313013F074
:10B25000500FE2D1414618A833F096FA0028DCD00E
:10B2600004A9684622F01AF9D5F83401D5F8383126
:10B27000984248D0694622F0BFF8D5F834311033EF
:10B28000C5F83431684622F0CDF8C6E7D5F83471F8
:10B29000D5F8308147452AD0A7EB08063211B2FA1B
:10B2A00082F2C2F11F02520039464046FFF796FE75
:10B2B000B6F5807F0EDD08F5807640463146FBF717
:10B2C0001FFDB7420AD030461036FBF7FBFCB742F1
:10B2D000F9D103E039464046FBF712FDD5F8343189
:10B2E000D5F830219B1A1B11013BC5F83C310F4D9D
:10B2F0004095204617F070FF30A82C9517F06CFF92
:10B3000055B0BDE8F08301466A464846FFF798FD10
:10B31000B8E700BF2463FF1F9C780400807D040011
:10B32000B87E0400C02DFF1FE47E0400787804007E
:10B330007877040010B50446FAF7C4FB2046FFF7FF
:10B340001DFF0023A3622046BDE81040FEF776B83B
:10B3500030B50F4D83B00190F7F7B6FC2C6801981B
:10B36000022C06DC002C06DC1CF0C6FF2C6003B0AF
:10B3700030BD052CF8D1074B1B68012B0CBF0623F1
:10B3800000232B601CF0B8FF2C6003B030BD00BF61
:10B390001858FF1F1058FF1F70B5044682B0FAF707
:10B3A00091FB3D23E364114A114900201DF062FC2A
:10B3B000104B1B680025022B656501DC02B070BDD7
:10B3C000DC2022F06DFB064610F056F926652A4671
:10B3D0002946304610F0CEF9074B1B680193019BBC
:10B3E00003F57A73636502B070BD00BFD07C0400C2
:10B3F000007F04001058FF1FE869FF1FF0B50446E6
:10B4000085B00120F8F79EF807EE900A94ED197ABE
:10B41000E36DF8EE677AB2EE040AA7EE870A022B14
:10B4200084ED180A4AD0E36C012B3DD0D4F8E43007
:10B4300001331AD03B4E3C49306808301CF06AF8A2
:10B4400004F50D4537684F23FC35C7F8B83028465A
:10B4500033F036FD3B68024629465B68384698471C
:10B460003068324908301CF055F8314DD4F8E820E6
:10B470002B680093009B9A4214D22E4B587848B305
:10B480002D4E337873B92D4B1B78002B35D101200D
:10B49000F8F78AF82B680293029B7D33C4F8E830F2
:10B4A000204622E005B0F0BD94F8F43073B1D4F832
:10B4B0000822B4F80C326265A365B7E7E36C012B90
:10B4C000B4D104F1EC0008F0BBF8ACE7E3646365C9
:10B4D000A365ABE7F8F768F82B680193019B03F5C8
:10B4E000EA4330332046C4F8E830F8F7D5F90120B4
:10B4F00005B0BDE8F040F7F7E7BF0220F8F754F8D1
:10B5000048B12B680393039B03F5EA433033C4F837
:10B51000E8302046E9E70A491DF0ACFB012333700F
:10B520002046E2E7305EFF1F98420500104A050002
:10B53000E869FF1FA459FF1FA659FF1F9457FF1F5B
:10B54000E05B04002DE9F04F87B088460092013A95
:10B5500002EBD272B1EB620F064601934EDA4FEA6C
:10B5600062090F4600E02F467C1C650005F1FF3A9A
:10B5700006EB441406EB0A1B5946204622F006F857
:10B5800000281CBF5C46554606EB0710214621F0FB
:10B5900099FF4D45E7DB009BDA0735D50DF108092A
:10B5A000019948466F1E21F027FF07EBD7774545E5
:10B5B0004FEA67070BDC17E021F084FF7B1E03EBEB
:10B5C000D373B8454FEA63033D460DDA1F4606EBD9
:10B5D00007144946204621F0D9FF0346214606EBD1
:10B5E0000510002BE8D104464946204621F06AFFA9
:10B5F000484621F017FF07B0BDE8F08F009BDB073E
:10B6000013D400EB01140D46009BA3F1020B0BEBCE
:10B61000DB7BB5EB6B0FC1D16D000135204606EB2E
:10B620000514214621F04EFFB8E70DF108090199F4
:10B63000484621F0E1FE06EB0814D5E710B584B0CA
:10B6400004460146684621F0D7FE103C01E021F097
:10B6500039FF2146684621F099FF0346214604F14F
:10B660001000103C002BF2D1694621F02BFF6846F8
:10B6700021F0D8FE04B010BD884235D02DE9F0434A
:10B6800000F11003994285B00746894624D000F1A5
:10B690002006A6F110043946204621F077FFF0B1CC
:10B6A0002146684621F0A8FEE31B002BB0464FEA76
:10B6B000231506DD2046103C214621F003FF013D05
:10B6C000F8D16946384621F0FDFE684621F0AAFE11
:10B6D000C14506F11006DCD105B0BDE8F083204677
:10B6E000FFF7ACFFB046F3E7704700BFF8B505467B
:10B6F000EC3007F033FFD5F8D870D5F8DC60B742EE
:10B7000008D03C462046103421F08CFEA642F9D1E8
:10B71000C5F8DC70034B002228461A70BDE8F840DB
:10B72000FAF702BAB85BFF1F2DE9F84300F50048AD
:10B730004CF25033D8F88C529D42044600F0E88019
:10B7400016DCB5F5164F08D04FDC45F6C0539D42C8
:10B7500053D046F2A8139D422BD1E76D032F17D08B
:10B76000012F4FF0000940F0F7803E464F4668E059
:10B77000804B9D4200F0E88048DD7F4B9D4200F009
:10B78000E3807E4BC76D9D4217D1032F40F0E080D0
:10B7900001260123E3657A4B9D4240F3BF804FF0C1
:10B7A0000009784B83FB0523ED17C5EBA3050027A4
:10B7B00047E0B5F5964FD0D0E76D032F00F09880A5
:10B7C000012F4FF0000932D0022F30D00026002F79
:10B7D00040F0B380B9F1000FDBD0A7F10207B7FA50
:10B7E00087F77F094FF0010924E04AF644439D4260
:10B7F00003D04BF680339D42DED1E76D032F00F07E
:10B800009E80012F12D04FF00109DDE75E4B9D4273
:10B81000F3D05E4B9D42CFD1C76D032F00F0A680C1
:10B82000012F00F0A0804FF0010995E0B9460026F5
:10B83000E66537464BF67F339D4202DC05EB850516
:10B840006D00E3684A46586900211FF05BFCE3681D
:10B850003246586901211FF055FCE36832465869A9
:10B8600002211FF04FFCE3684A46186A00211FF0CE
:10B8700049FCE3683246186A01211FF043FCE36883
:10B880003246186A02211FF03DFC3A46294604F16F
:10B89000EC0007F01BFED4ED3E7A9FED3D7AD4F824
:10B8A00004322365F8EEE77AC7EE876A06B147B33C
:10B8B00016EE900A2DF012FA024604F50D400B46E2
:10B8C000FC30344932F05CF998F8083E73B998F8C6
:10B8D000091E59B9E3682FB358691EF05FFFE3688A
:10B8E00001219869BDE8F8431EF058BFBDE8F88310
:10B8F0000123E365224B9D424FF000063FF74FAF17
:10B900000CE0F2EE047A66EEA77A17EE900AD1E721
:10B91000C76D032F7FF424AF0126C6654FF00009E1
:10B920004F468EE7586901211EF038FFE36839461B
:10B930009869BDE8F8431EF031BF00277AE700237D
:10B940001E46E3651F4648E7E76D032F3FF420AF2F
:10B95000012F4FF0000907D0022F4FF001067FF4AE
:10B9600036AF374666E7B94601261AE70027C765AE
:10B97000012632E790D0030000DC050020A107007B
:10B9800030E60200676666660077010000EE02009E
:10B9900000007A4418860400D0F8DC30D0F8D810C3
:10B9A000994270B506D0D0F8E4205B1AB2EB231FA1
:10B9B000044602DB0025284670BD234B1B786BB183
:10B9C00013012248CB582249002B08BF03462148C7
:10B9D00021F0E6FCD4F8E420D4F8D8101B4E120174
:10B9E00004F1EC0589582846002908BF314607F0C4
:10B9F00019FD18BB4FF4FA7022F00AFCD4F8E430B9
:10BA0000D4F8D8201B012846D158002908BF314658
:10BA100007F008FD054688B90F4BD4F8D8205B68BD
:10BA2000012BD4F8E4300CBF0C490D491B01D2584E
:10BA3000002A08BF32461DF01DF9BCE7204601254B
:10BA4000FFF772FE284670BDA159FF1F94850500BF
:10BA500020860400C02DFF1FA857FF1F4C8604003E
:10BA60007C8604000D4BD0F8D8205B68012BD0F801
:10BA7000E4300CBF0A490B491B0110B5D2580446EB
:10BA80000948002A08BF024600201DF0F3F804F11F
:10BA9000EC0008F027F80123E36410BDA857FF1F4E
:10BAA000A8860400C08604009485050030B50446CD
:10BAB00085B0114621F082FCA368142B1EDD182BE3
:10BAC00028DD0022043B2146684621F0BDFD694681
:10BAD000204621F0F7FC684621F0A4FCA26821462C
:10BAE000143A684621F084FD6946204621F0EAFCBC
:10BAF000684621F097FC204605B030BDFBD0094DCB
:10BB00002946204621F034FDA368132BF8DD20469A
:10BB100005B030BD142300222146684621F094FD73
:10BB2000E2E700BF04A404002DE9F04FD0F8DC30B8
:10BB3000D0F8D820D0F834909A428BB00446A3EBCA
:10BB4000020100F09280D0F8E4304FEA2118A8EB0F
:10BB50000302032A51DD022B00F382804029D4BF67
:10BB600008F1FF370427FB1A09334FF00008DFF80C
:10BB700044B1DFF844A1636304F168060925B845C0
:10BB80004FF002025146304640DC21F011FED4F85D
:10BB9000D81004A801EB071121F010FC04AA2146DB
:10BBA0006846FFF783FF04A821F03CFC0023152220
:10BBB00004A9684621F002FD04A9304632F058FB82
:10BBC000E368012153F825001EF0E8FD6562684630
:10BBD00021F028FC01350E2D07F1FF3706F116067E
:10BBE000CDD1A9F10903042B33D9636BA3F1090269
:10BBF000042A16D90BB0BDE8F08F134608F1FF37C1
:10BC0000A8F1050828EAE8780833B0E75946142275
:10BC100021F0CEFDE368002153F825001EF0BEFDA3
:10BC2000D8E7E26852F8230001210BB0BDE8F04FDD
:10BC30001EF070BEE368002153F829001EF06AFE72
:10BC4000A9F109034FF0FF32042B6263C4F8E4202A
:10BC5000D0D8E368002153F829001EF05BFEC4E74A
:10BC60009F1CA3F102080B2381E7104A104B526876
:10BC7000683053F8221033F071F8E3680121586AF4
:10BC80001EF08CFD2825E3680021585904351EF06C
:10BC900085FD382DF7D1B9F1000FCBDA4FF0FF3326
:10BCA0006363C4F8E4300BB0BDE8F08FA857FF1F02
:10BCB000B41FFF1F947E040004A40400014B012262
:10BCC0001A707047B85BFF1F2DE9F04F2DED028B06
:10BCD000044693B0F6F7D2FC0025BB4BBB4923606A
:10BCE000C4F8D850C4F8DC50C4F8E05004F1EC00BB
:10BCF00007F04AFBB64B23664FF0FF31012204F5F3
:10BD00000D40C4F8E410E265B2490422FC3021F091
:10BD10004FFD04F50043D420A3F8085E83F80A5EC3
:10BD200021F0BEFE6A2304F10C01CDE9003508EED6
:10BD3000101A0823A849122205461FF00FFE216998
:10BD400063690C9599420DF1300800F06D8141F85E
:10BD5000045B2161D82021F0A3FE002318210922D1
:10BD6000CDE900120393029304F14C010122054630
:10BD70001FF0B6FD216963690C95994200F05A8164
:10BD800041F8045B2161E82021F08AFE4FF00109AF
:10BD900019234FF0640E4FF0000A8DE8084604F1B5
:10BDA00058010723342205461FF012FE21696369FA
:10BDB0000C95994200F0448141F8045B2161E02038
:10BDC00021F06EFE09230593282304930123039396
:10BDD00042F20F730022029304F150037F49009353
:10BDE00001927F4B05461FF0DFF8216963690C95CE
:10BDF000994200F02B8141F8045B2161E02021F0A1
:10BE00004FFE092305930123039342F20F7300228F
:10BE1000029304F15403714900930492704B019210
:10BE200005461FF0C1F8216963690C95994200F03D
:10BE3000138141F8045B2161DC2021F031FE694B64
:10BE400003930923059347230493674D674900959E
:10BE5000042304F15C0602930196012300220746A5
:10BE60001FF022F9216963690C97994200F0FA806A
:10BE700041F8047B2161E02021F012FE09230293A6
:10BE80004723019304F1600359490093DFED590AF8
:10BE9000594BB5EE001AB2EE000A002207461FF019
:10BEA000C7F8216963690C97994200F0E18041F875
:10BEB000047B2161D42021F0F3FD504A029204F565
:10BEC0000E434F4A00920A330193092200234D4941
:10BED000039304921A4607461FF074F921696369B7
:10BEE0000C97994200F0CA8041F8047B2161DC2064
:10BEF00021F0D6FD444A0392092200230592042230
:10BF0000CDE900564149049302921A4605461FF0B6
:10BF10002BF9216963690C95994200F0B58041F8CD
:10BF2000045B2161DFF8E8B0DFF8E8A0DFF8E89013
:10BF300004F168070026D82021F0B2FD0022152167
:10BF40005B4608920792069205920492039202922F
:10BF5000019101225146009705461EF0C3FF216959
:10BF600062690B9591420B4658D043F8045B2361FC
:10BF7000013632464946404631F002FE38464146D7
:10BF800032F0ECFE052E07F11607D4D1E36800214C
:10BF9000D8691EF003FCE3680021186A1EF0FEFB5E
:10BFA000E0680021031F203053F8042F83421172F0
:10BFB000FAD12046E16421656165A16513B0BDEC4D
:10BFC000028BBDE8F08F00BF948704001858FF1F54
:10BFD0000000204208870400A057FF1F0C870400C0
:10BFE000E40FFF1F5424FF1FD40FFF1F74870400AA
:10BFF000688704000000FA42C40FFF1F6C27FF1F70
:10C00000D414FF1F808704009424FF1F7C87040042
:10C01000F40FFF1F148704002C87040018EE100A89
:10C020000BAAF5F7C9FBA3E718EE100A4246F5F78D
:10C03000C3FB8FE618EE100A4246F5F7BDFBA2E6F9
:10C0400018EE100A4246F5F7B7FBB8E618EE100AEC
:10C050004246F5F7B1FBD1E618EE100A4246F5F775
:10C06000ABFBE9E618EE100A4246F5F7A5FB02E73E
:10C0700018EE100A4246F5F79FFB1BE718EE100A70
:10C080004246F5F799FB32E718EE100A4246F5F7FB
:10C0900093FB47E70B1AB3F5807F40F3C9802DE986
:10C0A000F04F064689B09246002A00F095808946F6
:10C0B00006F1100B0DF11008A9EB0603DC0F04EBE1
:10C0C0002314641006EB04142146584621F05EFA4E
:10C0D000A9F110050AF1FF3A294600284AD0204666
:10C0E00021F054FA002859D03146404621F084F915
:10C0F0002146304621F0E6F94146204621F0E2F99A
:10C10000404621F08FF94F465B46184631461D46A2
:10C1100021F03CFA05F110030028F6D1A7F1100434
:10C120002146304621F032FA2746103C0028F7D14C
:10C13000BD4211D22946404621F05EF939462846D3
:10C1400021F0C0F94146384621F0BCF9404621F0C3
:10C1500069F905F11003D8E7524649462846FFF72A
:10C1600099FFAB1BB3F5807F5FDDBAF1000F36D0CE
:10C17000A946A1E7584621F009FA28B331464046BE
:10C1800021F03AF95946304621F09CF9414658468B
:10C1900021F098F9404621F045F9B4E72946584680
:10C1A00021F0F4F931460028E9D0404621F024F985
:10C1B0002946304621F086F94146284621F082F989
:10C1C000404621F02FF99EE72946204621F0DEF96E
:10C1D0003146002889D0E8E70D460DF110084FF0F0
:10C1E00000032A4629463046A5F11004FEF7A0FEBA
:10C1F0002146684621F000F93146204621F062F9D7
:10C20000A51B6946404621F0F7F843462A11002154
:10C210003046FFF797F9404621F004F9684621F0CF
:10C2200001F9102DA4F11004E2DC09B0BDE8F08F93
:10C23000704700BF2DE9F047D0F8D870D0F8DC6027
:10C24000B742D4B0054608D03C462046103421F011
:10C25000E9F8A642F9D1C5F8DC70764A1168764A49
:10C260002C9200234FF47A70CDE93E33CDE952335E
:10C270002D932E908DF8BC30419342908DF80C3167
:10C28000409244AE21B16D4A304616F0B9FF18B95C
:10C290006B496C4821F084F80024DFF8B881DFF89E
:10C2A000B89105F1D80A27461BE0502204A916F0E0
:10C2B000DBFB04A918A832F051FD18A832F05EF893
:10C2C000414604A832F0E0FB28B13E9BEBB11B785D
:10C2D00013F0700F20D030A816F07EFFB4F5FA6F7F
:10C2E0003CD00022314630A816F0E2FF002835D0BD
:10C2F0003E988DF810700028D7D13F980028D8D0EC
:10C30000502204A914F0CEF9D3E73F9B23B193F850
:10C31000313013F0500FDED118A8494632F034FA0C
:10C320000028D8D004A9684621F0B8F8D5F8DC0078
:10C33000D5F8E030984268D0694621F05DF8D5F82C
:10C34000DC301033C5F8DC30684621F06BF801347E
:10C3500030A816F041FFB4F5FA6FC2D1D5F8DC7001
:10C36000D5F8D880B84544D0A7EB08042211B2FA1A
:10C3700082F2C2F11F02520039464046FFF78AFEA0
:10C38000B4F5807F47DC39464046FFF775F9D5F8AC
:10C39000D820D5F8DC309B1A2B4A1B111278013BB0
:10C3A000C5F8E4302AB31621284823F0D3F92548EC
:10C3B00020F0DEFFD5F8D820D5F8DC309A4218D02E
:10C3C000DFF89880DFF898901E4F0024230149463B
:10C3D000D3583846002B08BF4346224620F0E0FFE2
:10C3E000D5F8D820D5F8DC3001349B1AB4EB231FE4
:10C3F000ECD3174C4094304616F0EEFE30A82C9447
:10C4000016F0EAFE54B0BDE8F08701466A46504691
:10C41000FEF716FD98E708F5807440462146FFF7C1
:10C420002BF9A742B3D020461034FFF707F9A742F3
:10C43000F9D1ACE72463FF1F9C780400807D0400E1
:10C44000B87E0400C02DFF1FA159FF1F3C870400C8
:10C4500078780400E47E040054A20400948505006A
:10C460004086040010B5044682B0F9F72BFB204645
:10C47000FFF7E0FE1223A3622046FFF755FB20469C
:10C48000FFF78AFA0020F7F78FF8114B1B6801932A
:10C49000019B03F5EA433033C4F8E8300120F7F795
:10C4A00013F80C4B0C4A1B7862664BB1D4F8DC20B5
:10C4B000D4F8D8309A4203D0D4F8E430002B01DA13
:10C4C00002B010BD204602B0BDE81040FFF7CABA66
:10C4D000E869FF1FB85BFF1F0000DC3CF0B54B1E96
:10C4E0008FB00446062B1CD8DFE803F02144611B03
:10C4F0001BC10400C36D032B00F00581D4F8DC20C0
:10C50000D4F8D8309A420ED0D4F8E430002B0ADBAD
:10C51000E36C002B40F075812046FFF7A3FA00255D
:10C5200002E01CF005F9002528460FB0F0BD00F52B
:10C53000004393F8092E002A40F0A68093F8086E75
:10C54000002E40F0A180C56C002D40F06A81D0F82B
:10C55000E430D0F8D810D0F8DC200133521AB3EB15
:10C56000221FC0F8E4304FEA221179DB0139C0F80C
:10C57000E41075E000F5004393F8092E002A40F01E
:10C580008B8093F8086E002E40F08680C56C002DDD
:10C5900040F05781D0F8E430013B23EAE373C0F860
:10C5A000E430FFF7C1FA2046FFF7F6F9BCE700F5E3
:10C5B000004797F8095E002D76D0C368D8690368F4
:10C5C0005B699847E368D86903680025DB69984789
:10C5D000E2686560D7F80C3E10696363012187F853
:10C5E000095E1EF0DBF8E3680121D8681EF0D6F87A
:10C5F000E3682946D8691EF0D1F8E36D022BE368A1
:10C6000000F03B81586901211EF0C8F8E368294613
:10C6100098691EF0C3F897F80A3E002B00F0DD8001
:10C62000D4F8E430D4F8D82099499A481B01D2585C
:10C63000D1F88034002A08BF0246002B00F0748134
:10C640000020194600900123684614F0B5FD00282B
:10C6500040F08581002587F80A5E2046FFF7EAFD55
:10C660002046FFF761FA2046FFF796F95CE78A4B10
:10C670001B784FF47A70002B14BF0925012521F097
:10C68000C7FD28460FB0F0BD012120461CF050F830
:10C69000002528460FB0F0BD022120461CF048F8C6
:10C6A000002528460FB0F0BD97F8086E002E3AD14D
:10C6B0007A4B1B68002B40F0F980D0F8DC20D0F8D2
:10C6C000D8309A4200F04F81D0F8E430002BC36C90
:10C6D000BFF61FAF012B7FF426AF00256565A5656A
:10C6E00004F1EC0006F03AFF6D4B5B68012B0CBFC8
:10C6F0006C496D49284600251CF0BCFAE5642046CB
:10C70000FFF7B0F910E700F5004696F8095E002D36
:10C710007FF4F4AEC368D8690368DB699847D6F83C
:10C720000C3E636300E7C368186A03685B69984757
:10C73000E368186A0368DB699847E2686560D7F8C0
:10C740000C3E10696363012187F8085E1EF026F82D
:10C75000E3680121D8681EF021F8E3682946186AC9
:10C760001EF01CF8E36D022BE36800F0EE805869C0
:10C7700001211EF013F8E368294698691EF00EF8AF
:10C78000E36D032B40F0CB80E368D869636B012530
:10C7900087F8095E6560C7F80C3E03689B69984797
:10C7A000E26807231069636300211DF0F7FFE36867
:10C7B0000021D8681DF0F2FFE368002158691DF0E0
:10C7C000EDFFE368002198691DF0E8FFE368294662
:10C7D000D8691DF0E3FF0025A6E6E56D29460BE0CC
:10C7E0000429A8BF0021E368E16558691EF0B0FC88
:10C7F00000287FF498AEE16D0131A942F0D1E565E2
:10C8000091E604F1EC0006F0A9FE254B5B68012BD4
:10C810000CBF24492449002000251CF02BFAE564B4
:10C8200082E600F1EC050A220121284606F0BAFE54
:10C8300088B1D4F80822B4F80C326265A365354695
:10C8400072E600F1EC050A224FF0FF31284606F0AF
:10C85000A9FE0028EDD1284606F080FE104B5B684B
:10C86000012B4FF000050CBF0E490F4900201CF0B2
:10C8700001FAE5646565A56556E6586929461DF027
:10C880008DFFE368012198691DF088FFC3E600BFB2
:10C89000485EFF1F94850500B85BFF1F1058FF1FFF
:10C8A000A857FF1FD4860400F0860400C36C012B38
:10C8B0003FF413AFD0F8DC20D0F8D8309A423FF4E0
:10C8C00032AED0F8E430002BFFF62DAEC36831460F
:10C8D00018691DF063FFE3683146D8681DF05EFFFC
:10C8E000E368314658691DF059FFE368314698699D
:10C8F0001DF054FFE3680121186A1DF04FFFE16845
:10C90000626B086A012387F8083E63600368C7F812
:10C910000C2E9B69984708236363354604E620463E
:10C92000FEF702FF0025FFE5D1F8841400293FF44B
:10C9300091AE0C936846012312F076FF00283FF475
:10C9400089AE684612F0D4FF84E6586929461DF086
:10C9500025FFE368012198691DF020FF10E7684674
:10C9600015F02EFC76E6C36C012B7FF4DCADB4E64B
:10C9700070B5114B064640F8EC3B07F003FAD6F8C9
:10C98000D840D6F8DC50AC4207D02046103420F016
:10C9900049FDA542F9D1D6F8D8502DB1D6F8E0100E
:10C9A0002846491B21F084F8044B336030461BF0C5
:10C9B00055FC304670BD00BF94870400187C04000D
:10C9C00070B5134B064640F8EC3B07F0DBF9D6F8A0
:10C9D000D840D6F8DC50AC4207D02046103420F0C6
:10C9E00021FDA542F9D1D6F8D8502DB1D6F8E010E6
:10C9F0002846491B21F05CF8064B336030461BF09B
:10CA00002DFC304648F6106121F052F8304670BDDA
:10CA100094870400187C040001207047704700BF11
:10CA200010B50446C06C074B236020B103685B68F7
:10CA300098470023E364044B236020461BF00EFC60
:10CA4000204610BD388B0400187C040010B5044645
:10CA5000C06C38B100F5004393F85B3013B1036844
:10CA60001B6998472046BDE81040F9F75DB800BF44
:10CA70002DE9F0412DED028B0446C06C88B010B159
:10CA80000368DB6B9847E36B5D4D23B12A68039223
:10CA9000039A934253D32B680593059B226D9A42C8
:10CAA00003D2584B1B68052B10D1E36C4BB1564A8F
:10CAB0001278002A33D103F51043D3F8A832042B9F
:10CAC0001EDC08B0BDEC028BBDE8F0811EF044FD19
:10CAD000DFED4E7AB4EEE70AF1EE10FAB0EE408ADE
:10CAE00044D9636D002B78D0013B6365002B74D073
:10CAF0002B680793079B03F56A5318332365D4E724
:10CB0000434A444B526853F822001BF0F1FE424B5B
:10CB100015221A6008B0BDEC028BBDE8F0813F48D9
:10CB20001BF0E6FE3C4AE36C15211160002BC8D0D7
:10CB300003F51043D3F8A832042BC2DDE0E720460A
:10CB4000F6F7AAFE2046F6F7EFFEE06C2D4E18B180
:10CB500096F84430002B4ED12B680493326F049B1F
:10CB60004FF47A7101FB0233E36394E7F9F762F95A
:10CB700000283AD0666DDFF898800136666518EEB9
:10CB8000100A2CF0ABF832460F460646CDE9006796
:10CB9000234BD8F80410002053F821101CF06AF839
:10CBA000636D032BA2D9D8F804001E49324651F810
:10CBB00020103B4600201CF05DF8002101201BF0F6
:10CBC0009DFED8F80420184B53F822001BF090FE6D
:10CBD000114A636D1521116088E72B680693069B47
:10CBE00003F56A43603323655FE71049104820F07E
:10CBF000D7FB636D7AE794ED120A0AF027FBABE7E7
:10CC0000E869FF1F1858FF1FC85BFF1FCDCC4C3DC4
:10CC1000A857FF1FB412FF1FEC68FF1FCC5BFF1F5C
:10CC2000D41CFF1FB41CFF1F9412FF1FC8870400F1
:10CC3000C02DFF1F10B50446006F03681B6998479D
:10CC40002046BDE81040FFF713BF00BF10B590F8B5
:10CC50005A3084B0044623B3C36D0366002280F8C3
:10CC60005A20032B1DD8DFE803F03A3F5502036832
:10CC70005B6C9847E36D012B13D1E06CA0B100F51C
:10CC8000004393F85B20002A49D1274A03681268C1
:10CC90000392039ADB6862669847244B1B68032B58
:10CCA00004D194F86C3023B904B010BD012384F88A
:10CCB0006C30E06C0028F7D000F5004393F85A3050
:10CCC000002BF1D0962021F0A3FAE06C03689B6959
:10CCD000002284F86C2004B0BDE8104018470368B7
:10CCE0009B6B9847E36DC6E70F4B816E1A68019204
:10CCF000019A0120914284F85A00BED21B68029327
:10CD0000029B226803F5FA73D26BA3662046904714
:10CD1000E36DB0E703681B6C9847E36DABE794F8ED
:10CD20006C20002AC0D0C9E7E869FF1F1858FF1F10
:10CD3000032910B508D0062906D0104CF5F7EEFFF0
:10CD400078B9206870B910BD90F859306BB90F22CE
:10CD500080F8592080F85A30084CF5F7DFFF00289A
:10CD6000EFD002200023236010BD054B034C1B684D
:10CD7000012B0CBF0B2301232360DFE7EC68FF1FAF
:10CD80001058FF1F38B50C4B1B68012B044649F6A1
:10CD9000A83008DD20F084FE0849054608220BF083
:10CDA00037FBE56438BD20F07BFE044905460822C8
:10CDB00009F05CFCE56438BD1058FF1F1858FF1FD0
:10CDC00010B50446C06C38B100F5004393F85B30F1
:10CDD00013B103681B6998472046BDE81040F8F777
:10CDE000A3BE00BF10B50446002021F0A7F80E4BEB
:10CDF000206F00221A6010B103685B6898470B4BE4
:10CE0000E06C626FDA6038B100F5004393F85B3094
:10CE100013B103681B6998472046F8F785FE044B59
:10CE20002022C3F8882010BDBC5BFF1FA857FF1F3E
:10CE300000F00F4010B50446C06C20B100F500436F
:10CE400093F85B3033B92046F8F76EFE0B4B1B7836
:10CE500053B910BD03681B6998472046F8F764FE74
:10CE6000064B1B78002BF4D005481C2122F072FCE5
:10CE7000BDE81040034820F07BBA00BFA159FF1F56
:10CE8000FC870400C02DFF1F10B50446F6F71AFBFF
:10CE9000E06C20B100F5004393F85B3033B92046D5
:10CEA000F8F742FE0B4B1B7853B910BD03681B69A2
:10CEB00098472046F8F738FE064B1B78002BF4D035
:10CEC00005481E2122F046FCBDE81040034820F032
:10CED0004FBA00BFA159FF1F1C880400C02DFF1FBF
:10CEE00010B50446F6F7EEFAE06C20B100F5004309
:10CEF00093F85B3033B92046F8F716FE0B4B1B78DE
:10CF000053B910BD03681B6998472046F8F70CFE1B
:10CF1000064B1B78002BF4D005481F2122F01AFC89
:10CF2000BDE81040034820F023BA00BFA159FF1FFD
:10CF30003C880400C02DFF1F10B50446C06C074B91
:10CF4000236020B103685B6898470023E364044BC7
:10CF5000236020461BF082F9204610BD388B040068
:10CF6000187C040010B50446C06C074B236020B148
:10CF700003685B6898470023E364044B2360204602
:10CF80001BF06CF9204610BD388B0400187C04009F
:10CF900010B50446C06C074B236020B103685B6882
:10CFA00098470023E364044B236020461BF056F9A6
:10CFB000204610BD388B0400187C040010B50446D0
:10CFC000C06C074B236020B103685B68984700235F
:10CFD000E364044B236020461BF040F9204610BD5B
:10CFE000388B0400187C040010B50446C06C074B55
:10CFF000236020B103685B6898470023E364044B17
:10D00000236020461BF02AF9204610BD388B04000F
:10D01000187C040010B50446C06C094B236020B195
:10D0200003685B6898470023E364064B236020464F
:10D030001BF014F92046582120F03AFD204610BD7F
:10D04000388B0400187C040010B50446C06C094BF2
:10D05000236020B103685B6898470023E364064BB4
:10D06000236020461BF0FAF82046702120F020FDB6
:10D07000204610BD388B0400187C040010B504460F
:10D08000C06C094B236020B103685B68984700239C
:10D09000E364064B236020461BF0E0F82046702135
:10D0A00020F006FD204610BD388B0400187C0400DB
:10D0B00010B50446C06C094B236020B103685B685F
:10D0C00098470023E364064B236020461BF0C6F814
:10D0D00020465C2120F0ECFC204610BD388B04007B
:10D0E000187C040010B50446C06C094B236020B1C5
:10D0F00003685B6898470023E364064B236020467F
:10D100001BF0ACF82046782120F0D2FC204610BD60
:10D11000388B0400187C040010B50446C06C094B21
:10D12000236020B103685B6898470023E364064BE3
:10D13000236020461BF092F820465C2120F0B8FCCA
:10D14000204610BD388B0400187C0400F8B5264C2E
:10D15000264E2068083019F0C1FB254B72682568FF
:10D1600053F822700023C5F8B83047B1384631F083
:10D17000A7FE2B6802465B68394628469847284632
:10D1800020F0F6F81B4B7268256853F822704FF4B4
:10D190001023C5F8B83047B1384631F091FE2B68FE
:10D1A00002465B68394628469847284620F0E0F852
:10D1B000114B7268256853F822604FF41013C5F8BC
:10D1C000B83046B1304631F07BFE2B6802465B68D2
:10D1D000314628469847284620F0CAF82068BDE81E
:10D1E000F840083019F086BB305EFF1FA857FF1FBC
:10D1F000B420FF1F6420FF1F3420FF1FF8B5264C0A
:10D20000264E2068083019F069FB254B72682568A6
:10D2100053F822700023C5F8B83047B1384631F0D2
:10D220004FFE2B6802465B683946284698472846D9
:10D2300020F09EF81B4B7268256853F822704FF45B
:10D240001023C5F8B83047B1384631F039FE2B68A5
:10D2500002465B68394628469847284620F088F8F9
:10D26000114B7268256853F822604FF41013C5F80B
:10D27000B83046B1304631F023FE2B6802465B6879
:10D28000314628469847284620F072F82068BDE8C5
:10D29000F840083019F02EBB305EFF1FA857FF1F63
:10D2A000F420FF1F6420FF1F3420FF1F2DE9F041F1
:10D2B000364C374D236888B0074603F1080019F053
:10D2C0000DFB344B6A68266853F822800023C6F8A9
:10D2D000B830B8F1000F08D0404631F0F1FD3368A6
:10D2E00002465B68414630469847304620F040F899
:10D2F00023684FF41022C3F8B820274B6A6801A8AE
:10D3000053F8221097F8582030F03AFC266801A80C
:10D3100031F0D6FD336802465B6801A93046984774
:10D32000304620F025F81D4B6A68266853F82270B5
:10D330004FF41013C6F8B83047B1384631F0C0FD8D
:10D34000336802465B68394630469847304620F0DD
:10D350000FF8134B6A68256853F822604FF458138E
:10D36000C5F8B83046B1304631F0AAFD2B68024608
:10D370005B6831462846984728461FF0F9FF206829
:10D38000083019F0B7FA08B0BDE8F081305EFF1F31
:10D39000A857FF1FF420FF1F8420FF1FE420FF1F5A
:10D3A0002421FF1F2DE9F041364C374D236888B00A
:10D3B000074603F1080019F091FA344B6A682668B1
:10D3C00053F822800023C6F8B830B8F1000F08D017
:10D3D000404631F075FD336802465B684146304691
:10D3E000984730461FF0C4FF23684FF41022C3F85B
:10D3F000B820274B6A6801A853F8221097F85820E4
:10D4000030F0BEFB266801A831F05AFD33680246B1
:10D410005B6801A93046984730461FF0A9FF1D4BB5
:10D420006A68266853F822704FF41013C6F8B830B3
:10D4300047B1384631F044FD336802465B683946EF
:10D440003046984730461FF093FF134B6A682568B3
:10D4500053F822604FF45813C5F8B83046B130463F
:10D4600031F02EFD2B6802465B683146284698470E
:10D4700028461FF07DFF2068083019F03BFA08B0FD
:10D48000BDE8F081305EFF1FA857FF1FB420FF1FCB
:10D49000C420FF1F0421FF1F1411FF1F2DE9F041BD
:10D4A000364C374D236888B0074603F1080019F061
:10D4B00015FA344B6A68266853F822800023C6F8B0
:10D4C000B830B8F1000F08D0404631F0F9FC3368AD
:10D4D00002465B6841463046984730461FF048FF99
:10D4E00023684FF41022C3F8B820274B6A6801A8BC
:10D4F00053F8221097F8582030F042FB266801A814
:10D5000031F0DEFC336802465B6801A9304698477B
:10D5100030461FF02DFF1D4B6A68266853F82270B5
:10D520004FF41013C6F8B83047B1384631F0C8FC94
:10D53000336802465B6839463046984730461FF0EC
:10D5400017FF134B6A68256853F822604FF458138D
:10D55000C5F8B83046B1304631F0B2FC2B6802460F
:10D560005B6831462846984728461FF001FF20682F
:10D57000083019F0BFF908B0BDE8F081305EFF1F38
:10D58000A857FF1FF420FF1F7420FF1F0421FF1F57
:10D590001411FF1F2DE9F047416E8AB0074600299C
:10D5A00000F08380424A434B12680292029A42483A
:10D5B000521AA3FB02394FEA9939C9EB0911A0FBB2
:10D5C00002028900C1EB921A3C4CDFF8048120680A
:10D5D000083019F083F93A4BD8F80420256853F83D
:10D5E00022600023C5F8B83046B1304631F068FCFF
:10D5F0002B6802465B6831462846984728461FF04C
:10D60000B7FED8F804002F49226851F820104FF4D3
:10D610001020C2F8B800CDF800A097F858204B466B
:10D6200003A830F0ADFA256803A831F049FC2B6857
:10D6300002465B6803A92846984728461FF098FED3
:10D64000214BD8F80420256853F822604FF4981332
:10D65000C5F8B83046B1304631F032FC2B6802468E
:10D660005B6831462846984728461FF081FE174BD5
:10D67000D8F80420256853F822604FF45813C5F8F1
:10D68000B83046B1304631F01BFC2B6802465B686F
:10D6900031462846984728461FF06AFE2068083021
:10D6A00019F028F90AB0BDE8F0878A4689468BE769
:10D6B000E869FF1F73B2E745D34D6210305EFF1F6C
:10D6C000B420FF1FD420FF1F4420FF1F2421FF1F71
:10D6D000A857FF1F2DE9F047416E8AB00646002982
:10D6E00000F096804C4A4D4B12680292029A4C48C8
:10D6F000521AA3FB02394FEA9939C9EB0911A0FB71
:10D7000002028900C1EB921A464C474D206808304E
:10D7100019F0E4F8454B6A68276853F82280002323
:10D72000C7F8B830B8F1000F08D0404631F0C8FB58
:10D730003B6802465B6841463846984738461FF0CA
:10D7400017FE68683A49226851F820104FF41020FB
:10D75000C2F8B800CDF800A096F858204B4603A8B0
:10D7600030F00EFA266803A831F0AAFB33680246AF
:10D770005B6803A93046984730461FF0F9FD2D4BF2
:10D780006A68266853F822704FF49813C6F8B830C8
:10D7900047B1384631F094FB336802465B6839463E
:10D7A0003046984730461FF0E3FD234B6A682668F1
:10D7B00053F822704FF41013C6F8B83047B138460A
:10D7C00031F07EFB336802465B6839463046984745
:10D7D00030461FF0CDFD194B6A68256853F822606A
:10D7E0004FF43413C5F8B83046B1304631F068FB19
:10D7F0002B6802465B6831462846984728461FF04A
:10D80000B7FD2068083019F075F80AB0BDE8F08758
:10D810008A46894678E700BFE869FF1F73B2E7458B
:10D82000D34D6210305EFF1FA857FF1FF420FF1F6B
:10D830009420FF1F5420FF1F1421FF1FA420FF1F4F
:10D84000F0B5044685B0B9B9994D2B68042B23D0A7
:10D85000984B186860B905B0F0BD032901D00629BE
:10D86000F6D1954A934B1268012A0CBF0B20012078
:10D8700000221A6005B0F0BDC36D032B00F2568183
:10D8800001A252F823F000BFB1D900004FD9000027
:10D890005BD80000E5D80000C36C1846002BD7D039
:10D8A00003F5004292F85B1001F0FF060029CFD08B
:10D8B000824909680091616E009F01F5AF2101F571
:10D8C000C861B942C4D2E16D032900F22F8101A7DA
:10D8D00057F821F0C5D900000FDA000051D8000038
:10D8E000F1D80000032900F0FB800229B0D1E06CE0
:10D8F00088B100F5004292F85C3033B10368DB690F
:10D900009847E06C38B100F5004292F85B3013B1F3
:10D9100003681B6998476A4A6A4B516894F8582013
:10D9200053F8211000201BF0A5F994F8583094F812
:10D9300059200133DBB29A422CBF0022012252004F
:10D94000012184F85830E26584F85A1080E70329F1
:10D9500000F0A880022953D001297FF479AF544BFD
:10D960001B68052B7FF474AFE06C88B100F50043B1
:10D9700093F85C2032B10368DB699847E06C38B1FA
:10D9800000F5004393F85B3013B103681B699847B7
:10D990004B4B4D4958680322012351F82010E26592
:10D9A00084F85A3094F8582000201BF063F94FE7B0
:10D9B000032900F0A48002297FF44AAFE06C88B10B
:10D9C00000F5004292F85C3033B10368DB69984798
:10D9D000E06C38B100F5004292F85B3013B1036897
:10D9E0001B699847364B394958680222012351F880
:10D9F0002010E26584F85A3000201BF03BF927E73D
:10DA00002B4D2B68042B7FF423AFE36C00261846C4
:10DA10008BB103F5004393F85C2032B10368DB69F6
:10DA20009847E06C38B100F5004393F85B3013B1D0
:10DA300003681B699847224A002E63D12B68052B87
:10DA400060D05268224B304653F8221094F8582088
:10DA50001BF010F994F858202B680132052BD2B234
:10DA600001AD0CBF1B491C4984F85820284630F0F2
:10DA700087F8284631F024FA04284DD8421C29465C
:10DA800016481FF095FE94F8583094F859108B42C0
:10DA90004FF0010294BF002301239340E36584F813
:10DAA0005A20D5E6024D2B68052B7FF4D1AEACE7AA
:10DAB0009427FF1FEC68FF1F1058FF1FE869FF1F26
:10DAC000A857FF1F2C10FF1F0C10FF1F0410FF1F73
:10DAD0002410FF1F5C880400648804005E58FF1F48
:10DAE000164A174B516894F8582053F8211000201B
:10DAF0001BF0C0F80123E36584F85A30A8E60F4A0A
:10DB0000104BEFE7104B516894F8582053F8211050
:10DB100000201BF0AFF89DE705220C48294630F0A5
:10DB20008BFC0B4B002283F84B20ACE726210948E5
:10DB300021F010FE08481FF01BFC89E6A857FF1FC4
:10DB40001410FF1F1C10FF1F2C10FF1F5E58FF1F1B
:10DB50001858FF1F6C880400C02DFF1F2DE9F04FDF
:10DB60002DED028B044691B018F0D0FA94F859309C
:10DB700084F85800012B61D094F85A6046B113B173
:10DB8000013B84F8593011B0BDEC028BBDE8F08F39
:10DB9000E06C0028F3D000F5004292F85A20002AE9
:10DBA000EDD00368344D1B6ADFF8E88031469847B2
:10DBB0002868012384F85A30083018F08FFE2B684B
:10DBC000D8F80420C3F8B8602C4B2D4E53F822101F
:10DBD0002C4B08A89A1F2FF0D3FF2F6808A831F00C
:10DBE0006FF93B6802465B6808A938469847384693
:10DBF0001FF0BEFB336B2A68062B4FF41021C2F8CE
:10DC0000B81098BF204A96F83C1094BF52F8237081
:10DC10004FF4C07700293FD0022B40F36D81D8F834
:10DC200004101A4B3A461A4853F8213050F8211084
:10DC3000306C009008A82FF0A3FF45E0E06C18B10D
:10DC4000036800211B6A98470B4D2868083018F0BC
:10DC500045FE2868083018F04DFEE06C18B10368E6
:10DC600001211B6A9847002384F8593011B0BDEC9C
:10DC7000028BBDE8F08F00BF305EFF1FD421FF1F75
:10DC80001858FF1F2258FF1FAC8A04007422FF1F80
:10DC90002422FF1FA857FF1F022B00F33181D8F861
:10DCA0000420AA4BAA4953F82230D6F8700151F843
:10DCB000229004932BF012F8049BCDE900013A4620
:10DCC000494608A82FF05CFF2F6808A831F0F8F843
:10DCD0003B6802465B6808A93846984738461FF0FB
:10DCE00047FBB36B2A684FF49011C2F8B8105A1E64
:10DCF000032A98BF03EB430396F8502094BF5B00C0
:10DD000000230093002A40F00081924BD8F80420B1
:10DD100008A853F82210F36CB26D2FF031FF2F6872
:10DD200008A831F0CDF83B6802465B6808A9384680
:10DD3000984738461FF01CFB33682A684FF4D81107
:10DD4000082BC2F8B81003D0336B022B00F3E88025
:10DD5000D6ED067A9FED808AF8EEE77AC7EE887AEC
:10DD600017EE900A2AF0BAFFD6ED077AF8EEE77AB6
:10DD70000246C7EE887A0B46D8F80400774951F876
:10DD80002070CDE9042317EE900A2AF0A7FFDDE901
:10DD90000423CDE90001394608A82FF0F1FE2F68D1
:10DDA00008A831F08DF83B6802465B6808A9384640
:10DDB000984738461FF0DCFAD8F80400684B6949E8
:10DDC0002A6851F820101B684FF41010C2F8B800F0
:10DDD0000093736A326A08A82FF0D2FE2E6808A852
:10DDE00031F06EF8336802465B6808A93046984700
:10DDF00030461FF0BDFAE26C2B6802F500424FF48A
:10DE00003411C3F8B810B2F858305749968FB2F8A9
:10DE100044701BB236B24FEAE37981FB0323C9EBAE
:10DE2000A3093FB281FB0632F617C6EBA20681FBBF
:10DE30000723FF17C7EBA307D8F804204B4B3FB2CB
:10DE40000FFA89F936B2009753F8221008A8334622
:10DE50004A462FF095FED5F800A008A831F030F81A
:10DE6000DAF8003008A902465B68504698475046E9
:10DE70001FF07EFA2B684FF45812C3F8B82018F040
:10DE80005DF9079018F072F9049018F087F982464E
:10DE900018F00CF9834618F021F9049B079A3449CD
:10DEA0000290CDE900AB08A82FF06AFED5F800A0DB
:10DEB00008A831F005F8DAF8003002465B6808A9D6
:10DEC0005046984750461FF053FA2868083018F01B
:10DED00011FDD8F804002749009751F82010334667
:10DEE0004A4600201AF0C6FEE06C036801211B6A56
:10DEF000984794F8593042E6D8F804201E4BD1E6F2
:10DF0000D8F80410114B3A468DE6D8F804201B4B84
:10DF100008A853F82210F36C726D2FF031FEFEE664
:10DF20007769D8F80430164A1649306951F8231039
:10DF300082FB07C3FF17C7EBA31382FB0072C01756
:10DF4000C0EBA21208A82FF01BFE28E70422FF1F37
:10DF50003422FF1F5422FF1F00007A44F421FF1FC8
:10DF60005C69FF1F6422FF1F676666661422FF1F3D
:10DF7000948804005413FF1F7422FF1F4422FF1FC4
:10DF8000D34D6210E421FF1F38B590F8593003B922
:10DF900038BD90F85850044618F0B8F88542F7D0CC
:10DFA0002046BDE83840FFF7D9BD00BF2DE9F04F4E
:10DFB000036FD3F8C830052B83B004465FDC002B19
:10DFC00060DC94F86060002E40F0B980DFF88C824D
:10DFD000D8F80000083018F081FCE76D002F40F001
:10DFE0000081226FDFF878B2D168DBF80420D8F81E
:10DFF0000000DFF864A2DFF85C92C0F8B870C2EBF2
:10E0000002150D4402EB82015AF8252059F831100F
:10E010001FF0C6F90125402602E009370026013528
:10E02000012D226F00F09280D168032907D102EB05
:10E03000850189680A2904BF012384F861300A2D0B
:10E04000294600F0858002EB8102D8F80000D368F1
:10E05000DBF80420A0F8B860C2EB021C02EB8202DD
:10E0600001EB42019C4459F821105AF82C20A0F8E9
:10E07000BA701FF095F9002ECFD14026CFE7083BAC
:10E08000022B9ED8DFF8D481DFF8D4B1D8F8000095
:10E09000083018F023FCD8F8005068492B6800229B
:10E0A0005E68C5F8B82028460D22B04728461FF004
:10E0B0005FF9D8F80050206F6149D0F8C8004FF4DC
:10E0C0002022C5F8B820DBF8042002EB820602EB20
:10E0D0004602024451F8226046B1304630F0F0FE6C
:10E0E00002462868314646682846B04728461FF051
:10E0F0003FF9DBF80430534AD8F8005052F8236057
:10E100004FF45813C5F8B83046B1304630F0D8FE59
:10E110002B6802465B6831462846984728461FF020
:10E1200027F9236820461B6B9847474B1B680193D0
:10E13000019B03F6B833A36603B0BDE8F08F94F8F3
:10E140005930002B6DD103B0BDE8F08F01217AE783
:10E1500007F10909B6B21FFA89F9E26DF2B1D8F8F0
:10E160000050DBF80420374BA5F8B86053F8226064
:10E17000A5F8BA9046B1304630F0A2FE2B680246B0
:10E180005B6831462846984728461FF0F1F8236817
:10E190001B6B204603B0BDE8F04F18472B4A12789E
:10E1A000002ADCD194F86120002AD8D0284ADBF874
:10E1B0000410D8F8005052F821A0A5F8BA70A5F8BC
:10E1C000B860BAF1000F08D0504630F079FE024630
:10E1D0002868514647682846B84728461FF0C8F8BF
:10E1E000BDE7236FDFF878B0D8F80000DBF8041043
:10E1F000184DC0F8B86003EB8703C1EB0112D3F8E8
:10E200000CE0154B01EB8101724407EB410153F81F
:10E21000222055F821101FF0C3F84FF036092D27A2
:10E220009BE794F8585017F071FF85428BD0204639
:10E2300003B0BDE8F04FFFF791BC00BFB488040005
:10E24000E411FF1FD41FFF1FE869FF1F465CFF1F7B
:10E25000E41FFF1FB41DFF1F3423FF1F305EFF1F8D
:10E26000A857FF1F10B50446F4F708FA0023034A25
:10E270002260E3646365E363204610BD388B0400CD
:10E280002DE9F0432DED028B0020C7B0F5F78CF996
:10E29000B14B1978002940F04F81B04BB04E5878FF
:10E2A000B04AB14B002840F0D5801268AF4974687D
:10E2B0000092D3E9002351F824101AF0DBFCAC4B98
:10E2C000D6F80480AB4C53F8281014A830F010FB9B
:10E2D0002368092B074600F0C98004AD002B00F02D
:10E2E000E080032B00F0DD80276B94F83C10082BB6
:10E2F00004BF626B2263062F96BF9F4A4FF4C0791A
:10E3000052F82790002900F0E680082B03D0236BF9
:10E31000022B00F36E81994B994A53F82830D4F8B8
:10E32000700152F8288002932AF0D8FC029BCDE9B4
:10E3300000014A46414628462FF022FC14A830F03E
:10E34000BFFD14AB1844294630F0D2FA03228D49A0
:10E350001FF02EFAA36B5A1E032A98BF03EB430348
:10E3600094F8502094BF5B0000230093002A40F0F3
:10E37000BA80854B7268284653F82210E36CA26D70
:10E380002FF0FEFB14A830F09BFD14AB1844294677
:10E3900030F0AEFA7B4903221FF00AFA2368082BFB
:10E3A00002D0022F00F31081D4ED067A9FED778A18
:10E3B000F8EEE77AC7EE887A17EE900A2AF08EFC1C
:10E3C000D4ED077AF8EEE77A0246C7EE887A0B4674
:10E3D00070686F4951F82070CDE9022317EE900A5A
:10E3E0002AF07CFCDDE90223CDE90001394628460C
:10E3F0002FF0C6FB14A830F063FD14AB1844294677
:10E4000030F076FA5F4903221FF0D2F9614A624B7D
:10E41000126800927268284653F82210226A636AD2
:10E420002FF0AEFB14A830F04BFD14AB1844294676
:10E4300030F05EFA594902221FF0BAF92368092B1D
:10E440005BD014A900201AF015FC47B0BDEC028B7C
:10E45000BDE8F083524C1268009208467168D3E917
:10E46000002354F821101AF005FC28E7D4F8603195
:10E4700008EB880203EB42034A4A04AD52F823102A
:10E48000284630F035FAA0EB050909F101022946CA
:10E4900038461FF08DF93B4907EB090003221FF0B6
:10E4A00087F9414F414BBA1F53F8281028463B4685
:10E4B0002FF066FB14A830F003FD14AB1844294676
:10E4C00030F016FA2F4903221FF072F957F80A3C70
:10E4D000D6F8048008E7082B03D0236B022B00F347
:10E4E0009580334B18E77268324B284653F8221058
:10E4F000E36C626D2FF044FB44E7236B032B00F0C9
:10E5000088802D4A2D49042B08BF0A467368D4F829
:10E51000681103EB83030B44D4F86C1152F82330D9
:10E52000D4F864210091284625492FF029FB29467B
:10E5300014A82FF09DFE84E7094E0A4A706821490D
:10E540001268094B51F820100092D3E900230020F3
:10E550001AF090FBB3E600BFA359FF1FA459FF1F99
:10E56000A857FF1FA057FF1F9857FF1F2411FF1F19
:10E570001420FF1F1858FF1FAC8A04007422FF1FCD
:10E580003422FF1F8CB104005422FF1F00007A4484
:10E59000F421FF1F5C69FF1F6422FF1FDC5B040086
:10E5A0003411FF1F541EFF1F2258FF1FD421FF1FCD
:10E5B0000422FF1F4422FF1F780EFF1F280EFF1F9B
:10E5C000C48804004411FF1F6769134A134B716824
:10E5D000206953F8211082FB07C3FF17C7EBA31371
:10E5E00082FB0072C017C0EBA21228462FF0C8FAB7
:10E5F00000E70B4B4A460B49206C53F8283051F882
:10E600002810009028462FF0BBFA97E6064B4A46A2
:10E61000F1E7064A7AE700BFD34D6210E421FF1FFD
:10E620007422FF1F2422FF1F0422FF1FD80DFF1F8B
:10E63000F0B5594D002787B007652E680446F7F7F7
:10E6400041FA95F844302E600BB1002E3BD1F5F71E
:10E650000DF9524E00283DD095F84430377801220C
:10E66000327063BB2A6F4E4B59684E4B002053F8F3
:10E6700021101AF0FFFA2B684B4937700022042B47
:10E68000A164226442D12046FFF7FAFD23682046A8
:10E690005B6B9847E06C00284CD02B6B022B2BDC7B
:10E6A000D5ED5C7A9FED417A67EE877AFDEEE77AE9
:10E6B00017EE901A07B0BDE8F04009F039B94FF4F1
:10E6C00061722A67CFE785F84470F5F7CFF8334ECB
:10E6D0000028C1D1324B37785A68354BE06353F884
:10E6E0002210012333701AF0C5FA37702B68052BFE
:10E6F000CCD0092BCAD0C6E72B6C4FF47A7103FB40
:10E7000001F107B0BDE8F04009F012B92046F5F775
:10E71000C3F82046F5F708F995F8443063B9254B5E
:10E720002A6F1B680593059B4FF47A7101FB023336
:10E73000E363DBE707B0F0BD17F0D0FC1D4B0F28FB
:10E740001B6806461ADD1E2811DD2D281DDC0393EB
:10E75000039F17F0DBFCC6F12D06C6EB0616C0EBD7
:10E7600086004FF47A7303FB0077E763BEE70293FA
:10E77000029FC6F11E0617F0C9FCEEE70193019F48
:10E78000C6F10F0617F0C2FCE7E70493049FC6F139
:10E790003C0617F0BBFCE0E71858FF1F9927FF1F46
:10E7A000A857FF1F2420FF1F0000C84200007A4422
:10E7B000C41FFF1FE869FF1F1B4BDB6870B50446D1
:10E7C00040F63D7101200022052B2072A4F858105C
:10E7D00084F85A2001D083420ED82046FFF728FF44
:10E7E000E06C40B1114B1B68092B04D00368BDE8F5
:10E7F0007040DB68184770BD0D4D2026C820C5F855
:10E8000084601FF005FDC820C5F888601FF000FD7A
:10E81000C820C5F884601FF0FBFCC5F88860C820DC
:10E820001FF0F6FCD9E700BFA857FF1F1858FF1FBD
:10E8300000F00F40F8B51E4B1E4AD9684167D2F868
:10E840006051C56501260446DE60DC20F5B91FF085
:10E8500027F907460CF010FF2767314628461FF0BE
:10E8600079FC154B4FF480329A64206F114A03688B
:10E87000E16D9B6898472046FFF79EFFE26D82B9E5
:10E880000E490F4806221EF093FFF8BD1FF008F94D
:10E8900005460CF013FF2567022100201FF05AFCEB
:10E8A000E3E7BDE8F840074905482FF069B900BF24
:10E8B000A857FF1F1858FF1F00F00F40E088040002
:10E8C0005E58FF1FD888040070B5044682B0FFF779
:10E8D000AFFE1148114DF4F781FFE36C2E78012251
:10E8E0002A705BB103F510420D49D2F8082300925B
:10E8F0004FF40053920300201AF0BCF900230122C8
:10E900002E7084F8582084F85A2084F86C30E3651F
:10E910006366A36602B070BDC88A04009927FF1F12
:10E92000145C0400F0B590F8603085B0044673B90B
:10E93000012932D002295FD0C36D002B30D1036F83
:10E94000DB68042B32D0684B186805B0F0BDC36E8D
:10E950002BB1664A12680292029A93426BD3204608
:10E96000FEF7E6F9E36D604D002B286052DD226F63
:10E9700002EB8302D3680B2B00F08D80A36E002B7B
:10E98000E3D05A4A12680392039A9342DDD2226F6F
:10E990000023C2F8C830A366D7E7C36D002B65D04B
:10E9A000226F02EB8302D3680A2BCCD1504900209E
:10E9B0001AF060F9E26D4F484F494FF0FF330125DF
:10E9C000002A84F8605003600B600BDD4B49042281
:10E9D00000201FF03FFA4A48342120F0BBFE49488E
:10E9E0001EF0C6FC414B404A1B680193019B106816
:10E9F00003F59673E366A8E7006F3B4C03680122BA
:10EA0000DB68226098474FF496701FF001FC206885
:10EA100005B0F0BDB2D10128B0D13B4918461AF07B
:10EA200029F9206F0368DB6898474FF496701FF050
:10EA3000EFFB286889E7FFF723FCE06C002851D042
:10EA400003689B689847E06C0368DB689847E36D50
:10EA5000E06C0021E166002B3CD000283FF473AF4E
:10EA600003685B699847204B18686EE7224A214D7E
:10EA700080F860104FF0FF33006F13602B600CF0D4
:10EA800005FE1A4B184A1B680093009B106803F59B
:10EA90009673E36659E71D4900201AF0EBF8E06C25
:10EAA00010B103681B699847206F194E08210CF0BC
:10EAB000CBFD002384F8603004270F2384F85930FD
:10EAC0004FF49670C6F888701FF0A2FB2868C6F84D
:10EAD00084703AE700283FF436AF036801215B6990
:10EAE000984730E7E0662EE7EC68FF1FE869FF1FF4
:10EAF000E8880400140DFF1F100DFF1FDDEB000060
:10EB000000890400C02DFF1F6089040038890400BB
:10EB100000F00F4010B50446F3F7B0FD0023034AA0
:10EB2000E3646365E3632260204610BD788B0400D4
:10EB300010B50446F3F7A2FD0023044AE3646365BD
:10EB4000E36384F86C302260204610BDF88B04002B
:10EB500010B50446F3F792FD0023044AE3646365AD
:10EB6000E36384F86C302260204610BD488C0400BA
:10EB700010B50446F3F782FD0023034AE36463659E
:10EB8000E3632260204610BDB88B040010B5044634
:10EB9000F3F774FD064A074921600023E3646365C7
:10EBA000E3631460E366A4F86030A366204610BDFA
:10EBB000BC5BFF1FF88A0400074BC06C1B6DDB03B6
:10EBC00003D438B10368DB69184710B103689B6947
:10EBD00018477047704700BF00F00F4008B5094B59
:10EBE0001A683AB1EFF310822AB972B61868FFF7C3
:10EBF000E3FF62B608BD72B61868FFF7DDFF72B6B4
:10EC000008BD00BFBC5BFF1FF0B5274B1B7885B06C
:10EC10000546002B40D1254C284619F01BFB5A23F2
:10EC20000026A365012214214FF4347384F8452093
:10EC3000E26485F859104FF4FA5284F85060A663E4
:10EC400084F83C602664236263622846184B85F88A
:10EC500038600527636122612763FFF735FE95F869
:10EC60005820144901A82EF08BFF01A830F028F994
:10EC7000042807D8421C01A904F146001EF098FDA3
:10EC800005B0F0BD3A4601A904F146002FF0D4FBCF
:10EC900084F84B6005B0F0BD2021074820F05AFDF4
:10ECA00006481EF065FBB6E7A159FF1F1858FF1F65
:10ECB000C0D401005C88040080890400C02DFF1FBF
:10ECC000F0B5274B1B7885B00546002B40D1254C6D
:10ECD000284619F0BFFA5A230026A36501220F2106
:10ECE0004FF4D27384F84520E26485F859104FF44C
:10ECF000FA5284F85060A66384F83C60266423626C
:10ED000063622846184B85F83860052763612261E5
:10ED10002763FFF7D9FD95F85820144901A82EF074
:10ED20002FFF01A830F0CCF8042807D8421C01A915
:10ED300004F146001EF03CFD05B0F0BD3A4601A9C5
:10ED400004F146002FF078FB84F84B6005B0F0BD6D
:10ED50002121074820F0FEFC06481EF009FBB6E71B
:10ED6000A159FF1F1858FF1FC0D401006488040078
:10ED7000A4890400C02DFF1F38B5044619F06AFAB3
:10ED80000F4B104858610022012110259D6583F822
:10ED900050209A6383F83C2083F84510D9641A64A4
:10EDA000022584F8382020464FF4FA511E2405220B
:10EDB0001D625C6219611A63BDE83840FFF7FCBC54
:10EDC0001858FF1FC0D4010010B50446C06C064B94
:10EDD000236020B103685B6898470023E364204602
:10EDE000FDF71EFE204610BD0890040038B504460D
:10EDF0004AF26C401EF054FE024905460AF06AF8D9
:10EE0000E56438BD1858FF1F032938B504461AD0E9
:10EE1000062918D01F4DF3F781FFE36C18B30220C9
:10EE200028606BB103F5104393F8183343B11A4BC4
:10EE30005B68012B0CBF1948194819F059FD1520C2
:10EE400000232B6038BD94F86030BBB1154B114DD9
:10EE50001B68012B0CBF0B2301232B60F3F75EFF14
:10EE6000E36C0028DBD12BB103F5104393F8183382
:10EE7000002BDCD128680028E2D138BDA36E002B1E
:10EE8000E4D094F86130002BE0D11E23014D84F8CA
:10EE90006130C0E7EC68FF1FA857FF1F908C04008B
:10EEA000A88C04001058FF1F10B50446C06C084B16
:10EEB000236020B103685B6898470023E364204621
:10EEC000FDF7AEFD204674211EF0F2FD204610BD78
:10EED00008900400FFFFFFFF2DE9F04F2DED028B9E
:10EEE00097B090F85850044617F010F9854204D1B5
:10EEF00017B0BDEC028BBDE8F08FB94E17F006F9E4
:10EF0000F36884F85800002B00F02B82B54FE36DB6
:10EF10003A680992099A9A4200F2E481E56C002D60
:10EF200000F0CE8105F5004595F85A30002B00F031
:10EF3000348194F86030002B00F02F81AA4FDFF865
:10EF4000E0923868083017F0C9FC7368012B0EADE9
:10EF500099F8503000F06882002B00F09A82D9F8BE
:10EF60005420A24928462EF00BFED7F8008000233B
:10EF7000C8F8B83028462FF0A3FFD8F8003029464B
:10EF800002465B684046984740461EF0F1F97368B8
:10EF9000D9F83820012B964B0CBF9649964953F867
:10EFA000222028462EF0ECFDD7F800804FF41023E5
:10EFB000C8F8B83028462FF083FFD8F80030024652
:10EFC0005B6829464046984740461EF0D1F9736871
:10EFD0008A48012BE36C03F50043B3F85820998F5E
:10EFE000B3F844301BB280FB03EC4FEAE373C3EB8E
:10EFF000AC0309B21BB212B2009380FB013C4FEA92
:10F00000E17380FB02104FEAE272C3EBAC03C2EB88
:10F01000A0020CBF7A497B4912B21BB228462EF0DF
:10F02000AFFDD7F800804FF49013C8F8B8302846E9
:10F030002FF046FFD8F8003002465B68294640466C
:10F04000984740461EF094F9E36C03F50043B3F98A
:10F0500046807368012B00F01082B8F1000F00F0B9
:10F060001F82B8F1010F00F04882674942462846E6
:10F070002EF086FDD7F800904FF4D813C9F8B830B9
:10F0800028462FF01DFFD9F8003002465B6829465C
:10F090004846984748461EF06BF9B8F1000F40F318
:10F0A00052827368012BE36C03F50043986C00F007
:10F0B000148229F013FE02460B46284653492EF0CF
:10F0C0005FFDD7F800804FF41013C8F8B830284619
:10F0D0002FF0F6FED8F8003002465B68294640461D
:10F0E000984740461EF044F94FF02D087368626E51
:10F0F000012B0CBF4649474928462EF041FD3E688A
:10F100000023A6F8BA80A6F8B83028462FF0D8FE1B
:10F11000336802465B6829463046984730461EF001
:10F1200027F917F00BF8059017F020F8049017F066
:10F1300035F8064616F0BAFF804616F0CFFF814636
:10F1400016F0E4FF059A3449049B03908DE84003D0
:10F1500028462EF015FD3E684FF45813C6F8B83017
:10F1600028462FF0ADFE336802465B6829463046DC
:10F17000984730461EF0FCF8236820461B6B9847E2
:10F1800094F86030013BDBB284F86030002B7FF4F0
:10F19000AFAE1E2384F86130AAE695F85A30002BF2
:10F1A00000F08E8094F86130012B40F28B80A56EC8
:10F1B0000D4F002D00F0DF803868184EDFF83CA0BE
:10F1C000DFF860904FF00008083017F087FB9FEDE4
:10F1D000028B45462EE000BF00000000000000004A
:10F1E000A857FF1FE869FF1F305EFF1FE88C04006F
:10F1F0003410FF1F148D0400248D040067666666BA
:10F20000388D0400488D0400AC8D0400CC8D0400C2
:10F21000DC8D0400EC8D0400FC8D04008C58FF1F75
:10F220001858FF1FA88E04000135072D06F120068F
:10F2300000F003817368002BF6D00AAA2946E06C1F
:10F240000AF016F9BDF92E0006F0EAFD8AFB00234C
:10F250004FEAE07BBDF93000CBEBA30B06F0A6FE36
:10F26000F7EE007AB4EEE70AF1EE10FA10EE100AAB
:10F270000FFA8BFB00F1F48029F030FDCDE902019B
:10F2800032464946BDF92830CDF800B00EA82EF020
:10F2900077FCD7F800B00023ABF8BA80ABF8B830F1
:10F2A0000EA82FF00DFEDBF8003002465B680EA9B9
:10F2B00058469847584608F109081EF059F8B3E730
:10F2C00094F86130012B7FF413AEA64B1868083018
:10F2D00017F004FB236820461B6B9847002384F833
:10F2E000613005E6A04B5878002837D09F4B1B783B
:10F2F000002B00F0B8800220F4F756F92046F4F70E
:10F30000CBFAE56C15B39A4BD4F848A0D4F84090EA
:10F31000D3E900012AF032F8964B8046D3E9000188
:10F320002AF02CF805F52043012283F8602403F22B
:10F330006442C2F800A003F58D62C2F8009003F2A7
:10F340005C4203F58B63C2F8008018603B6807934A
:10F35000079B03F56A436033E365E0E5F4F724F9BE
:10F36000CCE7854D2027C5F8847001201EF050FFA2
:10F37000C5F88870CAE53868083017F0AFFAD7F8D2
:10F3800000807368C8F8B850012BD8F800300CBF63
:10F390007A497B495B6810224046984740461DF0F9
:10F3A000E7FF3D684FF44023C5F8B8307368012B80
:10F3B0002B680CBF734974495B680CBF0E2209228D
:10F3C0002846984728461DF0D3FF3D684FF4101398
:10F3D000C5F8B8307368012B2B680CBF6B496C49BA
:10F3E0005B680CBF132211222846984728461DF05F
:10F3F000BFFF3D687368012B2B680CBF65496649E8
:10F400005B684FF44012C5F8B82028460F22984791
:10F4100028461DF0ADFF23681B6B204617B0BDECDE
:10F42000028BBDE8F04F1847002B5FD0D9F854206D
:10F430005A4928462EF0A4FB97E5236820461B6B0B
:10F440009847574B93F85431002B7FF451AD94F803
:10F450006130012B7FF64CAD013B84F8613047E50C
:10F4600051EC180B0AE70120F4F79EF83B6808936B
:10F47000089BE56C7D33E36551E5B8F1000F57D08B
:10F48000B8F1010F62D04749424628462EF078FB7A
:10F49000F0E5D9F85820444928462EF071FB64E580
:10F4A000424B0FCBAC46ACE807008CF80030D7F8E5
:10F4B00000804FF4D813C8F8B83028462FF000FD6C
:10F4C000D8F8003002465B682946404698474046D7
:10F4D0001DF04EFF4FF0240808E629F0FFFB02461E
:10F4E0000B46284632492EF04BFBEAE5D9F8582066
:10F4F000304928462EF044FB37E52F4B0FCBAC4666
:10F50000ACE807008CF80030D7F800804FF4D8132F
:10F51000C8F8B83028462FF0D3FCD8F8003002469F
:10F520005B6829464046984740461DF021FFB8E5F4
:10F53000224B0FCBAC46ACE807002CF8023B1B0C6F
:10F540008CF80030B3E74FF02408CFE51C4B0FCB0D
:10F55000AC46ACE807002CF8023B1B0C8CF80030E2
:10F56000D2E700BF305EFF1FA459FF1F9457FF1F53
:10F570008857FF1F9857FF1F00F00F401C8E040094
:10F58000308E0400448E0400548E0400608E04000B
:10F59000748E0400888E0400988E0400C08C0400D1
:10F5A0001858FF1F788D0400FC8C04008C8D04001B
:10F5B000BC8D0400D48C04009C8D0400588D040084
:10F5C000688D040010B50446FEF74CFE024A226026
:10F5D0000023E364204610BD089004002DE9F04F9D
:10F5E000B34B1B78CBB00546002B40F05681B14C95
:10F5F000284618F02FFE0023626984F8503007EE89
:10F60000103A84F83C3063614FF4FA732069236147
:10F6100007EE903A3C2323670421E86617EE100AB0
:10F6200021632A6704F1E00123469A6FD2B193ED7A
:10F63000226AD3ED236AF8EEE77AB8EEC77AF4EEE1
:10F64000C67AF1EE10FAF4EEC76A58BFF0EE467AC9
:10F65000F1EE10FA88BFB0EE667AFDEEE77ABDEE05
:10F66000C77A012020338B42DFD118B184ED057AAF
:10F67000C4ED047A002685F838602846FEF7D8FFE6
:10F680003046F3F791FF2846F4F706F9EE6C0EB317
:10F69000894BD5F84890D5F84080D3E9000129F08E
:10F6A0006DFE864B0746D3E9000129F067FE06F59B
:10F6B0002043012283F8602403F26442C2F80090E0
:10F6C00003F58D62C2F8008003F25C4203F58B63A0
:10F6D000176018607A4B7B4E1B680993099BD6F81C
:10F6E000800403F56A436033EB65002800F0C280B4
:10F6F00013F09AFBD6F88034002B00F00181DA6910
:10F70000642300FB03F3501E6F4A93FBF0F352682F
:10F710006B66012129720A233D21012AA5F8603078
:10F7200085F8581094F8503000F0AA80002B4ED184
:10F73000A26B664B664953F82230A26D0AAE304682
:10F740002EF01EFA634CDFF8AC81DFF8ACA1DFF8D5
:10F75000ACB13146002019F08DFA0023AB6604F1FC
:10F76000E0070EE0012B57D0D8F8003051F82310F5
:10F770002EF006FA00203146203419F07BFAA74219
:10F780006AD06368022B2DD0032B534922463046A2
:10F79000E8D1AB6ED8F80020A0695BF82290013365
:10F7A000AB66E268E3690592A2680793049229F0C8
:10F7B00095FACDE90201606929F090FA079BCDE93D
:10F7C00000012246494630462EF0DAF9D2E7A26B14
:10F7D0003E4B424953F82230626D0AAE30462EF05D
:10F7E000CFF9AFE7AB6EA0690133AB66D8F8003054
:10F7F0005AF82390A368049329F070FACDE9020126
:10F80000606929F06BFAE369CDE9000122464946B7
:10F8100030462EF0B5F9ADE7AB6ED8F80020206980
:10F820000133AB66E36907932D4B53F8229029F01F
:10F8300055FACDE90401A06929F050FACDE9020199
:10F84000606929F04BFA079BCDE900012246494641
:10F8500030462EF095F98DE72248F3F7BFFFAB6EE7
:10F86000002B04DDE86C10B10368DB6898474BB0EF
:10F87000BDE8F08FD6F88404B8B111F089F939E702
:10F88000002B46D0A26B114B174953F82230626D02
:10F890000AAE30462EF074F954E71B2113481FF0CE
:10F8A00059FF13481DF064FDA1E603462CE700BF95
:10F8B000A159FF1F1858FF1F8857FF1F9857FF1F98
:10F8C000E869FF1F485EFF1FA857FF1F3410FF1F86
:10F8D000848F04008C58FF1FE412FF1F4C8F04001C
:10F8E000D412FF1FD88F0400DC8E0400C08E0400E9
:10F8F000C02DFF1FF068FF1FF412FF1FC412FF1F6F
:10F90000D6F88424642300FB03F36AB1D2F83004F0
:10F91000FAE6A26B054B064953F82230A26D0AAEF7
:10F9200030462EF02DF90DE71046EDE63410FF1F9E
:10F93000148F0400036810B55B69044698470C4BAC
:10F94000E16E226F1961002084F8390020465A6167
:10F95000FDF77CF8074B1B7803B910BD06481A2148
:10F960001FF0F8FEBDE8104004481DF001BD00BFC7
:10F970001858FF1FA159FF1FBC8F0400C02DFF1F87
:10F9800010B50446D0F8C408044B236008B11EF03B
:10F990008DF82046FDF744F8204610BD2499040058
:10F9A00010B50446D0F8C408074B236008B11EF018
:10F9B0007DF82046FDF734F8204640F6D8011EF0C9
:10F9C00077F8204610BD00BF2499040001220A23C5
:10F9D00010B5C0F89C20C0F8A430044616F096FB81
:10F9E000E268034600211068C4F8A8301AF0D6FE79
:10F9F000E368002158681AF0D1FEE3680021BDE8F1
:10FA0000104098681AF0CABE012910B504D00C1E27
:10FA100018BF0124204610BDD0F89C402CB1032C07
:10FA20000CBF14240124204610BDFFF7CFFF204651
:10FA300010BD00BF394B2DE9F043183103F5E276D4
:10FA40006FF06804002001E053F8044B51F8045FA4
:10FA5000A542C8BF0130B342F6D1314BDFF8C880B0
:10FA6000D3F85C71DFF8C4904FF0000E022F02F162
:10FA70001C024FF0070376464FF00A0114D058F8E5
:10FA80002350146805F1050CA44514DAA54203F1CE
:10FA90000103C8BF8E44792B02F104020DD05D2B07
:10FAA000A8BF0221022FEAD159F82350146805F1AA
:10FAB000050CA445EADB0E44E8E71A4A4FEAEE7368
:10FAC00082FB0E120528C3EBA2030ADD0936122EB3
:10FAD0001BD9D3B1BEF1640FB4BF02200420BDE82E
:10FAE000F08348B9B6F5967FF9DBA3B1BEF1D10F2B
:10FAF000CCBF04200220F2E7F92E09DD5BB1BEF194
:10FB00006D0FCCBF04200220E9E70320BDE8F0839D
:10FB10000020BDE8F0830120BDE8F0833C910400A3
:10FB20001858FF1F676666661C9504001C93040046
:10FB30002DE9F041A84DC26D2B6892B004460693A2
:10FB4000069B9A423CBF6FF07703C0F880302B6869
:10FB50000793079B026E9A423CBF6FF07703C0F891
:10FB60008430C36E13F1770FC0F227810A3BC3665E
:10FB7000236F13F1770FC0F21B810A3B2367E06C00
:10FB800030B105AB009304AA03AB02A908F0AEFBA9
:10FB9000029BE26E9A4201DAE366A367D4F8802002
:10FBA0009A4208DA2A680892089AC4F8803002F566
:10FBB0001C521032E265039A216F914201DA2267EA
:10FBC000E267D4F88410914208DA2968099109990A
:10FBD000C4F8842001F51C511031216613F1770F10
:10FBE000C0F2F080934200F33B8103DA0599C4F838
:10FBF00088106267D4F88C108B4207DD0499C4F832
:10FC00008C30C4F8941012F1770F08DBD4F89030E0
:10FC1000934204DA059BC4F89020C4F898306F4DE5
:10FC20006F4E2868083016F059FE2F68726800235E
:10FC3000C7F8B8306B4B53F82280B8F1000F08D0EA
:10FC400040462FF03DF93B6802465B684146384626
:10FC5000984738461DF08CFB2F6872684FF41023CC
:10FC6000C7F8B830604B53F82280B8F1000F08D0C5
:10FC700040462FF025F93B6802465B68414638460E
:10FC8000984738461DF074FB2F6872684FF4901344
:10FC9000C7F8B830554B53F82280B8F1000F08D0A0
:10FCA00040462FF00DF93B6802465B6841463846F6
:10FCB000984738461DF05CFB2F6872684FF4D813E4
:10FCC000C7F8B8304A4B53F82280B8F1000F08D07B
:10FCD00040462FF0F5F83B6802465B6841463846DF
:10FCE000984738461DF044FB2B6842494FF41812E0
:10FCF000C3F8B8200AA8636FD4F888202DF040FF1D
:10FD00002F680AA82FF0DCF83B6802465B680AA956
:10FD10003846984738461DF02BFB374B1B68012BA4
:10FD200078DD364BD3F85831002B73D173682A68CD
:10FD30003349C2F8B810012B00F0A080A26F3149FE
:10FD40000AA82DF01DFF2F680AA82FF0B9F83B680C
:10FD500002465B680AA93846984738461DF008FBFA
:10FD6000E36858680123837103683122DB6800214E
:10FD7000984773682A682449C2F8B810012B0CBF51
:10FD800022492349E26F0AA82DF0FAFE2D680AA83D
:10FD90002FF096F82B6802465B680AA92846984718
:10FDA00028461DF0E5FAE3680121986839224BE006
:10FDB0006FF077032367E367E1E66FF07703C366CD
:10FDC0008367D5E612F1770FFFF629AF059BC4F8DC
:10FDD000883062671AE700BFE869FF1F305EFF1FC7
:10FDE000A857FF1FD424FF1FE424FF1FF424FF1F84
:10FDF0000425FF1F409004001058FF1F1858FF1FD4
:10FE000051002E005C900400510037006490040003
:10FE10006C9004002B681C4AC3F8B8201B49A26FE1
:10FE20000AA82DF0ADFE2D680AA82FF049F82B681E
:10FE300002465B680AA92846984728461DF098FAAA
:10FE4000E36818680121322203688171DB680021B0
:10FE50009847236820461B6B984712B0BDE8F08195
:10FE6000D4F88C000499C4F8881098426367BFF6F0
:10FE7000CAAEC4F88C30C4F89410C4E6A26F04492A
:10FE80000AA82DF07DFE5EE7530032000C8D0400C1
:10FE90005490040010B4194C03468C4694E80300B7
:10FEA00083B002AC04E90300A2F114016B2921D84C
:10FEB0006FF03B01A1EB0C0107EE901AB8EEE77A68
:10FEC000F7EE086AC7EE267AD11002F00702D8686A
:10FED00002F108030DEB030212F8082CFDEEE77A9D
:10FEE00017EE903A272BA8BF272301EB0313C15C21
:10FEF0000A43C25403B05DF8044B7047AC5B040086
:10FF00002DE9F04FC36CDFF8E0A0DFF8E080DFF808
:10FF1000E09003F5004385B09A6A5F6A039200237C
:10FF2000064600F6B80B00F1AC050124029333E05D
:10FF3000039BDAF85C2153F82430A8FB03135B0918
:10FF4000022A029303D1029BDB00C000029300B29D
:10FF500005F066FF89FB0023C017C0EBA30096F8ED
:10FF6000B63800B2686033BB6FF07801C5F804148E
:10FF700055F8043F9942B8BF194620B2019106F0E6
:10FF800015F8FDEEC07A019917EE902A5846013413
:10FF9000FFF780FF802C19D057F8040F96F8B63879
:10FFA000A8FB00204009002BC2D1DAF85C31022BFB
:10FFB00008BFC000CBE7BDF9080005F031FF89FBA1
:10FFC0000023C117C1EBA30109B2CFE702220F231F
:10FFD000C6F89C20C6F8A43016F098F8C6F8A80019
:10FFE00005B0BDE8F08F00BF1858FF1FB5814E1B4C
:10FFF000676666662DE9F041044688B016F086F81B
:020000021000EC
:10000000D4F8A830984208D0D4F8A430013BC4F802
:10001000A43016F07BF8C4F8A800D4F8A430002B64
:100020007DD05A4D5A4E28685A4F083016F056FC6B
:100030007368286857F82310083017F09FFA736820
:10004000C0F1800057F823802F6800EBD07040107B
:100050000023A7F8B800A7F8BA30B8F1000F08D00D
:1000600040462EF02DFF3B6802465B68414638460D
:10007000984738461DF07CF9474F7368286857F851
:100080002310083017F07AFA7368C0F1800057F82F
:1000900023802F6800EBD07040100923A7F8B80028
:1000A000A7F8BA30B8F1000F08D040462EF008FF8C
:1000B0003B6802465B6841463846984738461DF023
:1000C00057F9D4F8A420354968462DF059FD286821
:1000D0006946083017F052FAC0F180002F6800EB33
:1000E000D0701B234010A7F8B800A7F8BA306846B4
:1000F0002EF0E6FE3B6802465B6869463846984744
:1001000038461DF035F9D4F8A430043B032B0AD946
:10011000236820461B6B984708B0BDE8F081204655
:10012000FFF7EEFE7DE7736828681D4F083057F82B
:10013000231017F023FA73682D6857F82360C0F175
:10014000800000EBD07040102823A5F8B800A5F877
:10015000BA3046B130462EF0B3FE2B6802465B68DB
:1001600031462846984728461DF002F9D4F8A430B5
:10017000052BCDD194F8B438002BC9D1E06C05F033
:1001800013FE012384F8B438C2E700BF305EFF1FBE
:10019000A857FF1FAC26FF1FBC26FF1F749004004A
:1001A000CC26FF1F2DE9F04FC36CDFF820B4DFF839
:1001B0002084DFF820942DED028B03F50043ADF58C
:1001C000677D00F52B720026996A09965F6A0B908D
:1001D00000F6B80A0A910C9215460124064633E04F
:1001E0000A9BDBF85C2153F82430A8FB03135B095E
:1001F000022A099303D1099BDB00C000099300B2D6
:1002000005F00EFE89FB0023C017C0EBA30096F893
:10021000B63800B2686033BB6FF07801C5F80414DB
:1002200055F8043F9942B8BF194620B2089105F02D
:10023000BDFEFDEEC07A089917EE902A50460134B3
:10024000FFF728FE802C19D057F8040F96F8B6381F
:10025000A8FB00204009002BC2D1DBF85C31022B47
:1002600008BFC000CBE7BDF9240005F0D9FD89FB2C
:100270000023C117C1EBA30109B2CFE70B9CE06CCF
:1002800060B100F5004393F85B30002B40F0A4828E
:1002900003685B6898470B9A0023D3640B9C04F1B6
:1002A000AC0211460A9220460C9AFFF7C3FB94F861
:1002B000B638C4F8AC0843B104F2AC6204F2AC4105
:1002C0002046FFF7B7FBC4F8B008002324938DF84D
:1002D0009830359336934FF47A70A74BA749239300
:1002E0002590A74BA74A19A82DF04AFCA64B1968E0
:1002F00027AB002900F09E8208EE103A184619AA92
:1003000040F2092312F07CFF002840F0E1809F4971
:100310009F4819AA1DF044F89E4B08939E4B0993E1
:100320000B9B93F8B63837AC002B00F04D82089B3E
:100330005A689A4B53F822100F9115F02FFF0E9028
:1003400015F014FF0D9015F0F9FE054615F0AEFE00
:10035000064615F0C3FE074615F0D8FE0D9B039028
:100360008DE8E0000E9A0F9919A82DF009FC0B9B5F
:1003700093F8B638002B00F02B82089A884B52680D
:1003800053F822100F9115F009FF0E9015F0EEFEB4
:100390000D9015F0D3FE054615F088FE064615F0C3
:1003A0009DFE074615F0B2FE8DE8E0000390089828
:1003B0000B9D4068D5F8AC580D9B0E9A0F99DFF84D
:1003C00018A200EB400005EB4005099850F8250005
:1003D000049020462DF0D4FB34201DF061FB19ABB6
:1003E00007930A23059303930293B42304936FF0B6
:1003F00036086FF07703CDE900384FF4967200238A
:100400004FF42F71069407460EF08CF90C9B019364
:10041000089B644D5B6880265AF8231002950023E0
:100420000096022238460EF0F7F9DBF85C310096B0
:10043000022B029500F00182089B5B4A5B680C92DC
:1004400052F82310594B01930822022338460EF02C
:10045000E3F9089B02955B68DFF88091544A59F8EC
:1004600023100192012380261A46384600960EF08A
:10047000D3F90A9A089B0192029500965B68DFF80F
:100480006081032258F82310384600230EF0C4F987
:1004900038460EF063FD38460DF012FF3846342121
:1004A0001DF006FB0B9B93F8B638002B40F0E8815B
:1004B0000B99404B2393032218EE100AC1F89C209D
:1004C00012F08AFE0DF5677DBDEC028BBDE8F08F62
:1004D0000B9F97F8B638002B40F086812D4F364B96
:1004E0007A68089753F822100E9115F057FE0D9078
:1004F00015F03CFE099015F021FE044615F0D6FDDE
:10050000054615F0EBFD064615F000FE8DE870007F
:1005100003900B9C7868099B0D9A0E99D4F8AC480F
:1005200000EB400004EB40041B48099050F8240005
:10053000049037AC20462DF023FB20462EF0C0FC63
:1005400002463598002800F08082214611F0B6F965
:1005500023A81CF00DFF089B184A5B68184D1095E6
:1005600003EB8303204652F82310164E2EF0F6FBC1
:1005700005F5E279144837E09C7804007C9004008B
:10058000385EFF1F5E58FF1F2463FF1FA09004000A
:10059000C02DFF1FA857FF1FC425FF1F2C26FF1FBC
:1005A0005425FF1F1C9704004C26FF1F1C950400B8
:1005B0001C910400787804002425FF1F7425FF1F78
:1005C0003C97040090900400000028411858FF1F39
:1005D000F1197605676666663C26FF1F5C26FF1FDD
:1005E0006C26FF1F55F8040B28F078FB02460B46DB
:1005F00014A831462DF0C4FA20462EF061FC14A94F
:1006000020442EF075F94D45ECD1021B3598002899
:1006100000F01382214611F051F923A81CF0A8FE26
:10062000089B8C4A5B688C4E03EB830302EB8303CD
:10063000204659682EF092FB0B9B03F5317703F2AD
:100640008C4557F8042F314614A82DF099FA20460E
:100650002EF036FC14A920442EF04AF9BD42F0D108
:10066000021B3598002800F0E081214611F026F9A0
:1006700023A81CF07DFE089B764A5B68DFF8FCA18E
:10068000754F03EB830302EB8303204699682EF03A
:1006900065FB724B0F930AF5E4781E465546DBF86E
:1006A0005C31022B0CBF2A683268394614A82DF041
:1006B00067FA20462EF004FC043514A920442EF0DD
:1006C00017F9454506F10406E9D1021B35980028C3
:1006D00000F0A381214611F0F1F823A81CF048FE98
:1006E000089B5C4A5B685E4F0E9703EB830302EB4B
:1006F00083032046D968584E2EF030FB07F5E2758B
:100700006FF0680201E057F8042F314614A82DF06D
:1007100037FA20462EF0D4FB14A920442EF0E8F836
:10072000AF42F0D1021B3598002800F05F812146CE
:1007300011F0C4F823A81CF01BFE089B454A5B6817
:10074000454F03EB830302EB8303204619692EF028
:1007500005FB0B9BCDF834A003F1C40603F523730E
:10076000B2461E465AF8042F394614A82DF008FA4E
:1007700020462EF0A5FB14A920442EF0B9F8B2456E
:10078000F0D1021B3598DDF834A0002800F03D813F
:10079000214611F093F823A81CF0EAFD0B9B93F877
:1007A000B638002B40F059813598002800F026819A
:1007B00011F07EF818EE100A12F00EFD0B9B93F864
:1007C000B638002B7FF4B3AD089B5A68254BB1E5D2
:1007D000089B5A68244BD3E503681B699847E06C73
:1007E00000287FF455AD59E5204B1A460892204B5E
:1007F000526853F822100E9115F0D0FC0D9015F0B0
:10080000B5FC099015F09AFC044615F04FFC05461E
:1008100015F064FC064615F079FC8DE87000039035
:100820000898099B40680D9A0E99D7F8AC4800EBE0
:10083000400077E608EE103A69E5089A0D495268DB
:100840000C9151F822100C4A0192384608220DF002
:10085000E3FFFEE57425FF1F98900400389504001F
:10086000389104002426FF1F1425FF1FA857FF1FDF
:100870003425FF1F4C26FF1F1C93040038930400EF
:10088000089B5A689A4B53F82210109115F086FC79
:100890000F9015F06BFC0E9015F050FC0A9015F0BF
:1008A00005FC074615F01AFC0D9015F02FFC0D9A6B
:1008B0000390029208980A9A019700920B9F406851
:1008C000D7F8B0780E9B0F9A109900EB400007EB19
:1008D0004007099850F82700049020462DF050F961
:1008E000089B5A68834B53F822100F9115F056FC61
:1008F0000E9015F03BFC0D9015F020FC099015F0C2
:10090000D5FB074615F0EAFB0A9015F0FFFB0A9AA3
:100910000292099A0D9B0F9903900197009219A8D2
:100920000E9A2DF02DF934201DF0BAF80A23059304
:1009300003930293B42319AA04936FF036076FF060
:100940007703CDE900370792069400234FF496729F
:100950004FF42F7104460DF0E5FE089B02950096BA
:100960005B680B9F5AF8231007F2AC6301930222D5
:10097000002320460DF050FFDBF85C310096022B7F
:10098000029500F09881089B0C9A5B6852F823103E
:10099000594B01930822022320460DF03DFF089F8A
:1009A000564B019302957B68802659F823100096D8
:1009B00001231A4620460DF02FFF029500967B6812
:1009C00058F823100B9B03F2AC43032201932046FB
:1009D00000230DF021FF20460EF0C0FA20460DF056
:1009E0006FFC342120461DF063F861E5369800283D
:1009F0003FF4A0AE21460FF0A7F99BE636980028F9
:100A00003FF4D8AE0FF068F8D4E6369800283FF4EB
:100A1000C2AE21460FF098F9BDE6369800283FF4A3
:100A20005CAE21460FF090F957E6369800283FF467
:100A30001FAE21460FF088F91AE6369800283FF4D9
:100A4000ECAD21460FF080F9E7E5369800283FF439
:100A50007FAD21460FF078F97AE5089B5A68284B5C
:100A600053F82210139115F099FB129015F07EFBAC
:100A7000119015F063FB0D9015F018FB064615F06C
:100A80002DFB074615F042FB0D9A0390089801963E
:100A9000009202970B9E4068D6F8B068129A119B9C
:100AA000139900EB400006EB4006099850F8260029
:100AB000049020462DF064F820462EF001FA0246FC
:100AC0003598002800F0EF80214610F0F7FE23A8AB
:100AD0001CF04EFC089B0B4A5B680B4E03EB830338
:100AE000204652F823102EF039F90848109F11E0E3
:100AF0006425FF1F3426FF1F1C9504001C91040071
:100B00004425FF1F7425FF1F90900400000028411A
:100B100057F8040B28F0E2F802460B4614A83146B9
:100B20002DF02EF820462EF0CBF914A920442DF0FC
:100B3000DFFEB945ECD1021B3598002800F0E480B7
:100B4000214610F0BBFE23A81CF012FC089B724A41
:100B50005B68724F03EB830302EB83032046596803
:100B60002EF0FCF80B9B03F2C46903F68C0659F8CF
:100B7000042F394614A82DF003F820462EF0A0F9D2
:100B800014A920442DF0B4FE4E45F0D1021B359837
:100B9000002800F0B180214610F090FE23A81CF040
:100BA000E7FB089B5C4A5B685C4E03EB830302EB4C
:100BB0008303204699682EF0D1F80F9FDBF85C3153
:100BC000022B0CBFDAF800203A68314614A82CF04A
:100BD000D7FF20462EF074F90AF1040A14A9204424
:100BE0002DF086FEC24507F10407E7D1021B3598B8
:100BF00000287AD0214610F061FE23A81CF0B8FB33
:100C0000089B454A5B68454E03EB830302EB830375
:100C10002046D9682EF0A2F80E9F6FF0680201E01E
:100C200057F8042F314614A82CF0AAFF20462EF0C6
:100C300047F914A920442DF05BFEAF42F0D1021B0E
:100C4000359800284AD0214610F038FE23A81CF021
:100C50008FFB089B304A5B68304E03EB830302EB4B
:100C60008303204619692EF079F80B9B03F2C447E1
:100C700003F28C6557F8042F314614A82CF080FF3E
:100C800020462EF01DF914A920442DF031FEAF426C
:100C9000F0D1021B3598D0B1214610F00FFE23A8E9
:100CA0001CF066FB80E5369800283FF410AF214623
:100CB0000FF04AF80BE7089A0C99526851F8221085
:100CC000174A0192204608220DF0A6FD67E63698E5
:100CD0000028E4D021460FF037F8E0E736980028E6
:100CE000B4D021460FF030F8B0E73698002884D011
:100CF00021460FF029F880E7369800283FF44EAFE0
:100D000021460FF021F849E7369800283FF41BAF41
:100D100021460FF019F816E77425FF1F989004007C
:100D20001C9304002DE9F041044688B015F0EEF95B
:100D3000D4F8A830984208D0D4F8A430013BC4F8C5
:100D4000A43015F0E3F9C4F8A800D4F8A430002BBF
:100D50007DD05E4D5E4E28685E4F083015F0BEFDBA
:100D60007368286857F82310083016F007FC73687A
:100D7000C0F1800057F823802F6800EBD07040103E
:100D80000023A7F8B800A7F8BA30B8F1000F08D0D0
:100D900040462EF095F83B6802465B68414638466F
:100DA000984738461CF0E4FA4B4F7368286857F8A8
:100DB0002310083016F0E2FB7368C0F1800057F88A
:100DC00023802F6800EBD07040100923A7F8B800EB
:100DD000A7F8BA30B8F1000F08D040462EF070F8EE
:100DE0003B6802465B6841463846984738461CF0E7
:100DF000BFFAD4F8A420394968462CF0C1FE28680F
:100E00006946083016F0BAFBC0F180002F6800EB8D
:100E1000D0701B234010A7F8B800A7F8BA30684676
:100E20002EF04EF83B6802465B68694638469847A4
:100E300038461CF09DFAD4F8A430043B082B0AD99C
:100E4000236820461B6B984708B0BDE8F081204618
:100E5000FFF7A8F97DE773682868214F083057F835
:100E6000231016F08BFBD4F8A4302D68DB074FF06D
:100E70002803C0F18000A5F8BA30736800EBD07089
:100E80004FEA600057F8236054BF0F380F30A5F8C1
:100E9000B80046B130462EF013F82B6802465B6866
:100EA00031462846984728461CF062FAD4F8A43008
:100EB000082BC5D194F8B538002BC1D1E06C04F0F3
:100EC00091FF012384F8B538BAE700BF305EFF1FF9
:100ED000A857FF1F7C26FF1F8C26FF1F749004005D
:100EE0009C26FF1F2DE9F043534E5449DFF86C81D7
:100EF0000746306887B0083016F00CFB14242246F1
:100F0000414603A82CF03CFE306803A9083016F0D7
:100F100035FB1FFA84F935683B78A5F8BA3000EB49
:100F2000D072A9EB6202A5F8B82003A82DF0C8FF83
:100F30002B6802465B6803A9284698473A783068D0
:100F400002F10803009306324B4649460830143438
:100F500016F0F4FB8C2CD2D13A7830683B8B0932F6
:100F60000092B98A083016F0E9FBFB683A783068DD
:100F700001933B8A00930A3208301023002115F0B8
:100F8000BBFA30683C7803682D495B68002504F1A2
:100F90000A02A0F8B850A0F8BA2003229847306897
:100FA00028490368A0F8B85004F110025B68A0F863
:100FB000BA2003229847306823490368A0F8B85044
:100FC00004F117025B68A0F8BA2003229847306842
:100FD0001E490368A0F8B85004F11D025B68A0F830
:100FE000BA2003229847306819490368A0F8B8501E
:100FF00004F124025B68A0F8BA2004229847306804
:1010000014490368A0F8B8502A345B68A0F8BA40C5
:10101000042298473A7830680C233F2100910A3225
:101020001946083016F08AFB30680B49083016F074
:1010300071FA07B0BDE8F083305EFF1F5C3C05002D
:10104000BC900400C0900400C4900400C890040048
:10105000CC900400D4900400104A050058B004005D
:1010600070B52C4D2B68044688B003F1080015F0CC
:1010700035FC94F8B638002B3BD0274BD4F8AC188D
:101080005B68D4F8B028254803EB430301EB430128
:1010900002EB430201AE50F8213050F822202049E3
:1010A00030462CF06DFD28683146083016F066FA9F
:1010B000C0F180032D6803EBD3735B100022A5F809
:1010C000B830A5F8BA2030462DF0FAFE2B6802465B
:1010D00031465B682846984728461CF049F904F6D3
:1010E000B800FFF7FFFE236820461B6B984708B047
:1010F00070BD094BD4F8AC285B68084903EB430387
:1011000002EB430201AE51F8221030462DF026FECC
:10111000C9E700BF305EFF1FA857FF1FC425FF1F90
:10112000DC90040010B4174A846D116883B00091FC
:1011300000998C4212D2126801920199D0F89C2039
:1011400001F59671022A816516D0032A0FD0012A73
:1011500008D003B05DF8044BFEF7EABC03B05DF8BD
:10116000044B704703B05DF8044BFEF743BF03B078
:101170005DF8044BFFF774BF03B05DF8044BFFF755
:10118000D1BD00BFE869FF1FF0B5044687B0FDF789
:1011900069F8564A2260092328210A224FF4207058
:1011A00084F8B8387823C4F8D038C4F8C818C4F81C
:1011B000CC28C4F8D4081CF075FC6FF07705002625
:1011C000D4F8D428C4F8C40800212CF0FFFFC4F8D8
:1011D00088606566A566E5662567A567E567C4F866
:1011E0008050C4F8845084F8B668E8201CF058FC9D
:1011F00004F16C0732236FF03101029501930096E0
:10120000082303915022394605461AF0E1FB216973
:1012100063690595994204F10C065CD041F8045BC2
:101220002161E8201CF03CFC3946002231236FF09C
:10123000310E6FF077078DE88C4006234E2205466D
:101240001AF0C6FB216963690595994248D041F8B7
:10125000045B2161E8201CF023FC6FF0770500217E
:1012600039236FF031078DE8AA004E22062304F1DE
:10127000700105461AF0ACFB216963690595994236
:1012800024D041F8045B2161194B1B68012B03DD5D
:10129000184BD3F85811A1B1E3680021586819F030
:1012A0007DFAE3680021986819F078FA0023052296
:1012B0002046C4F89C30C4F8A030C4F8AC2807B06D
:1012C000F0BDE368186819F069FAEFE705AA30463F
:1012D000F0F772FAD8E705AA3046F0F76DFAA0E702
:1012E00005AA3046F0F768FAB4E700BF2499040075
:1012F0001058FF1F1858FF1F2A4B1B7870B5044663
:10130000002B46D1284D294E012285F84520EA645C
:101310004FF4FA522A61264A6A6132680023052195
:10132000012AC8BFC5F858312B6485F83C3085F8D0
:101330005030296029632B620A216B620023A96562
:10134000A4F8B43884F838302046FDF771F93368D2
:10135000012B02DDD5F85831BBB1E06C00236FF0F2
:1013600078026FF07701C4F88C20C4F89020C4F89C
:101370009430C4F89830A365E3652366616780B153
:101380000368BDE87040DB681847012384F8B6386D
:10139000E3E7192107481EF0DDF907481BF0E8FFD5
:1013A000B0E770BDA159FF1F1858FF1F1058FF1F4D
:1013B000F0C60200E4900400C02DFF1F70B5044683
:1013C000002680F8396082B0FBF740FB94F8B6083D
:1013D0002C4D002834D06A682B4B53F82210D4F8D7
:1013E00098300193D4F890300093D4F89430D4F826
:1013F0008C20304617F03EFCD4F8AC38042B16DCB9
:1014000094F8B608696830B301EB41051F4803EB57
:10141000450350F82320D4F8B03803EB45031C4DA6
:1014200050F8233055F82110002017F023FC2368D2
:1014300020465B699847174B1B78CBB902B070BD4B
:101440006A68154B53F82210D4F89430D4F88C20E5
:1014500017F010FCD0E701EB410503EB45030B4A05
:1014600052F823200D4B53F8211017F003FCDEE750
:101470001A210B481EF06EF90A4802B0BDE8704010
:101480001BF076BFA857FF1F041CFF1FC425FF1FBA
:10149000741DFF1FA159FF1FF41BFF1F641DFF1FB9
:1014A00000910400C02DFF1F0120704738B504468D
:1014B0004AF61C401CF0F4FA03490546072206F0E0
:1014C000B1FFE56438BD00BF1858FF1F10B50446D2
:1014D000C06F054B236008B11CF0E8FA2046FBF70B
:1014E0009FFA204610BD00BFD09904002DE9F04FAF
:1014F00087B088460092013A02EBD272B1EB620FDC
:10150000064601934EDA4FEA62090F4600E02F4685
:101510007C1C650005F1FF3A06EB441406EB0A1B40
:10152000594620461CF032F800281CBF5C46554640
:1015300006EB071021461BF0C5FF4D45E7DB009B7E
:10154000DA0735D50DF10809019948466F1E1BF0E1
:1015500053FF07EBD77745454FEA67070BDC17E0EA
:101560001BF0B0FF7B1E03EBD373B8454FEA630358
:101570003D460DDA1F4606EB0714494620461CF08F
:1015800005F80346214606EB0510002BE8D104467A
:10159000494620461BF096FF48461BF043FF07B024
:1015A000BDE8F08F009BDB0713D400EB01140D4660
:1015B000009BA3F1020B0BEBDB7BB5EB6B0FC1D1F7
:1015C0006D000135204606EB051421461BF07AFF1D
:1015D000B8E70DF10809019948461BF00DFF06EB2D
:1015E0000814D5E710B584B00446014668461BF0E0
:1015F00003FF103C01E01BF065FF214668461BF02D
:10160000C5FF0346214604F11000103C002BF2D127
:1016100069461BF057FF68461BF004FF04B010BD7D
:10162000884235D02DE9F04300F11003994285B08E
:101630000746894624D000F12006A6F11004394659
:1016400020461BF0A3FFF0B1214668461BF0D4FEF4
:10165000E31B002BB0464FEA231506DD2046103C65
:1016600021461BF02FFF013DF8D1694638461BF09B
:1016700029FF68461BF0D6FEC14506F11006DCD1F5
:1016800005B0BDE8F0832046FFF7ACFFB046F3E7B6
:10169000704700BF10B50446C06F074B236008B108
:1016A0001CF004FA2046FBF7BBF920464FF4B0715A
:1016B0001CF0FEF9204610BDD099040070B5044618
:1016C0008AB00120F1F73EFF2D4BDB6D07EE900A4B
:1016D00023F00203012BB8EE677A46D0D4ED246ADA
:1016E000F2EE047AE7EE267A0026C4ED167A17EEBB
:1016F000900A27F0F3FA234C02460B4603A822492E
:101700002CF03EFA20682149083015F003FF2068CC
:101710001F49036825225B68C0F8B8200322984758
:1017200020680021083015F0DBFF256803A8C5F804
:10173000B8602DF0C5FB2B68024603A95B682846FC
:10174000984720680D22462300923146083015F054
:10175000F5FF20680121083015F0C2FF20680D490F
:10176000083015F0D7FE0AB070BDD4ED256AFAEE48
:10177000047AE7EE267A94ED177A77EE877AB3E764
:101780001858FF1F305EFF1F5C990400245D0500A0
:10179000FCBB0400104A050030B5044685B0114674
:1017A0001BF00CFEA368142B1EDD182B28DD002275
:1017B000043B214668461BF047FF694620461BF064
:1017C00081FE68461BF02EFEA2682146143A684648
:1017D0001BF00EFF694620461BF074FE68461BF0A6
:1017E00021FE204605B030BDFBD0094D29462046DC
:1017F0001BF0BEFEA368132BF8DD204605B030BDFC
:1018000014230022214668461BF01EFFE2E700BFBA
:1018100004A404002DE9F047574FDFF86C9105460A
:10182000386888B088460830544915F073FE14248F
:101830002246494605A82CF0A3F9386805A90830C6
:1018400015F09CFE1FFA84FA3E682B78A6F8BA3091
:1018500000EBD070AAEB6002A6F8B82005A82DF026
:101860002FFB336802465B6805A9304698472A7803
:10187000386802F108030093063253465146083097
:10188000143415F05BFF8C2CD2D138683C493D4CA8
:10189000083015F03FFE2A783868093200922B8B09
:1018A000A98A083015F04AFF2A78AB8A386802F115
:1018B0000801083000910632194615F03FFF2A78DA
:1018C0002B8B386802F10801083000910632194666
:1018D00015F034FF1FFA88F82A78386808F1FF33CA
:1018E0009BB202F10C01083000910632194615F046
:1018F00025FF2A78386802F10C034146083000932E
:101900000632434615F01AFF2A78386808F10108B4
:101910001FFA88F302F10C010830009106321946D3
:1019200015F00CFF2A783868E9682B8A009301913A
:1019300010230D320021083014F0DEFD23680393DC
:10194000AA68039B9A4202D308B0BDE8F087E96811
:10195000EA6901F11000103A2CF0BCFBE868102293
:1019600000212CF033FC23680493049A6B68134421
:10197000AB6008B0BDE8F087305EFF1F5C3C05003F
:10198000104A0500E869FF1F58B004002DE9F04F28
:1019900095B090F8AD50044614F0B8FB854240F085
:1019A0006381A44EA44DE26C02F5004393F85C10F1
:1019B000002940F08A8193F85C10002900F08C80A7
:1019C000A16E022940F0278193F85C308BB995F81D
:1019D0008431002B40F05082E36800275868A766E6
:1019E000394618F0DBFE95F88531002B40F04A822D
:1019F000E26C05AB0093104603AB04AA02A906F003
:101A000075FC636E0299049A8B420DDA07EE902AF8
:101A100094ED287AF8EEE77AB8EE477AB4EEE77AF2
:101A2000F1EE10FA40F2C780844FD4F898103A686B
:101A30000792079A9142C0F05C81013B636695F87A
:101A40008531002B61D0E16C01F5004301F51640B2
:101A5000B3F810A05B8A1FFA8AFA9BB29A4500F18C
:101A6000400044DC0AF5164B0BF13F0BDFF8F49114
:101A70008B440DF1340807E001F500430AF1010A37
:101A80005B8A9BB253452FDB1BF8012FEB6C9A420C
:101A9000F2DB0FFA8AF004F089FAFDEEC07A99E8D9
:101AA000030017EE903A002B88E8030017EE902A07
:101AB000B8BFDA1D584200F0070003F0070358BF13
:101AC00043425033E16FD2106B44885C13F81C3CE6
:101AD00003438B54E16CCFE793F85C30002B88D143
:101AE000A36E022B85D172E701F51640403000212C
:101AF00080222CF06BFBD4ED167AFDEEE77A04F130
:101B0000700017EE901AFFF785FE30684C490830D8
:101B100015F000FD2B6B30685622042BC0F8B8205E
:101B200000F0E180062B00F0D880036845495B682F
:101B3000032298473068444BC0F8B83003684349E3
:101B40005B680322984730684149083015F0E2FC91
:101B5000F1F78CFE20B194F8C030002B00F0DF804C
:101B600094ED160AE06C06F061FD3B680993099B51
:101B7000D4F89C209A421BD2364B5878002800F0AB
:101B80000881354D2B789BB9344B1B78002B40F0E6
:101B900061810120F1F708FD3B680B930B9B7D33BE
:101BA000C4F89C302046F1F777FE0120F1F78CFC59
:101BB00015B0BDE8F08F94ED297AB8EE477AB4EE0F
:101BC000E77AF1EE10FAFFF62FAFB2EE0E7AF4EEEE
:101BD000C77AF1EE10FA2166616608DB9FED207A84
:101BE000F4EEC77AF1EE10FA98BFC4ED177A134FEE
:101BF0003B680693069B03F59C530833C4F8983062
:101C0000E3680121986918F0C9FDE3680121D869EA
